{
  "_format": "hh-sol-artifact-1",
  "contractName": "XOLE",
  "sourceName": "contracts/udex/XOLE.sol",
  "abi": [
    {
      "inputs": [],
      "stateMutability": "nonpayable",
      "type": "constructor"
    },
    {
      "anonymous": false,
      "inputs": [
        {
          "indexed": true,
          "internalType": "address",
          "name": "delegator",
          "type": "address"
        },
        {
          "indexed": true,
          "internalType": "address",
          "name": "fromDelegate",
          "type": "address"
        },
        {
          "indexed": true,
          "internalType": "address",
          "name": "toDelegate",
          "type": "address"
        }
      ],
      "name": "DelegateChanged",
      "type": "event"
    },
    {
      "anonymous": false,
      "inputs": [
        {
          "indexed": true,
          "internalType": "address",
          "name": "delegate",
          "type": "address"
        },
        {
          "indexed": false,
          "internalType": "uint256",
          "name": "previousBalance",
          "type": "uint256"
        },
        {
          "indexed": false,
          "internalType": "uint256",
          "name": "newBalance",
          "type": "uint256"
        }
      ],
      "name": "DelegateVotesChanged",
      "type": "event"
    },
    {
      "anonymous": false,
      "inputs": [
        {
          "indexed": true,
          "internalType": "address",
          "name": "provider",
          "type": "address"
        },
        {
          "indexed": false,
          "internalType": "uint256",
          "name": "value",
          "type": "uint256"
        },
        {
          "indexed": false,
          "internalType": "uint256",
          "name": "unlocktime",
          "type": "uint256"
        },
        {
          "indexed": false,
          "internalType": "int128",
          "name": "type_",
          "type": "int128"
        },
        {
          "indexed": false,
          "internalType": "uint256",
          "name": "prevBalance",
          "type": "uint256"
        },
        {
          "indexed": false,
          "internalType": "uint256",
          "name": "balance",
          "type": "uint256"
        }
      ],
      "name": "Deposit",
      "type": "event"
    },
    {
      "anonymous": false,
      "inputs": [
        {
          "indexed": true,
          "internalType": "address",
          "name": "delegatee",
          "type": "address"
        },
        {
          "indexed": true,
          "internalType": "uint256",
          "name": "nonce",
          "type": "uint256"
        },
        {
          "indexed": false,
          "internalType": "uint256",
          "name": "expiry",
          "type": "uint256"
        },
        {
          "indexed": false,
          "internalType": "uint8",
          "name": "v",
          "type": "uint8"
        },
        {
          "indexed": false,
          "internalType": "bytes32",
          "name": "r",
          "type": "bytes32"
        },
        {
          "indexed": false,
          "internalType": "bytes32",
          "name": "s",
          "type": "bytes32"
        }
      ],
      "name": "FailedDelegateBySig",
      "type": "event"
    },
    {
      "anonymous": false,
      "inputs": [
        {
          "indexed": false,
          "internalType": "address",
          "name": "oldAdmin",
          "type": "address"
        },
        {
          "indexed": false,
          "internalType": "address",
          "name": "newAdmin",
          "type": "address"
        }
      ],
      "name": "NewAdmin",
      "type": "event"
    },
    {
      "anonymous": false,
      "inputs": [
        {
          "indexed": false,
          "internalType": "address",
          "name": "oldPendingAdmin",
          "type": "address"
        },
        {
          "indexed": false,
          "internalType": "address",
          "name": "newPendingAdmin",
          "type": "address"
        }
      ],
      "name": "NewPendingAdmin",
      "type": "event"
    },
    {
      "anonymous": false,
      "inputs": [
        {
          "indexed": false,
          "internalType": "address",
          "name": "fromToken",
          "type": "address"
        },
        {
          "indexed": false,
          "internalType": "uint256",
          "name": "convertAmount",
          "type": "uint256"
        },
        {
          "indexed": false,
          "internalType": "uint256",
          "name": "reward",
          "type": "uint256"
        }
      ],
      "name": "RewardAdded",
      "type": "event"
    },
    {
      "anonymous": false,
      "inputs": [
        {
          "indexed": false,
          "internalType": "address",
          "name": "fromToken",
          "type": "address"
        },
        {
          "indexed": false,
          "internalType": "address",
          "name": "toToken",
          "type": "address"
        },
        {
          "indexed": false,
          "internalType": "uint256",
          "name": "convertAmount",
          "type": "uint256"
        },
        {
          "indexed": false,
          "internalType": "uint256",
          "name": "returnAmount",
          "type": "uint256"
        }
      ],
      "name": "RewardConvert",
      "type": "event"
    },
    {
      "anonymous": false,
      "inputs": [
        {
          "indexed": false,
          "internalType": "address",
          "name": "paidTo",
          "type": "address"
        },
        {
          "indexed": false,
          "internalType": "uint256",
          "name": "amount",
          "type": "uint256"
        }
      ],
      "name": "RewardPaid",
      "type": "event"
    },
    {
      "anonymous": false,
      "inputs": [
        {
          "indexed": false,
          "internalType": "uint256",
          "name": "prevSupply",
          "type": "uint256"
        },
        {
          "indexed": false,
          "internalType": "uint256",
          "name": "supply",
          "type": "uint256"
        }
      ],
      "name": "Supply",
      "type": "event"
    },
    {
      "anonymous": false,
      "inputs": [
        {
          "indexed": true,
          "internalType": "address",
          "name": "from",
          "type": "address"
        },
        {
          "indexed": true,
          "internalType": "address",
          "name": "to",
          "type": "address"
        },
        {
          "indexed": false,
          "internalType": "uint256",
          "name": "value",
          "type": "uint256"
        }
      ],
      "name": "Transfer",
      "type": "event"
    },
    {
      "anonymous": false,
      "inputs": [
        {
          "indexed": true,
          "internalType": "address",
          "name": "provider",
          "type": "address"
        },
        {
          "indexed": false,
          "internalType": "uint256",
          "name": "value",
          "type": "uint256"
        },
        {
          "indexed": false,
          "internalType": "uint256",
          "name": "prevBalance",
          "type": "uint256"
        },
        {
          "indexed": false,
          "internalType": "uint256",
          "name": "balance",
          "type": "uint256"
        }
      ],
      "name": "Withdraw",
      "type": "event"
    },
    {
      "inputs": [],
      "name": "DELEGATION_TYPEHASH",
      "outputs": [
        {
          "internalType": "bytes32",
          "name": "",
          "type": "bytes32"
        }
      ],
      "stateMutability": "view",
      "type": "function"
    },
    {
      "inputs": [],
      "name": "DOMAIN_TYPEHASH",
      "outputs": [
        {
          "internalType": "bytes32",
          "name": "",
          "type": "bytes32"
        }
      ],
      "stateMutability": "view",
      "type": "function"
    },
    {
      "inputs": [],
      "name": "acceptAdmin",
      "outputs": [],
      "stateMutability": "nonpayable",
      "type": "function"
    },
    {
      "inputs": [],
      "name": "admin",
      "outputs": [
        {
          "internalType": "address payable",
          "name": "",
          "type": "address"
        }
      ],
      "stateMutability": "view",
      "type": "function"
    },
    {
      "inputs": [
        {
          "internalType": "address",
          "name": "addr",
          "type": "address"
        }
      ],
      "name": "balanceOf",
      "outputs": [
        {
          "internalType": "uint256",
          "name": "",
          "type": "uint256"
        }
      ],
      "stateMutability": "view",
      "type": "function"
    },
    {
      "inputs": [
        {
          "internalType": "address",
          "name": "",
          "type": "address"
        },
        {
          "internalType": "uint32",
          "name": "",
          "type": "uint32"
        }
      ],
      "name": "checkpoints",
      "outputs": [
        {
          "internalType": "uint32",
          "name": "fromBlock",
          "type": "uint32"
        },
        {
          "internalType": "uint256",
          "name": "votes",
          "type": "uint256"
        }
      ],
      "stateMutability": "view",
      "type": "function"
    },
    {
      "inputs": [],
      "name": "claimableTokenAmount",
      "outputs": [
        {
          "internalType": "uint256",
          "name": "",
          "type": "uint256"
        }
      ],
      "stateMutability": "view",
      "type": "function"
    },
    {
      "inputs": [
        {
          "internalType": "uint256",
          "name": "amount",
          "type": "uint256"
        },
        {
          "internalType": "uint256",
          "name": "minBuyAmount",
          "type": "uint256"
        },
        {
          "internalType": "bytes",
          "name": "dexData",
          "type": "bytes"
        }
      ],
      "name": "convertToSharingToken",
      "outputs": [],
      "stateMutability": "nonpayable",
      "type": "function"
    },
    {
      "inputs": [
        {
          "internalType": "uint256",
          "name": "_value",
          "type": "uint256"
        },
        {
          "internalType": "uint256",
          "name": "_unlock_time",
          "type": "uint256"
        }
      ],
      "name": "create_lock",
      "outputs": [],
      "stateMutability": "nonpayable",
      "type": "function"
    },
    {
      "inputs": [
        {
          "internalType": "address",
          "name": "to",
          "type": "address"
        },
        {
          "internalType": "uint256",
          "name": "_value",
          "type": "uint256"
        },
        {
          "internalType": "uint256",
          "name": "_unlock_time",
          "type": "uint256"
        }
      ],
      "name": "create_lock_for",
      "outputs": [],
      "stateMutability": "nonpayable",
      "type": "function"
    },
    {
      "inputs": [],
      "name": "decimals",
      "outputs": [
        {
          "internalType": "uint8",
          "name": "",
          "type": "uint8"
        }
      ],
      "stateMutability": "view",
      "type": "function"
    },
    {
      "inputs": [
        {
          "internalType": "address",
          "name": "delegatee",
          "type": "address"
        }
      ],
      "name": "delegate",
      "outputs": [],
      "stateMutability": "nonpayable",
      "type": "function"
    },
    {
      "inputs": [
        {
          "internalType": "address",
          "name": "delegatee",
          "type": "address"
        },
        {
          "internalType": "uint256",
          "name": "nonce",
          "type": "uint256"
        },
        {
          "internalType": "uint256",
          "name": "expiry",
          "type": "uint256"
        },
        {
          "internalType": "uint8",
          "name": "v",
          "type": "uint8"
        },
        {
          "internalType": "bytes32",
          "name": "r",
          "type": "bytes32"
        },
        {
          "internalType": "bytes32",
          "name": "s",
          "type": "bytes32"
        }
      ],
      "name": "delegateBySig",
      "outputs": [],
      "stateMutability": "nonpayable",
      "type": "function"
    },
    {
      "inputs": [
        {
          "internalType": "address",
          "name": "delegatee",
          "type": "address"
        },
        {
          "internalType": "uint256[]",
          "name": "nonce",
          "type": "uint256[]"
        },
        {
          "internalType": "uint256[]",
          "name": "expiry",
          "type": "uint256[]"
        },
        {
          "internalType": "uint8[]",
          "name": "v",
          "type": "uint8[]"
        },
        {
          "internalType": "bytes32[]",
          "name": "r",
          "type": "bytes32[]"
        },
        {
          "internalType": "bytes32[]",
          "name": "s",
          "type": "bytes32[]"
        }
      ],
      "name": "delegateBySigs",
      "outputs": [],
      "stateMutability": "nonpayable",
      "type": "function"
    },
    {
      "inputs": [
        {
          "internalType": "address",
          "name": "",
          "type": "address"
        }
      ],
      "name": "delegates",
      "outputs": [
        {
          "internalType": "address",
          "name": "",
          "type": "address"
        }
      ],
      "stateMutability": "view",
      "type": "function"
    },
    {
      "inputs": [],
      "name": "dev",
      "outputs": [
        {
          "internalType": "address",
          "name": "",
          "type": "address"
        }
      ],
      "stateMutability": "view",
      "type": "function"
    },
    {
      "inputs": [],
      "name": "devFund",
      "outputs": [
        {
          "internalType": "uint256",
          "name": "",
          "type": "uint256"
        }
      ],
      "stateMutability": "view",
      "type": "function"
    },
    {
      "inputs": [],
      "name": "devFundRatio",
      "outputs": [
        {
          "internalType": "uint256",
          "name": "",
          "type": "uint256"
        }
      ],
      "stateMutability": "view",
      "type": "function"
    },
    {
      "inputs": [],
      "name": "developer",
      "outputs": [
        {
          "internalType": "address payable",
          "name": "",
          "type": "address"
        }
      ],
      "stateMutability": "view",
      "type": "function"
    },
    {
      "inputs": [],
      "name": "dexAgg",
      "outputs": [
        {
          "internalType": "contract DexAggregatorInterface",
          "name": "",
          "type": "address"
        }
      ],
      "stateMutability": "view",
      "type": "function"
    },
    {
      "inputs": [
        {
          "internalType": "address",
          "name": "account",
          "type": "address"
        }
      ],
      "name": "getCurrentVotes",
      "outputs": [
        {
          "internalType": "uint256",
          "name": "",
          "type": "uint256"
        }
      ],
      "stateMutability": "view",
      "type": "function"
    },
    {
      "inputs": [
        {
          "internalType": "address",
          "name": "owner",
          "type": "address"
        }
      ],
      "name": "getLockedAmount",
      "outputs": [
        {
          "internalType": "uint256",
          "name": "",
          "type": "uint256"
        }
      ],
      "stateMutability": "view",
      "type": "function"
    },
    {
      "inputs": [
        {
          "internalType": "address",
          "name": "account",
          "type": "address"
        },
        {
          "internalType": "uint256",
          "name": "blockNumber",
          "type": "uint256"
        }
      ],
      "name": "getPriorVotes",
      "outputs": [
        {
          "internalType": "uint256",
          "name": "",
          "type": "uint256"
        }
      ],
      "stateMutability": "view",
      "type": "function"
    },
    {
      "inputs": [],
      "name": "implementation",
      "outputs": [
        {
          "internalType": "address",
          "name": "",
          "type": "address"
        }
      ],
      "stateMutability": "view",
      "type": "function"
    },
    {
      "inputs": [
        {
          "internalType": "uint256",
          "name": "_value",
          "type": "uint256"
        }
      ],
      "name": "increase_amount",
      "outputs": [],
      "stateMutability": "nonpayable",
      "type": "function"
    },
    {
      "inputs": [
        {
          "internalType": "address",
          "name": "to",
          "type": "address"
        },
        {
          "internalType": "uint256",
          "name": "_value",
          "type": "uint256"
        }
      ],
      "name": "increase_amount_for",
      "outputs": [],
      "stateMutability": "nonpayable",
      "type": "function"
    },
    {
      "inputs": [
        {
          "internalType": "uint256",
          "name": "_unlock_time",
          "type": "uint256"
        }
      ],
      "name": "increase_unlock_time",
      "outputs": [],
      "stateMutability": "nonpayable",
      "type": "function"
    },
    {
      "inputs": [
        {
          "internalType": "address",
          "name": "_oleToken",
          "type": "address"
        },
        {
          "internalType": "contract DexAggregatorInterface",
          "name": "_dexAgg",
          "type": "address"
        },
        {
          "internalType": "uint256",
          "name": "_devFundRatio",
          "type": "uint256"
        },
        {
          "internalType": "address",
          "name": "_dev",
          "type": "address"
        }
      ],
      "name": "initialize",
      "outputs": [],
      "stateMutability": "nonpayable",
      "type": "function"
    },
    {
      "inputs": [],
      "name": "lastUpdateTime",
      "outputs": [
        {
          "internalType": "uint256",
          "name": "",
          "type": "uint256"
        }
      ],
      "stateMutability": "view",
      "type": "function"
    },
    {
      "inputs": [
        {
          "internalType": "address",
          "name": "",
          "type": "address"
        }
      ],
      "name": "locked",
      "outputs": [
        {
          "internalType": "uint256",
          "name": "amount",
          "type": "uint256"
        },
        {
          "internalType": "uint256",
          "name": "end",
          "type": "uint256"
        }
      ],
      "stateMutability": "view",
      "type": "function"
    },
    {
      "inputs": [],
      "name": "name",
      "outputs": [
        {
          "internalType": "string",
          "name": "",
          "type": "string"
        }
      ],
      "stateMutability": "view",
      "type": "function"
    },
    {
      "inputs": [
        {
          "internalType": "address",
          "name": "",
          "type": "address"
        }
      ],
      "name": "nonces",
      "outputs": [
        {
          "internalType": "uint256",
          "name": "",
          "type": "uint256"
        }
      ],
      "stateMutability": "view",
      "type": "function"
    },
    {
      "inputs": [
        {
          "internalType": "address",
          "name": "",
          "type": "address"
        }
      ],
      "name": "numCheckpoints",
      "outputs": [
        {
          "internalType": "uint32",
          "name": "",
          "type": "uint32"
        }
      ],
      "stateMutability": "view",
      "type": "function"
    },
    {
      "inputs": [],
      "name": "oleLpStakeAutomator",
      "outputs": [
        {
          "internalType": "address",
          "name": "",
          "type": "address"
        }
      ],
      "stateMutability": "view",
      "type": "function"
    },
    {
      "inputs": [],
      "name": "oleLpStakeToken",
      "outputs": [
        {
          "internalType": "contract IERC20",
          "name": "",
          "type": "address"
        }
      ],
      "stateMutability": "view",
      "type": "function"
    },
    {
      "inputs": [],
      "name": "oleToken",
      "outputs": [
        {
          "internalType": "contract IERC20",
          "name": "",
          "type": "address"
        }
      ],
      "stateMutability": "view",
      "type": "function"
    },
    {
      "inputs": [],
      "name": "pendingAdmin",
      "outputs": [
        {
          "internalType": "address payable",
          "name": "",
          "type": "address"
        }
      ],
      "stateMutability": "view",
      "type": "function"
    },
    {
      "inputs": [],
      "name": "rewardPerTokenStored",
      "outputs": [
        {
          "internalType": "uint256",
          "name": "",
          "type": "uint256"
        }
      ],
      "stateMutability": "view",
      "type": "function"
    },
    {
      "inputs": [
        {
          "internalType": "address",
          "name": "",
          "type": "address"
        }
      ],
      "name": "rewards",
      "outputs": [
        {
          "internalType": "uint256",
          "name": "",
          "type": "uint256"
        }
      ],
      "stateMutability": "view",
      "type": "function"
    },
    {
      "inputs": [
        {
          "internalType": "address",
          "name": "newDev",
          "type": "address"
        }
      ],
      "name": "setDev",
      "outputs": [],
      "stateMutability": "nonpayable",
      "type": "function"
    },
    {
      "inputs": [
        {
          "internalType": "uint256",
          "name": "newRatio",
          "type": "uint256"
        }
      ],
      "name": "setDevFundRatio",
      "outputs": [],
      "stateMutability": "nonpayable",
      "type": "function"
    },
    {
      "inputs": [
        {
          "internalType": "contract DexAggregatorInterface",
          "name": "newDexAgg",
          "type": "address"
        }
      ],
      "name": "setDexAgg",
      "outputs": [],
      "stateMutability": "nonpayable",
      "type": "function"
    },
    {
      "inputs": [
        {
          "internalType": "address",
          "name": "_oleLpStakeAutomator",
          "type": "address"
        }
      ],
      "name": "setOleLpStakeAutomator",
      "outputs": [],
      "stateMutability": "nonpayable",
      "type": "function"
    },
    {
      "inputs": [
        {
          "internalType": "address",
          "name": "_oleLpStakeToken",
          "type": "address"
        }
      ],
      "name": "setOleLpStakeToken",
      "outputs": [],
      "stateMutability": "nonpayable",
      "type": "function"
    },
    {
      "inputs": [
        {
          "internalType": "address payable",
          "name": "newPendingAdmin",
          "type": "address"
        }
      ],
      "name": "setPendingAdmin",
      "outputs": [],
      "stateMutability": "nonpayable",
      "type": "function"
    },
    {
      "inputs": [
        {
          "internalType": "address",
          "name": "_shareToken",
          "type": "address"
        }
      ],
      "name": "setShareToken",
      "outputs": [],
      "stateMutability": "nonpayable",
      "type": "function"
    },
    {
      "inputs": [],
      "name": "shareToken",
      "outputs": [
        {
          "internalType": "contract IERC20",
          "name": "",
          "type": "address"
        }
      ],
      "stateMutability": "view",
      "type": "function"
    },
    {
      "inputs": [],
      "name": "shareableTokenAmount",
      "outputs": [
        {
          "internalType": "uint256",
          "name": "",
          "type": "uint256"
        }
      ],
      "stateMutability": "view",
      "type": "function"
    },
    {
      "inputs": [],
      "name": "symbol",
      "outputs": [
        {
          "internalType": "string",
          "name": "",
          "type": "string"
        }
      ],
      "stateMutability": "view",
      "type": "function"
    },
    {
      "inputs": [],
      "name": "totalLocked",
      "outputs": [
        {
          "internalType": "uint256",
          "name": "",
          "type": "uint256"
        }
      ],
      "stateMutability": "view",
      "type": "function"
    },
    {
      "inputs": [],
      "name": "totalRewarded",
      "outputs": [
        {
          "internalType": "uint256",
          "name": "",
          "type": "uint256"
        }
      ],
      "stateMutability": "view",
      "type": "function"
    },
    {
      "inputs": [],
      "name": "totalStaked",
      "outputs": [
        {
          "internalType": "uint256",
          "name": "",
          "type": "uint256"
        }
      ],
      "stateMutability": "view",
      "type": "function"
    },
    {
      "inputs": [],
      "name": "totalSupply",
      "outputs": [
        {
          "internalType": "uint256",
          "name": "",
          "type": "uint256"
        }
      ],
      "stateMutability": "view",
      "type": "function"
    },
    {
      "inputs": [
        {
          "internalType": "uint256",
          "name": "blockNumber",
          "type": "uint256"
        }
      ],
      "name": "totalSupplyAt",
      "outputs": [
        {
          "internalType": "uint256",
          "name": "",
          "type": "uint256"
        }
      ],
      "stateMutability": "view",
      "type": "function"
    },
    {
      "inputs": [
        {
          "internalType": "uint256",
          "name": "",
          "type": "uint256"
        }
      ],
      "name": "totalSupplyCheckpoints",
      "outputs": [
        {
          "internalType": "uint32",
          "name": "fromBlock",
          "type": "uint32"
        },
        {
          "internalType": "uint256",
          "name": "votes",
          "type": "uint256"
        }
      ],
      "stateMutability": "view",
      "type": "function"
    },
    {
      "inputs": [],
      "name": "totalSupplyNumCheckpoints",
      "outputs": [
        {
          "internalType": "uint256",
          "name": "",
          "type": "uint256"
        }
      ],
      "stateMutability": "view",
      "type": "function"
    },
    {
      "inputs": [
        {
          "internalType": "address",
          "name": "",
          "type": "address"
        }
      ],
      "name": "userRewardPerTokenPaid",
      "outputs": [
        {
          "internalType": "uint256",
          "name": "",
          "type": "uint256"
        }
      ],
      "stateMutability": "view",
      "type": "function"
    },
    {
      "inputs": [],
      "name": "withdraw",
      "outputs": [],
      "stateMutability": "nonpayable",
      "type": "function"
    },
    {
      "inputs": [
        {
          "internalType": "address",
          "name": "to",
          "type": "address"
        }
      ],
      "name": "withdrawCommunityFund",
      "outputs": [],
      "stateMutability": "nonpayable",
      "type": "function"
    },
    {
      "inputs": [],
      "name": "withdrawDevFund",
      "outputs": [],
      "stateMutability": "nonpayable",
      "type": "function"
    },
    {
      "inputs": [
        {
          "internalType": "address",
          "name": "to",
          "type": "address"
        }
      ],
      "name": "withdrawOle",
      "outputs": [],
      "stateMutability": "nonpayable",
      "type": "function"
    },
    {
      "inputs": [
        {
          "internalType": "address",
          "name": "owner",
          "type": "address"
        }
      ],
      "name": "withdraw_automator",
      "outputs": [],
      "stateMutability": "nonpayable",
      "type": "function"
    },
    {
      "inputs": [],
      "name": "withdrewReward",
      "outputs": [
        {
          "internalType": "uint256",
          "name": "",
          "type": "uint256"
        }
      ],
      "stateMutability": "view",
      "type": "function"
    }
  ],
  "bytecode": "0x608060405234801561001057600080fd5b50600380546001600160a01b031916331790556001601a55614415806100376000396000f3fe608060405234801561001057600080fd5b50600436106103c55760003560e01c8063782d6fe1116101ff578063be2030941161011a578063d8fdb23a116100ad578063e86483761161007c578063e86483761461074c578063eff7a6121461075f578063f1127ed814610772578063f851a44014610785576103c5565b8063d8fdb23a14610721578063df136d6514610734578063df589f3a1461073c578063e7a324dc14610744576103c5565b8063cbf9fe5f116100e9578063cbf9fe5f146106d2578063cdf91e7f146106f3578063d32f771e146106fb578063d477f05f1461070e576103c5565b8063be2030941461069c578063c3cda520146106af578063c8f33c91146106c2578063ca4b208b146106ca576103c5565b8063929ec53711610192578063b40f603411610161578063b40f60341461064d578063b4b5ea5714610655578063b58c3ab414610668578063b66e4cdf1461067b576103c5565b8063929ec5371461061f57806395d89b41146103e8578063981b24d014610632578063aed29d0714610645576103c5565b80638471eb44116101ce5780638471eb44146105e95780638b876347146105f15780638d32e3931461060457806391cca3db14610617576103c5565b8063782d6fe1146105b35780637d532d73146105c65780637ecebe00146105ce578063817b1cd2146105e1576103c5565b806340f797bb116102ef578063587cde1e1161028257806365fc38731161025157806365fc3873146105655780636c9fa59e146105785780636fcfff451461058057806370a08231146105a0576103c5565b8063587cde1e146105245780635c19a95c146105375780635c60da1b1461054a57806364d16ac414610552576103c5565b8063497fb554116102be578063497fb554146104ee5780634dd18bf51461050157806353e083a814610514578063568914121461051c576103c5565b806340f797bb146104ad5780634390d2a8146104c057806348b3ec11146104c85780634957677c146104db576103c5565b806326476129116103675780633be60f2e116103365780633be60f2e146104775780633ccfd60b1461047f5780633e173b29146104875780633e842df51461049a576103c5565b8063264761291461044a5780632678224714610452578063313ce5671461045a578063329381621461046f576103c5565b8063071d6827116103a3578063071d68271461041d5780630e18b6811461043257806318160ddd1461043a57806320606b7014610442576103c5565b8063060d8397146103ca57806306fdde03146103e85780630700037d146103fd575b600080fd5b6103d261078d565b6040516103df91906139bc565b60405180910390f35b6103f061079c565b6040516103df9190613ad8565b61041061040b36600461362a565b6107bc565b6040516103df9190613a69565b61043061042b36600461362a565b6107ce565b005b610430610872565b610410610972565b610410610978565b61041061099c565b6103d26109ab565b6104626109ba565b6040516103df9190614244565b6103d26109bf565b6104106109ce565b6104306109d4565b61043061049536600461379e565b610a30565b6104306104a836600461386b565b610ae6565b6104306104bb36600461362a565b610b02565b610410610b8c565b6104306104d636600461362a565b610b92565b6104306104e936600461386b565b610bbc565b6104306104fc36600461362a565b610c2d565b61043061050f36600461362a565b610ca6565b6103d2610d11565b610410610d20565b6103d261053236600461362a565b610d26565b61043061054536600461362a565b610d41565b6103d2610d71565b6104306105603660046138bc565b610d80565b61043061057336600461389b565b61122c565b6103d26112ca565b61059361058e36600461362a565b6112d9565b6040516103df919061421d565b6104106105ae36600461362a565b6112f1565b6104106105c1366004613773565b611310565b6104106114f5565b6104106105dc36600461362a565b6114ff565b610410611511565b610410611517565b6104106105ff36600461362a565b61151d565b61043061061236600461362a565b61152f565b6103d26115ea565b61041061062d36600461362a565b6115f9565b61041061064036600461386b565b611614565b61041061174b565b610430611751565b61041061066336600461362a565b6117c0565b61043061067636600461362a565b611824565b61068e61068936600461386b565b6118b8565b6040516103df92919061422e565b6104306106aa366004613721565b6118da565b6104306106bd3660046137d2565b611994565b6104106119a2565b6103d26119a8565b6106e56106e036600461362a565b6119b7565b6040516103df9291906141ab565b6103d26119d0565b61043061070936600461362a565b6119df565b61043061071c36600461362a565b611a2f565b61043061072f366004613646565b611a7f565b610410611c91565b610410611c97565b610410611c9d565b61043061075a366004613773565b611cc1565b61043061076d36600461386b565b611d29565b61068e61078036600461382b565b611e53565b6103d2611e80565b6008546001600160a01b031681565b60405180604001604052806004815260200163784f4c4560e01b81525081565b600d6020526000908152604090205481565b6107d6611e8f565b6009546040516370a0823160e01b815261086f9183916001600160a01b03909116906370a082319061080c9030906004016139bc565b60206040518083038186803b15801561082457600080fd5b505afa158015610838573d6000803e3d6000fd5b505050506040513d601f19601f8201168201806040525081019061085c9190613883565b6009546001600160a01b03169190611ee7565b50565b6002546001600160a01b031633146108bb5760405162461bcd60e51b81526004018080602001828103825260228152602001806142f66022913960400191505060405180910390fd5b60018054600280546001600160a01b038082166001600160a01b031980861682179687905590921690925560408051938316808552949092166020840152815190927ff9ffabca9c8276e99321725bcb43fb076a6c66a54b7f21c4e8146d8519b417dc92908290030190a1600254604080516001600160a01b038085168252909216602083015280517fca4f2f25d0898edd99413412fb94012f9e54ec8142f9b093e7720646a95b16a99281900390910190a15050565b60045481565b7f8cad95687ba82c2ce50e74f7b754645e5117c3a5bec8151c0726d5857980a86681565b60006109a6611f3e565b905090565b6002546001600160a01b031681565b601281565b601d546001600160a01b031681565b60165481565b6002601a541415610a1a576040805162461bcd60e51b815260206004820152601f60248201526000805160206142d6833981519152604482015290519081900360640190fd5b6002601a55610a293380611ff1565b6001601a55565b6002601a541415610a76576040805162461bcd60e51b815260206004820152601f60248201526000805160206142d6833981519152604482015290519081900360640190fd5b6002601a556000610a88848484612138565b9050610adb84848360076000896001600160a01b03166001600160a01b0316815260200190815260200160002060405180604001604052908160008201548152602001600182015481525050600161220d565b50506001601a555050565b610aee611e8f565b612710811115610afd57600080fd5b600c55565b610b0a611e8f565b6001600160a01b038116610b395760405162461bcd60e51b8152600401610b3090613cfa565b60405180910390fd5b600b54158015610b4e5750610b4c61239f565b155b610b6a5760405162461bcd60e51b8152600401610b30906140fa565b601b80546001600160a01b0319166001600160a01b0392909216919091179055565b600b5481565b610b9a611e8f565b600880546001600160a01b0319166001600160a01b0392909216919091179055565b6002601a541415610c02576040805162461bcd60e51b815260206004820152601f60248201526000805160206142d6833981519152604482015290519081900360640190fd5b6002601a556000610c1333836123b8565b9050610c243383600084600261220d565b50506001601a55565b610c35611e8f565b6001600160a01b038116610c5b5760405162461bcd60e51b8152600401610b3090613cfa565b601c546001600160a01b031615610c845760405162461bcd60e51b8152600401610b30906140d5565b601c80546001600160a01b0319166001600160a01b0392909216919091179055565b610cae611e8f565b600280546001600160a01b038381166001600160a01b0319831681179093556040805191909216808252602082019390935281517fca4f2f25d0898edd99413412fb94012f9e54ec8142f9b093e7720646a95b16a9929181900390910190a15050565b6009546001600160a01b031681565b60055481565b6014602052600090815260409020546001600160a01b031681565b6001600160a01b038116610d675760405162461bcd60e51b8152600401610b3090613e56565b61086f338261244f565b6000546001600160a01b031681565b6001546001600160a01b0316331480610da357506003546001600160a01b031633145b610dde5760405162461bcd60e51b815260040180806020018281038252602181526020018061435f6021913960400191505060405180910390fd5b600080825160001415610dfe57601b546001600160a01b03169150610e98565b610e07836124dc565b15610e50576000610e17846124f4565b905080600081518110610e2657fe5b6020026020010151925080600182510381518110610e4057fe5b6020026020010151915050610e98565b6000610e5b846125d5565b905080600081518110610e6a57fe5b602002602001015160000151925080600182510381518110610e8857fe5b6020026020010151602001519150505b601c546001600160a01b0383811691161415610f5d57600554601c546040516370a0823160e01b81528792610f3f9290916001600160a01b03909116906370a0823190610ee99030906004016139bc565b60206040518083038186803b158015610f0157600080fd5b505afa158015610f15573d6000803e3d6000fd5b505050506040513d601f19601f82011682018060405250810190610f399190613883565b90612766565b1015610f5d5760405162461bcd60e51b8152600401610b3090613c99565b601b546000906001600160a01b0384811691161415610fab576000610f80611f3e565b905086811015610fa25760405162461bcd60e51b8152600401610b3090613bab565b86915050611124565b6040516370a0823160e01b815286906001600160a01b038516906370a0823190610fd99030906004016139bc565b60206040518083038186803b158015610ff157600080fd5b505afa158015611005573d6000803e3d6000fd5b505050506040513d601f19601f820116820180604052508101906110299190613883565b10156110475760405162461bcd60e51b8152600401610b3090613ed0565b600854611062906001600160a01b03858116911660006127c3565b60085461107c906001600160a01b038581169116886127c3565b600854604051636a91508f60e11b81526001600160a01b039091169063d522a11e906110b0908990899089906004016141b9565b602060405180830381600087803b1580156110ca57600080fd5b505af11580156110de573d6000803e3d6000fd5b505050506040513d601f19601f820116820180604052508101906111029190613883565b9050600081116111245760405162461bcd60e51b8152600401610b3090613e7c565b601b546001600160a01b038481169116148061114d5750601b546001600160a01b038381169116145b156111e657600061117561271061116f600c54856128d690919063ffffffff16565b9061292f565b90506111818282612766565b600b549092506111919082612996565b600b55600f546111a19083612996565b600f556040517f6a6f77044107a33658235d41bedbbaf2fe9ccdceb313143c947a5e76e1ec8474906111d89086908a908690613a12565b60405180910390a150611224565b7fb0bb0f37039c5230cd4e55bddd2eb8074cd1cb9eeccf7a8c0ac2ccff3e839aec8383888460405161121b94939291906139d0565b60405180910390a15b505050505050565b6002601a541415611272576040805162461bcd60e51b815260206004820152601f60248201526000805160206142d6833981519152604482015290519081900360640190fd5b6002601a556000611284338484612138565b33600081815260076020908152604091829020825180840190935280548352600190810154918301919091529293506112c0928691859161220d565b50506001601a5550565b601b546001600160a01b031681565b60186020526000908152604090205463ffffffff1681565b6001600160a01b0381166000908152600660205260409020545b919050565b60004382106113315760405162461bcd60e51b8152600401610b3090613d16565b6001600160a01b03831660009081526018602052604090205463ffffffff168061135f5760009150506114ef565b6001600160a01b038416600090815260176020908152604080832063ffffffff6000198601811685529252909120541683106113ce576001600160a01b03841660009081526017602090815260408083206000199490940163ffffffff168352929052206001015490506114ef565b6001600160a01b038416600090815260176020908152604080832083805290915290205463ffffffff168310156114095760009150506114ef565b600060001982015b8163ffffffff168163ffffffff1611156114bd576000600263ffffffff848403166001600160a01b038916600090815260176020908152604080832094909304860363ffffffff8181168452948252918390208351808501909452805490941680845260019094015490830152925090871415611498576020015194506114ef9350505050565b805163ffffffff168711156114af578193506114b6565b6001820392505b5050611411565b506001600160a01b038516600090815260176020908152604080832063ffffffff909416835292905220600101549150505b92915050565b60006109a661239f565b60196020526000908152604090205481565b600e5481565b60105481565b60136020526000908152604090205481565b611537611e8f565b6001600160a01b03811661155d5760405162461bcd60e51b8152600401610b3090613cfa565b600061156761239f565b9050806115865760405162461bcd60e51b8152600401610b3090614071565b6010546115939082612996565b601055601b546115ad906001600160a01b03168383611ee7565b7fe2403640ba68fed3a2f88b7557551d1993f84b99bb10ff833f0cf8db0c5e048682826040516115de9291906139f9565b60405180910390a15050565b600a546001600160a01b031681565b6001600160a01b031660009081526007602052604090205490565b6000601654600014156116295750600061130b565b6016546000190160009081526015602052604090205463ffffffff16821061166a57506016546000190160009081526015602052604090206001015461130b565b6000805260156020527fa31547ce6245cdb9ecea19cf8c7eb9f5974025bb4075011409251ae855b30aed5463ffffffff168210156116aa5750600061130b565b601654600090600019015b818111156117325760028282030481036000818152601560209081526040918290208251808401909352805463ffffffff168084526001909101549183019190915286141561170d5760200151935061130b92505050565b805163ffffffff168611156117245781935061172b565b6001820392505b50506116b5565b5060009081526015602052604090206001015492915050565b600f5481565b600a546001600160a01b0316331461177b5760405162461bcd60e51b8152600401610b3090613dc8565b600b5461179a5760405162461bcd60e51b8152600401610b3090614071565b600b80546000909155600a54601b5461086f916001600160a01b03918216911683611ee7565b6001600160a01b03811660009081526018602052604081205463ffffffff16806117eb57600061181d565b6001600160a01b038316600090815260176020908152604080832063ffffffff60001986011684529091529020600101545b9392505050565b6002601a54141561186a576040805162461bcd60e51b815260206004820152601f60248201526000805160206142d6833981519152604482015290519081900360640190fd5b6002601a55601d546001600160a01b031633146118995760405162461bcd60e51b8152600401610b309061404a565b601d546118b09082906001600160a01b0316611ff1565b506001601a55565b6015602052600090815260409020805460019091015463ffffffff9091169082565b6001546001600160a01b031633146119045760405162461bcd60e51b8152600401610b3090614158565b6001600160a01b03841661192a5760405162461bcd60e51b8152600401610b309061409e565b6001600160a01b0381166119505760405162461bcd60e51b8152600401610b3090613dea565b600980546001600160a01b039586166001600160a01b031991821617909155600c92909255600a805491851691831691909117905560088054929093169116179055565b6112248686868686866129f0565b60115481565b6003546001600160a01b031681565b6007602052600090815260409020805460019091015482565b601c546001600160a01b031681565b6119e7611e8f565b6001600160a01b038116611a0d5760405162461bcd60e51b8152600401610b3090613cfa565b601d80546001600160a01b0319166001600160a01b0392909216919091179055565b611a37611e8f565b6001600160a01b038116611a5d5760405162461bcd60e51b8152600401610b3090613cfa565b600a80546001600160a01b0319166001600160a01b0392909216919091179055565b83518551148015611a91575082518551145b8015611a9e575081518551145b8015611aab575080518551145b611ab457600080fd5b60005b8551811015611c88576000306001600160a01b031663c3cda52060e01b89898581518110611ae157fe5b6020026020010151898681518110611af557fe5b6020026020010151898781518110611b0957fe5b6020026020010151898881518110611b1d57fe5b6020026020010151898981518110611b3157fe5b6020026020010151604051602401611b4e96959493929190613a33565b60408051601f198184030181529181526020820180516001600160e01b03166001600160e01b0319909416939093179092529051611b8c9190613985565b6000604051808303816000865af19150503d8060008114611bc9576040519150601f19603f3d011682016040523d82523d6000602084013e611bce565b606091505b5050905080611c7f57868281518110611be357fe5b6020026020010151886001600160a01b03167f1bffed5e02e1c7b996a1ac0a6ddce76606170e66ebd6883b4d87abfed2c657d9888581518110611c2257fe5b6020026020010151888681518110611c3657fe5b6020026020010151888781518110611c4a57fe5b6020026020010151888881518110611c5e57fe5b6020026020010151604051611c769493929190613aba565b60405180910390a35b50600101611ab7565b50505050505050565b60125481565b600c5481565b7fe48329057bfd03d55e49b547132e39cffd9c1820ad7b9d4c5307691425d15adf81565b6002601a541415611d07576040805162461bcd60e51b815260206004820152601f60248201526000805160206142d6833981519152604482015290519081900360640190fd5b6002601a556000611d1883836123b8565b90506112c08383600084600261220d565b6002601a541415611d6f576040805162461bcd60e51b815260206004820152601f60248201526000805160206142d6833981519152604482015290519081900360640190fd5b6002601a55336000908152600760209081526040808320815180830190925280548252600101549181019190915290611db562093a80611daf858261292f565b906128d6565b8251909150611dd65760405162461bcd60e51b8152600401610b3090613ea5565b81602001518111611df95760405162461bcd60e51b8152600401610b3090613d4b565b426212750001811015611e1e5760405162461bcd60e51b8152600401610b3090613f9d565b630784ce004201811115611e445760405162461bcd60e51b8152600401610b3090613f07565b6112c03360008385600361220d565b60176020908152600092835260408084209091529082529020805460019091015463ffffffff9091169082565b6001546001600160a01b031681565b6001546001600160a01b03163314611ee5576040805162461bcd60e51b815260206004820152601460248201527331b0b63632b91036bab9ba1031329030b236b4b760611b604482015290519081900360640190fd5b565b604080516001600160a01b038416602482015260448082018490528251808303909101815260649091019091526020810180516001600160e01b031663a9059cbb60e01b179052611f39908490612c0f565b505050565b600080611f4961239f565b601c54601b549192506001600160a01b0391821691161415611fae57600b54600554601b546040516370a0823160e01b8152611fa79392610f399286928492916001600160a01b0316906370a0823190610ee99030906004016139bc565b9150611fed565b600b54601b546040516370a0823160e01b8152611fea9291610f399185916001600160a01b0316906370a0823190610ee99030906004016139bc565b91505b5090565b6001600160a01b03821660009081526007602090815260409182902082518084019093528054808452600190910154918301919091526120435760405162461bcd60e51b8152600401610b3090613be2565b80602001514210156120675760405162461bcd60e51b8152600401610b309061417b565b6001600160a01b038316600090815260066020526040902054815160055461208f9082612766565b600555600060208085018281528286526001600160a01b03808816845260079092526040909220855181559151600190920191909155601c546120d491168583611ee7565b6120dd85612cc0565b6001600160a01b038516600081815260066020526040908190205490517f02f25270a4d87bea75db541cdfe559334a275b4a233520ed6c0a2429667cca94916121299185918791614207565b60405180910390a25050505050565b600061214b62093a80611daf848261292f565b6001600160a01b03851660009081526007602090815260409182902082518084019093528054835260010154908201529091508361219b5760405162461bcd60e51b8152600401610b3090613f75565b8051156121ba5760405162461bcd60e51b8152600401610b3090613f3e565b4262127500018210156121df5760405162461bcd60e51b8152600401610b3090613f9d565b630784ce0042018211156122055760405162461bcd60e51b8152600401610b3090613f07565b509392505050565b60055461221a9085612996565b6005556001600160a01b03851660009081526006602052604090205482516122429086612996565b8352831561225257602083018490525b6001600160a01b03861660009081526007602090815260409091208451815590840151600190910155841561229957601c54612299906001600160a01b0316333088612d70565b84806122c3576122a887612cc0565b506001600160a01b0386166000908152600760205260409020545b6001600160a01b0387166000908152600760205260408120600101546122f29062093a809061116f9042612766565b9050600181111561232c57600061231861271061116f6000198501611daf8760d06128d6565b905061232689828501612dca565b50612336565b6123368883612dca565b6020808601516001600160a01b038a166000818152600690935260409283902054925190927f4b4bee7108f1c2135fb241a04943e16782c05a5636528a101ecd133007b3c80a9261238d928c928a918a91906141e1565b60405180910390a25050505050505050565b60006109a6601054600f5461276690919063ffffffff16565b6123c0613507565b506001600160a01b03821660009081526007602090815260409182902082518084019093528054835260010154908201528161240e5760405162461bcd60e51b8152600401610b3090614129565b805161242c5760405162461bcd60e51b8152600401610b309061401a565b428160200151116114ef5760405162461bcd60e51b8152600401610b3090613c0f565b6001600160a01b03808316600081815260196020908152604080832080546001019055601480835281842080546006855283862054929094528787166001600160a01b0319851681179091559151929095169493909285927f3134e8a2e6d97e929a7e54011ea5485d7d196dd5f0ba4d4ef95803e8e3fc257f9190a46124d6828483612ebe565b50505050565b600060026124e983612ffb565b60ff16141592915050565b606060006125018361302a565b905060008160ff16601402600501905080845110156125325760405162461bcd60e51b8152600401610b3090613c53565b600560ff831667ffffffffffffffff8111801561254e57600080fd5b50604051908082528060200260200182016040528015612578578160200160208202803683370190505b50935060005b8360ff168110156125cc57601481028201868101602001518651606082901c908890859081106125aa57fe5b6001600160a01b0390921660209283029190910190910152505060010161257e565b50505050919050565b606060006125e28361302a565b83519091506002601760ff84160201908111156126115760405162461bcd60e51b8152600401610b3090613d82565b60018260ff16116126345760405162461bcd60e51b8152600401610b3090613aeb565b6000600560ff60001985011667ffffffffffffffff8111801561265657600080fd5b5060405190808252806020026020018201604052801561269057816020015b61267d613521565b8152602001906001900390816126755790505b50945060005b6001850360ff1681101561275c576126ac613521565b816126cc5787830160200151606081901c825293506014909201916126fc565b8660018303815181106126db57fe5b60209081029190910181015101516001600160a01b03168152601792909201915b6020838901810151606081901c91830191909152603081901c6301000000600160d01b0316604882901c90810362ffffff166040840152885191955090829089908590811061274757fe5b60209081029190910101525050600101612696565b5050505050919050565b6000828211156127bd576040805162461bcd60e51b815260206004820152601e60248201527f536166654d6174683a207375627472616374696f6e206f766572666c6f770000604482015290519081900360640190fd5b50900390565b801580612849575060408051636eb1769f60e11b81523060048201526001600160a01b03848116602483015291519185169163dd62ed3e91604480820192602092909190829003018186803b15801561281b57600080fd5b505afa15801561282f573d6000803e3d6000fd5b505050506040513d602081101561284557600080fd5b5051155b6128845760405162461bcd60e51b81526004018080602001828103825260368152602001806143aa6036913960400191505060405180910390fd5b604080516001600160a01b038416602482015260448082018490528251808303909101815260649091019091526020810180516001600160e01b031663095ea7b360e01b179052611f39908490612c0f565b6000826128e5575060006114ef565b828202828482816128f257fe5b041461181d5760405162461bcd60e51b815260040180806020018281038252602181526020018061433e6021913960400191505060405180910390fd5b6000808211612985576040805162461bcd60e51b815260206004820152601a60248201527f536166654d6174683a206469766973696f6e206279207a65726f000000000000604482015290519081900360640190fd5b81838161298e57fe5b049392505050565b60008282018381101561181d576040805162461bcd60e51b815260206004820152601b60248201527f536166654d6174683a206164646974696f6e206f766572666c6f770000000000604482015290519081900360640190fd5b6001600160a01b038616612a165760405162461bcd60e51b8152600401610b3090613e56565b83421115612a365760405162461bcd60e51b8152600401610b3090613e21565b604080518082019091526004815263784f4c4560e01b60209091015260007f8cad95687ba82c2ce50e74f7b754645e5117c3a5bec8151c0726d5857980a8667fc63a62895c37b93149fa0b6f2c8d497a0c91951682a9dd0c7a49b82beb78f55e612a9e613059565b30604051602001612ab29493929190613a96565b60405160208183030381529060405280519060200120905060007fe48329057bfd03d55e49b547132e39cffd9c1820ad7b9d4c5307691425d15adf888888604051602001612b039493929190613a72565b60405160208183030381529060405280519060200120905060008282604051602001612b309291906139a1565b604051602081830303815290604052805190602001209050600060018288888860405160008152602001604052604051612b6d9493929190613aba565b6020604051602081039080840390855afa158015612b8f573d6000803e3d6000fd5b5050604051601f1901519150506001600160a01b038116612bc25760405162461bcd60e51b8152600401610b3090613cc5565b6001600160a01b0381166000908152601960205260409020548914612bf95760405162461bcd60e51b8152600401610b3090613fe3565b612c03818b61244f565b50505050505050505050565b6000612c64826040518060400160405280602081526020017f5361666545524332303a206c6f772d6c6576656c2063616c6c206661696c6564815250856001600160a01b031661305d9092919063ffffffff16565b805190915015611f3957808060200190516020811015612c8357600080fd5b5051611f395760405162461bcd60e51b815260040180806020018281038252602a815260200180614380602a913960400191505060405180910390fd5b6001600160a01b038116600090815260066020526040902054600454612ce69082612766565b6004556001600160a01b038216600081815260066020526040808220829055519091907fddf252ad1be2c89b69c2b068fc378daa952ba7f163c4a11628f55a4df523b3ef90612d36908590613a69565b60405180910390a36001600160a01b03808316600090815260146020526040812054612d6492169083612ebe565b612d6c613074565b5050565b604080516001600160a01b0380861660248301528416604482015260648082018490528251808303909101815260849091019091526020810180516001600160e01b03166323b872dd60e01b1790526124d6908590612c0f565b600454612dd79082612996565b6004556001600160a01b038216600090815260066020526040902054612dfd9082612996565b6001600160a01b0383166000818152600660205260408082209390935591519091907fddf252ad1be2c89b69c2b068fc378daa952ba7f163c4a11628f55a4df523b3ef90612e4c908590613a69565b60405180910390a36001600160a01b0382811660009081526014602052604090205416612e9d576001600160a01b038216600081815260146020526040902080546001600160a01b03191690911790555b6001600160a01b03808316600090815260146020526040812054612d649216835b816001600160a01b0316836001600160a01b031614158015612ee05750600081115b15611f39576001600160a01b03831615612f72576001600160a01b03831660009081526018602052604081205463ffffffff169081612f20576000612f52565b6001600160a01b038516600090815260176020908152604080832063ffffffff60001987011684529091529020600101545b90506000612f608285612766565b9050612f6e8684848461315f565b5050505b6001600160a01b03821615611f39576001600160a01b03821660009081526018602052604081205463ffffffff169081612fad576000612fdf565b6001600160a01b038416600090815260176020908152604080832063ffffffff60001987011684529091529020600101545b90506000612fed8285612996565b90506112248584848461315f565b600060018251101561301f5760405162461bcd60e51b8152600401610b3090613b2e565b506020015160001a90565b600060058251101561304e5760405162461bcd60e51b8152600401610b3090613b63565b506024015160001a90565b4690565b606061306c84846000856132d2565b949350505050565b60006130b5436040518060400160405280601c81526020017f626c6f636b206e756d626572206578636565647320333220626974730000000081525061342d565b905060006016541180156130e657506016546000190160009081526015602052604090205463ffffffff8281169116145b1561310c576004546016546000190160009081526015602052604090206001015561086f565b60408051808201825263ffffffff80841682526004546020808401918252601680546000908152601590925294902092518354921663ffffffff1990921691909117825551600191820155815401905550565b60006131a0436040518060400160405280601c81526020017f626c6f636b206e756d626572206578636565647320333220626974730000000081525061342d565b905060008463ffffffff161180156131e957506001600160a01b038516600090815260176020908152604080832063ffffffff6000198901811685529252909120548282169116145b15613226576001600160a01b038516600090815260176020908152604080832063ffffffff60001989011684529091529020600101829055613297565b60408051808201825263ffffffff808416825260208083018681526001600160a01b038a166000818152601784528681208b8616825284528681209551865490861663ffffffff19918216178755925160019687015590815260189092529390208054928801909116919092161790555b846001600160a01b03167fdec2bacdd2f05b59de34da9b523dff8be42e5e38e818c82fdb0bae774387a72484846040516121299291906141ab565b6060824710156133135760405162461bcd60e51b81526004018080602001828103825260268152602001806143186026913960400191505060405180910390fd5b61331c8561345d565b61336d576040805162461bcd60e51b815260206004820152601d60248201527f416464726573733a2063616c6c20746f206e6f6e2d636f6e7472616374000000604482015290519081900360640190fd5b600080866001600160a01b031685876040518082805190602001908083835b602083106133ab5780518252601f19909201916020918201910161338c565b6001836020036101000a03801982511681845116808217855250505050505090500191505060006040518083038185875af1925050503d806000811461340d576040519150601f19603f3d011682016040523d82523d6000602084013e613412565b606091505b5091509150613422828286613463565b979650505050505050565b60008164010000000084106134555760405162461bcd60e51b8152600401610b309190613ad8565b509192915050565b3b151590565b6060831561347257508161181d565b8251156134825782518084602001fd5b8160405162461bcd60e51b81526004018080602001828103825283818151815260200191508051906020019080838360005b838110156134cc5781810151838201526020016134b4565b50505050905090810190601f1680156134f95780820380516001836020036101000a031916815260200191505b509250505060405180910390fd5b604051806040016040528060008152602001600081525090565b604080516060810182526000808252602082018190529181019190915290565b803561130b816142c0565b600082601f83011261355c578081fd5b8135602061357161356c83614276565b614252565b828152818101908583018385028701840188101561358d578586fd5b855b858110156135ab5781358452928401929084019060010161358f565b5090979650505050505050565b600082601f8301126135c8578081fd5b813560206135d861356c83614276565b82815281810190858301838502870184018810156135f4578586fd5b855b858110156135ab5761360782613619565b845292840192908401906001016135f6565b803560ff8116811461130b57600080fd5b60006020828403121561363b578081fd5b813561181d816142c0565b60008060008060008060c0878903121561365e578182fd5b61366787613541565b9550602087013567ffffffffffffffff80821115613683578384fd5b61368f8a838b0161354c565b965060408901359150808211156136a4578384fd5b6136b08a838b0161354c565b955060608901359150808211156136c5578384fd5b6136d18a838b016135b8565b945060808901359150808211156136e6578384fd5b6136f28a838b0161354c565b935060a0890135915080821115613707578283fd5b5061371489828a0161354c565b9150509295509295509295565b60008060008060808587031215613736578384fd5b8435613741816142c0565b93506020850135613751816142c0565b9250604085013591506060850135613768816142c0565b939692955090935050565b60008060408385031215613785578182fd5b8235613790816142c0565b946020939093013593505050565b6000806000606084860312156137b2578283fd5b83356137bd816142c0565b95602085013595506040909401359392505050565b60008060008060008060c087890312156137ea578384fd5b86356137f5816142c0565b9550602087013594506040870135935061381160608801613619565b92506080870135915060a087013590509295509295509295565b6000806040838503121561383d578182fd5b8235613848816142c0565b9150602083013563ffffffff81168114613860578182fd5b809150509250929050565b60006020828403121561387c578081fd5b5035919050565b600060208284031215613894578081fd5b5051919050565b600080604083850312156138ad578182fd5b50508035926020909101359150565b6000806000606084860312156138d0578081fd5b833592506020808501359250604085013567ffffffffffffffff808211156138f6578384fd5b818701915087601f830112613909578384fd5b81358181111561391557fe5b613927601f8201601f19168501614252565b9150808252888482850101111561393c578485fd5b808484018584013784848284010152508093505050509250925092565b60008151808452613971816020860160208601614294565b601f01601f19169290920160200192915050565b60008251613997818460208701614294565b9190910192915050565b61190160f01b81526002810192909252602282015260420190565b6001600160a01b0391909116815260200190565b6001600160a01b0394851681529290931660208301526040820152606081019190915260800190565b6001600160a01b03929092168252602082015260400190565b6001600160a01b039390931683526020830191909152604082015260600190565b6001600160a01b039690961686526020860194909452604085019290925260ff166060840152608083015260a082015260c00190565b90815260200190565b9384526001600160a01b039290921660208401526040830152606082015260800190565b938452602084019290925260408301526001600160a01b0316606082015260800190565b93845260ff9290921660208401526040830152606082015260800190565b60006020825261181d6020830184613959565b60208082526023908201527f446578446174613a20746f556e69563350617468207061746820746f6f2073686040820152621bdc9d60ea1b606082015260800190565b6020808252818101527f446578446174613a20746f4465782077726f6e67206461746120666f726d6174604082015260600190565b60208082526028908201527f446578446174613a20746f41727261794c656e6774682077726f6e67206461746040820152671848199bdc9b585d60c21b606082015260800190565b6020808252601a908201527f45786365656420736861726520746f6b656e2062616c616e6365000000000000604082015260600190565b6020808252601390820152724e6f7468696e6720746f20776974686472617760681b604082015260600190565b60208082526024908201527f43616e6e6f742061646420746f2065787069726564206c6f636b2e20576974686040820152636472617760e01b606082015260800190565b60208082526026908201527f446578446174613a20746f556e695632506174682077726f6e67206461746120604082015265199bdc9b585d60d21b606082015260800190565b602080825260129082015271457863656564204f4c452062616c616e636560701b604082015260600190565b6020808252818101527f64656c656761746542795369673a20696e76616c6964207369676e6174757265604082015260600190565b602080825260029082015261060f60f31b604082015260600190565b6020808252818101527f6765745072696f72566f7465733a6e6f74207965742064657465726d696e6564604082015260600190565b6020808252601f908201527f43616e206f6e6c7920696e637265617365206c6f636b206475726174696f6e00604082015260600190565b60208082526026908201527f446578446174613a20746f556e695633506174682077726f6e67206461746120604082015265199bdc9b585d60d21b606082015260800190565b602080825260089082015267446576206f6e6c7960c01b604082015260600190565b60208082526018908201527f5f64657620616464726573732063616e6e6f7420626520300000000000000000604082015260600190565b6020808252818101527f64656c656761746542795369673a207369676e61747572652065787069726564604082015260600190565b6020808252600c908201526b0c8cad8cacec2e8caca7460f60a31b604082015260600190565b6020808252600f908201526e04e657720726577617264206973203608c1b604082015260600190565b602080825260119082015270139bdd1a1a5b99c81a5cc81b1bd8dad959607a1b604082015260600190565b60208082526018908201527f45786365656420617661696c61626c652062616c616e63650000000000000000604082015260600190565b6020808252601e908201527f566f74696e67206c6f636b2063616e2062652034207965617273206d61780000604082015260600190565b60208082526019908201527f5769746864726177206f6c6420746f6b656e7320666972737400000000000000604082015260600190565b6020808252600e908201526d4e6f6e207a65726f2076616c756560901b604082015260600190565b60208082526026908201527f43616e206f6e6c79206c6f636b20756e74696c2074696d6520696e207468652060408201526566757475726560d01b606082015260800190565b6020808252601c908201527f64656c656761746542795369673a20696e76616c6964206e6f6e636500000000604082015260600190565b602080825260169082015275139bc8195e1a5cdd1a5b99c81b1bd8dac8199bdd5b9960521b604082015260600190565b6020808252600d908201526c2737ba1030baba37b6b0ba37b960991b604082015260600190565b6020808252601390820152724e6f2066756e6420746f20776974686472617760681b604082015260600190565b6020808252601d908201527f5f6f6c65546f6b656e20616464726573732063616e6e6f742062652030000000604082015260600190565b6020808252600b908201526a125b9a5d1a585b1a5e995960aa1b604082015260600190565b60208082526015908201527457697468647261772066756e642066697273746c7960581b604082015260600190565b6020808252601590820152746e656564206e6f6e202d207a65726f2076616c756560581b604082015260600190565b6020808252600990820152682737ba1030b236b4b760b91b604082015260600190565b602080825260169082015275546865206c6f636b206469646e27742065787069726560501b604082015260600190565b918252602082015260400190565b6000848252836020830152606060408301526141d86060830184613959565b95945050505050565b9485526020850193909352600f9190910b60408401526060830152608082015260a00190565b9283526020830191909152604082015260600190565b63ffffffff91909116815260200190565b63ffffffff929092168252602082015260400190565b60ff91909116815260200190565b60405181810167ffffffffffffffff8111828210171561426e57fe5b604052919050565b600067ffffffffffffffff82111561428a57fe5b5060209081020190565b60005b838110156142af578181015183820152602001614297565b838111156124d65750506000910152565b6001600160a01b038116811461086f57600080fdfe5265656e7472616e637947756172643a207265656e7472616e742063616c6c006f6e6c792070656e64696e6741646d696e2063616e206163636570742061646d696e416464726573733a20696e73756666696369656e742062616c616e636520666f722063616c6c536166654d6174683a206d756c7469706c69636174696f6e206f766572666c6f7763616c6c6572206d7573742062652061646d696e206f7220646576656c6f7065725361666545524332303a204552433230206f7065726174696f6e20646964206e6f7420737563636565645361666545524332303a20617070726f76652066726f6d206e6f6e2d7a65726f20746f206e6f6e2d7a65726f20616c6c6f77616e6365a2646970667358221220e75ec7e96adf6cfe9c6fd3637af1694d4f116103fe79b9b5e2501c30c43516fb64736f6c63430007060033",
  "linkReferences": {},
  "deployedLinkReferences": {}
}