{
  "_format": "hh-sol-artifact-1",
  "contractName": "DelegateInterface",
  "sourceName": "contracts/udex/DelegateInterface.sol",
  "abi": [
    {
      "inputs": [],
      "name": "implementation",
      "outputs": [
        {
          "internalType": "address",
          "name": "",
          "type": "address"
        }
      ],
      "stateMutability": "view",
      "type": "function"
    }
  ],
  "bytecode": "0x6080604052348015600f57600080fd5b5060948061001e6000396000f3fe6080604052348015600f57600080fd5b506004361060285760003560e01c80635c60da1b14602d575b600080fd5b6033604f565b604080516001600160a01b039092168252519081900360200190f35b6000546001600160a01b03168156fea26469706673582212200b38ae09d4d35c766db2aca5e4077935e0e99ed099b02429b0b231b90b79533c64736f6c63430007060033",
  "linkReferences": {},
  "deployedLinkReferences": {}
}