{
  "_format": "hh-sol-artifact-1",
  "contractName": "ControllerV1",
  "sourceName": "contracts/udex/ControllerV1.sol",
  "abi": [
    {
      "inputs": [],
      "stateMutability": "nonpayable",
      "type": "constructor"
    },
    {
      "anonymous": false,
      "inputs": [
        {
          "indexed": false,
          "internalType": "address",
          "name": "token0",
          "type": "address"
        },
        {
          "indexed": false,
          "internalType": "address",
          "name": "pool0",
          "type": "address"
        },
        {
          "indexed": false,
          "internalType": "address",
          "name": "token1",
          "type": "address"
        },
        {
          "indexed": false,
          "internalType": "address",
          "name": "pool1",
          "type": "address"
        },
        {
          "indexed": false,
          "internalType": "uint16",
          "name": "marketId",
          "type": "uint16"
        },
        {
          "indexed": false,
          "internalType": "uint16",
          "name": "marginLimit",
          "type": "uint16"
        },
        {
          "indexed": false,
          "internalType": "bytes",
          "name": "dexData",
          "type": "bytes"
        }
      ],
      "name": "LPoolPairCreated",
      "type": "event"
    },
    {
      "anonymous": false,
      "inputs": [
        {
          "indexed": false,
          "internalType": "address",
          "name": "oldAdmin",
          "type": "address"
        },
        {
          "indexed": false,
          "internalType": "address",
          "name": "newAdmin",
          "type": "address"
        }
      ],
      "name": "NewAdmin",
      "type": "event"
    },
    {
      "anonymous": false,
      "inputs": [
        {
          "indexed": false,
          "internalType": "address",
          "name": "oldPendingAdmin",
          "type": "address"
        },
        {
          "indexed": false,
          "internalType": "address",
          "name": "newPendingAdmin",
          "type": "address"
        }
      ],
      "name": "NewPendingAdmin",
      "type": "event"
    },
    {
      "inputs": [],
      "name": "acceptAdmin",
      "outputs": [],
      "stateMutability": "nonpayable",
      "type": "function"
    },
    {
      "inputs": [
        {
          "internalType": "address",
          "name": "token",
          "type": "address"
        },
        {
          "internalType": "address",
          "name": "lpool",
          "type": "address"
        }
      ],
      "name": "addPublicPool",
      "outputs": [],
      "stateMutability": "nonpayable",
      "type": "function"
    },
    {
      "inputs": [],
      "name": "admin",
      "outputs": [
        {
          "internalType": "address payable",
          "name": "",
          "type": "address"
        }
      ],
      "stateMutability": "view",
      "type": "function"
    },
    {
      "inputs": [],
      "name": "baseRatePerBlock",
      "outputs": [
        {
          "internalType": "uint256",
          "name": "",
          "type": "uint256"
        }
      ],
      "stateMutability": "view",
      "type": "function"
    },
    {
      "inputs": [
        {
          "internalType": "address",
          "name": "borrower",
          "type": "address"
        },
        {
          "internalType": "address",
          "name": "payee",
          "type": "address"
        },
        {
          "internalType": "uint256",
          "name": "borrowAmount",
          "type": "uint256"
        }
      ],
      "name": "borrowAllowed",
      "outputs": [],
      "stateMutability": "nonpayable",
      "type": "function"
    },
    {
      "inputs": [
        {
          "internalType": "uint256",
          "name": "",
          "type": "uint256"
        }
      ],
      "name": "borrowingSuspend",
      "outputs": [
        {
          "internalType": "bool",
          "name": "",
          "type": "bool"
        }
      ],
      "stateMutability": "view",
      "type": "function"
    },
    {
      "inputs": [
        {
          "internalType": "uint256",
          "name": "marketId",
          "type": "uint256"
        }
      ],
      "name": "closeTradeAllowed",
      "outputs": [
        {
          "internalType": "bool",
          "name": "",
          "type": "bool"
        }
      ],
      "stateMutability": "view",
      "type": "function"
    },
    {
      "inputs": [
        {
          "internalType": "uint256",
          "name": "marketId",
          "type": "uint256"
        },
        {
          "internalType": "address",
          "name": "borrower",
          "type": "address"
        },
        {
          "internalType": "bool",
          "name": "collateralIndex",
          "type": "bool"
        }
      ],
      "name": "collBorrowAllowed",
      "outputs": [
        {
          "internalType": "bool",
          "name": "",
          "type": "bool"
        }
      ],
      "stateMutability": "view",
      "type": "function"
    },
    {
      "inputs": [
        {
          "internalType": "uint256",
          "name": "marketId",
          "type": "uint256"
        }
      ],
      "name": "collLiquidateAllowed",
      "outputs": [
        {
          "internalType": "bool",
          "name": "",
          "type": "bool"
        }
      ],
      "stateMutability": "view",
      "type": "function"
    },
    {
      "inputs": [
        {
          "internalType": "uint256",
          "name": "marketId",
          "type": "uint256"
        }
      ],
      "name": "collRedeemAllowed",
      "outputs": [
        {
          "internalType": "bool",
          "name": "",
          "type": "bool"
        }
      ],
      "stateMutability": "view",
      "type": "function"
    },
    {
      "inputs": [
        {
          "internalType": "uint256",
          "name": "marketId",
          "type": "uint256"
        }
      ],
      "name": "collRepayAllowed",
      "outputs": [
        {
          "internalType": "bool",
          "name": "",
          "type": "bool"
        }
      ],
      "stateMutability": "view",
      "type": "function"
    },
    {
      "inputs": [
        {
          "internalType": "address",
          "name": "token0",
          "type": "address"
        },
        {
          "internalType": "address",
          "name": "token1",
          "type": "address"
        },
        {
          "internalType": "uint16",
          "name": "marginLimit",
          "type": "uint16"
        },
        {
          "internalType": "bytes",
          "name": "dexData",
          "type": "bytes"
        }
      ],
      "name": "createLPoolPair",
      "outputs": [],
      "stateMutability": "nonpayable",
      "type": "function"
    },
    {
      "inputs": [
        {
          "internalType": "address",
          "name": "token0",
          "type": "address"
        },
        {
          "internalType": "address",
          "name": "token1",
          "type": "address"
        },
        {
          "internalType": "uint16",
          "name": "marginLimit",
          "type": "uint16"
        },
        {
          "internalType": "bytes",
          "name": "dexData",
          "type": "bytes"
        }
      ],
      "name": "createOfficialLPoolPair",
      "outputs": [],
      "stateMutability": "nonpayable",
      "type": "function"
    },
    {
      "inputs": [],
      "name": "developer",
      "outputs": [
        {
          "internalType": "address payable",
          "name": "",
          "type": "address"
        }
      ],
      "stateMutability": "view",
      "type": "function"
    },
    {
      "inputs": [],
      "name": "dexAggregator",
      "outputs": [
        {
          "internalType": "contract DexAggregatorInterface",
          "name": "",
          "type": "address"
        }
      ],
      "stateMutability": "view",
      "type": "function"
    },
    {
      "inputs": [],
      "name": "implementation",
      "outputs": [
        {
          "internalType": "address",
          "name": "",
          "type": "address"
        }
      ],
      "stateMutability": "view",
      "type": "function"
    },
    {
      "inputs": [
        {
          "internalType": "contract IERC20",
          "name": "_oleToken",
          "type": "address"
        },
        {
          "internalType": "address",
          "name": "_xoleToken",
          "type": "address"
        },
        {
          "internalType": "address",
          "name": "_wETH",
          "type": "address"
        },
        {
          "internalType": "address",
          "name": "_lpoolImplementation",
          "type": "address"
        },
        {
          "internalType": "address",
          "name": "_openlev",
          "type": "address"
        },
        {
          "internalType": "contract DexAggregatorInterface",
          "name": "_dexAggregator",
          "type": "address"
        },
        {
          "internalType": "bytes",
          "name": "_oleWethDexData",
          "type": "bytes"
        }
      ],
      "name": "initialize",
      "outputs": [],
      "stateMutability": "nonpayable",
      "type": "function"
    },
    {
      "inputs": [],
      "name": "jumpMultiplierPerBlock",
      "outputs": [
        {
          "internalType": "uint256",
          "name": "",
          "type": "uint256"
        }
      ],
      "stateMutability": "view",
      "type": "function"
    },
    {
      "inputs": [],
      "name": "kink",
      "outputs": [
        {
          "internalType": "uint256",
          "name": "",
          "type": "uint256"
        }
      ],
      "stateMutability": "view",
      "type": "function"
    },
    {
      "inputs": [
        {
          "internalType": "contract LPoolInterface",
          "name": "",
          "type": "address"
        },
        {
          "internalType": "bool",
          "name": "",
          "type": "bool"
        },
        {
          "internalType": "address",
          "name": "",
          "type": "address"
        }
      ],
      "name": "lPoolRewardByAccounts",
      "outputs": [
        {
          "internalType": "uint256",
          "name": "rewardPerTokenStored",
          "type": "uint256"
        },
        {
          "internalType": "uint256",
          "name": "rewards",
          "type": "uint256"
        },
        {
          "internalType": "uint256",
          "name": "extraToken",
          "type": "uint256"
        }
      ],
      "stateMutability": "view",
      "type": "function"
    },
    {
      "inputs": [
        {
          "internalType": "uint256",
          "name": "marketId",
          "type": "uint256"
        },
        {
          "internalType": "address",
          "name": "liquidator",
          "type": "address"
        },
        {
          "internalType": "uint256",
          "name": "liquidateAmount",
          "type": "uint256"
        },
        {
          "internalType": "bytes",
          "name": "dexData",
          "type": "bytes"
        }
      ],
      "name": "liquidateAllowed",
      "outputs": [],
      "stateMutability": "nonpayable",
      "type": "function"
    },
    {
      "inputs": [
        {
          "internalType": "contract LPoolInterface",
          "name": "",
          "type": "address"
        },
        {
          "internalType": "bool",
          "name": "",
          "type": "bool"
        }
      ],
      "name": "lpoolDistributions",
      "outputs": [
        {
          "internalType": "uint64",
          "name": "startTime",
          "type": "uint64"
        },
        {
          "internalType": "uint64",
          "name": "endTime",
          "type": "uint64"
        },
        {
          "internalType": "uint64",
          "name": "duration",
          "type": "uint64"
        },
        {
          "internalType": "uint64",
          "name": "lastUpdateTime",
          "type": "uint64"
        },
        {
          "internalType": "uint256",
          "name": "totalRewardAmount",
          "type": "uint256"
        },
        {
          "internalType": "uint256",
          "name": "rewardRate",
          "type": "uint256"
        },
        {
          "internalType": "uint256",
          "name": "rewardPerTokenStored",
          "type": "uint256"
        },
        {
          "internalType": "uint256",
          "name": "extraTotalToken",
          "type": "uint256"
        }
      ],
      "stateMutability": "view",
      "type": "function"
    },
    {
      "inputs": [],
      "name": "lpoolImplementation",
      "outputs": [
        {
          "internalType": "address",
          "name": "",
          "type": "address"
        }
      ],
      "stateMutability": "view",
      "type": "function"
    },
    {
      "inputs": [
        {
          "internalType": "address",
          "name": "",
          "type": "address"
        },
        {
          "internalType": "address",
          "name": "",
          "type": "address"
        }
      ],
      "name": "lpoolPairs",
      "outputs": [
        {
          "internalType": "address",
          "name": "lpool0",
          "type": "address"
        },
        {
          "internalType": "address",
          "name": "lpool1",
          "type": "address"
        }
      ],
      "stateMutability": "view",
      "type": "function"
    },
    {
      "inputs": [
        {
          "internalType": "address",
          "name": "",
          "type": "address"
        }
      ],
      "name": "lpoolUnAlloweds",
      "outputs": [
        {
          "internalType": "bool",
          "name": "",
          "type": "bool"
        }
      ],
      "stateMutability": "view",
      "type": "function"
    },
    {
      "inputs": [
        {
          "internalType": "uint256",
          "name": "marketId",
          "type": "uint256"
        }
      ],
      "name": "marginTradeAllowed",
      "outputs": [
        {
          "internalType": "bool",
          "name": "",
          "type": "bool"
        }
      ],
      "stateMutability": "view",
      "type": "function"
    },
    {
      "inputs": [
        {
          "internalType": "uint256",
          "name": "marketId",
          "type": "uint256"
        },
        {
          "internalType": "address",
          "name": "trader",
          "type": "address"
        },
        {
          "internalType": "bool",
          "name": "longToken",
          "type": "bool"
        }
      ],
      "name": "marginTradeAllowedV2",
      "outputs": [
        {
          "internalType": "bool",
          "name": "",
          "type": "bool"
        }
      ],
      "stateMutability": "view",
      "type": "function"
    },
    {
      "inputs": [
        {
          "internalType": "uint256",
          "name": "",
          "type": "uint256"
        }
      ],
      "name": "marketExtraDistribution",
      "outputs": [
        {
          "internalType": "bool",
          "name": "",
          "type": "bool"
        }
      ],
      "stateMutability": "view",
      "type": "function"
    },
    {
      "inputs": [
        {
          "internalType": "uint256",
          "name": "",
          "type": "uint256"
        }
      ],
      "name": "marketSuspend",
      "outputs": [
        {
          "internalType": "bool",
          "name": "",
          "type": "bool"
        }
      ],
      "stateMutability": "view",
      "type": "function"
    },
    {
      "inputs": [
        {
          "internalType": "address",
          "name": "minter",
          "type": "address"
        },
        {
          "internalType": "uint256",
          "name": "lTokenAmount",
          "type": "uint256"
        }
      ],
      "name": "mintAllowed",
      "outputs": [],
      "stateMutability": "nonpayable",
      "type": "function"
    },
    {
      "inputs": [],
      "name": "multiplierPerBlock",
      "outputs": [
        {
          "internalType": "uint256",
          "name": "",
          "type": "uint256"
        }
      ],
      "stateMutability": "view",
      "type": "function"
    },
    {
      "inputs": [],
      "name": "oleToken",
      "outputs": [
        {
          "internalType": "contract IERC20",
          "name": "",
          "type": "address"
        }
      ],
      "stateMutability": "view",
      "type": "function"
    },
    {
      "inputs": [],
      "name": "oleTokenDistribution",
      "outputs": [
        {
          "internalType": "uint256",
          "name": "supplyBorrowBalance",
          "type": "uint256"
        },
        {
          "internalType": "uint256",
          "name": "extraBalance",
          "type": "uint256"
        },
        {
          "internalType": "uint128",
          "name": "updatePricePer",
          "type": "uint128"
        },
        {
          "internalType": "uint128",
          "name": "liquidatorMaxPer",
          "type": "uint128"
        },
        {
          "internalType": "uint16",
          "name": "liquidatorOLERatio",
          "type": "uint16"
        },
        {
          "internalType": "uint16",
          "name": "xoleRaiseRatio",
          "type": "uint16"
        },
        {
          "internalType": "uint128",
          "name": "xoleRaiseMinAmount",
          "type": "uint128"
        }
      ],
      "stateMutability": "view",
      "type": "function"
    },
    {
      "inputs": [],
      "name": "oleWethDexData",
      "outputs": [
        {
          "internalType": "bytes",
          "name": "",
          "type": "bytes"
        }
      ],
      "stateMutability": "view",
      "type": "function"
    },
    {
      "inputs": [],
      "name": "opBorrowing",
      "outputs": [
        {
          "internalType": "address",
          "name": "",
          "type": "address"
        }
      ],
      "stateMutability": "view",
      "type": "function"
    },
    {
      "inputs": [],
      "name": "openLev",
      "outputs": [
        {
          "internalType": "address",
          "name": "",
          "type": "address"
        }
      ],
      "stateMutability": "view",
      "type": "function"
    },
    {
      "inputs": [],
      "name": "pendingAdmin",
      "outputs": [
        {
          "internalType": "address payable",
          "name": "",
          "type": "address"
        }
      ],
      "stateMutability": "view",
      "type": "function"
    },
    {
      "inputs": [
        {
          "internalType": "address",
          "name": "",
          "type": "address"
        }
      ],
      "name": "publicPools",
      "outputs": [
        {
          "internalType": "address",
          "name": "",
          "type": "address"
        }
      ],
      "stateMutability": "view",
      "type": "function"
    },
    {
      "inputs": [
        {
          "internalType": "address",
          "name": "redeemer",
          "type": "address"
        },
        {
          "internalType": "uint256",
          "name": "lTokenAmount",
          "type": "uint256"
        }
      ],
      "name": "redeemAllowed",
      "outputs": [],
      "stateMutability": "nonpayable",
      "type": "function"
    },
    {
      "inputs": [
        {
          "internalType": "address",
          "name": "payer",
          "type": "address"
        },
        {
          "internalType": "address",
          "name": "borrower",
          "type": "address"
        },
        {
          "internalType": "uint256",
          "name": "repayAmount",
          "type": "uint256"
        },
        {
          "internalType": "bool",
          "name": "isEnd",
          "type": "bool"
        }
      ],
      "name": "repayBorrowAllowed",
      "outputs": [],
      "stateMutability": "nonpayable",
      "type": "function"
    },
    {
      "inputs": [
        {
          "internalType": "uint256",
          "name": "marketId",
          "type": "uint256"
        },
        {
          "internalType": "bool",
          "name": "suspend",
          "type": "bool"
        }
      ],
      "name": "setBorrowingSuspend",
      "outputs": [],
      "stateMutability": "nonpayable",
      "type": "function"
    },
    {
      "inputs": [
        {
          "internalType": "contract DexAggregatorInterface",
          "name": "_dexAggregator",
          "type": "address"
        }
      ],
      "name": "setDexAggregator",
      "outputs": [],
      "stateMutability": "nonpayable",
      "type": "function"
    },
    {
      "inputs": [
        {
          "internalType": "uint256",
          "name": "_baseRatePerBlock",
          "type": "uint256"
        },
        {
          "internalType": "uint256",
          "name": "_multiplierPerBlock",
          "type": "uint256"
        },
        {
          "internalType": "uint256",
          "name": "_jumpMultiplierPerBlock",
          "type": "uint256"
        },
        {
          "internalType": "uint256",
          "name": "_kink",
          "type": "uint256"
        }
      ],
      "name": "setInterestParam",
      "outputs": [],
      "stateMutability": "nonpayable",
      "type": "function"
    },
    {
      "inputs": [
        {
          "internalType": "address",
          "name": "_lpoolImplementation",
          "type": "address"
        }
      ],
      "name": "setLPoolImplementation",
      "outputs": [],
      "stateMutability": "nonpayable",
      "type": "function"
    },
    {
      "inputs": [
        {
          "internalType": "address",
          "name": "lpool",
          "type": "address"
        },
        {
          "internalType": "bool",
          "name": "unAllowed",
          "type": "bool"
        }
      ],
      "name": "setLPoolUnAllowed",
      "outputs": [],
      "stateMutability": "nonpayable",
      "type": "function"
    },
    {
      "inputs": [
        {
          "internalType": "uint256",
          "name": "marketId",
          "type": "uint256"
        },
        {
          "internalType": "bool",
          "name": "suspend",
          "type": "bool"
        }
      ],
      "name": "setMarketSuspend",
      "outputs": [],
      "stateMutability": "nonpayable",
      "type": "function"
    },
    {
      "inputs": [
        {
          "internalType": "bytes",
          "name": "_oleWethDexData",
          "type": "bytes"
        }
      ],
      "name": "setOleWethDexData",
      "outputs": [],
      "stateMutability": "nonpayable",
      "type": "function"
    },
    {
      "inputs": [
        {
          "internalType": "address",
          "name": "_opBorrowing",
          "type": "address"
        }
      ],
      "name": "setOpBorrowing",
      "outputs": [],
      "stateMutability": "nonpayable",
      "type": "function"
    },
    {
      "inputs": [
        {
          "internalType": "address",
          "name": "_openlev",
          "type": "address"
        }
      ],
      "name": "setOpenLev",
      "outputs": [],
      "stateMutability": "nonpayable",
      "type": "function"
    },
    {
      "inputs": [
        {
          "internalType": "address payable",
          "name": "newPendingAdmin",
          "type": "address"
        }
      ],
      "name": "setPendingAdmin",
      "outputs": [],
      "stateMutability": "nonpayable",
      "type": "function"
    },
    {
      "inputs": [
        {
          "internalType": "bool",
          "name": "_uspend",
          "type": "bool"
        }
      ],
      "name": "setSuspend",
      "outputs": [],
      "stateMutability": "nonpayable",
      "type": "function"
    },
    {
      "inputs": [
        {
          "internalType": "bool",
          "name": "_uspend",
          "type": "bool"
        }
      ],
      "name": "setSuspendAll",
      "outputs": [],
      "stateMutability": "nonpayable",
      "type": "function"
    },
    {
      "inputs": [],
      "name": "suspend",
      "outputs": [
        {
          "internalType": "bool",
          "name": "",
          "type": "bool"
        }
      ],
      "stateMutability": "view",
      "type": "function"
    },
    {
      "inputs": [],
      "name": "suspendAll",
      "outputs": [
        {
          "internalType": "bool",
          "name": "",
          "type": "bool"
        }
      ],
      "stateMutability": "view",
      "type": "function"
    },
    {
      "inputs": [
        {
          "internalType": "address",
          "name": "from",
          "type": "address"
        },
        {
          "internalType": "address",
          "name": "to",
          "type": "address"
        },
        {
          "internalType": "uint256",
          "name": "lTokenAmount",
          "type": "uint256"
        }
      ],
      "name": "transferAllowed",
      "outputs": [],
      "stateMutability": "nonpayable",
      "type": "function"
    },
    {
      "inputs": [
        {
          "internalType": "address payable",
          "name": "sender",
          "type": "address"
        }
      ],
      "name": "updateInterestAllowed",
      "outputs": [],
      "stateMutability": "nonpayable",
      "type": "function"
    },
    {
      "inputs": [
        {
          "internalType": "uint256",
          "name": "marketId",
          "type": "uint256"
        },
        {
          "internalType": "address",
          "name": "payee",
          "type": "address"
        }
      ],
      "name": "updatePriceAllowed",
      "outputs": [],
      "stateMutability": "nonpayable",
      "type": "function"
    },
    {
      "inputs": [],
      "name": "wETH",
      "outputs": [
        {
          "internalType": "address",
          "name": "",
          "type": "address"
        }
      ],
      "stateMutability": "view",
      "type": "function"
    },
    {
      "inputs": [],
      "name": "xoleToken",
      "outputs": [
        {
          "internalType": "address",
          "name": "",
          "type": "address"
        }
      ],
      "stateMutability": "view",
      "type": "function"
    }
  ],
  "bytecode": "0x608060405234801561001057600080fd5b50600380546001600160a01b031916331790556140f4806100326000396000f3fe608060405234801561001057600080fd5b50600436106103995760003560e01c80638aad2b33116101e9578063ca4b208b1161010f578063e7eac1b0116100ad578063f851a4401161007c578063f851a4401461074a578063fd2da33914610752578063fdbccfd71461075a578063ff125c8a1461076d57610399565b8063e7eac1b014610705578063ebbeb85814610718578063f14039de1461073a578063f24286211461074257610399565b8063da3d454c116100e9578063da3d454c146106c4578063e1798a13146106d7578063e58bb62a146106ea578063e6400bbe146106fd57610399565b8063ca4b208b14610696578063cd77b1ac1461069e578063cff2a7fb146106b157610399565b8063b9b11f4911610187578063bc687bd011610156578063bc687bd01461065d578063bc7d83c51461040f578063c475b7cb14610670578063c706c0301461068357610399565b8063b9b11f491461040f578063b9f9850a1461062f578063ba580b7114610637578063bae9c55c1461064a57610399565b8063a33474a9116101c3578063a33474a9146105ee578063a768320014610601578063ab56d59b14610614578063acdb2ed51461062757610399565b80638aad2b33146105b557806395a21aec146105c85780639f5acdd8146105db57610399565b8063541eac3b116102ce5780636b91be3a1161026c57806378b026781161023b57806378b02678146105705780637c21d5e014610585578063815ad0d11461058d5780638726bb89146105a057610399565b80636b91be3a146105105780636fcf5103146105235780637532fbd61461053657806377daf7eb1461055d57610399565b8063576fd3f0116102a8578063576fd3f0146104da57806357739dc5146104ed5780635c60da1b1461050057806364adff091461050857610399565b8063541eac3b1461049957806355f53aa5146104ac57806355fea300146104bf57610399565b8063297d8b281161033b5780633df31a5c116103155780633df31a5c1461044a5780634dd18bf51461046b57806352ba8c9a1461047e57806353e083a81461049157610399565b8063297d8b281461040f57806329a726131461042f57806338643b061461043757610399565b8063168899551161037757806316889955146103ce5780631ce99347146103ec57806326782247146103f4578063270f3726146103fc57610399565b806304e79e291461039e57806309644e98146103b35780630e18b681146103c6575b600080fd5b6103b16103ac3660046127d5565b610780565b005b6103b16103c13660046128e3565b6107d9565b6103b161082a565b6103d661092a565b6040516103e39190612d28565b60405180910390f35b6103d6610939565b6103d6610948565b6103b161040a366004612935565b610957565b61042261041d366004612b80565b6109e0565b6040516103e39190612e82565b6103d6610a40565b6104226104453660046127d5565b610a4f565b61045d6104583660046127f8565b610a64565b6040516103e3929190612d3c565b6103b16104793660046127d5565b610a95565b61042261048c366004612bd4565b610b00565b6103d6610c0e565b6103b16104a73660046127d5565b610c1d565b6104226104ba366004612b80565b610c6d565b6104c7610ccb565b6040516103e3979695949392919061321a565b6103b16104e83660046127d5565b610d0a565b6103b16104fb366004612962565b610d34565b6103d6610d8b565b6103d6610d9a565b6103b161051e3660046127d5565b610da9565b6103b16105313660046129a9565b610df1565b610549610544366004612935565b610e62565b6040516103e3989796959493929190613270565b6103b161056b36600461298d565b610ec9565b610578610f45565b6040516103e39190612e8d565b6103d6610fd3565b61042261059b366004612b80565b610fe2565b6105a8610ff7565b6040516103e39190613211565b6104226105c3366004612b80565b610ffd565b6103b16105d63660046129e4565b611023565b6103b16105e9366004612bb0565b6110cc565b6103b16105fc366004612c77565b611129565b6103b161060f366004612830565b6111a0565b6103b16106223660046127f8565b6119b2565b610422611ac2565b6105a8611acb565b6103b161064536600461298d565b611ad1565b6103b1610658366004612c53565b611b42565b6103b161066b366004612830565b611bc0565b61042261067e366004612b80565b6121cd565b610422610691366004612bd4565b6121e2565b6103d66122f3565b6103b16106ac366004612962565b610d64565b6103b16106bf3660046127d5565b612302565b6103b16106d23660046128a3565b612352565b6103b16106e5366004612c0a565b612490565b6103d66106f83660046127d5565b61251e565b610422612539565b610422610713366004612b80565b612549565b61072b610726366004612a8f565b61255e565b6040516103e39392919061325a565b6105a8612590565b6103d6612596565b6103d66125a5565b6105a86125b4565b6103b1610768366004612c53565b6125ba565b6103b161077b3660046128a3565b611124565b610788612638565b6001600160a01b0381166107b75760405162461bcd60e51b81526004016107ae90612f3e565b60405180910390fd5b600d80546001600160a01b0319166001600160a01b0392909216919091179055565b801561082457600d546001600160a01b03858116911614806108085750601b546001600160a01b038581169116145b6108245760405162461bcd60e51b81526004016107ae90613165565b50505050565b6002546001600160a01b031633146108735760405162461bcd60e51b815260040180806020018281038252602281526020018061407c6022913960400191505060405180910390fd5b60018054600280546001600160a01b038082166001600160a01b031980861682179687905590921690925560408051938316808552949092166020840152815190927ff9ffabca9c8276e99321725bcb43fb076a6c66a54b7f21c4e8146d8519b417dc92908290030190a1600254604080516001600160a01b038085168252909216602083015280517fca4f2f25d0898edd99413412fb94012f9e54ec8142f9b093e7720646a95b16a99281900390910190a15050565b601b546001600160a01b031681565b6007546001600160a01b031681565b6002546001600160a01b031681565b6001546001600160a01b031633148061097a57506003546001600160a01b031633145b6109b55760405162461bcd60e51b815260040180806020018281038252602181526020018061409e6021913960400191505060405180910390fd5b6001600160a01b03919091166000908152601660205260409020805460ff1916911515919091179055565b60195460009060ff1615610a065760405162461bcd60e51b81526004016107ae90612ee0565b6000828152601a6020526040902054829060ff1615610a375760405162461bcd60e51b81526004016107ae90613046565b50600192915050565b600d546001600160a01b031681565b60166020526000908152604090205460ff1681565b6013602090815260009283526040808420909152908252902080546001909101546001600160a01b03918216911682565b610a9d612638565b600280546001600160a01b038381166001600160a01b0319831681179093556040805191909216808252602082019390935281517fca4f2f25d0898edd99413412fb94012f9e54ec8142f9b093e7720646a95b16a9929181900390910190a15050565b60195460009060ff1615610b265760405162461bcd60e51b81526004016107ae90612ee0565b6000848152601a6020526040902054849060ff1615610b575760405162461bcd60e51b81526004016107ae90613046565b600d54604051631b0fef0d60e21b81526000916001600160a01b031690636c3fbc3490610b8c9088908a908990600401612e5b565b60e06040518083038186803b158015610ba457600080fd5b505afa158015610bb8573d6000803e3d6000fd5b505050506040513d601f19601f82011682018060405250810190610bdc9190612ad9565b90508060200151600014610c025760405162461bcd60e51b81526004016107ae90613073565b50600195945050505050565b6004546001600160a01b031681565b610c25612638565b6001600160a01b038116610c4b5760405162461bcd60e51b81526004016107ae90612f3e565b600780546001600160a01b0319166001600160a01b0392909216919091179055565b60195460009060ff1615610c935760405162461bcd60e51b81526004016107ae90612ee0565b60008281526015602052604090205460ff1615610cc25760405162461bcd60e51b81526004016107ae90613118565b5060015b919050565b600f546010546011546012546001600160801b0380831692600160801b900481169161ffff808216926201000083049091169164010000000090041687565b610d12612638565b601b80546001600160a01b0319166001600160a01b0392909216919091179055565b3360009081526016602052604090205460ff1615610d645760405162461bcd60e51b81526004016107ae90612fb2565b60195460ff1615610d875760405162461bcd60e51b81526004016107ae90612ee0565b5050565b6000546001600160a01b031681565b6005546001600160a01b031681565b6001546001600160a01b0382811691161480610dd257506003546001600160a01b038281169116145b610dee5760405162461bcd60e51b81526004016107ae906130ad565b50565b6001546001600160a01b0316331480610e1457506003546001600160a01b031633145b610e4f5760405162461bcd60e51b815260040180806020018281038252602181526020018061409e6021913960400191505060405180910390fd5b8051610d8790600c906020840190612690565b60176020908152600092835260408084209091529082529020805460018201546002830154600384015460049094015467ffffffffffffffff80851695680100000000000000008604821695600160801b8104831695600160c01b90910490921693919288565b6001546001600160a01b0316331480610eec57506003546001600160a01b031633145b610f275760405162461bcd60e51b815260040180806020018281038252602181526020018061409e6021913960400191505060405180910390fd5b600e8054911515600160a01b0260ff60a01b19909216919091179055565b600c805460408051602060026001851615610100026000190190941693909304601f81018490048402820184019092528181529291830182828015610fcb5780601f10610fa057610100808354040283529160200191610fcb565b820191906000526020600020905b815481529060010190602001808311610fae57829003601f168201915b505050505081565b600e546001600160a01b031681565b60146020526000908152604090205460ff1681565b60095481565b60195460009060ff1615610cc25760405162461bcd60e51b81526004016107ae90612ee0565b6001546001600160a01b0316331461104d5760405162461bcd60e51b81526004016107ae90613142565b600480546001600160a01b03199081166001600160a01b038a811691909117909255600580548216898416179055600680548216888416179055600780548216878416179055600d80548216868416179055600e805490911691841691909117905580516110c290600c906020840190612690565b5050505050505050565b600d5433906001600160a01b03168114806110f05750600d546001600160a01b0316155b806111085750601b546001600160a01b038281169116145b6111245760405162461bcd60e51b81526004016107ae90613165565b505050565b611131612638565b6509184e72a0008410801561114b57506509184e72a00083105b801561115c57506509184e72a00082105b80156111705750670de0b6b3a76400008111155b61118c5760405162461bcd60e51b81526004016107ae906131be565b600893909355600991909155600a55600b55565b6111a8612638565b826001600160a01b0316846001600160a01b031614156111da5760405162461bcd60e51b81526004016107ae90612f5a565b6001600160a01b038481166000908152601360209081526040808320878516845290915290205416158061123357506001600160a01b038381166000908152601360209081526040808320888516845290915290205416155b61124f5760405162461bcd60e51b81526004016107ae906130ee565b6001600160a01b038481166000908152601c60205260409020541615158061129057506001600160a01b038381166000908152601c60205260409020541615155b6112ac5760405162461bcd60e51b81526004016107ae90612f07565b6040805160c0810182526001600160a01b0380871680835286821660208085019190915261ffff8716848601526060840186905284518086018652601381527227b832b72632bb32b930b3b290262a37b5b2b760691b818301526080850152845180860186526006815265262a37b5b2b760d11b8183015260a08501526000918252601c9052928320549192918291166114be57600060405161134e9061271c565b604051809103906000f08015801561136a573d6000803e3d6000fd5b5084516006549192506001600160a01b0380841692639d867f80929182811691161461139757600061139a565b60015b30600854600954600a54600b54670de0b6b3a76400008d608001518e60a001518f600001516001600160a01b031663313ce5676040518163ffffffff1660e01b815260040160206040518083038186803b1580156113f757600080fd5b505afa15801561140b573d6000803e3d6000fd5b505050506040513d601f19601f8201168201806040525081019061142f9190612ca8565b600160009054906101000a90046001600160a01b0316600760009054906101000a90046001600160a01b03166040518e63ffffffff1660e01b81526004016114839d9c9b9a99989796959493929190612db1565b600060405180830381600087803b15801561149d57600080fd5b505af11580156114b1573d6000803e3d6000fd5b50505050809250506114dc565b6001600160a01b038088166000908152601c60205260409020541691505b6001600160a01b038681166000908152601c60205260409020541661167c5760006040516115099061271c565b604051809103906000f080158015611525573d6000803e3d6000fd5b5060208501516006549192506001600160a01b0380841692639d867f809291828116911614611555576000611558565b60015b30600854600954600a54600b54670de0b6b3a76400008d608001518e60a001518f602001516001600160a01b031663313ce5676040518163ffffffff1660e01b815260040160206040518083038186803b1580156115b557600080fd5b505afa1580156115c9573d6000803e3d6000fd5b505050506040513d601f19601f820116820180604052508101906115ed9190612ca8565b600160009054906101000a90046001600160a01b0316600760009054906101000a90046001600160a01b03166040518e63ffffffff1660e01b81526004016116419d9c9b9a99989796959493929190612db1565b600060405180830381600087803b15801561165b57600080fd5b505af115801561166f573d6000803e3d6000fd5b5050505080915050611699565b506001600160a01b038086166000908152601c6020526040902054165b6040518060400160405280836001600160a01b03168152602001826001600160a01b031681525060136000896001600160a01b03166001600160a01b031681526020019081526020016000206000886001600160a01b03166001600160a01b0316815260200190815260200160002060008201518160000160006101000a8154816001600160a01b0302191690836001600160a01b0316021790555060208201518160010160006101000a8154816001600160a01b0302191690836001600160a01b031602179055509050506040518060400160405280836001600160a01b03168152602001826001600160a01b031681525060136000886001600160a01b03166001600160a01b031681526020019081526020016000206000896001600160a01b03166001600160a01b0316815260200190815260200160002060008201518160000160006101000a8154816001600160a01b0302191690836001600160a01b0316021790555060208201518160010160006101000a8154816001600160a01b0302191690836001600160a01b031602179055509050506000600d60009054906101000a90046001600160a01b03166001600160a01b0316638cc87dcd8484876040015188606001516040518563ffffffff1660e01b81526004016118829493929190612ea0565b602060405180830381600087803b15801561189c57600080fd5b505af11580156118b0573d6000803e3d6000fd5b505050506040513d601f19601f820116820180604052508101906118d49190612b64565b601b549091506001600160a01b03161561195557601b546060850151604051635bdb2c8f60e01b81526001600160a01b0390921691635bdb2c8f9161192291859188918891906004016131db565b600060405180830381600087803b15801561193c57600080fd5b505af1158015611950573d6000803e3d6000fd5b505050505b7fa93d5420526ec2e57967e1a68281eaf60571ea4d504a514ada54acabfa895f518460000151848660200151858589604001518a606001516040516119a09796959493929190612d56565b60405180910390a15050505050505050565b6001546001600160a01b03163314806119d557506003546001600160a01b031633145b611a105760405162461bcd60e51b815260040180806020018281038252602181526020018061409e6021913960400191505060405180910390fd5b6001600160a01b038216611a365760405162461bcd60e51b81526004016107ae90612fd8565b6001600160a01b038116611a5c5760405162461bcd60e51b81526004016107ae9061300f565b6001600160a01b038281166000908152601c60205260409020541615611a945760405162461bcd60e51b81526004016107ae90613193565b6001600160a01b039182166000908152601c6020526040902080546001600160a01b03191691909216179055565b60195460ff1681565b600a5481565b6001546001600160a01b0316331480611af457506003546001600160a01b031633145b611b2f5760405162461bcd60e51b815260040180806020018281038252602181526020018061409e6021913960400191505060405180910390fd5b6019805460ff1916911515919091179055565b6001546001600160a01b0316331480611b6557506003546001600160a01b031633145b611ba05760405162461bcd60e51b815260040180806020018281038252602181526020018061409e6021913960400191505060405180910390fd5b600091825260156020526040909120805460ff1916911515919091179055565b826001600160a01b0316846001600160a01b03161415611bf25760405162461bcd60e51b81526004016107ae90612f5a565b6001600160a01b0384811660009081526013602090815260408083208785168452909152902054161580611c4b57506001600160a01b038381166000908152601360209081526040808320888516845290915290205416155b611c675760405162461bcd60e51b81526004016107ae906130ee565b60006040518060c00160405280866001600160a01b03168152602001856001600160a01b031681526020018461ffff1681526020018381526020016040518060400160405280601381526020017227b832b72632bb32b930b3b290262a37b5b2b760691b815250815260200160405180604001604052806006815260200165262a37b5b2b760d11b81525081525090506000604051611d059061271c565b604051809103906000f080158015611d21573d6000803e3d6000fd5b5082516006549192506001600160a01b0380841692639d867f809291828116911614611d4e576000611d51565b60015b30600854600954600a54600b54670de0b6b3a76400008b608001518c60a001518d600001516001600160a01b031663313ce5676040518163ffffffff1660e01b815260040160206040518083038186803b158015611dae57600080fd5b505afa158015611dc2573d6000803e3d6000fd5b505050506040513d601f19601f82011682018060405250810190611de69190612ca8565b600160009054906101000a90046001600160a01b0316600760009054906101000a90046001600160a01b03166040518e63ffffffff1660e01b8152600401611e3a9d9c9b9a99989796959493929190612db1565b600060405180830381600087803b158015611e5457600080fd5b505af1158015611e68573d6000803e3d6000fd5b505050506000604051611e7a9061271c565b604051809103906000f080158015611e96573d6000803e3d6000fd5b5060208401516006549192506001600160a01b0380841692639d867f809291828116911614611ec6576000611ec9565b60015b30600854600954600a54600b54670de0b6b3a76400008c608001518d60a001518e602001516001600160a01b031663313ce5676040518163ffffffff1660e01b815260040160206040518083038186803b158015611f2657600080fd5b505afa158015611f3a573d6000803e3d6000fd5b505050506040513d601f19601f82011682018060405250810190611f5e9190612ca8565b600160009054906101000a90046001600160a01b0316600760009054906101000a90046001600160a01b03166040518e63ffffffff1660e01b8152600401611fb29d9c9b9a99989796959493929190612db1565b600060405180830381600087803b158015611fcc57600080fd5b505af1158015611fe0573d6000803e3d6000fd5b505050506040518060400160405280836001600160a01b03168152602001826001600160a01b031681525060136000896001600160a01b03166001600160a01b031681526020019081526020016000206000886001600160a01b03166001600160a01b0316815260200190815260200160002060008201518160000160006101000a8154816001600160a01b0302191690836001600160a01b0316021790555060208201518160010160006101000a8154816001600160a01b0302191690836001600160a01b031602179055509050506040518060400160405280836001600160a01b03168152602001826001600160a01b031681525060136000886001600160a01b03166001600160a01b031681526020019081526020016000206000896001600160a01b03166001600160a01b0316815260200190815260200160002060008201518160000160006101000a8154816001600160a01b0302191690836001600160a01b0316021790555060208201518160010160006101000a8154816001600160a01b0302191690836001600160a01b031602179055509050506000600d60009054906101000a90046001600160a01b03166001600160a01b0316638cc87dcd8484876040015188606001516040518563ffffffff1660e01b81526004016118829493929190612ea0565b601a6020526000908152604090205460ff1681565b60195460009060ff16156122085760405162461bcd60e51b81526004016107ae90612ee0565b60008481526015602052604090205460ff16156122375760405162461bcd60e51b81526004016107ae90613118565b601b546001600160a01b0316156122e957601b54604051633c4ca75560e11b81526001600160a01b03909116906378994eaa9061227c90869088908790600401612e5b565b60206040518083038186803b15801561229457600080fd5b505afa1580156122a8573d6000803e3d6000fd5b505050506040513d601f19601f820116820180604052508101906122cc9190612b98565b156122e95760405162461bcd60e51b81526004016107ae90613090565b5060019392505050565b6003546001600160a01b031681565b61230a612638565b6001600160a01b0381166123305760405162461bcd60e51b81526004016107ae90612f3e565b600e80546001600160a01b0319166001600160a01b0392909216919091179055565b3360009081526016602052604090205460ff16156123825760405162461bcd60e51b81526004016107ae90612fb2565b60195460ff16156123a55760405162461bcd60e51b81526004016107ae90612ee0565b600d5482906001600160a01b03808316911614806123cc5750600d546001600160a01b0316155b806123e45750601b546001600160a01b038281169116145b6124005760405162461bcd60e51b81526004016107ae90613165565b81336001600160a01b031663fb0fc2b66040518163ffffffff1660e01b815260040160206040518083038186803b15801561243a57600080fd5b505afa15801561244e573d6000803e3d6000fd5b505050506040513d601f19601f820116820180604052508101906124729190612b98565b10156108245760405162461bcd60e51b81526004016107ae90612f85565b600d5433906001600160a01b03168114806124b45750600d546001600160a01b0316155b806124cc5750601b546001600160a01b038281169116145b6124e85760405162461bcd60e51b81526004016107ae90613165565b60008581526015602052604090205460ff16156125175760405162461bcd60e51b81526004016107ae90613118565b5050505050565b601c602052600090815260409020546001600160a01b031681565b600e54600160a01b900460ff1681565b60156020526000908152604090205460ff1681565b601860209081526000938452604080852082529284528284209052825290208054600182015460029092015490919083565b60085481565b6006546001600160a01b031681565b6001546001600160a01b031681565b600b5481565b6001546001600160a01b03163314806125dd57506003546001600160a01b031633145b6126185760405162461bcd60e51b815260040180806020018281038252602181526020018061409e6021913960400191505060405180910390fd5b6000918252601a6020526040909120805460ff1916911515919091179055565b6001546001600160a01b0316331461268e576040805162461bcd60e51b815260206004820152601460248201527331b0b63632b91036bab9ba1031329030b236b4b760611b604482015290519081900360640190fd5b565b828054600181600116156101000203166002900490600052602060002090601f0160209004810192826126c6576000855561270c565b82601f106126df57805160ff191683800117855561270c565b8280016001018555821561270c579182015b8281111561270c5782518255916020019190600101906126f1565b50612718929150612729565b5090565b610d8d806132ef83390190565b5b80821115612718576000815560010161272a565b8051610cc6816132d0565b600082601f830112612759578081fd5b813567ffffffffffffffff8082111561276e57fe5b604051601f8301601f19168101602001828111828210171561278c57fe5b6040528281528483016020018610156127a3578384fd5b82602086016020830137918201602001929092529392505050565b80516001600160801b0381168114610cc657600080fd5b6000602082840312156127e6578081fd5b81356127f1816132bb565b9392505050565b6000806040838503121561280a578081fd5b8235612815816132bb565b91506020830135612825816132bb565b809150509250929050565b60008060008060808587031215612845578182fd5b8435612850816132bb565b93506020850135612860816132bb565b92506040850135612870816132de565b9150606085013567ffffffffffffffff81111561288b578182fd5b61289787828801612749565b91505092959194509250565b6000806000606084860312156128b7578283fd5b83356128c2816132bb565b925060208401356128d2816132bb565b929592945050506040919091013590565b600080600080608085870312156128f8578384fd5b8435612903816132bb565b93506020850135612913816132bb565b925060408501359150606085013561292a816132d0565b939692955090935050565b60008060408385031215612947578182fd5b8235612952816132bb565b91506020830135612825816132d0565b60008060408385031215612974578182fd5b823561297f816132bb565b946020939093013593505050565b60006020828403121561299e578081fd5b81356127f1816132d0565b6000602082840312156129ba578081fd5b813567ffffffffffffffff8111156129d0578182fd5b6129dc84828501612749565b949350505050565b600080600080600080600060e0888a0312156129fe578485fd5b8735612a09816132bb565b96506020880135612a19816132bb565b95506040880135612a29816132bb565b94506060880135612a39816132bb565b93506080880135612a49816132bb565b925060a0880135612a59816132bb565b915060c088013567ffffffffffffffff811115612a74578182fd5b612a808a828b01612749565b91505092959891949750929550565b600080600060608486031215612aa3578081fd5b8335612aae816132bb565b92506020840135612abe816132d0565b91506040840135612ace816132bb565b809150509250925092565b600060e08284031215612aea578081fd5b60405160e0810181811067ffffffffffffffff82111715612b0757fe5b80604052508251815260208301516020820152612b266040840161273e565b6040820152612b37606084016127be565b60608201526080830151608082015260a083015160a082015260c083015160c08201528091505092915050565b600060208284031215612b75578081fd5b81516127f1816132de565b600060208284031215612b91578081fd5b5035919050565b600060208284031215612ba9578081fd5b5051919050565b60008060408385031215612bc2578182fd5b823591506020830135612825816132bb565b600080600060608486031215612be8578081fd5b833592506020840135612bfa816132bb565b91506040840135612ace816132d0565b60008060008060808587031215612c1f578182fd5b843593506020850135612c31816132bb565b925060408501359150606085013567ffffffffffffffff81111561288b578182fd5b60008060408385031215612c65578182fd5b823591506020830135612825816132d0565b60008060008060808587031215612c8c578182fd5b5050823594602084013594506040840135936060013592509050565b600060208284031215612cb9578081fd5b815160ff811681146127f1578182fd5b6001600160a01b03169052565b60008151808452815b81811015612cfb57602081850181015186830182015201612cdf565b81811115612d0c5782602083870101525b50601f01601f19169290920160200192915050565b60ff169052565b6001600160a01b0391909116815260200190565b6001600160a01b0392831681529116602082015260400190565b6001600160a01b038881168252878116602083015286811660408301528516606082015261ffff8481166080830152831660a082015260e060c08201819052600090612da490830184612cd6565b9998505050505050505050565b6001600160a01b038e1681528c151560208201526000612dd4604083018e612cc9565b8b60608301528a60808301528960a08301528860c08301528760e08301526101a0610100830152612e096101a0830188612cd6565b828103610120840152612e1c8188612cd6565b915050612e2d610140830186612d21565b612e3b610160830185612cc9565b612e49610180830184612cc9565b9e9d5050505050505050505050505050565b6001600160a01b0393909316835261ffff9190911660208301521515604082015260600190565b901515815260200190565b6000602082526127f16020830184612cd6565b6001600160a01b0385811682528416602082015261ffff83166040820152608060608201819052600090612ed690830184612cd6565b9695505050505050565b6020808252600d908201526c14dd5cdc195b99195908185b1b609a1b604082015260600190565b60208082526019908201527f6e6f207075626c696320706f6f6c7320617661696c61626c6500000000000000604082015260600190565b602080825260029082015261060f60f31b604082015260600190565b6020808252601190820152706964656e746963616c206164647265737360781b604082015260600190565b602080825260139082015272426f72726f77206f7574206f662072616e676560681b604082015260600190565b6020808252600c908201526b13141bdbdb081c185d5cd95960a21b604082015260600190565b60208082526019908201527f746f6b656e20616464726573732063616e6e6f74206265203000000000000000604082015260600190565b60208082526019908201527f6c706f6f6c20616464726573732063616e6e6f74206265203000000000000000604082015260600190565b60208082526013908201527253757370656e64656420626f72726f77696e6760681b604082015260600190565b6020808252600390820152622126a160e91b604082015260600190565b60208082526003908201526226a12160e91b604082015260600190565b60208082526021908201527f63616c6c6572206d7573742062652061646d696e206f7220646576656c6f70656040820152603960f91b606082015260800190565b60208082526010908201526f706f6f6c20706169722065786973747360801b604082015260600190565b60208082526010908201526f13585c9ad95d081cdd5cdc195b99195960821b604082015260600190565b6020808252600990820152683737ba1030b236b4b760b91b604082015260600190565b60208082526014908201527327b832b930ba37b9103737ba1037b832b72632bb60611b604082015260600190565b6020808252601190820152701c1d589b1a58c81c1bdbdb08195e1a5cdd607a1b604082015260600190565b60208082526003908201526250524960e81b604082015260600190565b61ffff851681526001600160a01b03848116602083015283166040820152608060608201819052600090612ed690830184612cd6565b90815260200190565b96875260208701959095526001600160801b039384166040870152918316606086015261ffff90811660808601521660a08401521660c082015260e00190565b9283526020830191909152604082015260600190565b67ffffffffffffffff988916815296881660208801529487166040870152929095166060850152608084015260a083019390935260c082019290925260e08101919091526101000190565b6001600160a01b0381168114610dee57600080fd5b8015158114610dee57600080fd5b61ffff81168114610dee57600080fdfe608060405234801561001057600080fd5b5060038054336001600160a01b03199182168117909255600180549091169091179055610d4b806100426000396000f3fe6080604052600436106100955760003560e01c80635c60da1b116100595780635c60da1b146102fc5780639d867f8014610311578063ca4b208b146104a4578063d784d426146104b9578063f851a440146104ec576100a4565b80630933c1ed146100ac5780630e18b681146101d257806326782247146101e75780634487152f146102185780634dd18bf5146102c9576100a4565b366100a4576100a2610501565b005b6100a2610501565b3480156100b857600080fd5b5061015d600480360360208110156100cf57600080fd5b810190602081018135600160201b8111156100e957600080fd5b8201836020820111156100fb57600080fd5b803590602001918460018302840111600160201b8311171561011c57600080fd5b91908080601f01602080910402602001604051908101604052809392919081815260200183838082843760009201919091525092955061058c945050505050565b6040805160208082528351818301528351919283929083019185019080838360005b8381101561019757818101518382015260200161017f565b50505050905090810190601f1680156101c45780820380516001836020036101000a031916815260200191505b509250505060405180910390f35b3480156101de57600080fd5b506100a26105ab565b3480156101f357600080fd5b506101fc6106ab565b604080516001600160a01b039092168252519081900360200190f35b34801561022457600080fd5b5061015d6004803603602081101561023b57600080fd5b810190602081018135600160201b81111561025557600080fd5b82018360208201111561026757600080fd5b803590602001918460018302840111600160201b8311171561028857600080fd5b91908080601f0160208091040260200160405190810160405280939291908181526020018383808284376000920191909152509295506106ba945050505050565b3480156102d557600080fd5b506100a2600480360360208110156102ec57600080fd5b50356001600160a01b03166108d8565b34801561030857600080fd5b506101fc610943565b34801561031d57600080fd5b506100a260048036036101a081101561033557600080fd5b6001600160a01b038235811692602081013515159260408201359092169160608201359160808101359160a08201359160c08101359160e082013591908101906101208101610100820135600160201b81111561039157600080fd5b8201836020820111156103a357600080fd5b803590602001918460018302840111600160201b831117156103c457600080fd5b91908080601f0160208091040260200160405190810160405280939291908181526020018383808284376000920191909152509295949360208101935035915050600160201b81111561041657600080fd5b82018360208201111561042857600080fd5b803590602001918460018302840111600160201b8311171561044957600080fd5b91908080601f0160208091040260200160405190810160405280939291908181526020018383808284376000920191909152509295505060ff8335169350506001600160a01b03602083013581169260400135169050610952565b3480156104b057600080fd5b506101fc610b54565b3480156104c557600080fd5b506100a2600480360360208110156104dc57600080fd5b50356001600160a01b0316610b63565b3480156104f857600080fd5b506101fc610bcd565b361561058a57600080546040516001600160a01b0390911690829036908083838082843760405192019450600093509091505080830381855af49150503d806000811461056a576040519150601f19603f3d011682016040523d82523d6000602084013e61056f565b606091505b505090506040513d6000823e818015610586573d82f35b3d82fd5b565b6000546060906105a5906001600160a01b031683610bdc565b92915050565b6002546001600160a01b031633146105f45760405162461bcd60e51b8152600401808060200182810382526022815260200180610cf46022913960400191505060405180910390fd5b60018054600280546001600160a01b038082166001600160a01b031980861682179687905590921690925560408051938316808552949092166020840152815190927ff9ffabca9c8276e99321725bcb43fb076a6c66a54b7f21c4e8146d8519b417dc92908290030190a1600254604080516001600160a01b038085168252909216602083015280517fca4f2f25d0898edd99413412fb94012f9e54ec8142f9b093e7720646a95b16a99281900390910190a15050565b6002546001600160a01b031681565b6060600080306001600160a01b0316846040516024018080602001828103825283818151815260200191508051906020019080838360005b8381101561070a5781810151838201526020016106f2565b50505050905090810190601f1680156107375780820380516001836020036101000a031916815260200191505b5060408051601f198184030181529181526020820180516001600160e01b0316630933c1ed60e01b178152905182519295509350839250908083835b602083106107925780518252601f199092019160209182019101610773565b6001836020036101000a038019825116818451168082178552505050505050905001915050600060405180830381855afa9150503d80600081146107f2576040519150601f19603f3d011682016040523d82523d6000602084013e6107f7565b606091505b5091509150600082141561080c573d60208201fd5b80806020019051602081101561082157600080fd5b8101908080516040519392919084600160201b82111561084057600080fd5b90830190602082018581111561085557600080fd5b8251600160201b81118282018810171561086e57600080fd5b82525081516020918201929091019080838360005b8381101561089b578181015183820152602001610883565b50505050905090810190601f1680156108c85780820380516001836020036101000a031916815260200191505b5060405250505092505050919050565b6108e0610c9d565b600280546001600160a01b038381166001600160a01b0319831681179093556040805191909216808252602082019390935281517fca4f2f25d0898edd99413412fb94012f9e54ec8142f9b093e7720646a95b16a9929181900390910190a15050565b6000546001600160a01b031681565b61095a610c9d565b6000546001600160a01b0316156109aa576040805162461bcd60e51b815260206004820152600f60248201526e696e697469616c697a65206f6e636560881b604482015290519081900360640190fd5b610b17818e8e8e8e8e8e8e8e8e8e8e604051602401808c6001600160a01b031681526020018b151581526020018a6001600160a01b0316815260200189815260200188815260200187815260200186815260200185815260200180602001806020018460ff168152602001838103835286818151815260200191508051906020019080838360005b83811015610a4a578181015183820152602001610a32565b50505050905090810190601f168015610a775780820380516001836020036101000a031916815260200191505b50838103825285518152855160209182019187019080838360005b83811015610aaa578181015183820152602001610a92565b50505050905090810190601f168015610ad75780820380516001836020036101000a031916815260200191505b5060408051601f198184030181529190526020810180516001600160e01b03166319134c6d60e31b1790529d50610bdc9c50505050505050505050505050565b50600080546001600160a01b039283166001600160a01b031991821617909155600180549390921692169190911790555050505050505050505050565b6003546001600160a01b031681565b610b6b610c9d565b600080546001600160a01b038381166001600160a01b0319831617928390556040805192821680845293909116602083015280517fd604de94d45953f9138079ec1b82d533cb2160c906d1076d1f7ed54befbca97a9281900390910190a15050565b6001546001600160a01b031681565b6060600080846001600160a01b0316846040518082805190602001908083835b60208310610c1b5780518252601f199092019160209182019101610bfc565b6001836020036101000a038019825116818451168082178552505050505050905001915050600060405180830381855af49150503d8060008114610c7b576040519150601f19603f3d011682016040523d82523d6000602084013e610c80565b606091505b50915091506000821415610c95573d60208201fd5b949350505050565b6001546001600160a01b0316331461058a576040805162461bcd60e51b815260206004820152601460248201527331b0b63632b91036bab9ba1031329030b236b4b760611b604482015290519081900360640190fdfe6f6e6c792070656e64696e6741646d696e2063616e206163636570742061646d696ea26469706673582212205c0c9948705813841513ab9776de2512394cde9c8d2c4451cdefa44d2a843a9364736f6c634300070600336f6e6c792070656e64696e6741646d696e2063616e206163636570742061646d696e63616c6c6572206d7573742062652061646d696e206f7220646576656c6f706572a2646970667358221220722a93e79f32722b21aac33e28c44663a0f0e0ca2a77e55e9322f57bea2016ff64736f6c63430007060033",
  "linkReferences": {},
  "deployedLinkReferences": {}
}