{
  "_format": "hh-sol-artifact-1",
  "contractName": "FarmingPools",
  "sourceName": "contracts/udex/farming/FarmingPools.sol",
  "abi": [
    {
      "inputs": [
        {
          "internalType": "address",
          "name": "_oleToken",
          "type": "address"
        },
        {
          "internalType": "address payable",
          "name": "_admin",
          "type": "address"
        }
      ],
      "stateMutability": "nonpayable",
      "type": "constructor"
    },
    {
      "anonymous": false,
      "inputs": [
        {
          "indexed": false,
          "internalType": "address",
          "name": "oldAdmin",
          "type": "address"
        },
        {
          "indexed": false,
          "internalType": "address",
          "name": "newAdmin",
          "type": "address"
        }
      ],
      "name": "NewAdmin",
      "type": "event"
    },
    {
      "anonymous": false,
      "inputs": [
        {
          "indexed": false,
          "internalType": "address",
          "name": "oldPendingAdmin",
          "type": "address"
        },
        {
          "indexed": false,
          "internalType": "address",
          "name": "newPendingAdmin",
          "type": "address"
        }
      ],
      "name": "NewPendingAdmin",
      "type": "event"
    },
    {
      "anonymous": false,
      "inputs": [
        {
          "indexed": true,
          "internalType": "address",
          "name": "stakeToken",
          "type": "address"
        },
        {
          "indexed": false,
          "internalType": "uint256",
          "name": "reward",
          "type": "uint256"
        }
      ],
      "name": "RewardAdded",
      "type": "event"
    },
    {
      "anonymous": false,
      "inputs": [
        {
          "indexed": true,
          "internalType": "address",
          "name": "stakeToken",
          "type": "address"
        },
        {
          "indexed": true,
          "internalType": "address",
          "name": "user",
          "type": "address"
        },
        {
          "indexed": false,
          "internalType": "uint256",
          "name": "reward",
          "type": "uint256"
        }
      ],
      "name": "RewardPaid",
      "type": "event"
    },
    {
      "anonymous": false,
      "inputs": [
        {
          "indexed": true,
          "internalType": "address",
          "name": "stakeToken",
          "type": "address"
        },
        {
          "indexed": true,
          "internalType": "address",
          "name": "user",
          "type": "address"
        },
        {
          "indexed": false,
          "internalType": "uint256",
          "name": "amount",
          "type": "uint256"
        }
      ],
      "name": "Staked",
      "type": "event"
    },
    {
      "anonymous": false,
      "inputs": [
        {
          "indexed": true,
          "internalType": "address",
          "name": "stakeToken",
          "type": "address"
        },
        {
          "indexed": true,
          "internalType": "address",
          "name": "user",
          "type": "address"
        },
        {
          "indexed": false,
          "internalType": "uint256",
          "name": "amount",
          "type": "uint256"
        }
      ],
      "name": "Withdrawn",
      "type": "event"
    },
    {
      "inputs": [],
      "name": "acceptAdmin",
      "outputs": [],
      "stateMutability": "nonpayable",
      "type": "function"
    },
    {
      "inputs": [],
      "name": "admin",
      "outputs": [
        {
          "internalType": "address payable",
          "name": "",
          "type": "address"
        }
      ],
      "stateMutability": "view",
      "type": "function"
    },
    {
      "inputs": [],
      "name": "developer",
      "outputs": [
        {
          "internalType": "address payable",
          "name": "",
          "type": "address"
        }
      ],
      "stateMutability": "view",
      "type": "function"
    },
    {
      "inputs": [
        {
          "internalType": "address",
          "name": "",
          "type": "address"
        }
      ],
      "name": "distributions",
      "outputs": [
        {
          "internalType": "uint64",
          "name": "duration",
          "type": "uint64"
        },
        {
          "internalType": "uint64",
          "name": "starttime",
          "type": "uint64"
        },
        {
          "internalType": "uint64",
          "name": "periodFinish",
          "type": "uint64"
        },
        {
          "internalType": "uint64",
          "name": "lastUpdateTime",
          "type": "uint64"
        },
        {
          "internalType": "uint256",
          "name": "rewardRate",
          "type": "uint256"
        },
        {
          "internalType": "uint256",
          "name": "rewardPerTokenStored",
          "type": "uint256"
        },
        {
          "internalType": "uint256",
          "name": "totalStaked",
          "type": "uint256"
        }
      ],
      "stateMutability": "view",
      "type": "function"
    },
    {
      "inputs": [
        {
          "internalType": "address",
          "name": "stakeToken",
          "type": "address"
        },
        {
          "internalType": "address",
          "name": "account",
          "type": "address"
        }
      ],
      "name": "earned",
      "outputs": [
        {
          "internalType": "uint256",
          "name": "",
          "type": "uint256"
        }
      ],
      "stateMutability": "view",
      "type": "function"
    },
    {
      "inputs": [
        {
          "internalType": "address",
          "name": "stakeToken",
          "type": "address"
        }
      ],
      "name": "exit",
      "outputs": [],
      "stateMutability": "nonpayable",
      "type": "function"
    },
    {
      "inputs": [
        {
          "internalType": "address",
          "name": "stakeToken",
          "type": "address"
        }
      ],
      "name": "getReward",
      "outputs": [],
      "stateMutability": "nonpayable",
      "type": "function"
    },
    {
      "inputs": [
        {
          "internalType": "address[]",
          "name": "stakeTokens",
          "type": "address[]"
        }
      ],
      "name": "getRewards",
      "outputs": [],
      "stateMutability": "nonpayable",
      "type": "function"
    },
    {
      "inputs": [
        {
          "internalType": "address[]",
          "name": "stakeTokens",
          "type": "address[]"
        },
        {
          "internalType": "uint64[]",
          "name": "startTimes",
          "type": "uint64[]"
        },
        {
          "internalType": "uint64[]",
          "name": "durations",
          "type": "uint64[]"
        }
      ],
      "name": "initDistributions",
      "outputs": [],
      "stateMutability": "nonpayable",
      "type": "function"
    },
    {
      "inputs": [
        {
          "internalType": "address",
          "name": "stakeToken",
          "type": "address"
        }
      ],
      "name": "lastTimeRewardApplicable",
      "outputs": [
        {
          "internalType": "uint64",
          "name": "",
          "type": "uint64"
        }
      ],
      "stateMutability": "view",
      "type": "function"
    },
    {
      "inputs": [
        {
          "internalType": "address",
          "name": "stakeToken",
          "type": "address"
        },
        {
          "internalType": "uint256",
          "name": "reward",
          "type": "uint256"
        }
      ],
      "name": "notifyRewardAmount",
      "outputs": [],
      "stateMutability": "nonpayable",
      "type": "function"
    },
    {
      "inputs": [
        {
          "internalType": "address[]",
          "name": "stakeTokens",
          "type": "address[]"
        },
        {
          "internalType": "uint256[]",
          "name": "reward",
          "type": "uint256[]"
        }
      ],
      "name": "notifyRewardAmounts",
      "outputs": [],
      "stateMutability": "nonpayable",
      "type": "function"
    },
    {
      "inputs": [],
      "name": "oleToken",
      "outputs": [
        {
          "internalType": "contract IERC20",
          "name": "",
          "type": "address"
        }
      ],
      "stateMutability": "view",
      "type": "function"
    },
    {
      "inputs": [],
      "name": "pendingAdmin",
      "outputs": [
        {
          "internalType": "address payable",
          "name": "",
          "type": "address"
        }
      ],
      "stateMutability": "view",
      "type": "function"
    },
    {
      "inputs": [
        {
          "internalType": "address",
          "name": "stakeToken",
          "type": "address"
        }
      ],
      "name": "rewardPerToken",
      "outputs": [
        {
          "internalType": "uint256",
          "name": "",
          "type": "uint256"
        }
      ],
      "stateMutability": "view",
      "type": "function"
    },
    {
      "inputs": [
        {
          "internalType": "address",
          "name": "",
          "type": "address"
        },
        {
          "internalType": "address",
          "name": "",
          "type": "address"
        }
      ],
      "name": "rewards",
      "outputs": [
        {
          "internalType": "uint256",
          "name": "stakes",
          "type": "uint256"
        },
        {
          "internalType": "uint256",
          "name": "rewards",
          "type": "uint256"
        },
        {
          "internalType": "uint256",
          "name": "userRewardPerTokenPaid",
          "type": "uint256"
        }
      ],
      "stateMutability": "view",
      "type": "function"
    },
    {
      "inputs": [
        {
          "internalType": "address payable",
          "name": "newPendingAdmin",
          "type": "address"
        }
      ],
      "name": "setPendingAdmin",
      "outputs": [],
      "stateMutability": "nonpayable",
      "type": "function"
    },
    {
      "inputs": [
        {
          "internalType": "address",
          "name": "stakeToken",
          "type": "address"
        },
        {
          "internalType": "uint256",
          "name": "amount",
          "type": "uint256"
        }
      ],
      "name": "stake",
      "outputs": [],
      "stateMutability": "nonpayable",
      "type": "function"
    },
    {
      "inputs": [
        {
          "internalType": "address",
          "name": "stakeToken",
          "type": "address"
        },
        {
          "internalType": "uint256",
          "name": "amount",
          "type": "uint256"
        }
      ],
      "name": "withdraw",
      "outputs": [],
      "stateMutability": "nonpayable",
      "type": "function"
    }
  ],
  "bytecode": "0x608060405234801561001057600080fd5b50604051611e73380380611e738339818101604052604081101561003357600080fd5b508051602090910151600280546001600160a01b03199081163317909155600380546001600160a01b0394851690831617905560008054939092169216919091179055611dee806100856000396000f3fe608060405234801561001057600080fd5b50600436106101215760003560e01c80639353b9df116100ad578063ca4b208b11610071578063ca4b208b14610681578063e70b9e2714610689578063f1229777146106d5578063f3fef3a3146106fb578063f851a4401461072757610121565b80639353b9df1461056d578063adc9772e146105dd578063b42652e914610609578063b66503cf1461062f578063c00007b01461065b57610121565b806326782247116100f457806326782247146104385780634dd18bf51461045c578063510ccb431461048257806353e083a814610523578063638634ee1461052b57610121565b80630cd4f7ba146101265780630e18b681146102cd578063169068c6146102d5578063211dc32d146103f8575b600080fd5b6102cb6004803603606081101561013c57600080fd5b810190602081018135600160201b81111561015657600080fd5b82018360208201111561016857600080fd5b803590602001918460208302840111600160201b8311171561018957600080fd5b9190808060200260200160405190810160405280939291908181526020018383602002808284376000920191909152509295949360208101935035915050600160201b8111156101d857600080fd5b8201836020820111156101ea57600080fd5b803590602001918460208302840111600160201b8311171561020b57600080fd5b9190808060200260200160405190810160405280939291908181526020018383602002808284376000920191909152509295949360208101935035915050600160201b81111561025a57600080fd5b82018360208201111561026c57600080fd5b803590602001918460208302840111600160201b8311171561028d57600080fd5b91908080602002602001604051908101604052809392919081815260200183836020028082843760009201919091525092955061072f945050505050565b005b6102cb610a27565b6102cb600480360360408110156102eb57600080fd5b810190602081018135600160201b81111561030557600080fd5b82018360208201111561031757600080fd5b803590602001918460208302840111600160201b8311171561033857600080fd5b9190808060200260200160405190810160405280939291908181526020018383602002808284376000920191909152509295949360208101935035915050600160201b81111561038757600080fd5b82018360208201111561039957600080fd5b803590602001918460208302840111600160201b831117156103ba57600080fd5b919080806020026020016040519081016040528093929190818152602001838360200280828437600092019190915250929550610b27945050505050565b6104266004803603604081101561040e57600080fd5b506001600160a01b0381358116916020013516610bbb565b60408051918252519081900360200190f35b610440610c4f565b604080516001600160a01b039092168252519081900360200190f35b6102cb6004803603602081101561047257600080fd5b50356001600160a01b0316610c5e565b6102cb6004803603602081101561049857600080fd5b810190602081018135600160201b8111156104b257600080fd5b8201836020820111156104c457600080fd5b803590602001918460208302840111600160201b831117156104e557600080fd5b919080806020026020016040519081016040528093929190818152602001838360200280828437600092019190915250929550610cc9945050505050565b610440610cfd565b6105516004803603602081101561054157600080fd5b50356001600160a01b0316610d0c565b604080516001600160401b039092168252519081900360200190f35b6105936004803603602081101561058357600080fd5b50356001600160a01b0316610d73565b604080516001600160401b039889168152968816602088015294871686860152929095166060850152608084015260a083019390935260c082019290925290519081900360e00190f35b6102cb600480360360408110156105f357600080fd5b506001600160a01b038135169060200135610dc2565b6102cb6004803603602081101561061f57600080fd5b50356001600160a01b0316611008565b6102cb6004803603604081101561064557600080fd5b506001600160a01b038135169060200135611043565b6102cb6004803603602081101561067157600080fd5b50356001600160a01b0316611334565b610440611509565b6106b76004803603604081101561069f57600080fd5b506001600160a01b0381358116916020013516611518565b60408051938452602084019290925282820152519081900360600190f35b610426600480360360208110156106eb57600080fd5b50356001600160a01b0316611544565b6102cb6004803603604081101561071157600080fd5b506001600160a01b03813516906020013561165c565b610440611838565b610737611847565b825182518114610783576040805162461bcd60e51b81526020600482015260126024820152716172726179206c656e6774682077726f6e6760701b604482015290519081900360640190fd5b815181146107cd576040805162461bcd60e51b81526020600482015260126024820152716172726179206c656e6774682077726f6e6760701b604482015290519081900360640190fd5b60005b81811015610a205760008482815181106107e657fe5b6020026020010151905042816001600160401b03161015610843576040805162461bcd60e51b815260206004820152601260248201527114dd185c9d081d1a5b5948195b185c1cd95960721b604482015290519081900360640190fd5b6004600087848151811061085357fe5b6020908102919091018101516001600160a01b0316825281019190915260400160002054600160401b90046001600160401b0316156108c5576040805162461bcd60e51b8152602060048201526009602482015268496e6974206f6e636560b81b604482015290519081900360640190fd5b6040518060e001604052808584815181106108dc57fe5b60200260200101516001600160401b03168152602001826001600160401b0316815260200160006001600160401b0316815260200160006001600160401b03168152602001600081526020016000815260200160008152506004600088858151811061094457fe5b6020908102919091018101516001600160a01b03168252818101929092526040908101600020835181549385015192850151606086015167ffffffffffffffff199095166001600160401b03928316176fffffffffffffffff00000000000000001916600160401b948316949094029390931767ffffffffffffffff60801b1916600160801b93821693909302929092176001600160c01b0316600160c01b9290931691909102919091178155608082015160018083019190915560a0830151600283015560c0909201516003909101559190910190506107d0565b5050505050565b6001546001600160a01b03163314610a705760405162461bcd60e51b8152600401808060200182810382526022815260200180611d4c6022913960400191505060405180910390fd5b60008054600180546001600160a01b038082166001600160a01b031980861682179687905590921690925560408051938316808552949092166020840152815190927ff9ffabca9c8276e99321725bcb43fb076a6c66a54b7f21c4e8146d8519b417dc92908290030190a1600154604080516001600160a01b038085168252909216602083015280517fca4f2f25d0898edd99413412fb94012f9e54ec8142f9b093e7720646a95b16a99281900390910190a15050565b8051825114610b72576040805162461bcd60e51b8152602060048201526012602482015271746f6b656e206c656e6774682077726f6e6760701b604482015290519081900360640190fd5b60005b8251811015610bb657610bae838281518110610b8d57fe5b6020026020010151838381518110610ba157fe5b6020026020010151611043565b600101610b75565b505050565b6001600160a01b038083166000908152600560209081526040808320938516835292815282822083516060810185528154815260018201549281018390526002909101549381018490529192610c459190610c3f90670de0b6b3a764000090610c3990610c3190610c2b8b611544565b9061189f565b8651906118fc565b9061195c565b906119c3565b9150505b92915050565b6001546001600160a01b031681565b610c66611847565b600180546001600160a01b038381166001600160a01b0319831681179093556040805191909216808252602082019390935281517fca4f2f25d0898edd99413412fb94012f9e54ec8142f9b093e7720646a95b16a9929181900390910190a15050565b60005b8151811015610cf957610cf1828281518110610ce457fe5b6020026020010151611334565b600101610ccc565b5050565b6003546001600160a01b031681565b6001600160a01b038116600090815260046020526040812054600160801b90046001600160401b03164211610d415742610d6b565b6001600160a01b038216600090815260046020526040902054600160801b90046001600160401b03165b90505b919050565b60046020526000908152604090208054600182015460028301546003909301546001600160401b0380841694600160401b8504821694600160801b8104831694600160c01b9091049092169287565b81336000610dcf83611544565b6001600160a01b03841660009081526004602052604090206002018190559050610df883610d0c565b6001600160a01b03808516600090815260046020526040902080546001600160401b0393909316600160c01b026001600160c01b0390931692909217909155821615610e7c57610e488383610bbb565b6001600160a01b03848116600090815260056020908152604080832093871683529290522060018101919091556002018190555b6001600160a01b0385166000908152600460205260409020548590600160401b90046001600160401b0316421015610ee7576040805162461bcd60e51b81526020600482015260096024820152681b9bdd081cdd185c9d60ba1b604482015290519081900360640190fd5b60008511610f2d576040805162461bcd60e51b815260206004820152600e60248201526d043616e6e6f74207374616b6520360941b604482015290519081900360640190fd5b6001600160a01b038616600090815260046020526040902060030154610f5390866119c3565b6001600160a01b0387166000908152600460209081526040808320600301939093556005815282822033835290522054610f8d90866119c3565b6001600160a01b038716600081815260056020908152604080832033808552925290912092909255610fc0913088611a1d565b60408051868152905133916001600160a01b038916917f5dac0c1b1112564a045ba943c9d50270893e8e826c49be8e7073adc713ab7bd79181900360200190a3505050505050565b6001600160a01b038116600090815260056020908152604080832033845290915290205461103790829061165c565b61104081611334565b50565b61104b611847565b8160008061105883611544565b6001600160a01b0384166000908152600460205260409020600201819055905061108183610d0c565b6001600160a01b03808516600090815260046020526040902080546001600160401b0393909316600160c01b026001600160c01b0390931692909217909155821615611105576110d18383610bbb565b6001600160a01b03848116600090815260056020908152604080832093871683529290522060018101919091556002018190555b6001600160a01b03851660009081526004602052604090208054600160401b90046001600160401b031642111561121b578054600160801b90046001600160401b0316421061116e5780546111649086906001600160401b031661195c565b60018201556111be565b8054600182015442600160801b9092046001600160401b0316919091039060009061119a9083906118fc565b83549091506111b6906001600160401b0316610c3989846119c3565b600184015550505b80546001600160401b0342818116600160c01b81026001600160c01b03909416939093178083169091018216600160801b90810267ffffffffffffffff60801b19909216919091178085550416101561121657600080fd5b6112a1565b80546112319086906001600160401b031661195c565b60018201558054600160401b600160c01b6001600160401b038284048116919091026001600160c01b03909316929092178181048316818416018316600160801b90810267ffffffffffffffff60801b19909216919091178085559182048316910490911610156112a157600080fd5b683635c9adc5dea000008160010154106112ed576040805162461bcd60e51b81526020600482015260086024820152676f766572666c6f7760c01b604482015290519081900360640190fd5b6040805186815290516001600160a01b038816917fac24935fd910bc682b5ccb1a07b718cadf8cf2f6d1404c4f3ddc3662dae40e29919081900360200190a2505050505050565b8033600061134183611544565b6001600160a01b0384166000908152600460205260409020600201819055905061136a83610d0c565b6001600160a01b03808516600090815260046020526040902080546001600160401b0393909316600160c01b026001600160c01b03909316929092179091558216156113ee576113ba8383610bbb565b6001600160a01b03848116600090815260056020908152604080832093871683529290522060018101919091556002018190555b6001600160a01b0384166000908152600460205260409020548490600160401b90046001600160401b0316421015611459576040805162461bcd60e51b81526020600482015260096024820152681b9bdd081cdd185c9d60ba1b604482015290519081900360640190fd5b6001600160a01b03851660009081526005602090815260408083203384529091529020600101548015611501576001600160a01b0380871660009081526005602090815260408083203380855292528220600101919091556003546114c092169083611a7d565b60408051828152905133916001600160a01b038916917f540798df468d7b23d11f156fdb954cb19ad414d150722a7b6d55ba369dea792e9181900360200190a35b505050505050565b6002546001600160a01b031681565b600560209081526000928352604080842090915290825290208054600182015460029092015490919083565b6001600160a01b0381166000908152600460209081526040808320815160e08101835281546001600160401b038082168352600160401b8204811695830195909552600160801b8104851693820193909352600160c01b909204909216606082015260018201546080820152600282015460a082015260039091015460c082018190526115d65760a001519050610d6e565b60006115e184610d0c565b905081606001516001600160401b0316816001600160401b0316101561160657600080fd5b6116546116498360c00151610c39670de0b6b3a7640000611643876060015187036001600160401b031688608001516118fc90919063ffffffff16565b906118fc565b60a0840151906119c3565b949350505050565b8133600061166983611544565b6001600160a01b0384166000908152600460205260409020600201819055905061169283610d0c565b6001600160a01b03808516600090815260046020526040902080546001600160401b0393909316600160c01b026001600160c01b0390931692909217909155821615611716576116e28383610bbb565b6001600160a01b03848116600090815260056020908152604080832093871683529290522060018101919091556002018190555b6000841161175f576040805162461bcd60e51b8152602060048201526011602482015270043616e6e6f74207769746864726177203607c1b604482015290519081900360640190fd5b6001600160a01b038516600090815260046020526040902060030154611785908561189f565b6001600160a01b03861660009081526004602090815260408083206003019390935560058152828220338352905220546117bf908561189f565b6001600160a01b0386166000818152600560209081526040808320338085529252909120929092556117f19186611a7d565b60408051858152905133916001600160a01b038816917fd1c19fbcd4551a5edfb66d43d2e337c04837afda3482b42bdf569a8fccdae5fb9181900360200190a35050505050565b6000546001600160a01b031681565b6000546001600160a01b0316331461189d576040805162461bcd60e51b815260206004820152601460248201527331b0b63632b91036bab9ba1031329030b236b4b760611b604482015290519081900360640190fd5b565b6000828211156118f6576040805162461bcd60e51b815260206004820152601e60248201527f536166654d6174683a207375627472616374696f6e206f766572666c6f770000604482015290519081900360640190fd5b50900390565b60008261190b57506000610c49565b8282028284828161191857fe5b04146119555760405162461bcd60e51b8152600401808060200182810382526021815260200180611d6e6021913960400191505060405180910390fd5b9392505050565b60008082116119b2576040805162461bcd60e51b815260206004820152601a60248201527f536166654d6174683a206469766973696f6e206279207a65726f000000000000604482015290519081900360640190fd5b8183816119bb57fe5b049392505050565b600082820183811015611955576040805162461bcd60e51b815260206004820152601b60248201527f536166654d6174683a206164646974696f6e206f766572666c6f770000000000604482015290519081900360640190fd5b604080516001600160a01b0380861660248301528416604482015260648082018490528251808303909101815260849091019091526020810180516001600160e01b03166323b872dd60e01b179052611a77908590611acb565b50505050565b604080516001600160a01b038416602482015260448082018490528251808303909101815260649091019091526020810180516001600160e01b031663a9059cbb60e01b179052610bb69084905b6000611b20826040518060400160405280602081526020017f5361666545524332303a206c6f772d6c6576656c2063616c6c206661696c6564815250856001600160a01b0316611b7c9092919063ffffffff16565b805190915015610bb657808060200190516020811015611b3f57600080fd5b5051610bb65760405162461bcd60e51b815260040180806020018281038252602a815260200180611d8f602a913960400191505060405180910390fd5b6060611654848460008585611b9085611ca1565b611be1576040805162461bcd60e51b815260206004820152601d60248201527f416464726573733a2063616c6c20746f206e6f6e2d636f6e7472616374000000604482015290519081900360640190fd5b600080866001600160a01b031685876040518082805190602001908083835b60208310611c1f5780518252601f199092019160209182019101611c00565b6001836020036101000a03801982511681845116808217855250505050505090500191505060006040518083038185875af1925050503d8060008114611c81576040519150601f19603f3d011682016040523d82523d6000602084013e611c86565b606091505b5091509150611c96828286611ca7565b979650505050505050565b3b151590565b60608315611cb6575081611955565b825115611cc65782518084602001fd5b8160405162461bcd60e51b81526004018080602001828103825283818151815260200191508051906020019080838360005b83811015611d10578181015183820152602001611cf8565b50505050905090810190601f168015611d3d5780820380516001836020036101000a031916815260200191505b509250505060405180910390fdfe6f6e6c792070656e64696e6741646d696e2063616e206163636570742061646d696e536166654d6174683a206d756c7469706c69636174696f6e206f766572666c6f775361666545524332303a204552433230206f7065726174696f6e20646964206e6f742073756363656564a2646970667358221220c1101cebe61b7345cf8db58c60deeaa06e6ee89095c3127e7af0385da516ca4d64736f6c63430007060033",
  "linkReferences": {},
  "deployedLinkReferences": {}
}