{
  "_format": "hh-sol-artifact-1",
  "contractName": "OPLimitOrder",
  "sourceName": "contracts/OPLimitOrder.sol",
  "abi": [
    {
      "inputs": [],
      "name": "InvalidShortString",
      "type": "error"
    },
    {
      "inputs": [
        {
          "internalType": "string",
          "name": "str",
          "type": "string"
        }
      ],
      "name": "StringTooLong",
      "type": "error"
    },
    {
      "anonymous": false,
      "inputs": [],
      "name": "EIP712DomainChanged",
      "type": "event"
    },
    {
      "anonymous": false,
      "inputs": [
        {
          "indexed": false,
          "internalType": "address",
          "name": "oldAdmin",
          "type": "address"
        },
        {
          "indexed": false,
          "internalType": "address",
          "name": "newAdmin",
          "type": "address"
        }
      ],
      "name": "NewAdmin",
      "type": "event"
    },
    {
      "anonymous": false,
      "inputs": [
        {
          "indexed": false,
          "internalType": "address",
          "name": "oldPendingAdmin",
          "type": "address"
        },
        {
          "indexed": false,
          "internalType": "address",
          "name": "newPendingAdmin",
          "type": "address"
        }
      ],
      "name": "NewPendingAdmin",
      "type": "event"
    },
    {
      "anonymous": false,
      "inputs": [
        {
          "indexed": true,
          "internalType": "address",
          "name": "trader",
          "type": "address"
        },
        {
          "indexed": false,
          "internalType": "bytes32",
          "name": "orderId",
          "type": "bytes32"
        },
        {
          "indexed": false,
          "internalType": "uint256",
          "name": "remaining",
          "type": "uint256"
        }
      ],
      "name": "OrderCanceled",
      "type": "event"
    },
    {
      "anonymous": false,
      "inputs": [
        {
          "indexed": true,
          "internalType": "address",
          "name": "trader",
          "type": "address"
        },
        {
          "indexed": false,
          "internalType": "bytes32",
          "name": "orderId",
          "type": "bytes32"
        },
        {
          "indexed": false,
          "internalType": "uint256",
          "name": "commission",
          "type": "uint256"
        },
        {
          "indexed": false,
          "internalType": "uint256",
          "name": "remaining",
          "type": "uint256"
        },
        {
          "indexed": false,
          "internalType": "uint256",
          "name": "filling",
          "type": "uint256"
        }
      ],
      "name": "OrderFilled",
      "type": "event"
    },
    {
      "inputs": [],
      "name": "CLOSE_ORDER_TYPEHASH",
      "outputs": [
        {
          "internalType": "bytes32",
          "name": "",
          "type": "bytes32"
        }
      ],
      "stateMutability": "view",
      "type": "function"
    },
    {
      "inputs": [],
      "name": "OPEN_ORDER_TYPEHASH",
      "outputs": [
        {
          "internalType": "bytes32",
          "name": "",
          "type": "bytes32"
        }
      ],
      "stateMutability": "view",
      "type": "function"
    },
    {
      "inputs": [],
      "name": "ORDER_TYPEHASH",
      "outputs": [
        {
          "internalType": "bytes32",
          "name": "",
          "type": "bytes32"
        }
      ],
      "stateMutability": "view",
      "type": "function"
    },
    {
      "inputs": [],
      "name": "acceptAdmin",
      "outputs": [],
      "stateMutability": "nonpayable",
      "type": "function"
    },
    {
      "inputs": [],
      "name": "admin",
      "outputs": [
        {
          "internalType": "address payable",
          "name": "",
          "type": "address"
        }
      ],
      "stateMutability": "view",
      "type": "function"
    },
    {
      "inputs": [
        {
          "components": [
            {
              "internalType": "uint256",
              "name": "salt",
              "type": "uint256"
            },
            {
              "internalType": "address",
              "name": "owner",
              "type": "address"
            },
            {
              "internalType": "uint32",
              "name": "deadline",
              "type": "uint32"
            },
            {
              "internalType": "uint16",
              "name": "marketId",
              "type": "uint16"
            },
            {
              "internalType": "bool",
              "name": "longToken",
              "type": "bool"
            },
            {
              "internalType": "bool",
              "name": "depositToken",
              "type": "bool"
            },
            {
              "internalType": "address",
              "name": "commissionToken",
              "type": "address"
            },
            {
              "internalType": "uint256",
              "name": "commission",
              "type": "uint256"
            },
            {
              "internalType": "uint256",
              "name": "price0",
              "type": "uint256"
            }
          ],
          "internalType": "struct OPLimitOrderStorage.Order",
          "name": "order",
          "type": "tuple"
        }
      ],
      "name": "cancelOrder",
      "outputs": [],
      "stateMutability": "nonpayable",
      "type": "function"
    },
    {
      "inputs": [
        {
          "components": [
            {
              "internalType": "uint256",
              "name": "salt",
              "type": "uint256"
            },
            {
              "internalType": "address",
              "name": "owner",
              "type": "address"
            },
            {
              "internalType": "uint32",
              "name": "deadline",
              "type": "uint32"
            },
            {
              "internalType": "uint16",
              "name": "marketId",
              "type": "uint16"
            },
            {
              "internalType": "bool",
              "name": "longToken",
              "type": "bool"
            },
            {
              "internalType": "bool",
              "name": "depositToken",
              "type": "bool"
            },
            {
              "internalType": "address",
              "name": "commissionToken",
              "type": "address"
            },
            {
              "internalType": "uint256",
              "name": "commission",
              "type": "uint256"
            },
            {
              "internalType": "uint256",
              "name": "price0",
              "type": "uint256"
            }
          ],
          "internalType": "struct OPLimitOrderStorage.Order[]",
          "name": "orders",
          "type": "tuple[]"
        }
      ],
      "name": "cancelOrders",
      "outputs": [],
      "stateMutability": "nonpayable",
      "type": "function"
    },
    {
      "inputs": [
        {
          "internalType": "uint16",
          "name": "marketId",
          "type": "uint16"
        },
        {
          "internalType": "bool",
          "name": "longToken",
          "type": "bool"
        },
        {
          "internalType": "uint256",
          "name": "closeHeld",
          "type": "uint256"
        },
        {
          "internalType": "uint256",
          "name": "minOrMaxAmount",
          "type": "uint256"
        },
        {
          "internalType": "bytes",
          "name": "dexData",
          "type": "bytes"
        },
        {
          "components": [
            {
              "internalType": "uint256",
              "name": "salt",
              "type": "uint256"
            },
            {
              "internalType": "address",
              "name": "owner",
              "type": "address"
            },
            {
              "internalType": "uint32",
              "name": "deadline",
              "type": "uint32"
            },
            {
              "internalType": "uint16",
              "name": "marketId",
              "type": "uint16"
            },
            {
              "internalType": "bool",
              "name": "longToken",
              "type": "bool"
            },
            {
              "internalType": "bool",
              "name": "depositToken",
              "type": "bool"
            },
            {
              "internalType": "address",
              "name": "commissionToken",
              "type": "address"
            },
            {
              "internalType": "uint256",
              "name": "commission",
              "type": "uint256"
            },
            {
              "internalType": "uint256",
              "name": "price0",
              "type": "uint256"
            }
          ],
          "internalType": "struct OPLimitOrderStorage.Order[]",
          "name": "orders",
          "type": "tuple[]"
        }
      ],
      "name": "closeTradeAndCancel",
      "outputs": [],
      "stateMutability": "nonpayable",
      "type": "function"
    },
    {
      "inputs": [],
      "name": "developer",
      "outputs": [
        {
          "internalType": "address payable",
          "name": "",
          "type": "address"
        }
      ],
      "stateMutability": "view",
      "type": "function"
    },
    {
      "inputs": [],
      "name": "dexAgg",
      "outputs": [
        {
          "internalType": "contract DexAggregatorInterface",
          "name": "",
          "type": "address"
        }
      ],
      "stateMutability": "view",
      "type": "function"
    },
    {
      "inputs": [],
      "name": "eip712Domain",
      "outputs": [
        {
          "internalType": "bytes1",
          "name": "fields",
          "type": "bytes1"
        },
        {
          "internalType": "string",
          "name": "name",
          "type": "string"
        },
        {
          "internalType": "string",
          "name": "version",
          "type": "string"
        },
        {
          "internalType": "uint256",
          "name": "chainId",
          "type": "uint256"
        },
        {
          "internalType": "address",
          "name": "verifyingContract",
          "type": "address"
        },
        {
          "internalType": "bytes32",
          "name": "salt",
          "type": "bytes32"
        },
        {
          "internalType": "uint256[]",
          "name": "extensions",
          "type": "uint256[]"
        }
      ],
      "stateMutability": "view",
      "type": "function"
    },
    {
      "inputs": [
        {
          "components": [
            {
              "internalType": "uint256",
              "name": "salt",
              "type": "uint256"
            },
            {
              "internalType": "address",
              "name": "owner",
              "type": "address"
            },
            {
              "internalType": "uint32",
              "name": "deadline",
              "type": "uint32"
            },
            {
              "internalType": "uint16",
              "name": "marketId",
              "type": "uint16"
            },
            {
              "internalType": "bool",
              "name": "longToken",
              "type": "bool"
            },
            {
              "internalType": "bool",
              "name": "depositToken",
              "type": "bool"
            },
            {
              "internalType": "address",
              "name": "commissionToken",
              "type": "address"
            },
            {
              "internalType": "uint256",
              "name": "commission",
              "type": "uint256"
            },
            {
              "internalType": "uint256",
              "name": "price0",
              "type": "uint256"
            },
            {
              "internalType": "bool",
              "name": "isStopLoss",
              "type": "bool"
            },
            {
              "internalType": "uint256",
              "name": "closeHeld",
              "type": "uint256"
            },
            {
              "internalType": "uint256",
              "name": "expectReturn",
              "type": "uint256"
            }
          ],
          "internalType": "struct OPLimitOrderStorage.CloseOrder",
          "name": "order",
          "type": "tuple"
        },
        {
          "internalType": "bytes",
          "name": "signature",
          "type": "bytes"
        },
        {
          "internalType": "uint256",
          "name": "closeAmount",
          "type": "uint256"
        },
        {
          "internalType": "bytes",
          "name": "dexData",
          "type": "bytes"
        }
      ],
      "name": "fillCloseOrder",
      "outputs": [],
      "stateMutability": "nonpayable",
      "type": "function"
    },
    {
      "inputs": [
        {
          "components": [
            {
              "internalType": "uint256",
              "name": "salt",
              "type": "uint256"
            },
            {
              "internalType": "address",
              "name": "owner",
              "type": "address"
            },
            {
              "internalType": "uint32",
              "name": "deadline",
              "type": "uint32"
            },
            {
              "internalType": "uint16",
              "name": "marketId",
              "type": "uint16"
            },
            {
              "internalType": "bool",
              "name": "longToken",
              "type": "bool"
            },
            {
              "internalType": "bool",
              "name": "depositToken",
              "type": "bool"
            },
            {
              "internalType": "address",
              "name": "commissionToken",
              "type": "address"
            },
            {
              "internalType": "uint256",
              "name": "commission",
              "type": "uint256"
            },
            {
              "internalType": "uint256",
              "name": "price0",
              "type": "uint256"
            },
            {
              "internalType": "uint256",
              "name": "deposit",
              "type": "uint256"
            },
            {
              "internalType": "uint256",
              "name": "borrow",
              "type": "uint256"
            },
            {
              "internalType": "uint256",
              "name": "expectHeld",
              "type": "uint256"
            }
          ],
          "internalType": "struct OPLimitOrderStorage.OpenOrder",
          "name": "order",
          "type": "tuple"
        },
        {
          "internalType": "bytes",
          "name": "signature",
          "type": "bytes"
        },
        {
          "internalType": "uint256",
          "name": "fillingDeposit",
          "type": "uint256"
        },
        {
          "internalType": "bytes",
          "name": "dexData",
          "type": "bytes"
        }
      ],
      "name": "fillOpenOrder",
      "outputs": [],
      "stateMutability": "nonpayable",
      "type": "function"
    },
    {
      "inputs": [
        {
          "components": [
            {
              "internalType": "uint256",
              "name": "salt",
              "type": "uint256"
            },
            {
              "internalType": "address",
              "name": "owner",
              "type": "address"
            },
            {
              "internalType": "uint32",
              "name": "deadline",
              "type": "uint32"
            },
            {
              "internalType": "uint16",
              "name": "marketId",
              "type": "uint16"
            },
            {
              "internalType": "bool",
              "name": "longToken",
              "type": "bool"
            },
            {
              "internalType": "bool",
              "name": "depositToken",
              "type": "bool"
            },
            {
              "internalType": "address",
              "name": "commissionToken",
              "type": "address"
            },
            {
              "internalType": "uint256",
              "name": "commission",
              "type": "uint256"
            },
            {
              "internalType": "uint256",
              "name": "price0",
              "type": "uint256"
            }
          ],
          "internalType": "struct OPLimitOrderStorage.Order",
          "name": "order",
          "type": "tuple"
        }
      ],
      "name": "getOrderId",
      "outputs": [
        {
          "internalType": "bytes32",
          "name": "",
          "type": "bytes32"
        }
      ],
      "stateMutability": "view",
      "type": "function"
    },
    {
      "inputs": [
        {
          "components": [
            {
              "internalType": "uint256",
              "name": "salt",
              "type": "uint256"
            },
            {
              "internalType": "address",
              "name": "owner",
              "type": "address"
            },
            {
              "internalType": "uint32",
              "name": "deadline",
              "type": "uint32"
            },
            {
              "internalType": "uint16",
              "name": "marketId",
              "type": "uint16"
            },
            {
              "internalType": "bool",
              "name": "longToken",
              "type": "bool"
            },
            {
              "internalType": "bool",
              "name": "depositToken",
              "type": "bool"
            },
            {
              "internalType": "address",
              "name": "commissionToken",
              "type": "address"
            },
            {
              "internalType": "uint256",
              "name": "commission",
              "type": "uint256"
            },
            {
              "internalType": "uint256",
              "name": "price0",
              "type": "uint256"
            },
            {
              "internalType": "bool",
              "name": "isStopLoss",
              "type": "bool"
            },
            {
              "internalType": "uint256",
              "name": "closeHeld",
              "type": "uint256"
            },
            {
              "internalType": "uint256",
              "name": "expectReturn",
              "type": "uint256"
            }
          ],
          "internalType": "struct OPLimitOrderStorage.CloseOrder",
          "name": "order",
          "type": "tuple"
        }
      ],
      "name": "hashCloseOrder",
      "outputs": [
        {
          "internalType": "bytes32",
          "name": "",
          "type": "bytes32"
        }
      ],
      "stateMutability": "view",
      "type": "function"
    },
    {
      "inputs": [
        {
          "components": [
            {
              "internalType": "uint256",
              "name": "salt",
              "type": "uint256"
            },
            {
              "internalType": "address",
              "name": "owner",
              "type": "address"
            },
            {
              "internalType": "uint32",
              "name": "deadline",
              "type": "uint32"
            },
            {
              "internalType": "uint16",
              "name": "marketId",
              "type": "uint16"
            },
            {
              "internalType": "bool",
              "name": "longToken",
              "type": "bool"
            },
            {
              "internalType": "bool",
              "name": "depositToken",
              "type": "bool"
            },
            {
              "internalType": "address",
              "name": "commissionToken",
              "type": "address"
            },
            {
              "internalType": "uint256",
              "name": "commission",
              "type": "uint256"
            },
            {
              "internalType": "uint256",
              "name": "price0",
              "type": "uint256"
            },
            {
              "internalType": "uint256",
              "name": "deposit",
              "type": "uint256"
            },
            {
              "internalType": "uint256",
              "name": "borrow",
              "type": "uint256"
            },
            {
              "internalType": "uint256",
              "name": "expectHeld",
              "type": "uint256"
            }
          ],
          "internalType": "struct OPLimitOrderStorage.OpenOrder",
          "name": "order",
          "type": "tuple"
        }
      ],
      "name": "hashOpenOrder",
      "outputs": [
        {
          "internalType": "bytes32",
          "name": "",
          "type": "bytes32"
        }
      ],
      "stateMutability": "view",
      "type": "function"
    },
    {
      "inputs": [],
      "name": "implementation",
      "outputs": [
        {
          "internalType": "address",
          "name": "",
          "type": "address"
        }
      ],
      "stateMutability": "view",
      "type": "function"
    },
    {
      "inputs": [
        {
          "internalType": "contract OpenLevInterface",
          "name": "_openLev",
          "type": "address"
        },
        {
          "internalType": "contract DexAggregatorInterface",
          "name": "_dexAgg",
          "type": "address"
        }
      ],
      "name": "initialize",
      "outputs": [],
      "stateMutability": "nonpayable",
      "type": "function"
    },
    {
      "inputs": [],
      "name": "openLev",
      "outputs": [
        {
          "internalType": "contract OpenLevInterface",
          "name": "",
          "type": "address"
        }
      ],
      "stateMutability": "view",
      "type": "function"
    },
    {
      "inputs": [],
      "name": "pendingAdmin",
      "outputs": [
        {
          "internalType": "address payable",
          "name": "",
          "type": "address"
        }
      ],
      "stateMutability": "view",
      "type": "function"
    },
    {
      "inputs": [
        {
          "internalType": "bytes32",
          "name": "_orderId",
          "type": "bytes32"
        }
      ],
      "name": "remaining",
      "outputs": [
        {
          "internalType": "uint256",
          "name": "",
          "type": "uint256"
        }
      ],
      "stateMutability": "view",
      "type": "function"
    },
    {
      "inputs": [
        {
          "internalType": "bytes32",
          "name": "_orderId",
          "type": "bytes32"
        }
      ],
      "name": "remainingRaw",
      "outputs": [
        {
          "internalType": "uint256",
          "name": "",
          "type": "uint256"
        }
      ],
      "stateMutability": "view",
      "type": "function"
    },
    {
      "inputs": [
        {
          "internalType": "address payable",
          "name": "newPendingAdmin",
          "type": "address"
        }
      ],
      "name": "setPendingAdmin",
      "outputs": [],
      "stateMutability": "nonpayable",
      "type": "function"
    }
  ],
  "bytecode": "0x6101606040523480156200001257600080fd5b50604080518082018252601881527f4f70656e4c65766572616765204c696d6974204f72646572000000000000000060208083019190915282518084019093526001808452603160f81b84830152600380546001600160a01b0319163317905560045590919062000091908390600590620012136200014b821b17901c565b61012052620000ae8160066200014b602090811b6200121317901c565b61014052815160208084019190912060e052815190820120610100524660a0526200013c60e05161010051604080517f8b73c3c69bb8fe3d512ecc4cf759cc79239f7b179b0ffacaa9a75d522b39400f60208201529081019290925260608201524660808201523060a082015260009060c00160405160208183030381529060405280519060200120905090565b60805250503060c052620003d8565b60006020835110156200016b5762000163836200019b565b905062000195565b826200018283620001e760201b620012441760201c565b906200018f90826200028f565b5060ff90505b92915050565b600080829050601f81511115620001d2578260405163305a27a960e01b8152600401620001c991906200035b565b60405180910390fd5b8051620001df82620003b3565b179392505050565b90565b634e487b7160e01b600052604160045260246000fd5b600181811c908216806200021557607f821691505b6020821081036200023657634e487b7160e01b600052602260045260246000fd5b50919050565b601f8211156200028a57600081815260208120601f850160051c81016020861015620002655750805b601f850160051c820191505b81811015620002865782815560010162000271565b5050505b505050565b81516001600160401b03811115620002ab57620002ab620001ea565b620002c381620002bc845462000200565b846200023c565b602080601f831160018114620002fb5760008415620002e25750858301515b600019600386901b1c1916600185901b17855562000286565b600085815260208120601f198616915b828110156200032c578886015182559484019460019091019084016200030b565b50858210156200034b5787850151600019600388901b60f8161c191681555b5050505050600190811b01905550565b600060208083528351808285015260005b818110156200038a578581018301518582016040015282016200036c565b818111156200039d576000604083870101525b50601f01601f1916929092016040019392505050565b80516020808301519190811015620002365760001960209190910360031b1b16919050565b60805160a05160c05160e05161010051610120516101405161332762000433600039600061068a0152600061065f015260006121320152600061210a015260006120650152600061208f015260006120b901526133276000f3fe608060405234801561001057600080fd5b506004361061014d5760003560e01c806384b0196e116100c3578063e8b6444f1161007c578063e8b6444f146102e0578063f05cdba214610307578063f851a4401461031a578063f973a2091461032d578063fa738a8714610354578063fab34c961461036757600080fd5b806384b0196e1461026657806391fcb29714610281578063aaf85e0814610294578063bc1ed74c146102a7578063ca4b208b146102ba578063dd9aa297146102cd57600080fd5b806329a726131161011557806329a72613146101c5578063485cc955146101d85780634dd18bf5146101eb57806353ae0d84146101fe5780635c60da1b146102335780637e54f0921461024657600080fd5b8063060d8397146101525780630e18b68114610182578063158adb351461018c57806316a4fbd81461019f57806326782247146101b2575b600080fd5b600854610165906001600160a01b031681565b6040516001600160a01b0390911681526020015b60405180910390f35b61018a61037a565b005b61018a61019a36600461224c565b61049a565b61018a6101ad366004612482565b6104ed565b600254610165906001600160a01b031681565b600754610165906001600160a01b031681565b61018a6101e636600461249f565b6104f9565b61018a6101f93660046124d8565b6105a6565b6102257fc36cca49e20192a3f79d1a07eddb102e5dc9cb201da54c5de04c45090708ae9f81565b604051908152602001610179565b600054610165906001600160a01b031681565b6102256102543660046124f5565b60009081526009602052604090205490565b61026e610651565b604051610179979695949392919061256a565b61022561028f3660046126c5565b6106da565b6102256102a2366004612482565b6106eb565b6102256102b53660046124f5565b6106f6565b600354610165906001600160a01b031681565b61018a6102db366004612861565b61074a565b6102257f9d091fc24b71e07c789800010bde2a8f74aa66ce7005bfb8700e86dd2537140a81565b6102256103153660046128ea565b610c7d565b600154610165906001600160a01b031681565b6102257f430e9c1c9d6fa16271537c1e24bc58b084c5148dd3d35e8b3051d70e05ce873481565b61018a610362366004612907565b610c88565b61018a610375366004612996565b611142565b6002546001600160a01b031633146103e45760405162461bcd60e51b815260206004820152602260248201527f6f6e6c792070656e64696e6741646d696e2063616e206163636570742061646d60448201526134b760f11b60648201526084015b60405180910390fd5b60018054600280546001600160a01b038082166001600160a01b031980861682179096559490911690915560408051919092168082526020820184905292917ff9ffabca9c8276e99321725bcb43fb076a6c66a54b7f21c4e8146d8519b417dc910160405180910390a1600254604080516001600160a01b03808516825290921660208301527fca4f2f25d0898edd99413412fb94012f9e54ec8142f9b093e7720646a95b16a991015b60405180910390a15050565b60005b818110156104e8576104d68383838181106104ba576104ba612aa3565b905061012002018036038101906104d19190612482565b611247565b806104e081612acf565b91505061049d565b505050565b6104f681611247565b50565b6001546001600160a01b031633146105395760405162461bcd60e51b815260206004820152600360248201526213905160ea1b60448201526064016103db565b6007546001600160a01b0316156105785760405162461bcd60e51b8152602060048201526003602482015262494f4360e81b60448201526064016103db565b600780546001600160a01b039384166001600160a01b03199182161790915560088054929093169116179055565b6001546001600160a01b031633146105f75760405162461bcd60e51b815260206004820152601460248201527331b0b63632b91036bab9ba1031329030b236b4b760611b60448201526064016103db565b600280546001600160a01b038381166001600160a01b031983168117909355604080519190921680825260208201939093527fca4f2f25d0898edd99413412fb94012f9e54ec8142f9b093e7720646a95b16a9910161048e565b6000606080828080836106857f0000000000000000000000000000000000000000000000000000000000000000600561132e565b6106b07f0000000000000000000000000000000000000000000000000000000000000000600661132e565b60408051600080825260208201909252600f60f81b9b939a50919850469750309650945092509050565b60006106e5826113d2565b92915050565b60006106e582611425565b600081815260096020526040812054806107385760405162461bcd60e51b8152602060048201526003602482015262554b4f60e81b60448201526064016103db565b610743600182612ae8565b9392505050565b61075261145d565b846040015163ffffffff164211156107925760405162461bcd60e51b815260206004820152600360248201526222ac2960e91b60448201526064016103db565b600061079d866114b6565b60008181526009602052604090205490915060001981016107e65760405162461bcd60e51b815260206004820152600360248201526205244360ec1b60448201526064016103db565b806107f75750610140860151610803565b61080081612aff565b90505b808411156108395760405162461bcd60e51b8152602060048201526003602482015262232a2160e91b60448201526064016103db565b610886876020015161084a89611507565b88888080601f01602080910402602001604051908101604052809392919081815260200183838082843760009201919091525061153f92505050565b6108b85760405162461bcd60e51b8152602060048201526003602482015262534e4560e81b60448201526064016103db565b6101408701516000906108ce620f424087612b16565b6108d89190612b35565b9050600081116109105760405162461bcd60e51b815260206004820152600360248201526204652360ec1b60448201526064016103db565b6007546060890151604051631427a18160e11b815261ffff90911660048201526000916001600160a01b03169063284f43029060240161014060405180830381865afa158015610964573d6000803e3d6000fd5b505050506040513d601f19601f820116820180604052508101906109889190612b6d565b9050886101200151610a165760006109a982604001518360600151886115a0565b905089608001511580156109c257508961010001518110155b806109de5750896080015180156109de57508961010001518111155b610a105760405162461bcd60e51b815260206004820152600360248201526250524560e81b60448201526064016103db565b50610b46565b60075460608a015160405163487484bd60e11b81526001600160a01b03909216916390e9097a91610a4b918990600401612c29565b600060405180830381600087803b158015610a6557600080fd5b505af1158015610a79573d6000803e3d6000fd5b505050506000806000610a95846040015185606001518a611682565b9250925092508b60800151158015610ad357508b61010001518311158015610ac257508b61010001518211155b8015610ad357508b61010001518111155b80610b1057508b608001518015610b1057508b61010001518310158015610aff57508b61010001518210155b8015610b1057508b61010001518110155b610b425760405162461bcd60e51b81526020600482015260036024820152622aa82360e91b60448201526064016103db565b5050505b6000610b538a888861181f565b9050828a6101600151610b669190612b16565b610b73620f424083612b16565b1015610ba75760405162461bcd60e51b81526020600482015260036024820152624e454760e81b60448201526064016103db565b6000620f4240848c60e00151610bbd9190612b16565b610bc79190612b35565b90508015610bf25760208b015160c08c0151610bf0916001600160a01b039091169033846118d1565b505b610bfc8886612ae8565b6040805188815260208101849052908101829052606081018a905290955033907fda67fd5efd7c65cc617b4e30cdd2569c6c2b3d0034729f3c616c6a83b4520a8f9060800160405180910390a2610c54856001612c46565b6000968752600960205260409096209590955550610c769350611ae092505050565b5050505050565b60006106e582611507565b610c9061145d565b856040015163ffffffff16421115610cd05760405162461bcd60e51b815260206004820152600360248201526222ac2960e91b60448201526064016103db565b6000610cdb876114b6565b6000818152600960205260409020549091506000198101610d245760405162461bcd60e51b815260206004820152600360248201526205244360ec1b60448201526064016103db565b80610d355750610120870151610d41565b610d3e81612aff565b90505b80851115610d775760405162461bcd60e51b8152602060048201526003602482015262232a2160e91b60448201526064016103db565b610dc48860200151610d888a6113d2565b89898080601f01602080910402602001604051908101604052809392919081815260200183838082843760009201919091525061153f92505050565b610df65760405162461bcd60e51b8152602060048201526003602482015262534e4560e81b60448201526064016103db565b610120880151600090610e0c620f424088612b16565b610e169190612b35565b905060008111610e4e5760405162461bcd60e51b815260206004820152600360248201526204652360ec1b60448201526064016103db565b60075460608a0151604051631427a18160e11b815261ffff90911660048201526000916001600160a01b03169063284f43029060240161014060405180830381865afa158015610ea2573d6000803e3d6000fd5b505050506040513d601f19601f82011682018060405250810190610ec69190612b6d565b90506000610f138260400151836060015189898080601f0160208091040260200160405190810160405280939291908181526020018383808284376000920191909152506115a092505050565b90508a60800151158015610f2c57508a61010001518111155b80610f4857508a608001518015610f4857508a61010001518110155b610f7a5760405162461bcd60e51b815260206004820152600360248201526250524560e81b60448201526064016103db565b60008b60a00151610f8f578260400151610f95565b82606001515b60208d0151909150600090610fb6906001600160a01b03841690308d6118d1565b600754909150610fd3906001600160a01b03848116911683611ae7565b50848d6101600151610fe59190612b16565b620f424061102b8f84898e8e8080601f016020809104026020016040519081016040528093929190818152602001838380828437600092019190915250611d7692505050565b6110359190612b16565b10156110695760405162461bcd60e51b81526020600482015260036024820152624e454760e81b60448201526064016103db565b6000620f4240868f60e0015161107f9190612b16565b6110899190612b35565b905080156110b45760c08e015160208f01516110b1906001600160a01b0383169033856118d1565b50505b6110be8b88612ae8565b604080518a815260208101849052908101829052606081018d905290975033907fda67fd5efd7c65cc617b4e30cdd2569c6c2b3d0034729f3c616c6a83b4520a8f9060800160405180910390a2611116876001612c46565b600098895260096020526040909820979097555061113a9550611ae0945050505050565b505050505050565b61114a61145d565b60075460405163010df95560e61b81526001600160a01b039091169063437e5540906111849033908a908a908a908a908a90600401612c5e565b6020604051808303816000875af11580156111a3573d6000803e3d6000fd5b505050506040513d601f19601f820116820180604052508101906111c79190612c9d565b5060005b8151811015611208576111f68282815181106111e9576111e9612aa3565b6020026020010151611247565b8061120081612acf565b9150506111cb565b5061113a6001600455565b600060208351101561122f5761122883611e55565b90506106e5565b8161123a8482612d36565b5060ff9392505050565b90565b60208101516001600160a01b031633146112895760405162461bcd60e51b815260206004820152600360248201526227a7a760e91b60448201526064016103db565b600061129482611425565b60008181526009602052604090205490915060001981016112dd5760405162461bcd60e51b815260206004820152600360248201526220a62360e91b60448201526064016103db565b604080518381526020810183905233917fcbfa7d191838ece7ba4783ca3a30afd316619b7f368094b57ee7ffde9a923db1910160405180910390a25060009081526009602052604090206001905550565b606060ff83146113415761122883611e93565b81805461134d90612cb6565b80601f016020809104026020016040519081016040528092919081815260200182805461137990612cb6565b80156113c65780601f1061139b576101008083540402835291602001916113c6565b820191906000526020600020905b8154815290600101906020018083116113a957829003601f168201915b505050505090506106e5565b60006106e57f9d091fc24b71e07c789800010bde2a8f74aa66ce7005bfb8700e86dd2537140a8360405160200161140a929190612df6565b60405160208183030381529060405280519060200120611ed2565b60006106e57f430e9c1c9d6fa16271537c1e24bc58b084c5148dd3d35e8b3051d70e05ce87348360405160200161140a929190612ebd565b6002600454036114af5760405162461bcd60e51b815260206004820152601f60248201527f5265656e7472616e637947756172643a207265656e7472616e742063616c6c0060448201526064016103db565b6002600455565b6040805161012081018252600080825260208201819052918101829052606081018290526080810182905260a0810182905260c0810182905260e08101829052610100018190528161074381611425565b60006106e57fc36cca49e20192a3f79d1a07eddb102e5dc9cb201da54c5de04c45090708ae9f8360405160200161140a929190612f58565b600080600061154e8585611eff565b9092509050600081600481111561156757611567613029565b1480156115855750856001600160a01b0316826001600160a01b0316145b806115965750611596868686611f44565b9695505050505050565b60085460405163355efdd960e01b815260009182916001600160a01b039091169063355efdd9906115d99088908890889060040161303f565b6040805180830381865afa1580156115f5573d6000803e3d6000fd5b505050506040513d601f19601f820116820180604052508101906116199190613085565b9092509050601860ff821610156116545761163860ff82166018612ae8565b61164390600a613195565b61164d9083612b16565b915061167a565b611662601860ff8316612ae8565b61166d90600a613195565b6116779083612b35565b91505b509392505050565b6008546040516352cd1b5760e11b815260009182918291829182916001600160a01b03169063a59a36ae906116c2908b908b90603c908c906004016131a1565b60a060405180830381865afa1580156116df573d6000803e3d6000fd5b505050506040513d601f19601f8201168201806040525081019061170391906131d9565b93985091965094509250905061171a603c82612c46565b4210611724578392505b60188260ff1610156117a45761173e60ff83166018612ae8565b61174990600a613195565b6117539086612b16565b945061176360ff83166018612ae8565b61176e90600a613195565b6117789085612b16565b935061178860ff83166018612ae8565b61179390600a613195565b61179d9084612b16565b9250611814565b6117b2601860ff8416612ae8565b6117bd90600a613195565b6117c79086612b35565b94506117d7601860ff8416612ae8565b6117e290600a613195565b6117ec9085612b35565b93506117fc601860ff8416612ae8565b61180790600a613195565b6118119084612b35565b92505b505093509350939050565b60075460208401516060850151608086015160a08701516000946001600160a01b03169363437e554093909290918890151582151514611860576000611864565b6000195b886040518763ffffffff1660e01b815260040161188696959493929190612c5e565b6020604051808303816000875af11580156118a5573d6000803e3d6000fd5b505050506040513d601f19601f820116820180604052508101906118c99190612c9d565b949350505050565b600081156118c9576040516370a0823160e01b81526001600160a01b03848116600483015260009182918816906370a0823190602401602060405180830381865afa158015611924573d6000803e3d6000fd5b505050506040513d601f19601f820116820180604052508101906119489190612c9d565b604080516001600160a01b0389811660248301528881166044830152606480830189905283518084039091018152608490920183526020820180516001600160e01b03166323b872dd60e01b1790529151929350908916916119aa9190613222565b6000604051808303816000865af19150503d80600081146119e7576040519150601f19603f3d011682016040523d82523d6000602084013e6119ec565b606091505b50508092505081611a255760405162461bcd60e51b81526020600482015260036024820152622a232360e91b60448201526064016103db565b6040516370a0823160e01b81526001600160a01b038681166004830152600091908916906370a0823190602401602060405180830381865afa158015611a6f573d6000803e3d6000fd5b505050506040513d601f19601f82011682018060405250810190611a939190612c9d565b9050818111611aca5760405162461bcd60e51b81526020600482015260036024820152622a232360e91b60448201526064016103db565b611ad48282612ae8565b98975050505050505050565b6001600455565b604051636eb1769f60e11b81523060048201526001600160a01b038381166024830152600091829186169063dd62ed3e90604401602060405180830381865afa158015611b38573d6000803e3d6000fd5b505050506040513d601f19601f82011682018060405250810190611b5c9190612c9d565b15611c3557604080516001600160a01b038681166024830152600060448084019190915283518084039091018152606490920183526020820180516001600160e01b031663095ea7b360e01b179052915191871691611bbb9190613222565b6000604051808303816000865af19150503d8060008114611bf8576040519150601f19603f3d011682016040523d82523d6000602084013e611bfd565b606091505b50508091505080611c355760405162461bcd60e51b815260206004820152600260248201526120a360f11b60448201526064016103db565b604080516001600160a01b038681166024830152604480830187905283518084039091018152606490920183526020820180516001600160e01b031663095ea7b360e01b179052915191871691611c8c9190613222565b6000604051808303816000865af19150503d8060008114611cc9576040519150601f19603f3d011682016040523d82523d6000602084013e611cce565b606091505b50508091505080611d065760405162461bcd60e51b815260206004820152600260248201526120a360f11b60448201526064016103db565b604051636eb1769f60e11b81523060048201526001600160a01b03858116602483015286169063dd62ed3e90604401602060405180830381865afa158015611d52573d6000803e3d6000fd5b505050506040513d601f19601f820116820180604052508101906116779190612c9d565b6000806040518060c00160405280876060015161ffff1681526020018760800151151581526020018760a0015115158152602001868152602001620f424086896101400151611dc59190612b16565b611dcf9190612b35565b8152600060209182015260075490880151604051633723b7a360e01b81529293506001600160a01b0390911691633723b7a391611e12918590889060040161323e565b6020604051808303816000875af1158015611e31573d6000803e3d6000fd5b505050506040513d601f19601f820116820180604052508101906115969190612c9d565b600080829050601f81511115611e80578260405163305a27a960e01b81526004016103db91906132a1565b8051611e8b826132b4565b179392505050565b60606000611ea083612030565b604080516020808252818301909252919250600091906020820181803683375050509182525060208101929092525090565b60006106e5611edf612058565b8360405161190160f01b8152600281019290925260228201526042902090565b6000808251604103611f355760208301516040840151606085015160001a611f2987828585612188565b94509450505050611f3d565b506000905060025b9250929050565b6000806000856001600160a01b0316631626ba7e60e01b8686604051602401611f6e9291906132d8565b60408051601f198184030181529181526020820180516001600160e01b03166001600160e01b0319909416939093179092529051611fac9190613222565b600060405180830381855afa9150503d8060008114611fe7576040519150601f19603f3d011682016040523d82523d6000602084013e611fec565b606091505b509150915081801561200057506020815110155b801561159657508051630b135d3f60e11b906120259083016020908101908401612c9d565b149695505050505050565b600060ff8216601f8111156106e557604051632cd44ac360e21b815260040160405180910390fd5b6000306001600160a01b037f0000000000000000000000000000000000000000000000000000000000000000161480156120b157507f000000000000000000000000000000000000000000000000000000000000000046145b156120db57507f000000000000000000000000000000000000000000000000000000000000000090565b612183604080517f8b73c3c69bb8fe3d512ecc4cf759cc79239f7b179b0ffacaa9a75d522b39400f60208201527f0000000000000000000000000000000000000000000000000000000000000000918101919091527f000000000000000000000000000000000000000000000000000000000000000060608201524660808201523060a082015260009060c00160405160208183030381529060405280519060200120905090565b905090565b6000807f7fffffffffffffffffffffffffffffff5d576e7357a4501ddfe92f46681b20a08311156121bf5750600090506003612243565b6040805160008082526020820180845289905260ff881692820192909252606081018690526080810185905260019060a0016020604051602081039080840390855afa158015612213573d6000803e3d6000fd5b5050604051601f1901519150506001600160a01b03811661223c57600060019250925050612243565b9150600090505b94509492505050565b6000806020838503121561225f57600080fd5b823567ffffffffffffffff8082111561227757600080fd5b818501915085601f83011261228b57600080fd5b81358181111561229a57600080fd5b866020610120830285010111156122b057600080fd5b60209290920196919550909350505050565b634e487b7160e01b600052604160045260246000fd5b604051610120810167ffffffffffffffff811182821017156122fc576122fc6122c2565b60405290565b604051610180810167ffffffffffffffff811182821017156122fc576122fc6122c2565b604051610140810167ffffffffffffffff811182821017156122fc576122fc6122c2565b604051601f8201601f1916810167ffffffffffffffff81118282101715612373576123736122c2565b604052919050565b6001600160a01b03811681146104f657600080fd5b803561239b8161237b565b919050565b803563ffffffff8116811461239b57600080fd5b61ffff811681146104f657600080fd5b803561239b816123b4565b8035801515811461239b57600080fd5b600061012082840312156123f257600080fd5b6123fa6122d8565b90508135815261240c60208301612390565b602082015261241d604083016123a0565b604082015261242e606083016123c4565b606082015261243f608083016123cf565b608082015261245060a083016123cf565b60a082015261246160c08301612390565b60c082015260e082013560e082015261010080830135818301525092915050565b6000610120828403121561249557600080fd5b61074383836123df565b600080604083850312156124b257600080fd5b82356124bd8161237b565b915060208301356124cd8161237b565b809150509250929050565b6000602082840312156124ea57600080fd5b81356107438161237b565b60006020828403121561250757600080fd5b5035919050565b60005b83811015612529578181015183820152602001612511565b83811115612538576000848401525b50505050565b6000815180845261255681602086016020860161250e565b601f01601f19169290920160200192915050565b60ff60f81b881681526000602060e08184015261258a60e084018a61253e565b838103604085015261259c818a61253e565b606085018990526001600160a01b038816608086015260a0850187905284810360c0860152855180825283870192509083019060005b818110156125ee578351835292840192918401916001016125d2565b50909c9b505050505050505050505050565b6000610180828403121561261357600080fd5b61261b612302565b90508135815261262d60208301612390565b602082015261263e604083016123a0565b604082015261264f606083016123c4565b6060820152612660608083016123cf565b608082015261267160a083016123cf565b60a082015261268260c08301612390565b60c082015260e082810135908201526101008083013590820152610120808301359082015261014080830135908201526101609182013591810191909152919050565b600061018082840312156126d857600080fd5b6107438383612600565b600061018082840312156126f557600080fd5b6126fd612302565b90508135815261270f60208301612390565b6020820152612720604083016123a0565b6040820152612731606083016123c4565b6060820152612742608083016123cf565b608082015261275360a083016123cf565b60a082015261276460c08301612390565b60c082015260e082013560e082015261010080830135818301525061012061278d8184016123cf565b9082015261014082810135908201526101609182013591810191909152919050565b60008083601f8401126127c157600080fd5b50813567ffffffffffffffff8111156127d957600080fd5b602083019150836020828501011115611f3d57600080fd5b600082601f83011261280257600080fd5b813567ffffffffffffffff81111561281c5761281c6122c2565b61282f601f8201601f191660200161234a565b81815284602083860101111561284457600080fd5b816020850160208301376000918101602001919091529392505050565b60008060008060006101e0868803121561287a57600080fd5b61288487876126e2565b945061018086013567ffffffffffffffff808211156128a257600080fd5b6128ae89838a016127af565b90965094506101a088013593506101c08801359150808211156128d057600080fd5b506128dd888289016127f1565b9150509295509295909350565b600061018082840312156128fd57600080fd5b61074383836126e2565b6000806000806000806101e0878903121561292157600080fd5b61292b8888612600565b955061018087013567ffffffffffffffff8082111561294957600080fd5b6129558a838b016127af565b90975095506101a089013594506101c089013591508082111561297757600080fd5b5061298489828a016127af565b979a9699509497509295939492505050565b60008060008060008060c087890312156129af57600080fd5b86356129ba816123b4565b955060206129c98882016123cf565b95506040880135945060608801359350608088013567ffffffffffffffff808211156129f457600080fd5b612a008b838c016127f1565b945060a08a0135915080821115612a1657600080fd5b818a0191508a601f830112612a2a57600080fd5b813581811115612a3c57612a3c6122c2565b612a4a848260051b0161234a565b818152848101925061012091820284018501918d831115612a6a57600080fd5b938501935b82851015612a9057612a818e866123df565b84529384019392850192612a6f565b5080955050505050509295509295509295565b634e487b7160e01b600052603260045260246000fd5b634e487b7160e01b600052601160045260246000fd5b600060018201612ae157612ae1612ab9565b5060010190565b600082821015612afa57612afa612ab9565b500390565b600081612b0e57612b0e612ab9565b506000190190565b6000816000190483118215151615612b3057612b30612ab9565b500290565b600082612b5257634e487b7160e01b600052601260045260246000fd5b500490565b805161239b8161237b565b805161239b816123b4565b60006101408284031215612b8057600080fd5b612b88612326565b612b9183612b57565b8152612b9f60208401612b57565b6020820152612bb060408401612b57565b6040820152612bc160608401612b57565b6060820152612bd260808401612b62565b6080820152612be360a08401612b62565b60a0820152612bf460c08401612b62565b60c0820152612c0560e08401612b57565b60e08201526101008381015190820152610120928301519281019290925250919050565b61ffff831681526040602082015260006118c9604083018461253e565b60008219821115612c5957612c59612ab9565b500190565b60018060a01b038716815261ffff86166020820152841515604082015283606082015282608082015260c060a08201526000611ad460c083018461253e565b600060208284031215612caf57600080fd5b5051919050565b600181811c90821680612cca57607f821691505b602082108103612cea57634e487b7160e01b600052602260045260246000fd5b50919050565b601f8211156104e857600081815260208120601f850160051c81016020861015612d175750805b601f850160051c820191505b8181101561113a57828155600101612d23565b815167ffffffffffffffff811115612d5057612d506122c2565b612d6481612d5e8454612cb6565b84612cf0565b602080601f831160018114612d995760008415612d815750858301515b600019600386901b1c1916600185901b17855561113a565b600085815260208120601f198616915b82811015612dc857888601518255948401946001909101908401612da9565b5085821015612de65787850151600019600388901b60f8161c191681555b5050505050600190811b01905550565b60006101a082019050838252825160208301526020830151612e2360408401826001600160a01b03169052565b50604083015163ffffffff8116606084015250606083015161ffff8116608084015250608083015180151560a08401525060a083015180151560c08401525060c08301516001600160a01b03811660e08401525060e0830151610100838101919091528301516101208084019190915283015161014080840191909152830151610160808401919091529092015161018090910152919050565b6000610140820190508382528251602083015260018060a01b03602084015116604083015263ffffffff60408401511660608301526060830151612f07608084018261ffff169052565b50608083015180151560a08401525060a083015180151560c08401525060c08301516001600160a01b03811660e08401525060e0830151610100838101919091529092015161012090910152919050565b60006101a082019050838252825160208301526020830151612f8560408401826001600160a01b03169052565b50604083015163ffffffff8116606084015250606083015161ffff8116608084015250608083015180151560a08401525060a083015180151560c08401525060c08301516001600160a01b03811660e08401525060e083015161010083810191909152830151610120808401919091528301516101406130088185018315159052565b84015161016084810191909152909301516101809092019190915292915050565b634e487b7160e01b600052602160045260246000fd5b6001600160a01b0384811682528316602082015260606040820181905260009061306b9083018461253e565b95945050505050565b805160ff8116811461239b57600080fd5b6000806040838503121561309857600080fd5b825191506130a860208401613074565b90509250929050565b600181815b808511156130ec5781600019048211156130d2576130d2612ab9565b808516156130df57918102915b93841c93908002906130b6565b509250929050565b600082613103575060016106e5565b81613110575060006106e5565b816001811461312657600281146131305761314c565b60019150506106e5565b60ff84111561314157613141612ab9565b50506001821b6106e5565b5060208310610133831016604e8410600b841016171561316f575081810a6106e5565b61317983836130b1565b806000190482111561318d5761318d612ab9565b029392505050565b600061074383836130f4565b6001600160a01b0385811682528416602082015263ffffffff831660408201526080606082018190526000906115969083018461253e565b600080600080600060a086880312156131f157600080fd5b85519450602086015193506040860151925061320f60608701613074565b9150608086015190509295509295909350565b6000825161323481846020870161250e565b9190910192915050565b600061010060018060a01b038616835261ffff855116602084015260208501511515604084015260408501511515606084015260608501516080840152608085015160a084015260a085015160c08401528060e08401526115968184018561253e565b602081526000610743602083018461253e565b80516020808301519190811015612cea5760001960209190910360031b1b16919050565b8281526040602082015260006118c9604083018461253e56fea2646970667358221220da3deb493045173465ff8c0e7fc4eae65b550b1881213f90869feeda1236ee6464736f6c634300080f0033",
  "linkReferences": {},
  "deployedLinkReferences": {}
}