{
  "_format": "hh-sol-artifact-1",
  "contractName": "CronosDexAggregatorV1",
  "sourceName": "contracts/udex/dex/cronos/CronosDexAggregatorV1.sol",
  "abi": [
    {
      "anonymous": false,
      "inputs": [
        {
          "indexed": false,
          "internalType": "address",
          "name": "oldAdmin",
          "type": "address"
        },
        {
          "indexed": false,
          "internalType": "address",
          "name": "newAdmin",
          "type": "address"
        }
      ],
      "name": "NewAdmin",
      "type": "event"
    },
    {
      "anonymous": false,
      "inputs": [
        {
          "indexed": false,
          "internalType": "address",
          "name": "oldPendingAdmin",
          "type": "address"
        },
        {
          "indexed": false,
          "internalType": "address",
          "name": "newPendingAdmin",
          "type": "address"
        }
      ],
      "name": "NewPendingAdmin",
      "type": "event"
    },
    {
      "inputs": [],
      "name": "acceptAdmin",
      "outputs": [],
      "stateMutability": "nonpayable",
      "type": "function"
    },
    {
      "inputs": [],
      "name": "admin",
      "outputs": [
        {
          "internalType": "address payable",
          "name": "",
          "type": "address"
        }
      ],
      "stateMutability": "view",
      "type": "function"
    },
    {
      "inputs": [
        {
          "internalType": "address",
          "name": "buyToken",
          "type": "address"
        },
        {
          "internalType": "address",
          "name": "sellToken",
          "type": "address"
        },
        {
          "internalType": "uint24",
          "name": "buyTax",
          "type": "uint24"
        },
        {
          "internalType": "uint24",
          "name": "sellTax",
          "type": "uint24"
        },
        {
          "internalType": "uint256",
          "name": "buyAmount",
          "type": "uint256"
        },
        {
          "internalType": "uint256",
          "name": "maxSellAmount",
          "type": "uint256"
        },
        {
          "internalType": "bytes",
          "name": "data",
          "type": "bytes"
        }
      ],
      "name": "buy",
      "outputs": [
        {
          "internalType": "uint256",
          "name": "sellAmount",
          "type": "uint256"
        }
      ],
      "stateMutability": "nonpayable",
      "type": "function"
    },
    {
      "inputs": [
        {
          "internalType": "address",
          "name": "buyToken",
          "type": "address"
        },
        {
          "internalType": "address",
          "name": "sellToken",
          "type": "address"
        },
        {
          "internalType": "uint24",
          "name": "buyTax",
          "type": "uint24"
        },
        {
          "internalType": "uint24",
          "name": "sellTax",
          "type": "uint24"
        },
        {
          "internalType": "uint256",
          "name": "sellAmount",
          "type": "uint256"
        },
        {
          "internalType": "bytes",
          "name": "data",
          "type": "bytes"
        }
      ],
      "name": "calBuyAmount",
      "outputs": [
        {
          "internalType": "uint256",
          "name": "buyAmount",
          "type": "uint256"
        }
      ],
      "stateMutability": "view",
      "type": "function"
    },
    {
      "inputs": [
        {
          "internalType": "address",
          "name": "buyToken",
          "type": "address"
        },
        {
          "internalType": "address",
          "name": "sellToken",
          "type": "address"
        },
        {
          "internalType": "uint24",
          "name": "buyTax",
          "type": "uint24"
        },
        {
          "internalType": "uint24",
          "name": "sellTax",
          "type": "uint24"
        },
        {
          "internalType": "uint256",
          "name": "buyAmount",
          "type": "uint256"
        },
        {
          "internalType": "bytes",
          "name": "data",
          "type": "bytes"
        }
      ],
      "name": "calSellAmount",
      "outputs": [
        {
          "internalType": "uint256",
          "name": "sellAmount",
          "type": "uint256"
        }
      ],
      "stateMutability": "view",
      "type": "function"
    },
    {
      "inputs": [],
      "name": "developer",
      "outputs": [
        {
          "internalType": "address payable",
          "name": "",
          "type": "address"
        }
      ],
      "stateMutability": "view",
      "type": "function"
    },
    {
      "inputs": [
        {
          "internalType": "uint8",
          "name": "",
          "type": "uint8"
        }
      ],
      "name": "dexInfo",
      "outputs": [
        {
          "internalType": "contract IUniswapV2Factory",
          "name": "factory",
          "type": "address"
        },
        {
          "internalType": "uint16",
          "name": "fees",
          "type": "uint16"
        }
      ],
      "stateMutability": "view",
      "type": "function"
    },
    {
      "inputs": [
        {
          "internalType": "address",
          "name": "desToken",
          "type": "address"
        },
        {
          "internalType": "address",
          "name": "quoteToken",
          "type": "address"
        },
        {
          "internalType": "uint32",
          "name": "secondsAgo",
          "type": "uint32"
        },
        {
          "internalType": "bytes",
          "name": "data",
          "type": "bytes"
        }
      ],
      "name": "getAvgPrice",
      "outputs": [
        {
          "internalType": "uint256",
          "name": "price",
          "type": "uint256"
        },
        {
          "internalType": "uint8",
          "name": "decimals",
          "type": "uint8"
        },
        {
          "internalType": "uint256",
          "name": "timestamp",
          "type": "uint256"
        }
      ],
      "stateMutability": "view",
      "type": "function"
    },
    {
      "inputs": [
        {
          "internalType": "address",
          "name": "token0",
          "type": "address"
        },
        {
          "internalType": "address",
          "name": "token1",
          "type": "address"
        },
        {
          "internalType": "bytes",
          "name": "dexData",
          "type": "bytes"
        }
      ],
      "name": "getPairLiquidity",
      "outputs": [
        {
          "internalType": "uint256",
          "name": "token0Liq",
          "type": "uint256"
        },
        {
          "internalType": "uint256",
          "name": "token1Liq",
          "type": "uint256"
        }
      ],
      "stateMutability": "view",
      "type": "function"
    },
    {
      "inputs": [
        {
          "internalType": "address",
          "name": "desToken",
          "type": "address"
        },
        {
          "internalType": "address",
          "name": "quoteToken",
          "type": "address"
        },
        {
          "internalType": "bytes",
          "name": "data",
          "type": "bytes"
        }
      ],
      "name": "getPrice",
      "outputs": [
        {
          "internalType": "uint256",
          "name": "price",
          "type": "uint256"
        },
        {
          "internalType": "uint8",
          "name": "decimals",
          "type": "uint8"
        }
      ],
      "stateMutability": "view",
      "type": "function"
    },
    {
      "inputs": [
        {
          "internalType": "address",
          "name": "desToken",
          "type": "address"
        },
        {
          "internalType": "address",
          "name": "quoteToken",
          "type": "address"
        },
        {
          "internalType": "uint32",
          "name": "secondsAgo",
          "type": "uint32"
        },
        {
          "internalType": "bytes",
          "name": "dexData",
          "type": "bytes"
        }
      ],
      "name": "getPriceCAvgPriceHAvgPrice",
      "outputs": [
        {
          "internalType": "uint256",
          "name": "price",
          "type": "uint256"
        },
        {
          "internalType": "uint256",
          "name": "cAvgPrice",
          "type": "uint256"
        },
        {
          "internalType": "uint256",
          "name": "hAvgPrice",
          "type": "uint256"
        },
        {
          "internalType": "uint8",
          "name": "decimals",
          "type": "uint8"
        },
        {
          "internalType": "uint256",
          "name": "timestamp",
          "type": "uint256"
        }
      ],
      "stateMutability": "view",
      "type": "function"
    },
    {
      "inputs": [
        {
          "internalType": "address",
          "name": "token0",
          "type": "address"
        },
        {
          "internalType": "address",
          "name": "token1",
          "type": "address"
        },
        {
          "internalType": "bytes",
          "name": "dexData",
          "type": "bytes"
        }
      ],
      "name": "getToken0Liquidity",
      "outputs": [
        {
          "internalType": "uint256",
          "name": "",
          "type": "uint256"
        }
      ],
      "stateMutability": "view",
      "type": "function"
    },
    {
      "inputs": [],
      "name": "implementation",
      "outputs": [
        {
          "internalType": "address",
          "name": "",
          "type": "address"
        }
      ],
      "stateMutability": "view",
      "type": "function"
    },
    {
      "inputs": [
        {
          "internalType": "contract IUniswapV2Factory",
          "name": "_vvsFactory",
          "type": "address"
        },
        {
          "internalType": "address",
          "name": "_unusedFactory",
          "type": "address"
        }
      ],
      "name": "initialize",
      "outputs": [],
      "stateMutability": "nonpayable",
      "type": "function"
    },
    {
      "inputs": [],
      "name": "opBorrowing",
      "outputs": [
        {
          "internalType": "address",
          "name": "",
          "type": "address"
        }
      ],
      "stateMutability": "view",
      "type": "function"
    },
    {
      "inputs": [],
      "name": "openLev",
      "outputs": [
        {
          "internalType": "address",
          "name": "",
          "type": "address"
        }
      ],
      "stateMutability": "view",
      "type": "function"
    },
    {
      "inputs": [],
      "name": "pendingAdmin",
      "outputs": [
        {
          "internalType": "address payable",
          "name": "",
          "type": "address"
        }
      ],
      "stateMutability": "view",
      "type": "function"
    },
    {
      "inputs": [
        {
          "internalType": "address",
          "name": "buyToken",
          "type": "address"
        },
        {
          "internalType": "address",
          "name": "sellToken",
          "type": "address"
        },
        {
          "internalType": "uint256",
          "name": "sellAmount",
          "type": "uint256"
        },
        {
          "internalType": "uint256",
          "name": "minBuyAmount",
          "type": "uint256"
        },
        {
          "internalType": "bytes",
          "name": "data",
          "type": "bytes"
        }
      ],
      "name": "sell",
      "outputs": [
        {
          "internalType": "uint256",
          "name": "buyAmount",
          "type": "uint256"
        }
      ],
      "stateMutability": "nonpayable",
      "type": "function"
    },
    {
      "inputs": [
        {
          "internalType": "uint256",
          "name": "sellAmount",
          "type": "uint256"
        },
        {
          "internalType": "uint256",
          "name": "minBuyAmount",
          "type": "uint256"
        },
        {
          "internalType": "bytes",
          "name": "data",
          "type": "bytes"
        }
      ],
      "name": "sellMul",
      "outputs": [
        {
          "internalType": "uint256",
          "name": "buyAmount",
          "type": "uint256"
        }
      ],
      "stateMutability": "nonpayable",
      "type": "function"
    },
    {
      "inputs": [
        {
          "internalType": "uint8[]",
          "name": "dexName",
          "type": "uint8[]"
        },
        {
          "internalType": "contract IUniswapV2Factory[]",
          "name": "factoryAddr",
          "type": "address[]"
        },
        {
          "internalType": "uint16[]",
          "name": "fees",
          "type": "uint16[]"
        }
      ],
      "name": "setDexInfo",
      "outputs": [],
      "stateMutability": "nonpayable",
      "type": "function"
    },
    {
      "inputs": [
        {
          "internalType": "address",
          "name": "_opBorrowing",
          "type": "address"
        }
      ],
      "name": "setOpBorrowing",
      "outputs": [],
      "stateMutability": "nonpayable",
      "type": "function"
    },
    {
      "inputs": [
        {
          "internalType": "address",
          "name": "_openLev",
          "type": "address"
        }
      ],
      "name": "setOpenLev",
      "outputs": [],
      "stateMutability": "nonpayable",
      "type": "function"
    },
    {
      "inputs": [
        {
          "internalType": "address payable",
          "name": "newPendingAdmin",
          "type": "address"
        }
      ],
      "name": "setPendingAdmin",
      "outputs": [],
      "stateMutability": "nonpayable",
      "type": "function"
    },
    {
      "inputs": [
        {
          "internalType": "contract IUniswapV2Pair",
          "name": "",
          "type": "address"
        }
      ],
      "name": "uniV2PriceOracle",
      "outputs": [
        {
          "internalType": "uint32",
          "name": "blockTimestampLast",
          "type": "uint32"
        },
        {
          "internalType": "uint256",
          "name": "price0",
          "type": "uint256"
        },
        {
          "internalType": "uint256",
          "name": "price1",
          "type": "uint256"
        },
        {
          "internalType": "uint256",
          "name": "price0CumulativeLast",
          "type": "uint256"
        },
        {
          "internalType": "uint256",
          "name": "price1CumulativeLast",
          "type": "uint256"
        }
      ],
      "stateMutability": "view",
      "type": "function"
    },
    {
      "inputs": [
        {
          "internalType": "address",
          "name": "desToken",
          "type": "address"
        },
        {
          "internalType": "address",
          "name": "quoteToken",
          "type": "address"
        },
        {
          "internalType": "uint32",
          "name": "timeWindow",
          "type": "uint32"
        },
        {
          "internalType": "bytes",
          "name": "data",
          "type": "bytes"
        }
      ],
      "name": "updatePriceOracle",
      "outputs": [
        {
          "internalType": "bool",
          "name": "",
          "type": "bool"
        }
      ],
      "stateMutability": "nonpayable",
      "type": "function"
    },
    {
      "inputs": [
        {
          "internalType": "address",
          "name": "desToken",
          "type": "address"
        },
        {
          "internalType": "address",
          "name": "quoteToken",
          "type": "address"
        },
        {
          "internalType": "bytes",
          "name": "data",
          "type": "bytes"
        }
      ],
      "name": "updateV3Observation",
      "outputs": [],
      "stateMutability": "pure",
      "type": "function"
    },
    {
      "inputs": [],
      "name": "vvsFactory",
      "outputs": [
        {
          "internalType": "contract IUniswapV2Factory",
          "name": "",
          "type": "address"
        }
      ],
      "stateMutability": "view",
      "type": "function"
    }
  ],
  "bytecode": "0x608060405234801561001057600080fd5b50600380546001600160a01b03191633179055613676806100326000396000f3fe608060405234801561001057600080fd5b50600436106101a95760003560e01c8063576fd3f0116100f9578063ca4b208b11610097578063d522a11e11610071578063d522a11e146103ae578063f18ef359146103c1578063f851a440146103d4578063fc89f53c146103dc576101a9565b8063ca4b208b14610380578063cbf09bf814610388578063cf24406b1461039b576101a9565b806388ef16ab116100d357806388ef16ab1461030457806396e0119714610317578063a59a36ae1461033b578063a96de5bd1461035f576101a9565b8063576fd3f0146102d65780635962f613146102e95780635c60da1b146102fc576101a9565b80632902d27b1161016657806341da89e41161014057806341da89e41461027d578063485cc9551461029d5780634a6682bb146102b05780634dd18bf5146102c3576101a9565b80632902d27b1461023357806329a7261314610254578063355efdd91461025c576101a9565b806304e79e29146101ae578063080296e4146101c35780630e18b681146101ee57806315426c97146101f65780631688995514610216578063267822471461022b575b600080fd5b6101c16101bc366004612cc7565b6103e4565b005b6101d66101d1366004612ef2565b61043d565b6040516101e59392919061354d565b60405180910390f35b6101c1610518565b610209610204366004612ef2565b610618565b6040516101e591906131cf565b61021e61076b565b6040516101e591906131a1565b61021e61077a565b610246610241366004612cff565b610789565b6040516101e5929190613508565b61021e6108cd565b61026f61026a366004612cff565b6108dc565b6040516101e592919061353c565b61029061028b366004612e7e565b61091e565b6040516101e591906134ff565b6101c16102ab36600461303c565b610983565b6102906102be366004612d5f565b610a3c565b6101c16102d1366004612cc7565b610aab565b6101c16102e4366004612cc7565b610b16565b6102906102f7366004612d5f565b610b66565b61021e610bbf565b610290610312366004612cff565b610bce565b61032a610325366004612cc7565b610c93565b6040516101e5959493929190613566565b61034e610349366004612ef2565b610cca565b6040516101e5959493929190613516565b61037261036d36600461310a565b610d8d565b6040516101e59291906131da565b61021e610db5565b6101c1610396366004612f65565b610dc4565b6102906103a9366004612de9565b610ec9565b6102906103bc3660046130d2565b610f2f565b6101c16103cf366004612cff565b610f8e565b61021e610fa6565b61021e610fb5565b6103ec610fc4565b6001600160a01b03811661041b5760405162461bcd60e51b815260040161041290613332565b60405180910390fd5b600680546001600160a01b0319166001600160a01b0392909216919091179055565b600080600061044b8461101c565b6104675760405162461bcd60e51b8152600401610412906133b5565b6018915060006104a188886007600061047f8a611036565b60ff1681526020810191909152604001600020546001600160a01b0316611065565b6001600160a01b038116600090815260046020818152604092839020835160a081018552815463ffffffff16815260018201549281019290925260028101549382019390935260038301546060820152910154608082015290915061050789898361119b565b909a94995097509295505050505050565b6002546001600160a01b031633146105615760405162461bcd60e51b81526004018080602001828103825260228152602001806135fe6022913960400191505060405180910390fd5b60018054600280546001600160a01b038082166001600160a01b031980861682179687905590921690925560408051938316808552949092166020840152815190927ff9ffabca9c8276e99321725bcb43fb076a6c66a54b7f21c4e8146d8519b417dc92908290030190a1600254604080516001600160a01b038085168252909216602083015280517fca4f2f25d0898edd99413412fb94012f9e54ec8142f9b093e7720646a95b16a99281900390910190a15050565b6006546000906001600160a01b031633148061063e57506008546001600160a01b031633145b61065a5760405162461bcd60e51b81526004016104129061337e565b6106638261101c565b61067f5760405162461bcd60e51b8152600401610412906133b5565b600061069386866007600061047f88611036565b6001600160a01b0381166000908152600460208181526040808420815160a081018352815463ffffffff16815260018201549381019390935260028101549183019190915260038101546060830152909101546080820152919250806106fc84848960186111d2565b91509150801561075d576001600160a01b0384166000908152600460208181526040928390208551815463ffffffff191663ffffffff9091161781559085015160018201559184015160028301556060840151600383015560808401519101555b93505050505b949350505050565b6008546001600160a01b031681565b6002546001600160a01b031681565b6000806107958361101c565b6107b15760405162461bcd60e51b8152600401610412906133b5565b60006107c586866007600061047f89611036565b6040516370a0823160e01b81529091506001600160a01b038716906370a08231906107f49084906004016131a1565b60206040518083038186803b15801561080c57600080fd5b505afa158015610820573d6000803e3d6000fd5b505050506040513d601f19601f8201168201806040525081019061084491906130ba565b6040516370a0823160e01b81526001600160a01b038716906370a08231906108709085906004016131a1565b60206040518083038186803b15801561088857600080fd5b505afa15801561089c573d6000803e3d6000fd5b505050506040513d601f19601f820116820180604052508101906108c091906130ba565b9250925050935093915050565b6006546001600160a01b031681565b600060186109146007836108ef86611036565b60ff1681526020810191909152604001600020546001600160a01b03168686846113b8565b9150935093915050565b60003361097860078361093086611036565b60ff16815260208082019290925260409081016000208151808301909252546001600160a01b0381168252600160a01b900461ffff169181019190915288888888868061150f565b979650505050505050565b6001546001600160a01b031633146109ad5760405162461bcd60e51b8152600401610412906134dc565b50600580546001600160a01b03199081166001600160a01b0393841690811790925560408051808201909152918252601e602080840191825260146000526007905291517f6e56ebdab929350837326db61d5900fe8049687e26c2b2352b923b9071b0f558805493519390921693169290921761ffff60a01b1916600160a01b61ffff90921691909102179055565b6000610a4883856118df565b9250610a9f60076000610a5a85611036565b60ff16815260208082019290925260409081016000208151808301909252546001600160a01b0381168252600160a01b900461ffff169181019190915288888661190f565b905061097881866118df565b610ab3610fc4565b600280546001600160a01b038381166001600160a01b0319831681179093556040805191909216808252602082019390935281517fca4f2f25d0898edd99413412fb94012f9e54ec8142f9b093e7720646a95b16a9929181900390910190a15050565b610b1e610fc4565b6001600160a01b038116610b445760405162461bcd60e51b815260040161041290613332565b600880546001600160a01b0319166001600160a01b0392909216919091179055565b600061097860076000610b7885611036565b60ff16815260208082019290925260409081016000208151808301909252546001600160a01b0381168252600160a01b900461ffff169181019190915288888689896119f7565b6000546001600160a01b031681565b6000610bd98261101c565b610bf55760405162461bcd60e51b8152600401610412906133b5565b6000610c0985856007600061047f88611036565b6040516370a0823160e01b81529091506001600160a01b038616906370a0823190610c389084906004016131a1565b60206040518083038186803b158015610c5057600080fd5b505afa158015610c64573d6000803e3d6000fd5b505050506040513d601f19601f82011682018060405250810190610c8891906130ba565b9150505b9392505050565b60046020819052600091825260409091208054600182015460028301546003840154939094015463ffffffff909216939092909185565b6000806000806000610cdb8661101c565b610cf75760405162461bcd60e51b8152600401610412906133b5565b601891506000610d0f8a8a6007600061047f8c611036565b6001600160a01b038116600090815260046020818152604092839020835160a081018552815463ffffffff168152600182015492810192909252600281015493820193909352600383015460608201529101546080820152909150610d7782828d8d88611b05565b929e919d509b5094995097509295505050505050565b6007602052600090815260409020546001600160a01b03811690600160a01b900461ffff1682565b6003546001600160a01b031681565b610dcc610fc4565b81518351148015610dde575080518351145b610dfa5760405162461bcd60e51b815260040161041290613225565b60005b8351811015610ec3576040518060400160405280848381518110610e1d57fe5b60200260200101516001600160a01b03168152602001838381518110610e3f57fe5b602002602001015161ffff1681525060076000868481518110610e5e57fe5b60209081029190910181015160ff1682528181019290925260400160002082518154939092015161ffff16600160a01b0261ffff60a01b196001600160a01b039093166001600160a01b03199094169390931791909116919091179055600101610dfd565b50505050565b6000610f2360076000610edb85611036565b60ff16815260208082019290925260409081016000208151808301909252546001600160a01b0381168252600160a01b900461ffff1691810191909152898987878b8b611d3c565b98975050505050505050565b600061076360076000610f4185611036565b60ff16815260208082019290925260409081016000208151808301909252546001600160a01b0381168252600160a01b900461ffff16918101919091528585610f8986612115565b6121f6565b60405162461bcd60e51b815260040161041290613415565b6001546001600160a01b031681565b6005546001600160a01b031681565b6001546001600160a01b0316331461101a576040805162461bcd60e51b815260206004820152601460248201527331b0b63632b91036bab9ba1031329030b236b4b760611b604482015290519081900360640190fd5b565b6000600261102983611036565b60ff16141590505b919050565b600060018251101561105a5760405162461bcd60e51b815260040161041290613242565b506020015160001a90565b6000806000846001600160a01b0316866001600160a01b03161061108a57848661108d565b85855b9092509050733b44b2a187a7b3824131f8db5a74194d0a42fc156001600160a01b0385161415611114578382826040516020016110cb929190613124565b604051602081830303815290604052805190602001206040516020016110f292919061314b565b6040516020818303038152906040528051906020012060001c92505050610c8c565b60405163e6a4390560e01b81526001600160a01b0385169063e6a439059061114290899089906004016131b5565b60206040518083038186803b15801561115a57600080fd5b505afa15801561116e573d6000803e3d6000fd5b505050506040513d601f19601f820116820180604052508101906111929190612ce3565b92505050610c8c565b805160009063ffffffff166001600160a01b03808516908616106111c3578260400151610914565b82602001519150935093915050565b6111da612b14565b6000806111e6426122b4565b90508486600001510163ffffffff168163ffffffff16101561120f5785600092509250506113af565b866001600160a01b031663fff6cae96040518163ffffffff1660e01b8152600401600060405180830381600087803b15801561124a57600080fd5b505af115801561125e573d6000803e3d6000fd5b5050505060008660000151820390506000886001600160a01b0316635909c0d56040518163ffffffff1660e01b815260040160206040518083038186803b1580156112a857600080fd5b505afa1580156112bc573d6000803e3d6000fd5b505050506040513d601f19601f820116820180604052508101906112e091906130ba565b90506000896001600160a01b0316635a3d54936040518163ffffffff1660e01b815260040160206040518083038186803b15801561131d57600080fd5b505afa158015611331573d6000803e3d6000fd5b505050506040513d601f19601f8201168201806040525081019061135591906130ba565b895190915063ffffffff161561139257611375828a60600151858a6122c7565b60208a0152608089015161138c908290858a6122c7565b60408a01525b606089019190915260808801525063ffffffff1685525083905060015b94509492505050565b6000806113c6858588611065565b9050600080826001600160a01b0316630902f1ac6040518163ffffffff1660e01b815260040160606040518083038186803b15801561140457600080fd5b505afa158015611418573d6000803e3d6000fd5b505050506040513d601f19601f8201168201806040525081019061143c9190613074565b506001600160701b031691506001600160701b03169150826001600160a01b0316630dfe16816040518163ffffffff1660e01b815260040160206040518083038186803b15801561148c57600080fd5b505afa1580156114a0573d6000803e3d6000fd5b505050506040513d601f19601f820116820180604052508101906114c49190612ce3565b6001600160a01b0316876001600160a01b0316146114fb576114f6816114f08460ff8916600a0a61233e565b90612397565b61075d565b61075d826114f08360ff8916600a0a61233e565b60008061152188888b60000151611065565b9050806001600160a01b031663fff6cae96040518163ffffffff1660e01b8152600401600060405180830381600087803b15801561155e57600080fd5b505af1158015611572573d6000803e3d6000fd5b50505050611582878583896123f6565b9550600080826001600160a01b0316630902f1ac6040518163ffffffff1660e01b815260040160606040518083038186803b1580156115c057600080fd5b505afa1580156115d4573d6000803e3d6000fd5b505050506040513d601f19601f820116820180604052508101906115f89190613074565b506001600160701b031691506001600160701b03169150886001600160a01b03168a6001600160a01b0316106116b3576116ae828a6001600160a01b03166370a08231866040518263ffffffff1660e01b815260040161165891906131a1565b60206040518083038186803b15801561167057600080fd5b505afa158015611684573d6000803e3d6000fd5b505050506040513d601f19601f820116820180604052508101906116a891906130ba565b90612442565b6116e3565b6116e3818a6001600160a01b03166370a08231866040518263ffffffff1660e01b815260040161165891906131a1565b975060008a6001600160a01b03166370a08231876040518263ffffffff1660e01b815260040161171391906131a1565b60206040518083038186803b15801561172b57600080fd5b505afa15801561173f573d6000803e3d6000fd5b505050506040513d601f19601f8201168201806040525081019061176391906130ba565b905061176f8c8561249f565b61ffff1660208d01526001600160a01b03808b16908c1610156118075761179c8983858f602001516124a7565b60405163022c0d9f60e01b81529095506001600160a01b0385169063022c0d9f906117d09088906000908b906004016131f7565b600060405180830381600087803b1580156117ea57600080fd5b505af11580156117fe573d6000803e3d6000fd5b5050505061187e565b6118178984848f602001516124a7565b60405163022c0d9f60e01b81529095506001600160a01b0385169063022c0d9f9061184b9060009089908b906004016131f7565b600060405180830381600087803b15801561186557600080fd5b505af1158015611879573d6000803e3d6000fd5b505050505b6118ae818c6001600160a01b03166370a08231896040518263ffffffff1660e01b815260040161165891906131a1565b9450878510156118d05760405162461bcd60e51b81526004016104129061343e565b50505050979650505050505050565b6000620f42406118fe6118f78262ffffff8616612442565b859061233e565b8161190557fe5b0490505b92915050565b60008061192185858860000151611065565b9050600080826001600160a01b0316630902f1ac6040518163ffffffff1660e01b815260040160606040518083038186803b15801561195f57600080fd5b505afa158015611973573d6000803e3d6000fd5b505050506040513d601f19601f820116820180604052508101906119979190613074565b506001600160701b031691506001600160701b03169150856001600160a01b0316876001600160a01b031610156119e7576119dd8582846119d88c8861249f565b6124a7565b9350505050610763565b6119dd8583836119d88c8861249f565b600080611a0987878a60000151611065565b9050600080826001600160a01b0316630902f1ac6040518163ffffffff1660e01b815260040160606040518083038186803b158015611a4757600080fd5b505afa158015611a5b573d6000803e3d6000fd5b505050506040513d601f19601f82011682018060405250810190611a7f9190613074565b506001600160701b031691506001600160701b03169150876001600160a01b0316896001600160a01b031610611ad257611acd611abc8888612550565b8383611ac88e8861249f565b612594565b611aeb565b611aeb611adf8888612550565b8284611ac88e8861249f565b9350611af78486612550565b9a9950505050505050505050565b6000806000806000866001600160a01b0316886001600160a01b031610905060008060008c6001600160a01b0316630902f1ac6040518163ffffffff1660e01b815260040160606040518083038186803b158015611b6257600080fd5b505afa158015611b76573d6000803e3d6000fd5b505050506040513d601f19601f82011682018060405250810190611b9a9190613074565b92506001600160701b031692506001600160701b0316925083611bd057611bcb826114f08560ff8d16600a0a61233e565b611be4565b611be4836114f08460ff8d16600a0a61233e565b975083611bf5578b60400151611bfb565b8b602001515b8c5190965063ffffffff908116955081168510611c1a57859650611d2c565b8b51810384611ca857611ca38e6001600160a01b0316635a3d54936040518163ffffffff1660e01b815260040160206040518083038186803b158015611c5f57600080fd5b505afa158015611c73573d6000803e3d6000fd5b505050506040513d601f19601f82011682018060405250810190611c9791906130ba565b8e60800151838d6122c7565b611d28565b611d288e6001600160a01b0316635909c0d56040518163ffffffff1660e01b815260040160206040518083038186803b158015611ce457600080fd5b505afa158015611cf8573d6000803e3d6000fd5b505050506040513d601f19601f82011682018060405250810190611d1c91906130ba565b8e60600151838d6122c7565b9750505b5050505095509550955095915050565b600080611d4e88888b60000151611065565b9050806001600160a01b031663fff6cae96040518163ffffffff1660e01b8152600401600060405180830381600087803b158015611d8b57600080fd5b505af1158015611d9f573d6000803e3d6000fd5b50505050600080826001600160a01b0316630902f1ac6040518163ffffffff1660e01b815260040160606040518083038186803b158015611ddf57600080fd5b505afa158015611df3573d6000803e3d6000fd5b505050506040513d601f19601f82011682018060405250810190611e179190613074565b506001600160701b031691506001600160701b0316915060008a6001600160a01b03166370a08231336040518263ffffffff1660e01b8152600401611e5c91906131a1565b60206040518083038186803b158015611e7457600080fd5b505afa158015611e88573d6000803e3d6000fd5b505050506040513d601f19601f82011682018060405250810190611eac91906130ba565b9050611eb88c8561249f565b61ffff1660208d01526001600160a01b03808b16908c161015611f9a57611eee611ee28a89612550565b83858f60200151612594565b9450611efa8587612550565b945087851115611f1c5760405162461bcd60e51b81526004016104129061334e565b611f288a3386886123f6565b506001600160a01b03841663022c0d9f611f428b8a612550565b6000336040518463ffffffff1660e01b8152600401611f63939291906131f7565b600060405180830381600087803b158015611f7d57600080fd5b505af1158015611f91573d6000803e3d6000fd5b5050505061205b565b611fb3611fa78a89612550565b84848f60200151612594565b9450611fbf8587612550565b945087851115611fe15760405162461bcd60e51b81526004016104129061334e565b611fed8a3386886123f6565b506001600160a01b03841663022c0d9f60006120098c8b612550565b336040518463ffffffff1660e01b8152600401612028939291906131f7565b600060405180830381600087803b15801561204257600080fd5b505af1158015612056573d6000803e3d6000fd5b505050505b6040516370a0823160e01b81526000906001600160a01b038d16906370a082319061208a9033906004016131a1565b60206040518083038186803b1580156120a257600080fd5b505afa1580156120b6573d6000803e3d6000fd5b505050506040513d601f19601f820116820180604052508101906120da91906130ba565b90506120e68183612442565b8a11156121055760405162461bcd60e51b8152600401610412906132bf565b5050505050979650505050505050565b6060600061212283612631565b905060008160ff16601402600501905080845110156121535760405162461bcd60e51b8152600401610412906132ec565b600560ff831667ffffffffffffffff8111801561216f57600080fd5b50604051908082528060200260200182016040528015612199578160200160208202803683370190505b50935060005b8360ff168110156121ed57601481028201868101602001518651606082901c908890859081106121cb57fe5b6001600160a01b0390921660209283029190910190910152505060010161219f565b50505050919050565b600060015b825181101561229357600083600183038151811061221557fe5b60200260200101519050600084838151811061222d57fe5b6020026020010151905060006001865103841490506000846001146122525730612254565b335b90506000826122635730612265565b335b90506122778b85878d6000878761150f565b965082612282578699505b5050600190930192506121fb915050565b50828110156107635760405162461bcd60e51b81526004016104129061343e565b8063ffffffff8116811461103157600080fd5b6000806122d48686612442565b9050600160aa1b8110156123175761230f8463ffffffff1660706123078660ff16600a0a8561233e90919063ffffffff16565b901c90612397565b915050610763565b61230f8463ffffffff166114f08560ff16600a0a607085901c61233e90919063ffffffff16565b60008261234d57506000611909565b8282028284828161235a57fe5b0414610c8c5760405162461bcd60e51b81526004018080602001828103825260218152602001806136206021913960400191505060405180910390fd5b60008082116123ed576040805162461bcd60e51b815260206004820152601a60248201527f536166654d6174683a206469766973696f6e206279207a65726f000000000000604482015290519081900360640190fd5b81838161190557fe5b60006001600160a01b0384163014156124245761241d6001600160a01b0386168484612660565b9050610763565b6124396001600160a01b038616858585612888565b95945050505050565b600082821115612499576040805162461bcd60e51b815260206004820152601e60248201527f536166654d6174683a207375627472616374696f6e206f766572666c6f770000604482015290519081900360640190fd5b50900390565b506020015190565b60008085116124c85760405162461bcd60e51b8152600401610412906133de565b6000841180156124d85750600083115b6124f45760405162461bcd60e51b8152600401610412906134ac565b600061251061250961271061ffff8616612442565b879061233e565b9050600061251e828661233e565b90506000612538836125328961271061233e565b90612aba565b905080828161254357fe5b0498975050505050505050565b600080612565620f424062ffffff8516612442565b9050600061257f60016116a88461253289620f424061233e565b905081818161258a57fe5b0495945050505050565b60008085116125b55760405162461bcd60e51b815260040161041290613475565b6000841180156125c55750600083115b6125e15760405162461bcd60e51b8152600401610412906134ac565b60006125f96127106125f3878961233e565b9061233e565b9050600061261a61261061271061ffff8716612442565b6125f3878a612442565b9050610978600182848161262a57fe5b0490612aba565b60006005825110156126555760405162461bcd60e51b815260040161041290613277565b506024015160001a90565b60008115610c8c576000846001600160a01b03166370a08231856040518263ffffffff1660e01b815260040180826001600160a01b0316815260200191505060206040518083038186803b1580156126b757600080fd5b505afa1580156126cb573d6000803e3d6000fd5b505050506040513d60208110156126e157600080fd5b5051604080516001600160a01b038781166024830152604480830188905283518084039091018152606490920183526020820180516001600160e01b031663a9059cbb60e01b1781529251825194955090891693919290918291908083835b6020831061275f5780518252601f199092019160209182019101612740565b6001836020036101000a0380198251168184511680821785525050505050509050019150506000604051808303816000865af19150503d80600081146127c1576040519150601f19603f3d011682016040523d82523d6000602084013e6127c6565b606091505b5050506000856001600160a01b03166370a08231866040518263ffffffff1660e01b815260040180826001600160a01b0316815260200191505060206040518083038186803b15801561281857600080fd5b505afa15801561282c573d6000803e3d6000fd5b505050506040513d602081101561284257600080fd5b5051905081811161287f576040805162461bcd60e51b81526020600482015260026024820152612a2360f11b604482015290519081900360640190fd5b03949350505050565b60008115610763576000856001600160a01b03166370a08231856040518263ffffffff1660e01b815260040180826001600160a01b0316815260200191505060206040518083038186803b1580156128df57600080fd5b505afa1580156128f3573d6000803e3d6000fd5b505050506040513d602081101561290957600080fd5b5051604080516001600160a01b0388811660248301528781166044830152606480830188905283518084039091018152608490920183526020820180516001600160e01b03166323b872dd60e01b17815292518251949550908a1693919290918291908083835b6020831061298f5780518252601f199092019160209182019101612970565b6001836020036101000a0380198251168184511680821785525050505050509050019150506000604051808303816000865af19150503d80600081146129f1576040519150601f19603f3d011682016040523d82523d6000602084013e6129f6565b606091505b5050506000866001600160a01b03166370a08231866040518263ffffffff1660e01b815260040180826001600160a01b0316815260200191505060206040518083038186803b158015612a4857600080fd5b505afa158015612a5c573d6000803e3d6000fd5b505050506040513d6020811015612a7257600080fd5b50519050818111612ab0576040805162461bcd60e51b81526020600482015260036024820152622a232360e91b604482015290519081900360640190fd5b0395945050505050565b600082820183811015610c8c576040805162461bcd60e51b815260206004820152601b60248201527f536166654d6174683a206164646974696f6e206f766572666c6f770000000000604482015290519081900360640190fd5b6040518060a00160405280600063ffffffff168152602001600081526020016000815260200160008152602001600081525090565b600082601f830112612b59578081fd5b81356020612b6e612b69836135b5565b613591565b8281528181019085830183850287018401881015612b8a578586fd5b855b85811015612bb1578135612b9f816135d3565b84529284019290840190600101612b8c565b5090979650505050505050565b600082601f830112612bce578081fd5b81356020612bde612b69836135b5565b8281528181019085830183850287018401881015612bfa578586fd5b855b85811015612bb157813561ffff81168114612c15578788fd5b84529284019290840190600101612bfc565b600082601f830112612c37578081fd5b813567ffffffffffffffff811115612c4b57fe5b612c5e601f8201601f1916602001613591565b818152846020838601011115612c72578283fd5b816020850160208301379081016020019190915292915050565b80516001600160701b038116811461103157600080fd5b803562ffffff8116811461103157600080fd5b803560ff8116811461103157600080fd5b600060208284031215612cd8578081fd5b8135610c8c816135d3565b600060208284031215612cf4578081fd5b8151610c8c816135d3565b600080600060608486031215612d13578182fd5b8335612d1e816135d3565b92506020840135612d2e816135d3565b9150604084013567ffffffffffffffff811115612d49578182fd5b612d5586828701612c27565b9150509250925092565b60008060008060008060c08789031215612d77578182fd5b8635612d82816135d3565b95506020870135612d92816135d3565b9450612da060408801612ca3565b9350612dae60608801612ca3565b92506080870135915060a087013567ffffffffffffffff811115612dd0578182fd5b612ddc89828a01612c27565b9150509295509295509295565b600080600080600080600060e0888a031215612e03578485fd5b8735612e0e816135d3565b96506020880135612e1e816135d3565b9550612e2c60408901612ca3565b9450612e3a60608901612ca3565b93506080880135925060a0880135915060c088013567ffffffffffffffff811115612e63578182fd5b612e6f8a828b01612c27565b91505092959891949750929550565b600080600080600060a08688031215612e95578283fd5b8535612ea0816135d3565b94506020860135612eb0816135d3565b93506040860135925060608601359150608086013567ffffffffffffffff811115612ed9578182fd5b612ee588828901612c27565b9150509295509295909350565b60008060008060808587031215612f07578182fd5b8435612f12816135d3565b93506020850135612f22816135d3565b92506040850135612f32816135eb565b9150606085013567ffffffffffffffff811115612f4d578182fd5b612f5987828801612c27565b91505092959194509250565b600080600060608486031215612f79578081fd5b833567ffffffffffffffff80821115612f90578283fd5b818601915086601f830112612fa3578283fd5b81356020612fb3612b69836135b5565b82815281810190858301838502870184018c1015612fcf578788fd5b8796505b84871015612ff857612fe481612cb6565b835260019690960195918301918301612fd3565b509750508701359250508082111561300e578283fd5b61301a87838801612b49565b9350604086013591508082111561302f578283fd5b50612d5586828701612bbe565b6000806040838503121561304e578182fd5b8235613059816135d3565b91506020830135613069816135d3565b809150509250929050565b600080600060608486031215613088578081fd5b61309184612c8c565b925061309f60208501612c8c565b915060408401516130af816135eb565b809150509250925092565b6000602082840312156130cb578081fd5b5051919050565b6000806000606084860312156130e6578081fd5b8335925060208401359150604084013567ffffffffffffffff811115612d49578182fd5b60006020828403121561311b578081fd5b610c8c82612cb6565b6bffffffffffffffffffffffff19606093841b811682529190921b16601482015260280190565b6001600160f81b0319815260609290921b6bffffffffffffffffffffffff1916600183015260158201527fa77ee1cc0f39570ddde947459e293d7ebc2c30ff4e8fc45860afdcb2c2d3dc17603582015260550190565b6001600160a01b0391909116815260200190565b6001600160a01b0392831681529116602082015260400190565b901515815260200190565b6001600160a01b0392909216825261ffff16602082015260400190565b92835260208301919091526001600160a01b0316604082015260806060820181905260009082015260a00190565b60208082526003908201526222a7a960e91b604082015260600190565b6020808252818101527f446578446174613a20746f4465782077726f6e67206461746120666f726d6174604082015260600190565b60208082526028908201527f446578446174613a20746f41727261794c656e6774682077726f6e67206461746040820152671848199bdc9b585d60c21b606082015260800190565b6020808252601390820152721ddc9bdb99c8185b5bdd5b9d08189bdd59da1d606a1b604082015260600190565b60208082526026908201527f446578446174613a20746f556e695632506174682077726f6e67206461746120604082015265199bdc9b585d60d21b606082015260800190565b602080825260029082015261060f60f31b604082015260600190565b6020808252601690820152750e6cad8d840c2dadeeadce840dcdee840cadcdeeaced60531b604082015260600190565b6020808252601d908201527f4f6e6c79206f70656e4c65762063616e20757064617465207072696365000000604082015260600190565b6020808252600f908201526e0eadce6eae0e0dee4e8cac840c8caf608b1b604082015260600190565b60208082526019908201527f494e53554646494349454e545f494e5055545f414d4f554e5400000000000000604082015260600190565b6020808252600f908201526e139bdd081a5b5c1b195b595b9d1959608a1b604082015260600190565b60208082526018908201527f62757920616d6f756e74206c657373207468616e206d696e0000000000000000604082015260600190565b6020808252601a908201527f494e53554646494349454e545f4f55545055545f414d4f554e54000000000000604082015260600190565b602080825260169082015275494e53554646494349454e545f4c495155494449545960501b604082015260600190565b6020808252600990820152682737ba1030b236b4b760b91b604082015260600190565b90815260200190565b918252602082015260400190565b9485526020850193909352604084019190915260ff166060830152608082015260a00190565b91825260ff16602082015260400190565b92835260ff919091166020830152604082015260600190565b63ffffffff959095168552602085019390935260408401919091526060830152608082015260a00190565b60405181810167ffffffffffffffff811182821017156135ad57fe5b604052919050565b600067ffffffffffffffff8211156135c957fe5b5060209081020190565b6001600160a01b03811681146135e857600080fd5b50565b63ffffffff811681146135e857600080fdfe6f6e6c792070656e64696e6741646d696e2063616e206163636570742061646d696e536166654d6174683a206d756c7469706c69636174696f6e206f766572666c6f77a26469706673582212209b8aae1176493c9243bde6dc54e779923bf263ec06ae9befb06ae745f03c9d7964736f6c63430007060033",
  "linkReferences": {},
  "deployedLinkReferences": {}
}