{
  "_format": "hh-sol-artifact-1",
  "contractName": "OpenLevV1",
  "sourceName": "contracts/udex/OpenLevV1.sol",
  "abi": [
    {
      "inputs": [],
      "stateMutability": "nonpayable",
      "type": "constructor"
    },
    {
      "anonymous": false,
      "inputs": [
        {
          "indexed": false,
          "internalType": "address[]",
          "name": "token",
          "type": "address[]"
        },
        {
          "indexed": false,
          "internalType": "bool",
          "name": "allowed",
          "type": "bool"
        }
      ],
      "name": "ChangeAllowedDepositTokens",
      "type": "event"
    },
    {
      "anonymous": false,
      "inputs": [
        {
          "indexed": false,
          "internalType": "address",
          "name": "owner",
          "type": "address"
        },
        {
          "indexed": false,
          "internalType": "uint16",
          "name": "marketId",
          "type": "uint16"
        },
        {
          "indexed": false,
          "internalType": "bool",
          "name": "longToken",
          "type": "bool"
        },
        {
          "indexed": false,
          "internalType": "bool",
          "name": "depositToken",
          "type": "bool"
        },
        {
          "indexed": false,
          "internalType": "uint256",
          "name": "heldAmount",
          "type": "uint256"
        },
        {
          "indexed": false,
          "internalType": "uint256",
          "name": "repayAmount",
          "type": "uint256"
        },
        {
          "indexed": false,
          "internalType": "address",
          "name": "liquidator",
          "type": "address"
        },
        {
          "indexed": false,
          "internalType": "uint256",
          "name": "returnAmount",
          "type": "uint256"
        },
        {
          "indexed": false,
          "internalType": "uint256",
          "name": "fees",
          "type": "uint256"
        },
        {
          "indexed": false,
          "internalType": "uint256",
          "name": "token0Price",
          "type": "uint256"
        },
        {
          "indexed": false,
          "internalType": "uint32",
          "name": "dex",
          "type": "uint32"
        }
      ],
      "name": "Liquidation",
      "type": "event"
    },
    {
      "anonymous": false,
      "inputs": [
        {
          "indexed": false,
          "internalType": "address",
          "name": "trader",
          "type": "address"
        },
        {
          "indexed": false,
          "internalType": "uint16",
          "name": "marketId",
          "type": "uint16"
        },
        {
          "indexed": false,
          "internalType": "bool",
          "name": "longToken",
          "type": "bool"
        },
        {
          "indexed": false,
          "internalType": "bool",
          "name": "depositToken",
          "type": "bool"
        },
        {
          "indexed": false,
          "internalType": "uint256",
          "name": "deposited",
          "type": "uint256"
        },
        {
          "indexed": false,
          "internalType": "uint256",
          "name": "borrowed",
          "type": "uint256"
        },
        {
          "indexed": false,
          "internalType": "uint256",
          "name": "held",
          "type": "uint256"
        },
        {
          "indexed": false,
          "internalType": "uint256",
          "name": "fees",
          "type": "uint256"
        },
        {
          "indexed": false,
          "internalType": "uint256",
          "name": "token0Price",
          "type": "uint256"
        },
        {
          "indexed": false,
          "internalType": "uint32",
          "name": "dex",
          "type": "uint32"
        }
      ],
      "name": "MarginTrade",
      "type": "event"
    },
    {
      "anonymous": false,
      "inputs": [
        {
          "indexed": false,
          "internalType": "address",
          "name": "controller",
          "type": "address"
        },
        {
          "indexed": false,
          "internalType": "address",
          "name": "dexAggregator",
          "type": "address"
        }
      ],
      "name": "NewAddressConfig",
      "type": "event"
    },
    {
      "anonymous": false,
      "inputs": [
        {
          "indexed": false,
          "internalType": "address",
          "name": "oldAdmin",
          "type": "address"
        },
        {
          "indexed": false,
          "internalType": "address",
          "name": "newAdmin",
          "type": "address"
        }
      ],
      "name": "NewAdmin",
      "type": "event"
    },
    {
      "anonymous": false,
      "inputs": [
        {
          "indexed": false,
          "internalType": "uint16",
          "name": "defaultFeesRate",
          "type": "uint16"
        },
        {
          "indexed": false,
          "internalType": "uint8",
          "name": "insuranceRatio",
          "type": "uint8"
        },
        {
          "indexed": false,
          "internalType": "uint16",
          "name": "defaultMarginLimit",
          "type": "uint16"
        },
        {
          "indexed": false,
          "internalType": "uint16",
          "name": "priceDiffientRatio",
          "type": "uint16"
        },
        {
          "indexed": false,
          "internalType": "uint16",
          "name": "updatePriceDiscount",
          "type": "uint16"
        },
        {
          "indexed": false,
          "internalType": "uint16",
          "name": "feesDiscount",
          "type": "uint16"
        },
        {
          "indexed": false,
          "internalType": "uint128",
          "name": "feesDiscountThreshold",
          "type": "uint128"
        },
        {
          "indexed": false,
          "internalType": "uint16",
          "name": "penaltyRatio",
          "type": "uint16"
        },
        {
          "indexed": false,
          "internalType": "uint8",
          "name": "maxLiquidationPriceDiffientRatio",
          "type": "uint8"
        },
        {
          "indexed": false,
          "internalType": "uint16",
          "name": "twapDuration",
          "type": "uint16"
        }
      ],
      "name": "NewCalculateConfig",
      "type": "event"
    },
    {
      "anonymous": false,
      "inputs": [
        {
          "indexed": false,
          "internalType": "uint16",
          "name": "defaultliquidationRate",
          "type": "uint16"
        },
        {
          "indexed": false,
          "internalType": "uint16",
          "name": "liquidaMaximumYield",
          "type": "uint16"
        },
        {
          "indexed": false,
          "internalType": "uint16",
          "name": "liquidaMinimumYield",
          "type": "uint16"
        }
      ],
      "name": "NewLiquidationConfig",
      "type": "event"
    },
    {
      "anonymous": false,
      "inputs": [
        {
          "indexed": false,
          "internalType": "uint16",
          "name": "marketId",
          "type": "uint16"
        },
        {
          "indexed": false,
          "internalType": "uint16",
          "name": "feesRate",
          "type": "uint16"
        },
        {
          "indexed": false,
          "internalType": "uint32",
          "name": "marginLimit",
          "type": "uint32"
        },
        {
          "indexed": false,
          "internalType": "uint16",
          "name": "priceDiffientRatio",
          "type": "uint16"
        },
        {
          "indexed": false,
          "internalType": "uint32[]",
          "name": "dexs",
          "type": "uint32[]"
        }
      ],
      "name": "NewMarketConfig",
      "type": "event"
    },
    {
      "anonymous": false,
      "inputs": [
        {
          "indexed": false,
          "internalType": "uint16",
          "name": "marketId",
          "type": "uint16"
        },
        {
          "indexed": false,
          "internalType": "uint16",
          "name": "liquidationRate",
          "type": "uint16"
        },
        {
          "indexed": false,
          "internalType": "uint16",
          "name": "liquidaMaximumYield",
          "type": "uint16"
        },
        {
          "indexed": false,
          "internalType": "uint16",
          "name": "liquidaMinimumYield",
          "type": "uint16"
        }
      ],
      "name": "NewMarketLiquidationConfig",
      "type": "event"
    },
    {
      "anonymous": false,
      "inputs": [
        {
          "indexed": false,
          "internalType": "address",
          "name": "oldPendingAdmin",
          "type": "address"
        },
        {
          "indexed": false,
          "internalType": "address",
          "name": "newPendingAdmin",
          "type": "address"
        }
      ],
      "name": "NewPendingAdmin",
      "type": "event"
    },
    {
      "anonymous": false,
      "inputs": [
        {
          "indexed": false,
          "internalType": "address",
          "name": "owner",
          "type": "address"
        },
        {
          "indexed": false,
          "internalType": "uint16",
          "name": "marketId",
          "type": "uint16"
        },
        {
          "indexed": false,
          "internalType": "bool",
          "name": "longToken",
          "type": "bool"
        },
        {
          "indexed": false,
          "internalType": "bool",
          "name": "depositToken",
          "type": "bool"
        },
        {
          "indexed": false,
          "internalType": "uint256",
          "name": "closeAmount",
          "type": "uint256"
        },
        {
          "indexed": false,
          "internalType": "uint256",
          "name": "depositDecrease",
          "type": "uint256"
        },
        {
          "indexed": false,
          "internalType": "uint256",
          "name": "depositReturn",
          "type": "uint256"
        },
        {
          "indexed": false,
          "internalType": "uint256",
          "name": "fees",
          "type": "uint256"
        },
        {
          "indexed": false,
          "internalType": "uint256",
          "name": "token0Price",
          "type": "uint256"
        },
        {
          "indexed": false,
          "internalType": "uint32",
          "name": "dex",
          "type": "uint32"
        }
      ],
      "name": "TradeClosed",
      "type": "event"
    },
    {
      "inputs": [],
      "name": "acceptAdmin",
      "outputs": [],
      "stateMutability": "nonpayable",
      "type": "function"
    },
    {
      "inputs": [
        {
          "internalType": "address",
          "name": "",
          "type": "address"
        },
        {
          "internalType": "uint16",
          "name": "",
          "type": "uint16"
        },
        {
          "internalType": "bool",
          "name": "",
          "type": "bool"
        }
      ],
      "name": "activeTrades",
      "outputs": [
        {
          "internalType": "uint256",
          "name": "deposited",
          "type": "uint256"
        },
        {
          "internalType": "uint256",
          "name": "held",
          "type": "uint256"
        },
        {
          "internalType": "bool",
          "name": "depositToken",
          "type": "bool"
        },
        {
          "internalType": "uint128",
          "name": "lastBlockNum",
          "type": "uint128"
        },
        {
          "internalType": "uint256",
          "name": "heldRelativeBorrowed",
          "type": "uint256"
        },
        {
          "internalType": "uint256",
          "name": "newHeld",
          "type": "uint256"
        },
        {
          "internalType": "uint256",
          "name": "borrowed",
          "type": "uint256"
        }
      ],
      "stateMutability": "view",
      "type": "function"
    },
    {
      "inputs": [
        {
          "internalType": "contract LPoolInterface",
          "name": "pool0",
          "type": "address"
        },
        {
          "internalType": "contract LPoolInterface",
          "name": "pool1",
          "type": "address"
        },
        {
          "internalType": "uint16",
          "name": "marginLimit",
          "type": "uint16"
        },
        {
          "internalType": "bytes",
          "name": "dexData",
          "type": "bytes"
        }
      ],
      "name": "addMarket",
      "outputs": [
        {
          "internalType": "uint16",
          "name": "",
          "type": "uint16"
        }
      ],
      "stateMutability": "nonpayable",
      "type": "function"
    },
    {
      "inputs": [],
      "name": "addressConfig",
      "outputs": [
        {
          "internalType": "contract DexAggregatorInterface",
          "name": "dexAggregator",
          "type": "address"
        },
        {
          "internalType": "address",
          "name": "controller",
          "type": "address"
        },
        {
          "internalType": "address",
          "name": "wETH",
          "type": "address"
        },
        {
          "internalType": "address",
          "name": "xOLE",
          "type": "address"
        }
      ],
      "stateMutability": "view",
      "type": "function"
    },
    {
      "inputs": [],
      "name": "admin",
      "outputs": [
        {
          "internalType": "address payable",
          "name": "",
          "type": "address"
        }
      ],
      "stateMutability": "view",
      "type": "function"
    },
    {
      "inputs": [],
      "name": "calculateConfig",
      "outputs": [
        {
          "internalType": "uint16",
          "name": "defaultFeesRate",
          "type": "uint16"
        },
        {
          "internalType": "uint8",
          "name": "insuranceRatio",
          "type": "uint8"
        },
        {
          "internalType": "uint16",
          "name": "defaultMarginLimit",
          "type": "uint16"
        },
        {
          "internalType": "uint16",
          "name": "priceDiffientRatio",
          "type": "uint16"
        },
        {
          "internalType": "uint16",
          "name": "updatePriceDiscount",
          "type": "uint16"
        },
        {
          "internalType": "uint16",
          "name": "feesDiscount",
          "type": "uint16"
        },
        {
          "internalType": "uint128",
          "name": "feesDiscountThreshold",
          "type": "uint128"
        },
        {
          "internalType": "uint16",
          "name": "penaltyRatio",
          "type": "uint16"
        },
        {
          "internalType": "uint8",
          "name": "maxLiquidationPriceDiffientRatio",
          "type": "uint8"
        },
        {
          "internalType": "uint16",
          "name": "twapDuration",
          "type": "uint16"
        }
      ],
      "stateMutability": "view",
      "type": "function"
    },
    {
      "inputs": [
        {
          "internalType": "uint16",
          "name": "marketId",
          "type": "uint16"
        },
        {
          "internalType": "bool",
          "name": "longToken",
          "type": "bool"
        },
        {
          "internalType": "uint256",
          "name": "closeHeld",
          "type": "uint256"
        },
        {
          "internalType": "uint256",
          "name": "minOrMaxAmount",
          "type": "uint256"
        },
        {
          "internalType": "bytes",
          "name": "dexData",
          "type": "bytes"
        }
      ],
      "name": "closeTrade",
      "outputs": [
        {
          "internalType": "uint256",
          "name": "",
          "type": "uint256"
        }
      ],
      "stateMutability": "nonpayable",
      "type": "function"
    },
    {
      "inputs": [
        {
          "internalType": "address",
          "name": "trader",
          "type": "address"
        },
        {
          "internalType": "uint16",
          "name": "marketId",
          "type": "uint16"
        },
        {
          "internalType": "bool",
          "name": "longToken",
          "type": "bool"
        },
        {
          "internalType": "uint256",
          "name": "closeHeld",
          "type": "uint256"
        },
        {
          "internalType": "uint256",
          "name": "minOrMaxAmount",
          "type": "uint256"
        },
        {
          "internalType": "bytes",
          "name": "dexData",
          "type": "bytes"
        }
      ],
      "name": "closeTradeFor",
      "outputs": [
        {
          "internalType": "uint256",
          "name": "",
          "type": "uint256"
        }
      ],
      "stateMutability": "nonpayable",
      "type": "function"
    },
    {
      "inputs": [],
      "name": "developer",
      "outputs": [
        {
          "internalType": "address payable",
          "name": "",
          "type": "address"
        }
      ],
      "stateMutability": "view",
      "type": "function"
    },
    {
      "inputs": [
        {
          "internalType": "uint16",
          "name": "marketId",
          "type": "uint16"
        }
      ],
      "name": "getMarketSupportDexs",
      "outputs": [
        {
          "internalType": "uint32[]",
          "name": "",
          "type": "uint32[]"
        }
      ],
      "stateMutability": "view",
      "type": "function"
    },
    {
      "inputs": [],
      "name": "implementation",
      "outputs": [
        {
          "internalType": "address",
          "name": "",
          "type": "address"
        }
      ],
      "stateMutability": "view",
      "type": "function"
    },
    {
      "inputs": [
        {
          "internalType": "address",
          "name": "_controller",
          "type": "address"
        },
        {
          "internalType": "contract DexAggregatorInterface",
          "name": "_dexAggregator",
          "type": "address"
        },
        {
          "internalType": "address[]",
          "name": "depositTokens",
          "type": "address[]"
        },
        {
          "internalType": "address",
          "name": "_wETH",
          "type": "address"
        },
        {
          "internalType": "address",
          "name": "_xOLE",
          "type": "address"
        },
        {
          "internalType": "uint8[]",
          "name": "_supportDexs",
          "type": "uint8[]"
        }
      ],
      "name": "initialize",
      "outputs": [],
      "stateMutability": "nonpayable",
      "type": "function"
    },
    {
      "inputs": [
        {
          "internalType": "address",
          "name": "owner",
          "type": "address"
        },
        {
          "internalType": "uint16",
          "name": "marketId",
          "type": "uint16"
        },
        {
          "internalType": "bool",
          "name": "longToken",
          "type": "bool"
        },
        {
          "internalType": "bytes",
          "name": "dexData",
          "type": "bytes"
        }
      ],
      "name": "liquidate",
      "outputs": [],
      "stateMutability": "nonpayable",
      "type": "function"
    },
    {
      "inputs": [],
      "name": "liquidationConfig",
      "outputs": [
        {
          "internalType": "uint16",
          "name": "defaultliquidationRate",
          "type": "uint16"
        },
        {
          "internalType": "uint16",
          "name": "liquidaMaximumYield",
          "type": "uint16"
        },
        {
          "internalType": "uint16",
          "name": "liquidaMinimumYield",
          "type": "uint16"
        }
      ],
      "stateMutability": "view",
      "type": "function"
    },
    {
      "inputs": [
        {
          "internalType": "address",
          "name": "owner",
          "type": "address"
        },
        {
          "internalType": "uint16",
          "name": "marketId",
          "type": "uint16"
        },
        {
          "internalType": "bool",
          "name": "longToken",
          "type": "bool"
        },
        {
          "internalType": "bytes",
          "name": "dexData",
          "type": "bytes"
        }
      ],
      "name": "marginRatio",
      "outputs": [
        {
          "internalType": "uint256",
          "name": "current",
          "type": "uint256"
        },
        {
          "internalType": "uint256",
          "name": "cAvg",
          "type": "uint256"
        },
        {
          "internalType": "uint256",
          "name": "hAvg",
          "type": "uint256"
        },
        {
          "internalType": "uint32",
          "name": "limit",
          "type": "uint32"
        }
      ],
      "stateMutability": "view",
      "type": "function"
    },
    {
      "inputs": [
        {
          "components": [
            {
              "internalType": "uint16",
              "name": "marketId",
              "type": "uint16"
            },
            {
              "internalType": "bool",
              "name": "longToken",
              "type": "bool"
            },
            {
              "internalType": "bool",
              "name": "depositToken",
              "type": "bool"
            },
            {
              "internalType": "uint256",
              "name": "deposit",
              "type": "uint256"
            },
            {
              "internalType": "uint256",
              "name": "borrow",
              "type": "uint256"
            },
            {
              "internalType": "uint256",
              "name": "minBuyAmount",
              "type": "uint256"
            }
          ],
          "internalType": "struct Types.MarginTradeVars",
          "name": "tradeVars",
          "type": "tuple"
        },
        {
          "internalType": "bytes",
          "name": "dexData",
          "type": "bytes"
        }
      ],
      "name": "marginTrade",
      "outputs": [
        {
          "internalType": "uint256",
          "name": "",
          "type": "uint256"
        }
      ],
      "stateMutability": "payable",
      "type": "function"
    },
    {
      "inputs": [
        {
          "internalType": "address",
          "name": "trader",
          "type": "address"
        },
        {
          "components": [
            {
              "internalType": "uint16",
              "name": "marketId",
              "type": "uint16"
            },
            {
              "internalType": "bool",
              "name": "longToken",
              "type": "bool"
            },
            {
              "internalType": "bool",
              "name": "depositToken",
              "type": "bool"
            },
            {
              "internalType": "uint256",
              "name": "deposit",
              "type": "uint256"
            },
            {
              "internalType": "uint256",
              "name": "borrow",
              "type": "uint256"
            },
            {
              "internalType": "uint256",
              "name": "minBuyAmount",
              "type": "uint256"
            }
          ],
          "internalType": "struct Types.MarginTradeVars",
          "name": "tradeVars",
          "type": "tuple"
        },
        {
          "internalType": "bytes",
          "name": "dexData",
          "type": "bytes"
        }
      ],
      "name": "marginTradeFor",
      "outputs": [
        {
          "internalType": "uint256",
          "name": "",
          "type": "uint256"
        }
      ],
      "stateMutability": "payable",
      "type": "function"
    },
    {
      "inputs": [
        {
          "internalType": "uint16",
          "name": "",
          "type": "uint16"
        }
      ],
      "name": "markets",
      "outputs": [
        {
          "internalType": "contract LPoolInterface",
          "name": "pool0",
          "type": "address"
        },
        {
          "internalType": "contract LPoolInterface",
          "name": "pool1",
          "type": "address"
        },
        {
          "internalType": "address",
          "name": "token0",
          "type": "address"
        },
        {
          "internalType": "address",
          "name": "token1",
          "type": "address"
        },
        {
          "internalType": "uint16",
          "name": "marginLimit",
          "type": "uint16"
        },
        {
          "internalType": "uint16",
          "name": "feesRate",
          "type": "uint16"
        },
        {
          "internalType": "uint16",
          "name": "priceDiffientRatio",
          "type": "uint16"
        },
        {
          "internalType": "address",
          "name": "priceUpdater",
          "type": "address"
        },
        {
          "internalType": "uint256",
          "name": "pool0Insurance",
          "type": "uint256"
        },
        {
          "internalType": "uint256",
          "name": "pool1Insurance",
          "type": "uint256"
        }
      ],
      "stateMutability": "view",
      "type": "function"
    },
    {
      "inputs": [
        {
          "internalType": "uint16",
          "name": "",
          "type": "uint16"
        }
      ],
      "name": "marketsLiquidations",
      "outputs": [
        {
          "internalType": "uint16",
          "name": "liquidationRate",
          "type": "uint16"
        },
        {
          "internalType": "uint16",
          "name": "liquidaMaximumYield",
          "type": "uint16"
        },
        {
          "internalType": "uint16",
          "name": "liquidaMinimumYield",
          "type": "uint16"
        }
      ],
      "stateMutability": "view",
      "type": "function"
    },
    {
      "inputs": [
        {
          "internalType": "uint16",
          "name": "marketId",
          "type": "uint16"
        },
        {
          "internalType": "uint8",
          "name": "poolIndex",
          "type": "uint8"
        },
        {
          "internalType": "address",
          "name": "to",
          "type": "address"
        },
        {
          "internalType": "uint256",
          "name": "amount",
          "type": "uint256"
        }
      ],
      "name": "moveInsurance",
      "outputs": [],
      "stateMutability": "nonpayable",
      "type": "function"
    },
    {
      "inputs": [],
      "name": "numPairs",
      "outputs": [
        {
          "internalType": "uint16",
          "name": "",
          "type": "uint16"
        }
      ],
      "stateMutability": "view",
      "type": "function"
    },
    {
      "inputs": [],
      "name": "opLimitOrder",
      "outputs": [
        {
          "internalType": "address",
          "name": "",
          "type": "address"
        }
      ],
      "stateMutability": "view",
      "type": "function"
    },
    {
      "inputs": [
        {
          "internalType": "uint16",
          "name": "marketId",
          "type": "uint16"
        },
        {
          "internalType": "bool",
          "name": "longToken",
          "type": "bool"
        }
      ],
      "name": "payoffTrade",
      "outputs": [],
      "stateMutability": "payable",
      "type": "function"
    },
    {
      "inputs": [],
      "name": "pendingAdmin",
      "outputs": [
        {
          "internalType": "address payable",
          "name": "",
          "type": "address"
        }
      ],
      "stateMutability": "view",
      "type": "function"
    },
    {
      "inputs": [],
      "name": "router1inch",
      "outputs": [
        {
          "internalType": "address",
          "name": "",
          "type": "address"
        }
      ],
      "stateMutability": "view",
      "type": "function"
    },
    {
      "inputs": [
        {
          "internalType": "address",
          "name": "controller",
          "type": "address"
        },
        {
          "internalType": "contract DexAggregatorInterface",
          "name": "dexAggregator",
          "type": "address"
        }
      ],
      "name": "setAddressConfig",
      "outputs": [],
      "stateMutability": "nonpayable",
      "type": "function"
    },
    {
      "inputs": [
        {
          "internalType": "uint16",
          "name": "defaultFeesRate",
          "type": "uint16"
        },
        {
          "internalType": "uint8",
          "name": "insuranceRatio",
          "type": "uint8"
        },
        {
          "internalType": "uint16",
          "name": "defaultMarginLimit",
          "type": "uint16"
        },
        {
          "internalType": "uint16",
          "name": "priceDiffientRatio",
          "type": "uint16"
        },
        {
          "internalType": "uint16",
          "name": "updatePriceDiscount",
          "type": "uint16"
        },
        {
          "internalType": "uint16",
          "name": "feesDiscount",
          "type": "uint16"
        },
        {
          "internalType": "uint128",
          "name": "feesDiscountThreshold",
          "type": "uint128"
        },
        {
          "internalType": "uint16",
          "name": "penaltyRatio",
          "type": "uint16"
        },
        {
          "internalType": "uint8",
          "name": "maxLiquidationPriceDiffientRatio",
          "type": "uint8"
        },
        {
          "internalType": "uint16",
          "name": "twapDuration",
          "type": "uint16"
        }
      ],
      "name": "setCalculateConfig",
      "outputs": [],
      "stateMutability": "nonpayable",
      "type": "function"
    },
    {
      "inputs": [
        {
          "internalType": "uint16",
          "name": "defaultliquidationRate",
          "type": "uint16"
        },
        {
          "internalType": "uint8",
          "name": "liquidaMaximumYield",
          "type": "uint8"
        },
        {
          "internalType": "uint16",
          "name": "liquidaMinimumYield",
          "type": "uint16"
        }
      ],
      "name": "setLiquidationConfig",
      "outputs": [],
      "stateMutability": "nonpayable",
      "type": "function"
    },
    {
      "inputs": [
        {
          "internalType": "uint16",
          "name": "marketId",
          "type": "uint16"
        },
        {
          "internalType": "uint16",
          "name": "feesRate",
          "type": "uint16"
        },
        {
          "internalType": "uint16",
          "name": "marginLimit",
          "type": "uint16"
        },
        {
          "internalType": "uint16",
          "name": "priceDiffientRatio",
          "type": "uint16"
        },
        {
          "internalType": "uint32[]",
          "name": "dexs",
          "type": "uint32[]"
        }
      ],
      "name": "setMarketConfig",
      "outputs": [],
      "stateMutability": "nonpayable",
      "type": "function"
    },
    {
      "inputs": [
        {
          "internalType": "uint16",
          "name": "marketId",
          "type": "uint16"
        },
        {
          "internalType": "uint16",
          "name": "liquidationRate",
          "type": "uint16"
        },
        {
          "internalType": "uint16",
          "name": "liquidaMaximumYield",
          "type": "uint16"
        },
        {
          "internalType": "uint16",
          "name": "liquidaMinimumYield",
          "type": "uint16"
        }
      ],
      "name": "setMarketLiquidationConfig",
      "outputs": [],
      "stateMutability": "nonpayable",
      "type": "function"
    },
    {
      "inputs": [
        {
          "internalType": "address",
          "name": "_opLimitOrder",
          "type": "address"
        }
      ],
      "name": "setOpLimitOrder",
      "outputs": [],
      "stateMutability": "nonpayable",
      "type": "function"
    },
    {
      "inputs": [
        {
          "internalType": "address payable",
          "name": "newPendingAdmin",
          "type": "address"
        }
      ],
      "name": "setPendingAdmin",
      "outputs": [],
      "stateMutability": "nonpayable",
      "type": "function"
    },
    {
      "inputs": [
        {
          "internalType": "address",
          "name": "_router1inch",
          "type": "address"
        }
      ],
      "name": "setRouter1inch",
      "outputs": [],
      "stateMutability": "nonpayable",
      "type": "function"
    },
    {
      "inputs": [
        {
          "internalType": "uint8",
          "name": "dex",
          "type": "uint8"
        },
        {
          "internalType": "bool",
          "name": "support",
          "type": "bool"
        }
      ],
      "name": "setSupportDex",
      "outputs": [],
      "stateMutability": "nonpayable",
      "type": "function"
    },
    {
      "inputs": [
        {
          "internalType": "uint16",
          "name": "marketId",
          "type": "uint16"
        },
        {
          "internalType": "address",
          "name": "token",
          "type": "address"
        },
        {
          "internalType": "uint256",
          "name": "index",
          "type": "uint256"
        },
        {
          "internalType": "uint24",
          "name": "tax",
          "type": "uint24"
        }
      ],
      "name": "setTaxRate",
      "outputs": [],
      "stateMutability": "nonpayable",
      "type": "function"
    },
    {
      "inputs": [
        {
          "internalType": "address",
          "name": "token",
          "type": "address"
        },
        {
          "internalType": "uint256",
          "name": "factor",
          "type": "uint256"
        }
      ],
      "name": "setTokenLiquidationFactor",
      "outputs": [],
      "stateMutability": "nonpayable",
      "type": "function"
    },
    {
      "inputs": [
        {
          "internalType": "uint8",
          "name": "",
          "type": "uint8"
        }
      ],
      "name": "supportDexs",
      "outputs": [
        {
          "internalType": "bool",
          "name": "",
          "type": "bool"
        }
      ],
      "stateMutability": "view",
      "type": "function"
    },
    {
      "inputs": [
        {
          "internalType": "uint16",
          "name": "",
          "type": "uint16"
        },
        {
          "internalType": "address",
          "name": "",
          "type": "address"
        },
        {
          "internalType": "uint256",
          "name": "",
          "type": "uint256"
        }
      ],
      "name": "taxes",
      "outputs": [
        {
          "internalType": "uint24",
          "name": "",
          "type": "uint24"
        }
      ],
      "stateMutability": "view",
      "type": "function"
    },
    {
      "inputs": [
        {
          "internalType": "address",
          "name": "",
          "type": "address"
        }
      ],
      "name": "totalHelds",
      "outputs": [
        {
          "internalType": "uint256",
          "name": "",
          "type": "uint256"
        }
      ],
      "stateMutability": "view",
      "type": "function"
    },
    {
      "inputs": [
        {
          "internalType": "uint16",
          "name": "marketId",
          "type": "uint16"
        },
        {
          "internalType": "bytes",
          "name": "dexData",
          "type": "bytes"
        }
      ],
      "name": "updatePrice",
      "outputs": [],
      "stateMutability": "nonpayable",
      "type": "function"
    }
  ],
  "bytecode": "0x608060405234801561001057600080fd5b50600380546001600160a01b03191633179055600160045561728a80620000386000396000f3fe60806040526004361061023b5760003560e01c80638a30fa6f1161012e578063cc070ab6116100ab578063eda79ec61161006f578063eda79ec6146106ea578063ef189be9146106fd578063f03e8adc1461071d578063f851a44014610732578063fb7af658146107475761023b565b8063cc070ab614610630578063cce1e9ff1461065d578063d887ea291461067d578063deaae1531461069d578063ec36be82146106ca5761023b565b8063bd27aa5c116100f2578063bd27aa5c146105a1578063bdf07c77146105c1578063c275fe54146105e1578063ca4b208b14610606578063cb7c0cbe1461061b5761023b565b80638a30fa6f146104ff5780638cc87dcd1461051f5780638ed3639f1461054c57806390e9097a14610561578063b99df313146105815761023b565b80633723b7a3116101bc5780635c60da1b116101805780635c60da1b1461044a57806360b813131461045f5780636c3fbc341461047f57806371b783a3146104b2578063738b32cf146104d25761023b565b80633723b7a3146103a7578063437e5540146103ba5780634c42ba0b146103da5780634dd18bf51461040a578063526358ef1461042a5761023b565b80631c580ad5116102035780631c580ad5146102f85780631ed2f4fc1461031c578063267822471461032f578063284f4302146103515780632bb78d03146103875761023b565b806302a1fd09146102405780630643c20c146102625780630e18b6811461029857806311ab7fd5146102ad578063159003a8146102cd575b600080fd5b34801561024c57600080fd5b5061026061025b366004615b64565b610767565b005b34801561026e57600080fd5b5061028261027d366004615ab8565b610831565b60405161028f9190616c0b565b60405180910390f35b3480156102a457600080fd5b50610260610868565b3480156102b957600080fd5b506102606102c8366004615c9a565b610968565b3480156102d957600080fd5b506102e2610a0c565b60405161028f9a99989796959493929190616b0e565b34801561030457600080fd5b5061030d610a86565b60405161028f939291906169fe565b61028261032a366004615994565b610aa6565b34801561033b57600080fd5b50610344610ad7565b60405161028f9190616158565b34801561035d57600080fd5b5061037161036c3660046159e1565b610ae6565b60405161028f9a999897969594939291906163ca565b34801561039357600080fd5b506102606103a2366004615612565b610b5a565b6102826103b536600461571a565b610d34565b3480156103c657600080fd5b506102826103d5366004615837565b610d90565b3480156103e657600080fd5b506103fa6103f53660046157c4565b610df2565b60405161028f9493929190616c4d565b34801561041657600080fd5b506102606104253660046155be565b610ea2565b34801561043657600080fd5b506102606104453660046155da565b610f0d565b34801561045657600080fd5b50610344610fbf565b34801561046b57600080fd5b5061030d61047a3660046159e1565b610fce565b34801561048b57600080fd5b5061049f61049a36600461577a565b610ffa565b60405161028f9796959493929190616c14565b3480156104be57600080fd5b506102606104cd3660046155be565b611052565b3480156104de57600080fd5b506104f26104ed3660046159e1565b61107c565b60405161028f9190616381565b34801561050b57600080fd5b5061026061051a366004615a3d565b611113565b34801561052b57600080fd5b5061053f61053a366004615954565b611166565b60405161028f9190616903565b34801561055857600080fd5b5061034461127f565b34801561056d57600080fd5b5061026061057c366004615b2c565b61128e565b34801561058d57600080fd5b5061026061059c366004615bb4565b61130e565b3480156105ad57600080fd5b506102606105bc366004615cea565b6113de565b3480156105cd57600080fd5b506102606105dc3660046155be565b611494565b3480156105ed57600080fd5b506105f66114be565b60405161028f949392919061639f565b34801561061257600080fd5b506103446114e2565b34801561062757600080fd5b506103446114f1565b34801561063c57600080fd5b5061065061064b3660046159fd565b611500565b60405161028f9190616b6d565b34801561066957600080fd5b506102606106783660046158af565b611528565b34801561068957600080fd5b50610260610698366004615fb2565b61154c565b3480156106a957600080fd5b506106bd6106b8366004615f7a565b611579565b60405161028f9190616394565b3480156106d657600080fd5b506102826106e53660046155be565b61158e565b6102606106f8366004615a8b565b6115a0565b34801561070957600080fd5b50610260610718366004615d29565b611995565b34801561072957600080fd5b5061053f611a6e565b34801561073e57600080fd5b50610344611a78565b34801561075357600080fd5b506102606107623660046157c4565b611a87565b61076f612d7c565b61ffff841660009081526007602052604090819020905163b2061e7760e01b815273__$3845b6e1a7aaf5a3e4728817639ebaa7f3$__9163b2061e77916107be91879187918791600401616503565b60006040518083038186803b1580156107d657600080fd5b505af41580156107ea573d6000803e3d6000fd5b505050507f07da726596c63a604cc4f0a0ff27abde0acca9ffa9f2350342e85e04dcaa7750848484846040516108239493929190616a5d565b60405180910390a150505050565b600061083b612dd4565b60026004558161084a81612e2c565b610858338888888888612e6f565b6001600455979650505050505050565b6002546001600160a01b031633146108b15760405162461bcd60e51b8152600401808060200182810382526022815260200180616efd6022913960400191505060405180910390fd5b60018054600280546001600160a01b038082166001600160a01b031980861682179687905590921690925560408051938316808552949092166020840152815190927ff9ffabca9c8276e99321725bcb43fb076a6c66a54b7f21c4e8146d8519b417dc92908290030190a1600254604080516001600160a01b038085168252909216602083015280517fca4f2f25d0898edd99413412fb94012f9e54ec8142f9b093e7720646a95b16a99281900390910190a15050565b610970612dd4565b600260045561097d612d7c565b61ffff84166000908152600660205260409081902090516223114160e51b815273__$3845b6e1a7aaf5a3e4728817639ebaa7f3$__906304622820906109d09084908890889088906012906004016167a2565b60006040518083038186803b1580156109e857600080fd5b505af41580156109fc573d6000803e3d6000fd5b5050600160045550505050505050565b600b5461ffff8082169160ff620100008204811692630100000083048116926501000000000081048216926701000000000000008204831692690100000000000000000083048116926001600160801b03600160581b82041692600160d81b8204831692600160e81b830490911691600160f01b9004168a565b600c5461ffff808216916201000081048216916401000000009091041683565b6000610ab0612dd4565b600260045581610abf81612e2c565b610aca338585613627565b6001600455949350505050565b6002546001600160a01b031681565b600660208190526000918252604090912080546001820154600283015460038401546004850154600586015495909601546001600160a01b039485169693851695928516948281169461ffff600160a01b8504811695600160b01b8604821695600160c01b9004909116939190921691908a565b6001546001600160a01b03163314610b8d5760405162461bcd60e51b8152600401610b84906166e2565b60405180910390fd5b600e80546001600160a01b038089166001600160a01b031992831617909255600d8054888416908316179055600f8054868416908316179055601080549285169290911691909117905560005b8151811015610c2957600160116000848481518110610bf557fe5b60209081029190910181015160ff168252810191909152604001600020805460ff1916911515919091179055600101610bda565b506040516386e8f8f360e01b815273__$3845b6e1a7aaf5a3e4728817639ebaa7f3$__906386e8f8f390610c89906016906021906109c490600590601990819069010f0cf064dd59200000906101f4908590603c90600b90600401616499565b60006040518083038186803b158015610ca157600080fd5b505af4158015610cb5573d6000803e3d6000fd5b505060405163049ef59b60e01b815273__$3845b6e1a7aaf5a3e4728817639ebaa7f3$__925063049ef59b9150610cfc90611f40906101f49060c890600c90600401616503565b60006040518083038186803b158015610d1457600080fd5b505af4158015610d28573d6000803e3d6000fd5b50505050505050505050565b6000610d3e612dd4565b600260045581610d4d81612e2c565b6014546001600160a01b03163314610d775760405162461bcd60e51b8152600401610b8490616528565b610d82858585613627565b600160045595945050505050565b6000610d9a612dd4565b600260045581610da981612e2c565b6014546001600160a01b03163314610dd35760405162461bcd60e51b8152600401610b8490616528565b610de1888888888888612e6f565b600160045598975050505050505050565b60008060008084610e0281612e2c565b6040516335899c9b60e11b815273__$3845b6e1a7aaf5a3e4728817639ebaa7f3$__90636b13393690610e3f908b908d908c908c90600401616987565b60806040518083038186803b158015610e5757600080fd5b505af4158015610e6b573d6000803e3d6000fd5b505050506040513d601f19601f82011682018060405250810190610e8f9190615ed5565b929c919b50995090975095505050505050565b610eaa612d7c565b600280546001600160a01b038381166001600160a01b0319831681179093556040805191909216808252602082019390935281517fca4f2f25d0898edd99413412fb94012f9e54ec8142f9b093e7720646a95b16a9929181900390910190a15050565b610f15612d7c565b6001600160a01b03821615801590610f3557506001600160a01b03811615155b610f515760405162461bcd60e51b8152600401610b84906166c5565b600e80546001600160a01b038085166001600160a01b031992831617909255600d8054928416929091169190911790556040517fe3769cc777e9ae5b05464f75af951941c1d732e08249bd86d98f06fec627472590610fb390849084906161c6565b60405180910390a15050565b6000546001600160a01b031681565b60076020526000908152604090205461ffff808216916201000081048216916401000000009091041683565b60086020908152600093845260408085208252928452828420905282529020805460018201546002830154600384015460048501546005909501549394929360ff8316936101009093046001600160801b0316929087565b61105a612d7c565b601580546001600160a01b0319166001600160a01b0392909216919091179055565b61ffff811660009081526006602090815260409182902060070180548351818402810184019094528084526060939283018282801561110657602002820191906000526020600020906000905b82829054906101000a900463ffffffff1663ffffffff16815260200190600401906020826003010492830192600103820291508084116110c95790505b505050505090505b919050565b61111b612d7c565b61ffff90931660009081526013602090815260408083206001600160a01b0390951683529381528382209282529190915220805462ffffff90921662ffffff19909216919091179055565b60055460405163f8df0a2160e01b815260009161ffff169073__$3845b6e1a7aaf5a3e4728817639ebaa7f3$__9063f8df0a21906111bf9089908990899089908890600690600b90600d9060119060139060040161642b565b60006040518083038186803b1580156111d757600080fd5b505af41580156111eb573d6000803e3d6000fd5b50506040516304539dc960e31b815273__$3845b6e1a7aaf5a3e4728817639ebaa7f3$__925063229cee48915061122c908490600790600c906004016169e2565b60006040518083038186803b15801561124457600080fd5b505af4158015611258573d6000803e3d6000fd5b50506005805461ffff8082166001011661ffff199091161790555090915050949350505050565b6014546001600160a01b031681565b61ffff82166000908152600660205260409081902090516384858d4f60e01b815273__$3845b6e1a7aaf5a3e4728817639ebaa7f3$__916384858d4f916112da919085906004016167d1565b60006040518083038186803b1580156112f257600080fd5b505af4158015611306573d6000803e3d6000fd5b505050505050565b611316612d7c565b61ffff8516600090815260066020526040908190209051633b105b7960e11b815273__$3845b6e1a7aaf5a3e4728817639ebaa7f3$__91637620b6f29161136891889188918891889190600401616a1c565b60006040518083038186803b15801561138057600080fd5b505af4158015611394573d6000803e3d6000fd5b505050507f098765df02850934e9e1e5fa74ece937d171ca603795022f41608010d9b39ce085858585856040516113cf959493929190616a83565b60405180910390a15050505050565b6113e6612d7c565b60405163049ef59b60e01b815273__$3845b6e1a7aaf5a3e4728817639ebaa7f3$__9063049ef59b9061142490869086908690600c90600401616ae6565b60006040518083038186803b15801561143c57600080fd5b505af4158015611450573d6000803e3d6000fd5b505050507f6ccd0f337e864327c05e9073abf1da0ff1acc40c8880dfa2e7bf97ac3f1d2a9383838360405161148793929190616ac5565b60405180910390a1505050565b61149c612d7c565b601480546001600160a01b0319166001600160a01b0392909216919091179055565b600d54600e54600f546010546001600160a01b039384169392831692918216911684565b6003546001600160a01b031681565b6015546001600160a01b031681565b601360209081526000938452604080852082529284528284209052825290205462ffffff1681565b611530612d7c565b6001600160a01b039091166000908152600a6020526040902055565b611554612d7c565b60ff919091166000908152601160205260409020805460ff1916911515919091179055565b60116020526000908152604090205460ff1681565b60126020526000908152604090205481565b6115a8612dd4565b6002600481905533600090815260086020908152604080832061ffff871680855290835281842086151585528352818420948501548554918552600690935290832060ff9092169290916115ff9086908390613e15565b90508360010154600014158015611629575060028401546001600160801b03610100909104164314155b6116455760405162461bcd60e51b8152600401610b849061657a565b600e54604051638aad2b3360e01b81526001600160a01b0390911690638aad2b3390611675908990600401616903565b60206040518083038186803b15801561168d57600080fd5b505afa1580156116a1573d6000803e3d6000fd5b505050506040513d601f19601f820116820180604052508101906116c591906158da565b50600184015460608201516001600160a01b031660009081526012602052604081205460a08401516116f8918491614086565b9050600061170b898560000151336140b7565b61ffff8a166000908152601360209081526040808320888201516001600160a01b03168452825280832083805290915281205491925062ffffff909116906117538383614140565b9050600061177133886040015161176a8587614140565b600161418c565b90506117838c8860000151338461423c565b865160405163a00c441d60e01b81526001600160a01b039091169063a00c441d906117b4908f903390600401616912565b60206040518083038186803b1580156117cc57600080fd5b505afa1580156117e0573d6000803e3d6000fd5b505050506040513d601f19601f820116820180604052508101906118049190615ebd565b156118215760405162461bcd60e51b8152600401610b8490616597565b60086000336001600160a01b03166001600160a01b0316815260200190815260200160002060008d61ffff1661ffff16815260200190815260200160002060008c15151515815260200190815260200160002060008082016000905560018201600090556002820160006101000a81549060ff02191690556002820160016101000a8154906001600160801b030219169055600382016000905560048201600090556005820160009055505061190986601260008a606001516001600160a01b03166001600160a01b03168152602001908152602001600020546142a490919063ffffffff16565b6060880180516001600160a01b03166000908152601260205260409020919091555161193790339087614301565b7fe70a68514e4d6172405fb7ec20bbb172435f8456e126bd4eb98d7706bff58b6a338d8d8c8a8d8c600080600060405161197a9a9998979695949392919061616c565b60405180910390a15050600160045550505050505050505050565b61199d612d7c565b6040516386e8f8f360e01b815273__$3845b6e1a7aaf5a3e4728817639ebaa7f3$__906386e8f8f3906119e9908d908d908d908d908d908d908d908d908d908d90600b90600401616499565b60006040518083038186803b158015611a0157600080fd5b505af4158015611a15573d6000803e3d6000fd5b505050507f9b3327d05df4a972fd05866917cfc974f61d0de958603e5571cafadc13199ded8a8a8a8a8a8a8a8a8a8a604051611a5a9a99989796959493929190616b0e565b60405180910390a150505050505050505050565b60055461ffff1681565b6001546001600160a01b031681565b611a8f612dd4565b6002600455806000611aa08261437e565b60ff808216600090815260116020526040902054919250168015611ac8575060ff8116601514155b611ae45760405162461bcd60e51b8152600401610b84906166ff565b506001600160a01b038516600090815260086020908152604080832061ffff881680855290835281842087151585528352818420825160e08101845281548152600182015481860152600282015460ff811615158286015261010090046001600160801b0316606082015260038201546080820152600482015460a082015260059091015460c082015290845260069092528220909190611b889086908390613e15565b9050611bc86040518060600160405280603a8152602001617064603a913960608301516001600160a01b03166000908152601260205260409020546143ad565b611bf66040518060600160405280602f8152602001616d3b602f9139611bf1836060015161445f565b6143ad565b611c1f6040518060600160405280602e8152602001617104602e9139611bf1836040015161445f565b611cc16040518060600160405280603281526020016172236032913960408084015160105491516370a0823160e01b81526001600160a01b03918216926370a0823192611c7192911690600401616158565b60206040518083038186803b158015611c8957600080fd5b505afa158015611c9d573d6000803e3d6000fd5b505050506040513d601f19601f82011682018060405250810190611bf19190615ebd565b611d136040518060600160405280603381526020016171326033913960608301516010546040516370a0823160e01b81526001600160a01b03928316926370a0823192611c7192911690600401616158565b611d4b6040518060600160405280603081526020016171be6030913961ffff88166000908152600660205260409020600501546143ad565b611d846040518060600160405280602f8152602001616ea5602f913961ffff8816600090815260066020819052604090912001546143ad565b611dbc826020015133600a600085606001516001600160a01b03166001600160a01b03168152602001908152602001600020546144de565b611dd85760405162461bcd60e51b8152600401610b84906165b4565b611de184614671565b15611df957611df98160400151826060015186614689565b602082015115801590611e1957504382606001516001600160801b031614155b8015611e375750611e37816101400151611e328661471a565b614768565b611e535760405162461bcd60e51b8152600401610b849061657a565b60208083015160608301516001600160a01b031660009081526012909252604082205460a0840151611e86929190614086565b61ffff80891660009081526007602090815260409182902082516060810184529054808516825262010000810485169282019290925264010000000090910490921682820152600e54905163e1798a1360e01b815292935090916001600160a01b039091169063e1798a1390611f06908b90339087908c9060040161692f565b600060405180830381600087803b158015611f2057600080fd5b505af1158015611f34573d6000803e3d6000fd5b50505050611f64848a8915158760400151151514611f53576001611f56565b60005b85878b87600001518f6147db565b611f805760405162461bcd60e51b8152600401610b8490616645565b611f88615224565b606084015160a08501516001600160a01b038216600090815260126020526040902054611fbb928d9287928e9190614880565b81606001818152505061200260405180606001604052806038815260200161700b6038913960608601516001600160a01b03166000908152601260205260409020546143ad565b61203a6040518060600160405280602e8152602001616fdd602e913961ffff8b166000908152600660205260409020600501546143ad565b6120736040518060600160405280602e8152602001616e42602e913961ffff8b16600090815260066020819052604090912001546143ad565b60608101516020860151612086916142a4565b60a0820152604080516060810190915260358082526120b29190616e7060208301398260a001516143ad565b6120bb8761471a565b63ffffffff1661016082015283516120d5908a908c6140b7565b604080830182905261ffff8b16600090815260136020908152828220888401516001600160a01b0316835281528282208280529052205461211b919062ffffff16614140565b81604001818152505061214a6040518060600160405280602d8152602001616f82602d913982604001516143ad565b6121966040518060600160405280602f8152602001616f53602f913985604001516001600160a01b03166370a08231336040518263ffffffff1660e01b8152600401611c719190616158565b6121ab3385604001518360400151600061418c565b6080820152604080516060810190915260218082526121d79190616d1a602083013982608001516143ad565b6122256040518060600160405280603581526020016171ee6035913985600001516001600160a01b031663a00c441d8c8e6040518363ffffffff1660e01b8152600401611c71929190616912565b6122398985600001518c846080015161423c565b612287604051806060016040528060348152602001616f1f6034913985600001516001600160a01b031663a00c441d8c8e6040518363ffffffff1660e01b8152600401611c71929190616912565b835160405163a00c441d60e01b81526001600160a01b039091169063a00c441d906122b8908c908e90600401616912565b60206040518083038186803b1580156122d057600080fd5b505afa1580156122e4573d6000803e3d6000fd5b505050506040513d601f19601f820116820180604052508101906123089190615ebd565b156123255760405162461bcd60e51b8152600401610b84906165d1565b600061233a856040015186606001518a614945565b9050600061235d61235383604001518460600151614b20565b8360800151614b20565b9050600061238c8360a0015160ff16600a0a612386866040015185614b3690919063ffffffff16565b90614b8f565b905060008b151589604001511515146123c15760a084015189516123bc9160ff16600a0a90612386908690614b36565b6123c4565b88515b90506123f16123ea612710612386896020015161ffff1685614b3690919063ffffffff16565b8390614bf6565b60c08601526040860151612416906123ea906127109061238690859061ffff16614b36565b60e0860152604080518082018252601d81527f2d2d2d2d2d2d2d2d2d2d2d2d2d2d2d2d2d2d2d626f72726f776564203a00000060208201529086015161245c91906143ad565b61247e604051806060016040528060298152602001616ed460299139836143ad565b6124c16040518060400160405280601e81526020017f2d2d2d2d2d2d2d2d2d2d2d2d2d2d2d2d2d2d2d6465706f7369746564203a00008152508a600001516143ad565b6125046040518060400160405280601a81526020017f2d2d2d2d2d2d2d2d2d2d2d2d2d2d2d2d2d2d2d68656c6420203a0000000000008152508a602001516143ad565b6125266040518060600160405280602a8152602001617194602a9139826143ad565b6125696040518060400160405280602081526020017f2d2d2d2d2d2d2d2d2d2d2d2d2d2d2d2d2d2d2d6d617842656e6566697473203a8152508660c001516143ad565b6125ac6040518060400160405280602081526020017f2d2d2d2d2d2d2d2d2d2d2d2d2d2d2d2d2d2d2d6d696e42656e6566697473203a8152508660e001516143ad565b8460c001518560a0015111156126ff5760c0850151610100860181905260105460a0870151612600926001600160a01b03909216916125eb91906142a4565b60608b01516001600160a01b03169190614c50565b506126566040518060400160405280601d81526020017f2d2d2d2d2d2d2d2d2d2d2d2d2d2d2d2d2d2d2d746f20786f6c6520203a000000815250611bf18761010001518860a001516142a490919063ffffffff16565b6126a86040518060600160405280602e8152602001616faf602e91396040808b015160105491516370a0823160e01b81526001600160a01b03918216926370a0823192611c7192911690600401616158565b6126fa6040518060600160405280602f8152602001617165602f913960608a01516010546040516370a0823160e01b81526001600160a01b03928316926370a0823192611c7192911690600401616158565b61298e565b8460c001518560a001511115801561271f57508460e00151896020015110155b156127345760a085015161010086015261298e565b60e0850151610100860181905260208a015161275091906142a4565b61012086015261ffff8d1660009081526006602052604090208c15612880576127b36040518060400160405280601781526020017f2d2d2d2d2d2d7265647563652020706f6f6c3120696e730000000000000000008152508761012001516143ad565b85610120015181600601541061282a5761012086015160068201546127d7916142a4565b600682015561012086015160608a01516001600160a01b0316600090815260126020526040902054612808916142a4565b60608a01516001600160a01b031660009081526012602052604090205561287b565b600681015460608a01516001600160a01b0316600090815260126020526040902054612855916142a4565b60608a01516001600160a01b031660009081526012602052604081209190915560068201555b61298c565b6128c46040518060400160405280601d81526020017f2d2d2d2d2d2d2d2d2d2d2d2d7265647563652020706f6f6c3020696e730000008152508761012001516143ad565b85610120015181600501541061293b5761012086015160058201546128e8916142a4565b600582015561012086015160608a01516001600160a01b0316600090815260126020526040902054612919916142a4565b60608a01516001600160a01b031660009081526012602052604090205561298c565b600581015460608a01516001600160a01b0316600090815260126020526040902054612966916142a4565b60608a01516001600160a01b031660009081526012602052604081209190915560058201555b505b61010085015115612a74576129a6886060015161445f565b85610100015111612a10576129f76040518060400160405280602081526020017f2d2d2d2d2d2d2d2d2d2d2d2d206774207265616c69747942656e656669747320815250611bf18a6060015161445f565b612a0b338960600151876101000151614301565b612a74565b612a566040518060400160405280602081526020017f2d2d2d2d2d2d2d2d2d2d2d2d206c74207265616c69747942656e656669747320815250611bf18a6060015161445f565b60a085015161010086018190526060890151612a7491339190614301565b8b612a99576040850151612a949061238684670de0b6b3a7640000614b36565b612abc565b612abc82612386670de0b6b3a76400008860400151614b3690919063ffffffff16565b6101408601526020808a015160608a01516001600160a01b031660009081526012909252604090912054612aef916142a4565b601260008a606001516001600160a01b03166001600160a01b0316815260200190815260200160002081905550612b45604051806060016040528060338152602001616e0f60339139611bf18a6060015161445f565b612b6e60405180606001604052806033815260200161709e60339139611bf18a6040015161445f565b612bac6040518060600160405280603a8152602001616d9c603a913960608a01516001600160a01b03166000908152601260205260409020546143ad565b612be8604051806060016040528060398152602001616dd6603991396040808b01516001600160a01b03166000908152601260205220546143ad565b612c3a604051806060016040528060328152602001616d6a603291396040808b015160105491516370a0823160e01b81526001600160a01b03918216926370a0823192611c7192911690600401616158565b612c8c6040518060600160405280603381526020016170d16033913960608a01516010546040516370a0823160e01b81526001600160a01b03928316926370a0823192611c7192911690600401616158565b7f0efc951a3d6845f6a1c7dc8618734516df3593bb79f79fdfb5168e35f0db82f98e8e8e8c604001518d602001518a60800151338c61010001518d606001518e61014001518f6101600151604051612cee9b9a999897969594939291906162be565b60405180910390a15050506001600160a01b03909a16600090815260086020908152604080832061ffff909c1683529a81528a8220991515825298909852505050948420848155600180820186905560028201805470ffffffffffffffffffffffffffffffffff19169055600382018690556004808301879055600590920195909555939093555050505050565b6001546001600160a01b03163314612dd2576040805162461bcd60e51b815260206004820152601460248201527331b0b63632b91036bab9ba1031329030b236b4b760611b604482015290519081900360640190fd5b565b60026004541415612dd2576040805162461bcd60e51b815260206004820152601f60248201527f5265656e7472616e637947756172643a207265656e7472616e742063616c6c00604482015290519081900360640190fd5b60116000612e398361437e565b60ff908116825260208201929092526040016000205416612e6c5760405162461bcd60e51b8152600401610b84906166ff565b50565b6001600160a01b038616600090815260086020908152604080832061ffff891680855290835281842088151585528352818420908452600690925282208290612ebb9088908390613e15565b6002830154600184015491925060ff1690871115612eeb5760405162461bcd60e51b8152600401610b84906165ee565b600183015415801590612f11575060028301546001600160801b03610100909104164314155b8015612f2a5750612f2a826101400151611e328761471a565b612f465760405162461bcd60e51b8152600401610b849061657a565b600e54604051638aad2b3360e01b81526001600160a01b0390911690638aad2b3390612f76908c90600401616903565b60206040518083038186803b158015612f8e57600080fd5b505afa158015612fa2573d6000803e3d6000fd5b505050506040513d601f19601f82011682018060405250810190612fc691906158da565b5060018301546201869f90612fe2906123868a620186a0614b36565b10612fef57826001015496505b60608201516001600160a01b031660009081526012602052604081205460a084015161301c918a91614086565b9050613026615291565b6130658c8386606001518e8860a00151601260008b606001516001600160a01b03166001600160a01b0316815260200190815260200160002054614880565b6101a082018190526130789083906142a4565b60a08201526001850154613098906123868b670de0b6b3a7640000614b36565b60608201526001850154891415608082015283516130b8908c908e6140b7565b60c0820181905261ffff8c166000908152601360209081526040808320888201516001600160a01b031684528252808320838052909152902054613101919062ffffff16614140565b60e082015261310f8761471a565b63ffffffff166101c08201526080810151156131895761314c670de0b6b3a764000061238683606001518460e00151614b3690919063ffffffff16565b60e08201526060810151855461316f91670de0b6b3a76400009161238691614b36565b61010082018190528554613182916142a4565b8555613192565b84546101008201525b89151583151514613242576131ab8160e0015189614e78565b97506131c6846040015185606001518360a001518b8b614e87565b610160820181905260e082015111156131f15760405162461bcd60e51b8152600401610b849061671c565b60a0810151610140820152835160e0820151613210918d918f9061423c565b60e0810151610160820151613224916142a4565b6101208201819052604085015161323d918e9190614301565b613361565b6000613251856040015161445f565b90506132618260a001518a614b20565b98506132a48c866040015187606001518560e001518d8760a001518e61329f8d610140015160008151811061329257fe5b6020026020010151614f39565b614f83565b61014083015260408501516132c49082906132be9061445f565b906142a4565b610160830181905260e083015111156132ef5760405162461bcd60e51b8152600401610b849061671c565b6133038c86600001518f8560e0015161423c565b61014082015160a0830151613317916142a4565b6101208301819052606086015161332d9061445f565b101561334b5760405162461bcd60e51b8152600401610b849061660b565b61335f8d8660600151846101200151614301565b505b60006133728c86600001518f6140b7565b9050600061338d828460c001516142a490919063ffffffff16565b90506133b6670de0b6b3a764000061238685606001518660c00151614b3690919063ffffffff16565b8110156133d55760405162461bcd60e51b8152600401610b8490616597565b826080015161348f57600860008f6001600160a01b03166001600160a01b0316815260200190815260200160002060008e61ffff1661ffff16815260200190815260200160002060008d15151515815260200190815260200160002060008082016000905560018201600090556002820160006101000a81549060ff02191690556002820160016101000a8154906001600160801b03021916905560038201600090556004820160009055600582016000905550506134c6565b600187015461349e908c6142a4565b6001880155600287018054610100600160881b031916610100436001600160801b0316021790555b60608601516001600160a01b03166000908152601260205260409020546134ed908c6142a4565b60608701516001600160a01b03166000908152601260205260409020558b61353d57613538836101400151612386670de0b6b3a7640000866101600151614b3690919063ffffffff16565b613566565b613566836101600151612386670de0b6b3a7640000866101400151614b3690919063ffffffff16565b61018084015261357589614671565b156135af576135af866040015187606001516135aa8c8a610140015160008151811061359d57fe5b6020026020010151615123565b614689565b7fe70a68514e4d6172405fb7ec20bbb172435f8456e126bd4eb98d7706bff58b6a8e8e8e888f8861010001518961012001518a6101a001518b61018001518c6101c001516040516136099a9998979695949392919061616c565b60405180910390a1505061012001519b9a5050505050505050505050565b6000613631615317565b602080850151855161ffff1660009081526006909252604082206136589190600190613e15565b905060006136728583610140015160008151811061359d57fe5b6001600160a01b0388811660009081526008602090815260408083208b5161ffff16845282528083208b83018051151585529252918290209051918a015160608b015160808c0151601454969750929573__$3845b6e1a7aaf5a3e4728817639ebaa7f3$__95630790daba958a959094939290918e91600d918b911633146136fb5760016136fe565b60005b6040518a63ffffffff1660e01b815260040161372299989796959493929190616739565b60006040518083038186803b15801561373a57600080fd5b505af415801561374e573d6000803e3d6000fd5b5050600e54895160208b0151604051630c706c0360e41b81526001600160a01b03909316945063c706c030935061378a928d9190600401616960565b60206040518083038186803b1580156137a257600080fd5b505afa1580156137b6573d6000803e3d6000fd5b505050506040513d601f19601f820116820180604052508101906137da91906158da565b506137e486614671565b156137fc576137fc8360400151846060015184614689565b506040808301516001600160a01b031660009081526012602090815290829020546101208601528701519087015115159015151461383e578160600151613844565b81604001515b6001600160a01b0390811660208501819052606088015160145461387c9333939291168314613874576001613877565b60005b61418c565b6060870152608086015160009015613a0257600061389d846060015161445f565b6020850151895160808b01516040516341492bc760e01b81529394506001600160a01b03909216926341492bc7926138db92918e91906004016169bd565b600060405180830381600087803b1580156138f557600080fd5b505af1158015613909573d6000803e3d6000fd5b5050505061391e816132be866060015161445f565b915050866020015115158760400151151514156139f757600d546060840151604080860151905163355efdd960e01b815260009384936001600160a01b039091169263355efdd99261397692919089906004016161e0565b604080518083038186803b15801561398d57600080fd5b505afa1580156139a1573d6000803e3d6000fd5b505050506040513d601f19601f820116820180604052508101906139c59190615f56565b915091506139ea8160ff16600a0a612386848c60800151614b3690919063ffffffff16565b60c087015250613a029050565b608087015160c08501525b60808701511580613a3b575082610100015161ffff16613a398560c001516123866127108b60600151614b3690919063ffffffff16565b115b613a575760405162461bcd60e51b8152600401610b84906166a8565b613ac688613a768660c001518a60600151614bf690919063ffffffff16565b86602001518a600001518b6020015115158c60400151151514613a9d578760a00151613aa3565b87608001515b6020808b01516001600160a01b0316600090815260129091526040902054614880565b604085018190526060880151613adb916142a4565b6060850152613ae98661471a565b63ffffffff166101008501526020870151604088015115159015151415613b9d578015613b8057613b2983604001518460600151838a60a001518a614e87565b60a08501526020870151613b575760a0840151613b529061238683670de0b6b3a7640000614b36565b613b7a565b613b7a81612386670de0b6b3a76400008760a00151614b3690919063ffffffff16565b60e08501525b606084015160a0850151613b9391614bf6565b60a0850152613c34565b6060840151613bac9082614bf6565b608085018190526040840151606085015160a08a0151613bcd93908a614e87565b60a08501526020870151613c0757613c028460a00151612386670de0b6b3a76400008760800151614b3690919063ffffffff16565b613c2e565b613c2e8460800151612386670de0b6b3a76400008760a00151614b3690919063ffffffff16565b60e08501525b60a0840180516001600160a01b038a1660009081526008602090815260408083208c5161ffff16845282528083208c83015115158452909152902091516101208701516080870151929850613c8892615147565b60a08601819052600482018190556001820154613ca491614bf6565b6001820155604088015160028201805460ff191691151591909117905560608501518154613cd191614bf6565b8155600281018054610100600160881b031916610100436001600160801b03160217905560a08501516040858101516001600160a01b0316600090815260126020522054613d1e91614bf6565b604080860180516001600160a01b0390811660009081526012602052838120949094556001808601548351909216855292909320549051613d7f9385938e939092613d73929190613d6e9061445f565b614086565b88888e6000015161516d565b613d9b5760405162461bcd60e51b8152600401610b8490616628565b7f6ddbddb7d7abe9e2511f51579843e818ee3f101ee81261d2a1714d5a630474c68989600001518a602001518b604001518c606001518d608001518b60a001518c604001518d60e001518e6101000151604051613e019a9998979695949392919061616c565b60405180910390a150505050509392505050565b613e1d615379565b6002820154600090613e37906001600160a01b031661445f565b6003840154909150600090613e54906001600160a01b031661445f565b905085151585151514613f6f57604080516101608101825285546001600160a01b039081168252600187015481166020808401919091526002880154821683850152600388015491821660608401526080830186905260a08301859052600588015460c0840152600688015460e084015261ffff600160a01b83048116610100850152600160c01b90920490911661012083015260078701805484518184028101840190955280855292936101408501939092830182828015613f6257602002820191906000526020600020906000905b82829054906101000a900463ffffffff1663ffffffff1681526020019060040190602082600301049283019260010382029150808411613f255790505b505050505081525061407a565b604080516101608101825260018601546001600160a01b03908116825286548116602080840191909152600388015480831684860152600289015490921660608401526080830185905260a08301869052600688015460c0840152600588015460e084015261ffff600160a01b83048116610100850152600160c01b9092049091166101208301526007870180548451818402810184019095528085529293610140850193909283018282801561407157602002820191906000526020600020906000905b82829054906101000a900463ffffffff1663ffffffff16815260200190600401906020826003010492830192600103820291508084116140345790505b50505050508152505b925050505b9392505050565b600080831180156140975750600082115b1561407f57826140a78386614b36565b816140ae57fe5b04949350505050565b6040516303184af960e31b81526000906001600160a01b038416906318c257c8906140e89087908690600401616912565b60206040518083038186803b15801561410057600080fd5b505afa158015614114573d6000803e3d6000fd5b505050506040513d601f19601f820116820180604052508101906141389190615ebd565b949350505050565b600080614155620f424062ffffff85166142a4565b9050600061417560016132be8461416f89620f4240614b36565b90614bf6565b905081818161418057fe5b04925050505b92915050565b600073__$3845b6e1a7aaf5a3e4728817639ebaa7f3$__63289e376f8686856141b65760006141c3565b600f546001600160a01b03165b876040518563ffffffff1660e01b81526004016141e39493929190616294565b60206040518083038186803b1580156141fb57600080fd5b505af415801561420f573d6000803e3d6000fd5b505050506040513d601f19601f820116820180604052508101906142339190615ebd565b95945050505050565b6040516369bdee9f60e11b81526001600160a01b0384169063d37bdd3e9061426c908790869086906004016169bd565b600060405180830381600087803b15801561428657600080fd5b505af115801561429a573d6000803e3d6000fd5b5050505050505050565b6000828211156142fb576040805162461bcd60e51b815260206004820152601e60248201527f536166654d6174683a207375627472616374696f6e206f766572666c6f770000604482015290519081900360640190fd5b50900390565b600f546040516319ea053f60e01b815273__$3845b6e1a7aaf5a3e4728817639ebaa7f3$__916319ea053f9161434991879187916001600160a01b0316908790600401616294565b60006040518083038186803b15801561436157600080fd5b505af4158015614375573d6000803e3d6000fd5b50505050505050565b60006001825110156143a25760405162461bcd60e51b8152600401610b8490616545565b506020015160001a90565b61445b82826040516024018080602001838152602001828103825284818151815260200191508051906020019080838360005b838110156143f85781810151838201526020016143e0565b50505050905090810190601f1680156144255780820380516001836020036101000a031916815260200191505b5060408051601f198184030181529190526020810180516001600160e01b0316632d839cb360e21b179052935061520392505050565b5050565b6040516370a0823160e01b81526000906001600160a01b038316906370a082319061448e903090600401616158565b60206040518083038186803b1580156144a657600080fd5b505afa1580156144ba573d6000803e3d6000fd5b505050506040513d601f19601f820116820180604052508101906141869190615ebd565b600080306001600160a01b031663c275fe546040518163ffffffff1660e01b815260040160806040518083038186803b15801561451a57600080fd5b505afa15801561452e573d6000803e3d6000fd5b505050506040513d601f19601f8201168201806040525081019061455291906158f6565b93505050506000816001600160a01b031663929ec537866040518263ffffffff1660e01b81526004016145859190616158565b60206040518083038186803b15801561459d57600080fd5b505afa1580156145b1573d6000803e3d6000fd5b505050506040513d601f19601f820116820180604052508101906145d59190615ebd565b90506000826001600160a01b031663313ce5676040518163ffffffff1660e01b815260040160206040518083038186803b15801561461257600080fd5b505afa158015614626573d6000803e3d6000fd5b505050506040513d601f19601f8201168201806040525081019061464a9190615f96565b60ff169050866146648661465e8585614b8f565b90614b36565b1015979650505050505050565b6000600261467e8361437e565b60ff16141592915050565b60405163b37b327160e01b815273__$3845b6e1a7aaf5a3e4728817639ebaa7f3$__9063b37b3271906146c4908690869086906004016161e0565b60206040518083038186803b1580156146dc57600080fd5b505af41580156146f0573d6000803e3d6000fd5b505050506040513d601f19601f8201168201806040525081019061471491906158da565b50505050565b600060018251101561473e5760405162461bcd60e51b8152600401610b8490616662565b61474782614671565b1561475a5750602081015160001a61110e565b50602081015160e01c61110e565b6000805b83518110156147d45783818151811061478157fe5b602002602001015163ffffffff166000141561479c576147d4565b8263ffffffff168482815181106147af57fe5b602002602001015163ffffffff1614156147cc57600191506147d4565b60010161476c565b5092915050565b60405163ecf216eb60e01b815260009073__$3845b6e1a7aaf5a3e4728817639ebaa7f3$__9063ecf216eb90614823908c908c908c908c908c908c908c908c906004016167ea565b60206040518083038186803b15801561483b57600080fd5b505af415801561484f573d6000803e3d6000fd5b505050506040513d601f19601f8201168201806040525081019061487391906158da565b9998505050505050505050565b61ffff83166000908152600660205260408082206010549151634ce26cf560e11b8152909173__$3845b6e1a7aaf5a3e4728817639ebaa7f3$__916399c4d9ea916148e9918c918c918c916001600160a01b0316908a908c908a90601290600b9060040161632e565b60206040518083038186803b15801561490157600080fd5b505af4158015614915573d6000803e3d6000fd5b505050506040513d601f19601f820116820180604052508101906149399190615ebd565b98975050505050505050565b61494d6153ff565b6000306001600160a01b031663c275fe546040518163ffffffff1660e01b815260040160806040518083038186803b15801561498857600080fd5b505afa15801561499c573d6000803e3d6000fd5b505050506040513d601f19601f820116820180604052508101906149c091906158f6565b50505090506000306001600160a01b031663159003a86040518163ffffffff1660e01b81526004016101406040518083038186803b158015614a0157600080fd5b505afa158015614a15573d6000803e3d6000fd5b505050506040513d601f19601f82011682018060405250810190614a399190615df8565b9950505050505050505050816001600160a01b031663a59a36ae878784886040518563ffffffff1660e01b8152600401614a76949392919061620c565b60a06040518083038186803b158015614a8e57600080fd5b505afa158015614aa2573d6000803e3d6000fd5b505050506040513d601f19601f82011682018060405250810190614ac69190615f0a565b60c0880181905260ff90911660a0880152608087019190915260608601919091526040850191909152614afd9061ffff8316614bf6565b421115614b0f57606083015160808401525b505061271060208201529392505050565b6000818310614b2f578161407f565b5090919050565b600082614b4557506000614186565b82820282848281614b5257fe5b041461407f5760405162461bcd60e51b81526004018080602001828103825260218152602001806170436021913960400191505060405180910390fd5b6000808211614be5576040805162461bcd60e51b815260206004820152601a60248201527f536166654d6174683a206469766973696f6e206279207a65726f000000000000604482015290519081900360640190fd5b818381614bee57fe5b049392505050565b60008282018381101561407f576040805162461bcd60e51b815260206004820152601b60248201527f536166654d6174683a206164646974696f6e206f766572666c6f770000000000604482015290519081900360640190fd5b6000811561407f576000846001600160a01b03166370a08231856040518263ffffffff1660e01b815260040180826001600160a01b0316815260200191505060206040518083038186803b158015614ca757600080fd5b505afa158015614cbb573d6000803e3d6000fd5b505050506040513d6020811015614cd157600080fd5b5051604080516001600160a01b038781166024830152604480830188905283518084039091018152606490920183526020820180516001600160e01b031663a9059cbb60e01b1781529251825194955090891693919290918291908083835b60208310614d4f5780518252601f199092019160209182019101614d30565b6001836020036101000a0380198251168184511680821785525050505050509050019150506000604051808303816000865af19150503d8060008114614db1576040519150601f19603f3d011682016040523d82523d6000602084013e614db6565b606091505b5050506000856001600160a01b03166370a08231866040518263ffffffff1660e01b815260040180826001600160a01b0316815260200191505060206040518083038186803b158015614e0857600080fd5b505afa158015614e1c573d6000803e3d6000fd5b505050506040513d6020811015614e3257600080fd5b50519050818111614e6f576040805162461bcd60e51b81526020600482015260026024820152612a2360f11b604482015290519081900360640190fd5b03949350505050565b6000818311614b2f578161407f565b600d5460155460405163d2de4c0760e01b815260009273__$3845b6e1a7aaf5a3e4728817639ebaa7f3$__9263d2de4c0792614edf928b928b928b928b928b926001600160a01b039283169290911690600401616242565b60206040518083038186803b158015614ef757600080fd5b505af4158015614f0b573d6000803e3d6000fd5b505050506040513d601f19601f82011682018060405250810190614f2f9190615ebd565b9695505050505050565b60606101008263ffffffff161015614f725781604051602001614f5c9190616140565b604051602081830303815290604052905061110e565b81604051602001614f5c9190616128565b600080601360008b61ffff1661ffff16815260200190815260200160002060008a6001600160a01b03166001600160a01b0316815260200190815260200160002060006002815260200190815260200160002060009054906101000a900462ffffff1690506000601360008c61ffff1661ffff16815260200190815260200160002060008a6001600160a01b03166001600160a01b0316815260200190815260200160002060006001815260200190815260200160002060009054906101000a900462ffffff16905073__$3845b6e1a7aaf5a3e4728817639ebaa7f3$__63205cb3718383601560009054906101000a90046001600160a01b0316600d60000160009054906101000a90046001600160a01b03168f8f8f8f8f8f8f6040518c63ffffffff1660e01b81526004016150c49b9a99989796959493929190616b7d565b60206040518083038186803b1580156150dc57600080fd5b505af41580156150f0573d6000803e3d6000fd5b505050506040513d601f19601f820116820180604052508101906151149190615ebd565b9b9a5050505050505050505050565b606060156151308461437e565b60ff161415614b2f5761514282614f39565b61407f565b600080831180156151585750600082115b6151625783614138565b816140a78486614b36565b60405163b03a3df360e01b815260009073__$3845b6e1a7aaf5a3e4728817639ebaa7f3$__9063b03a3df3906151b3908b908b908b908b908b908b908b906004016168a3565b60206040518083038186803b1580156151cb57600080fd5b505af41580156151df573d6000803e3d6000fd5b505050506040513d601f19601f8201168201806040525081019061493991906158da565b80516a636f6e736f6c652e6c6f67602083016000808483855afa5050505050565b604051806101800160405280600061ffff168152602001600015158152602001600081526020016000815260200160008152602001600081526020016000815260200160008152602001600081526020016000815260200160008152602001600063ffffffff1681525090565b604051806101e00160405280600061ffff16815260200160001515815260200160001515815260200160008152602001600015158152602001600081526020016000815260200160008152602001600081526020016000815260200160008152602001600081526020016000815260200160008152602001600063ffffffff1681525090565b6040518061014001604052806000815260200160006001600160a01b03168152602001600081526020016000815260200160008152602001600081526020016000815260200160008152602001600063ffffffff168152602001600081525090565b60405180610160016040528060006001600160a01b0316815260200160006001600160a01b0316815260200160006001600160a01b0316815260200160006001600160a01b0316815260200160008152602001600081526020016000815260200160008152602001600061ffff168152602001600061ffff168152602001606081525090565b60405180610100016040528060008152602001600061ffff168152602001600081526020016000815260200160008152602001600060ff16815260200160008152602001600081525090565b803561110e81616cb0565b600082601f830112615466578081fd5b8135602061547b61547683616c92565b616c6e565b8281528181019085830183850287018401881015615497578586fd5b855b858110156154be5781356154ac81616d0a565b84529284019290840190600101615499565b5090979650505050505050565b600082601f8301126154db578081fd5b813567ffffffffffffffff8111156154ef57fe5b615502601f8201601f1916602001616c6e565b818152846020838601011115615516578283fd5b816020850160208301379081016020019190915292915050565b600060c08284031215615541578081fd5b60405160c0810181811067ffffffffffffffff8211171561555e57fe5b604052905080823561556f81616ce8565b8152602083013561557f81616cc5565b6020820152604083013561559281616cc5565b80604083015250606083013560608201526080830135608082015260a083013560a08201525092915050565b6000602082840312156155cf578081fd5b813561407f81616cb0565b600080604083850312156155ec578081fd5b82356155f781616cb0565b9150602083013561560781616cb0565b809150509250929050565b60008060008060008060c0878903121561562a578182fd5b863561563581616cb0565b955060208781013561564681616cb0565b9550604088013567ffffffffffffffff80821115615662578485fd5b818a0191508a601f830112615675578485fd5b813561568361547682616c92565b81815284810190848601868402860187018f101561569f578889fd5b8895505b838610156156ca5780356156b681616cb0565b8352600195909501949186019186016156a3565b5098506156dc91505060608b0161544b565b95506156ea60808b0161544b565b945060a08a01359250808311156156ff578384fd5b505061570d89828a01615456565b9150509295509295509295565b6000806000610100848603121561572f578081fd5b833561573a81616cb0565b92506157498560208601615530565b915060e084013567ffffffffffffffff811115615764578182fd5b615770868287016154cb565b9150509250925092565b60008060006060848603121561578e578081fd5b833561579981616cb0565b925060208401356157a981616ce8565b915060408401356157b981616cc5565b809150509250925092565b600080600080608085870312156157d9578182fd5b84356157e481616cb0565b935060208501356157f481616ce8565b9250604085013561580481616cc5565b9150606085013567ffffffffffffffff81111561581f578182fd5b61582b878288016154cb565b91505092959194509250565b60008060008060008060c0878903121561584f578384fd5b863561585a81616cb0565b9550602087013561586a81616ce8565b9450604087013561587a81616cc5565b9350606087013592506080870135915060a087013567ffffffffffffffff8111156158a3578182fd5b61570d89828a016154cb565b600080604083850312156158c1578182fd5b82356158cc81616cb0565b946020939093013593505050565b6000602082840312156158eb578081fd5b815161407f81616cc5565b6000806000806080858703121561590b578182fd5b845161591681616cb0565b602086015190945061592781616cb0565b604086015190935061593881616cb0565b606086015190925061594981616cb0565b939692955090935050565b60008060008060808587031215615969578182fd5b843561597481616cb0565b9350602085013561598481616cb0565b9250604085013561580481616ce8565b60008060e083850312156159a6578182fd5b6159b08484615530565b915060c083013567ffffffffffffffff8111156159cb578182fd5b6159d7858286016154cb565b9150509250929050565b6000602082840312156159f2578081fd5b813561407f81616ce8565b600080600060608486031215615a11578081fd5b8335615a1c81616ce8565b92506020840135615a2c81616cb0565b929592945050506040919091013590565b60008060008060808587031215615a52578182fd5b8435615a5d81616ce8565b93506020850135615a6d81616cb0565b925060408501359150606085013562ffffff81168114615949578182fd5b60008060408385031215615a9d578182fd5b8235615aa881616ce8565b9150602083013561560781616cc5565b600080600080600060a08688031215615acf578283fd5b8535615ada81616ce8565b94506020860135615aea81616cc5565b93506040860135925060608601359150608086013567ffffffffffffffff811115615b13578182fd5b615b1f888289016154cb565b9150509295509295909350565b60008060408385031215615b3e578182fd5b8235615b4981616ce8565b9150602083013567ffffffffffffffff8111156159cb578182fd5b60008060008060808587031215615b79578182fd5b8435615b8481616ce8565b93506020850135615b9481616ce8565b92506040850135615ba481616ce8565b9150606085013561594981616ce8565b600080600080600060a08688031215615bcb578283fd5b8535615bd681616ce8565b9450602086810135615be781616ce8565b94506040870135615bf781616ce8565b93506060870135615c0781616ce8565b9250608087013567ffffffffffffffff811115615c22578283fd5b8701601f81018913615c32578283fd5b8035615c4061547682616c92565b81815283810190838501858402850186018d1015615c5c578687fd5b8694505b83851015615c87578035615c7381616cf8565b835260019490940193918501918501615c60565b5080955050505050509295509295909350565b60008060008060808587031215615caf578182fd5b8435615cba81616ce8565b93506020850135615cca81616d0a565b92506040850135615cda81616cb0565b9396929550929360600135925050565b600080600060608486031215615cfe578081fd5b8335615d0981616ce8565b92506020840135615d1981616d0a565b915060408401356157b981616ce8565b6000806000806000806000806000806101408b8d031215615d48578788fd5b8a35615d5381616ce8565b995060208b0135615d6381616d0a565b985060408b0135615d7381616ce8565b975060608b0135615d8381616ce8565b965060808b0135615d9381616ce8565b955060a08b0135615da381616ce8565b945060c08b0135615db381616cd3565b935060e08b0135615dc381616ce8565b92506101008b0135615dd481616d0a565b91506101208b0135615de581616ce8565b809150509295989b9194979a5092959850565b6000806000806000806000806000806101408b8d031215615e17578384fd5b8a51615e2281616ce8565b60208c0151909a50615e3381616d0a565b60408c0151909950615e4481616ce8565b60608c0151909850615e5581616ce8565b60808c0151909750615e6681616ce8565b60a08c0151909650615e7781616ce8565b60c08c0151909550615e8881616cd3565b60e08c0151909450615e9981616ce8565b6101008c0151909350615eab81616d0a565b6101208c0151909250615de581616ce8565b600060208284031215615ece578081fd5b5051919050565b60008060008060808587031215615eea578182fd5b845193506020850151925060408501519150606085015161594981616cf8565b600080600080600060a08688031215615f21578283fd5b8551945060208601519350604086015192506060860151615f4181616d0a565b80925050608086015190509295509295909350565b60008060408385031215615f68578182fd5b82519150602083015161560781616d0a565b600060208284031215615f8b578081fd5b813561407f81616d0a565b600060208284031215615fa7578081fd5b815161407f81616d0a565b60008060408385031215615fc4578182fd5b8235615aa881616d0a565b6001600160a01b03169052565b6000815180845260208085019450808401835b8381101561601157815163ffffffff1687529582019590820190600101615fef565b509495945050505050565b15159052565b60008151808452815b818110156160475760208185018101518683018201520161602b565b818111156160585782602083870101525b50601f01601f19169290920160200192915050565b61ffff169052565b6000610160616085848451615fcf565b60208301516160976020860182615fcf565b5060408301516160aa6040860182615fcf565b5060608301516160bd6060860182615fcf565b506080830151608085015260a083015160a085015260c083015160c085015260e083015160e0850152610100808401516160f98287018261606d565b50506101208084015161610e8287018261606d565b5050610140808401518282870152614f2f83870182615fdc565b60e09190911b6001600160e01b031916815260040190565b60f89190911b6001600160f81b031916815260010190565b6001600160a01b0391909116815260200190565b6001600160a01b039a909a168a5261ffff9890981660208a015295151560408901529315156060880152608087019290925260a086015260c085015260e084015261010083015263ffffffff166101208201526101400190565b6001600160a01b0392831681529116602082015260400190565b6001600160a01b0384811682528316602082015260606040820181905260009061423390830184616022565b6001600160a01b0385811682528416602082015261ffff83166040820152608060608201819052600090614f2f90830184616022565b600060018060a01b03808a168352808916602084015287604084015286606084015260e0608084015261627860e0840187616022565b94811660a08401529290921660c0909101525095945050505050565b6001600160a01b039485168152928416602084015292166040820152606081019190915260800190565b6001600160a01b039b8c16815261ffff9a909a1660208b015297151560408a01529515156060890152608088019490945260a087019290925290951660c085015260e084019490945261010083019390935261012082019290925263ffffffff9091166101408201526101600190565b6001600160a01b03998a16815260208101989098529588166040880152939096166060860152608085019190915260a084015260c083019390935260e08201929092526101008101919091526101200190565b60006020825261407f6020830184615fdc565b901515815260200190565b6001600160a01b03948516815292841660208401529083166040830152909116606082015260800190565b6001600160a01b039a8b168152988a1660208a01529689166040890152948816606088015261ffff938416608088015291831660a087015290911660c085015290931660e08301526101008201929092526101208101919091526101400190565b6001600160a01b038b811682528a16602082015261ffff8981166040830152610140606083018190526000916164638483018c616022565b99166080840152505060a081019590955260c085019390935260e084019190915261010083015261012090910152949350505050565b61ffff9b8c16815260ff9a8b166020820152988b1660408a0152968a166060890152948916608088015292881660a08701526001600160801b039190911660c0860152861660e0850152909316610100830152919092166101208301526101408201526101600190565b61ffff9485168152928416602084015292166040820152606081019190915260800190565b6020808252600390820152624f4c4f60e81b604082015260600190565b6020808252818101527f446578446174613a20746f4465782077726f6e67206461746120666f726d6174604082015260600190565b60208082526003908201526204849360ec1b604082015260600190565b60208082526003908201526204952560ec1b604082015260600190565b6020808252600390820152622624a160e91b604082015260600190565b60208082526003908201526221292360e91b604082015260600190565b60208082526003908201526208684960eb1b604082015260600190565b60208082526003908201526224a9a160e91b604082015260600190565b6020808252600390820152620a09c960eb1b604082015260600190565b6020808252600390820152620a092960eb1b604082015260600190565b60208082526026908201527f446578446174613a20746f44657844657461696c2077726f6e67206461746120604082015265199bdc9b585d60d21b606082015260800190565b6020808252600390820152624d414d60e81b604082015260600190565b60208082526003908201526204344360ec1b604082015260600190565b60208082526003908201526213905160ea1b604082015260600190565b6020808252600390820152620aa88b60eb1b604082015260600190565b60208082526003908201526224a9a960e91b604082015260600190565b600061012080835261674d8184018d616075565b90508a15156020840152891515604084015288606084015287608084015282810360a084015261677d8188616022565b60c0840196909652505060e08101929092521515610100909101529695505050505050565b94855260ff9390931660208501526001600160a01b039190911660408401526060830152608082015260a00190565b6000838252604060208301526141386040830184616022565b60006101c08a51835260208b0151602084015260408b0151151560408401526001600160801b0360608c015116606084015260808b0151608084015260a08b015160a084015260c08b015160c084015261684760e084018b615fcf565b61685561010084018a61601c565b876101208401528061014084015261686f81840188616075565b90508281036101608401526168848187616022565b91505061689561018083018561606d565b6148736101a083018461606d565b600088825260018060a01b0388166020830152861515604083015285606083015260e060808301526168d860e0830186616075565b82810360a08401526168ea8186616022565b91505061ffff831660c083015298975050505050505050565b61ffff91909116815260200190565b61ffff9290921682526001600160a01b0316602082015260400190565b600061ffff8616825260018060a01b038516602083015283604083015260806060830152614f2f6080830184616022565b61ffff9390931683526001600160a01b039190911660208301521515604082015260600190565b61ffff851681526001600160a01b03841660208201528215156040820152608060608201819052600090614f2f90830184616022565b61ffff9390931683526001600160a01b03919091166020830152604082015260600190565b61ffff9390931683526020830191909152604082015260600190565b61ffff93841681529183166020830152909116604082015260600190565b600061ffff8088168352808716602084015280861660408401525060a06060830152616a4b60a0830185615fdc565b90508260808301529695505050505050565b61ffff948516815292841660208401529083166040830152909116606082015260800190565b600061ffff80881683528087166020840152808616604084015280851660608401525060a06080830152616aba60a0830184615fdc565b979650505050505050565b61ffff938416815260ff929092166020830152909116604082015260600190565b61ffff948516815260ff93909316602084015292166040820152606081019190915260800190565b61ffff9a8b16815260ff998a166020820152978a1660408901529589166060880152938816608087015291871660a08601526001600160801b031660c0850152851660e084015290921661010082015291166101208201526101400190565b62ffffff91909116815260200190565b62ffffff8c811682528b1660208201526001600160a01b038a8116604083015289811660608301528881166080830152871660a082015260c0810186905260e0810185905261010081018490526101606101208201819052600090616be483820186616022565b9050828103610140840152616bf98185616022565b9e9d5050505050505050505050505050565b90815260200190565b968752602087019590955292151560408601526001600160801b03919091166060850152608084015260a083015260c082015260e00190565b9384526020840192909252604083015263ffffffff16606082015260800190565b60405181810167ffffffffffffffff81118282101715616c8a57fe5b604052919050565b600067ffffffffffffffff821115616ca657fe5b5060209081020190565b6001600160a01b0381168114612e6c57600080fd5b8015158114612e6c57600080fd5b6001600160801b0381168114612e6c57600080fd5b61ffff81168114612e6c57600080fd5b63ffffffff81168114612e6c57600080fd5b60ff81168114612e6c57600080fdfe2d2d2d2d2d2d2d2d2d2d2d2d2d2d2d2d2d2d2d7265706179416d6f756e7420203a2d2d2d2d2d2d2d2d2d2d2d2d2d2d2d2d2d2d2d6265666f72652073656c6c746f6b656e2062616e6c616e636520203a2d2d2d2d2d2d2d2d2d2d2d2d2d2d2d2d2d2d2d786f6c6520627579746f6b656e202062616e6c616e63652066696e616c203a2d2d2d2d2d2d2d2d2d2d2d2d2d2d2d2d2d2d2d2d2d2d2d2d2d2d2d2d2d2d2d2d2d2d2d2d746f74616c2073656c6c68656c64202066696e616c3a2d2d2d2d2d2d2d2d2d2d2d2d2d2d2d2d2d2d2d2d2d2d2d2d2d2d2d2d2d2d2d2d2d2d2d2d746f74616c2062757968656c642066696e616c203a2d2d2d2d2d2d2d2d2d2d2d2d2d2d2d2d2d2d2d6f70656e6c2073656c6c746f6b656e2062616e6c616e6365202066696e616c3a2d2d2d2d2d2d2d2d2d2d2d2d2d2d2d2d2d2d2d2d2d2d2d2d20706f6f6c31496e737572616e636520206d6964203a2d2d2d2d2d2d2d2d2d2d2d2d2d2d2d2d2d2d2d2d2d2d2d2d2072656d61696e416d6f756e7441667465724665657320206d6964203a2d2d2d2d2d2d2d2d2d2d2d2d2d2d2d2d2d2d2d2d2d2d2d2d20706f6f6c31496e737572616e6365202066726973743a2d2d2d2d2d2d2d2d2d2d2d2d2d2d2d2d2d2d2d626f72726f776564746f48656c64416d6f756e74203a6f6e6c792070656e64696e6741646d696e2063616e206163636570742061646d696e2d2d2d2d2d2d2d2d2d2d2d2d2d2d2d2d2d2d2d616674657220726570617920626f72726f7742616c616e636553746f726564203a2d2d2d2d2d2d2d2d2d2d2d2d2d2d2d2d2d2d2d6c697575696461746520627579746f6b656e2020616d6f756e74203a2d2d2d2d2d2d2d2d2d2d2d2d2d2d2d2d2d2d2d206c6971756964617465566172732e626f72726f77656420203a2d2d2d2d2d2d2d2d2d2d2d2d2d2d2d2d2d2d2d786f6c6520627579746f6b656e202062616e6c616e63652032203a2d2d2d2d2d2d2d2d2d2d2d2d2d2d2d2d2d2d2d2d2d2d2d2d20706f6f6c30496e737572616e636520206d6964203a2d2d2d2d2d2d2d2d2d2d2d2d2d2d2d2d2d2d2d2d2d2d2d2d2d2d2d2d2d2d2d2d2d2d2d2d746f74616c2073656c6c68656c64206d6964203a536166654d6174683a206d756c7469706c69636174696f6e206f766572666c6f772d2d2d2d2d2d2d2d2d2d2d2d2d2d2d2d2d2d2d2d2d2d2d2d2d2d2d2d2d2d2d2d2d2d2d2d746f74616c2073656c6c68656c64206672697374203a2d2d2d2d2d2d2d2d2d2d2d2d2d2d2d2d2d2d2d6f70656e6c20627579746f6b656e2062616e6c616e63652066696e616c20203a2d2d2d2d2d2d2d2d2d2d2d2d2d2d2d2d2d2d2d786f6c652073656c6c746f6b656e202062616e6c616e63652066696e616c203a2d2d2d2d2d2d2d2d2d2d2d2d2d2d2d2d2d2d2d6265666f726520627579746f6b656e2062616e6c616e636520203a2d2d2d2d2d2d2d2d2d2d2d2d2d2d2d2d2d2d2d786f6c652073656c6c746f6b656e202062616e6c616e6365206672697374203a2d2d2d2d2d2d2d2d2d2d2d2d2d2d2d2d2d2d2d786f6c652073656c6c746f6b656e202062616e6c616e63652032203a2d2d2d2d2d2d2d2d2d2d2d2d2d2d2d2d2d2d2d6465706f7369746564746f48656c64416d6f756e74203a2d2d2d2d2d2d2d2d2d2d2d2d2d2d2d2d2d2d2d2d2d2d2d2d20706f6f6c30496e737572616e636520206672697374203a2d2d2d2d2d2d2d2d2d2d2d2d2d2d2d2d2d2d2d6265666f726520726570617920626f72726f7742616c616e636553746f726564203a2d2d2d2d2d2d2d2d2d2d2d2d2d2d2d2d2d2d2d786f6c6520627579746f6b656e202062616e6c616e6365206672697374203aa2646970667358221220455e417fea9a3806d751e094091c5d58593a0d58fccb4c8eecd92714a397350e64736f6c63430007060033",
  "linkReferences": {
    "contracts/udex/OpenLevV1Lib.sol": {
      "OpenLevV1Lib": [
        {
          "length": 20,
          "start": 1994
        },
        {
          "length": 20,
          "start": 2519
        },
        {
          "length": 20,
          "start": 3185
        },
        {
          "length": 20,
          "start": 3326
        },
        {
          "length": 20,
          "start": 3657
        },
        {
          "length": 20,
          "start": 4536
        },
        {
          "length": 20,
          "start": 4660
        },
        {
          "length": 20,
          "start": 4841
        },
        {
          "length": 20,
          "start": 4977
        },
        {
          "length": 20,
          "start": 5165
        },
        {
          "length": 20,
          "start": 6628
        },
        {
          "length": 20,
          "start": 14076
        },
        {
          "length": 20,
          "start": 16840
        },
        {
          "length": 20,
          "start": 17227
        },
        {
          "length": 20,
          "start": 18128
        },
        {
          "length": 20,
          "start": 18469
        },
        {
          "length": 20,
          "start": 18655
        },
        {
          "length": 20,
          "start": 20183
        },
        {
          "length": 20,
          "start": 20614
        },
        {
          "length": 20,
          "start": 20919
        }
      ]
    }
  },
  "deployedLinkReferences": {
    "contracts/udex/OpenLevV1Lib.sol": {
      "OpenLevV1Lib": [
        {
          "length": 20,
          "start": 1938
        },
        {
          "length": 20,
          "start": 2463
        },
        {
          "length": 20,
          "start": 3129
        },
        {
          "length": 20,
          "start": 3270
        },
        {
          "length": 20,
          "start": 3601
        },
        {
          "length": 20,
          "start": 4480
        },
        {
          "length": 20,
          "start": 4604
        },
        {
          "length": 20,
          "start": 4785
        },
        {
          "length": 20,
          "start": 4921
        },
        {
          "length": 20,
          "start": 5109
        },
        {
          "length": 20,
          "start": 6572
        },
        {
          "length": 20,
          "start": 14020
        },
        {
          "length": 20,
          "start": 16784
        },
        {
          "length": 20,
          "start": 17171
        },
        {
          "length": 20,
          "start": 18072
        },
        {
          "length": 20,
          "start": 18413
        },
        {
          "length": 20,
          "start": 18599
        },
        {
          "length": 20,
          "start": 20127
        },
        {
          "length": 20,
          "start": 20558
        },
        {
          "length": 20,
          "start": 20863
        }
      ]
    }
  }
}