{
  "_format": "hh-sol-artifact-1",
  "contractName": "QueryHelper",
  "sourceName": "contracts/udex/periphery/QueryHelper.sol",
  "abi": [
    {
      "inputs": [],
      "stateMutability": "nonpayable",
      "type": "constructor"
    },
    {
      "inputs": [
        {
          "internalType": "contract IOpenLev",
          "name": "openLev",
          "type": "address"
        },
        {
          "internalType": "uint16",
          "name": "marketId",
          "type": "uint16"
        },
        {
          "internalType": "address",
          "name": "desToken",
          "type": "address"
        },
        {
          "internalType": "address",
          "name": "quoteToken",
          "type": "address"
        },
        {
          "internalType": "uint32",
          "name": "secondsAgo",
          "type": "uint32"
        },
        {
          "internalType": "bytes",
          "name": "dexData",
          "type": "bytes"
        }
      ],
      "name": "calPriceCAvgPriceHAvgPrice",
      "outputs": [
        {
          "internalType": "uint256",
          "name": "price",
          "type": "uint256"
        },
        {
          "internalType": "uint256",
          "name": "cAvgPrice",
          "type": "uint256"
        },
        {
          "internalType": "uint256",
          "name": "hAvgPrice",
          "type": "uint256"
        },
        {
          "internalType": "uint8",
          "name": "decimals",
          "type": "uint8"
        },
        {
          "internalType": "uint256",
          "name": "timestamp",
          "type": "uint256"
        }
      ],
      "stateMutability": "nonpayable",
      "type": "function"
    },
    {
      "inputs": [
        {
          "internalType": "contract IOpenLev",
          "name": "openLev",
          "type": "address"
        },
        {
          "internalType": "contract IV3Quoter",
          "name": "v3Quoter",
          "type": "address"
        },
        {
          "internalType": "uint16",
          "name": "marketId",
          "type": "uint16"
        },
        {
          "internalType": "uint16",
          "name": "slippage",
          "type": "uint16"
        },
        {
          "internalType": "address",
          "name": "trader",
          "type": "address"
        },
        {
          "internalType": "bool",
          "name": "longToken",
          "type": "bool"
        },
        {
          "internalType": "bytes",
          "name": "dexData",
          "type": "bytes"
        }
      ],
      "name": "getLiqCallData",
      "outputs": [
        {
          "internalType": "uint256",
          "name": "minBuy",
          "type": "uint256"
        },
        {
          "internalType": "uint256",
          "name": "maxSell",
          "type": "uint256"
        }
      ],
      "stateMutability": "nonpayable",
      "type": "function"
    },
    {
      "inputs": [
        {
          "internalType": "contract IOpenLev",
          "name": "openLev",
          "type": "address"
        },
        {
          "internalType": "address[]",
          "name": "tokens",
          "type": "address[]"
        }
      ],
      "name": "getOpenLevBalances",
      "outputs": [
        {
          "components": [
            {
              "internalType": "uint256",
              "name": "balance",
              "type": "uint256"
            },
            {
              "internalType": "uint256",
              "name": "totalHelds",
              "type": "uint256"
            }
          ],
          "internalType": "struct QueryHelper.Balance[]",
          "name": "results",
          "type": "tuple[]"
        }
      ],
      "stateMutability": "view",
      "type": "function"
    },
    {
      "inputs": [
        {
          "internalType": "contract IOpenLev",
          "name": "openLev",
          "type": "address"
        },
        {
          "internalType": "uint16[]",
          "name": "marketIds",
          "type": "uint16[]"
        },
        {
          "internalType": "contract LPoolInterface[]",
          "name": "pools",
          "type": "address[]"
        }
      ],
      "name": "getPoolDetails",
      "outputs": [
        {
          "components": [
            {
              "internalType": "uint256",
              "name": "totalBorrows",
              "type": "uint256"
            },
            {
              "internalType": "uint256",
              "name": "cash",
              "type": "uint256"
            },
            {
              "internalType": "uint256",
              "name": "totalReserves",
              "type": "uint256"
            },
            {
              "internalType": "uint256",
              "name": "availableForBorrow",
              "type": "uint256"
            },
            {
              "internalType": "uint256",
              "name": "insurance",
              "type": "uint256"
            },
            {
              "internalType": "uint256",
              "name": "supplyRatePerBlock",
              "type": "uint256"
            },
            {
              "internalType": "uint256",
              "name": "borrowRatePerBlock",
              "type": "uint256"
            },
            {
              "internalType": "uint256",
              "name": "reserveFactorMantissa",
              "type": "uint256"
            },
            {
              "internalType": "uint256",
              "name": "exchangeRate",
              "type": "uint256"
            },
            {
              "internalType": "uint256",
              "name": "baseRatePerBlock",
              "type": "uint256"
            },
            {
              "internalType": "uint256",
              "name": "multiplierPerBlock",
              "type": "uint256"
            },
            {
              "internalType": "uint256",
              "name": "jumpMultiplierPerBlock",
              "type": "uint256"
            },
            {
              "internalType": "uint256",
              "name": "kink",
              "type": "uint256"
            }
          ],
          "internalType": "struct QueryHelper.PoolVars[]",
          "name": "results",
          "type": "tuple[]"
        }
      ],
      "stateMutability": "view",
      "type": "function"
    },
    {
      "inputs": [
        {
          "internalType": "contract IOpenLev",
          "name": "openLev",
          "type": "address"
        },
        {
          "internalType": "uint16",
          "name": "marketId",
          "type": "uint16"
        },
        {
          "internalType": "address[]",
          "name": "traders",
          "type": "address[]"
        },
        {
          "internalType": "bool[]",
          "name": "longTokens",
          "type": "bool[]"
        },
        {
          "internalType": "bytes",
          "name": "dexData",
          "type": "bytes"
        }
      ],
      "name": "getTraderLiqs",
      "outputs": [
        {
          "components": [
            {
              "internalType": "enum QueryHelper.LiqStatus",
              "name": "status",
              "type": "uint8"
            },
            {
              "internalType": "uint256",
              "name": "lastUpdateTime",
              "type": "uint256"
            },
            {
              "internalType": "uint256",
              "name": "currentMarginRatio",
              "type": "uint256"
            },
            {
              "internalType": "uint256",
              "name": "cAvgMarginRatio",
              "type": "uint256"
            },
            {
              "internalType": "uint256",
              "name": "hAvgMarginRatio",
              "type": "uint256"
            },
            {
              "internalType": "uint32",
              "name": "marginLimit",
              "type": "uint32"
            }
          ],
          "internalType": "struct QueryHelper.LiqVars[]",
          "name": "results",
          "type": "tuple[]"
        }
      ],
      "stateMutability": "nonpayable",
      "type": "function"
    },
    {
      "inputs": [
        {
          "internalType": "contract IOpenLev",
          "name": "openLev",
          "type": "address"
        },
        {
          "internalType": "uint16",
          "name": "marketId",
          "type": "uint16"
        },
        {
          "internalType": "address[]",
          "name": "traders",
          "type": "address[]"
        },
        {
          "internalType": "bool[]",
          "name": "longTokens",
          "type": "bool[]"
        },
        {
          "internalType": "bytes",
          "name": "dexData",
          "type": "bytes"
        }
      ],
      "name": "getTraderPositons",
      "outputs": [
        {
          "components": [
            {
              "internalType": "uint256",
              "name": "deposited",
              "type": "uint256"
            },
            {
              "internalType": "uint256",
              "name": "held",
              "type": "uint256"
            },
            {
              "internalType": "uint256",
              "name": "borrowed",
              "type": "uint256"
            },
            {
              "internalType": "uint256",
              "name": "marginRatio",
              "type": "uint256"
            },
            {
              "internalType": "uint32",
              "name": "marginLimit",
              "type": "uint32"
            }
          ],
          "internalType": "struct QueryHelper.PositionVars[]",
          "name": "results",
          "type": "tuple[]"
        }
      ],
      "stateMutability": "view",
      "type": "function"
    },
    {
      "inputs": [
        {
          "internalType": "contract IXOLE",
          "name": "xole",
          "type": "address"
        },
        {
          "internalType": "contract IERC20",
          "name": "balanceOfToken",
          "type": "address"
        }
      ],
      "name": "getXOLEDetail",
      "outputs": [
        {
          "components": [
            {
              "internalType": "uint256",
              "name": "totalStaked",
              "type": "uint256"
            },
            {
              "internalType": "uint256",
              "name": "totalShared",
              "type": "uint256"
            },
            {
              "internalType": "uint256",
              "name": "tranferedToAccount",
              "type": "uint256"
            },
            {
              "internalType": "uint256",
              "name": "devFund",
              "type": "uint256"
            },
            {
              "internalType": "uint256",
              "name": "balanceOf",
              "type": "uint256"
            }
          ],
          "internalType": "struct QueryHelper.XOLEVars",
          "name": "vars",
          "type": "tuple"
        }
      ],
      "stateMutability": "view",
      "type": "function"
    }
  ],
  "bytecode": "0x608060405234801561001057600080fd5b50613af2806100206000396000f3fe608060405234801561001057600080fd5b506004361061007d5760003560e01c8063633da70d1161005b578063633da70d146100eb5780638f146ede1461010f57806395fb8f2f1461012f578063975f048b1461014f5761007d565b806312068f25146100825780634983b884146100ab5780635f5e3f4d146100cb575b600080fd5b610095610090366004612e61565b610170565b6040516100a2919061379d565b60405180910390f35b6100be6100b9366004613020565b6108bf565b6040516100a29190613854565b6100de6100d9366004613104565b610d20565b6040516100a29190613925565b6100fe6100f9366004612f8a565b610fa3565b6040516100a2959493929190613a0a565b61012261011d366004612e0f565b6111b3565b6040516100a291906136d3565b61014261013d366004613020565b611391565b6040516100a29190613722565b61016261015d366004612ee0565b611d02565b6040516100a29291906139fc565b6060816001600160401b038111801561018857600080fd5b506040519080825280602002602001820160405280156101c257816020015b6101af612abb565b8152602001906001900390816101a75790505b50905060005b828110156108b55760008484838181106101de57fe5b90506020020160208101906101f39190612dd7565b90506000886001600160a01b031663284f430289898681811061021257fe5b905060200201602081019061022791906133cd565b6040518263ffffffff1660e01b8152600401610243919061395f565b6101406040518083038186803b15801561025c57600080fd5b505afa158015610270573d6000803e3d6000fd5b505050506040513d601f19601f820116820180604052508101906102949190613284565b905061029e612abb565b826001600160a01b031682600001516001600160a01b0316146102c6578161012001516102cd565b8161010001515b816080018181525050826001600160a01b0316633b1d21a26040518163ffffffff1660e01b815260040160206040518083038186803b15801561030f57600080fd5b505afa158015610323573d6000803e3d6000fd5b505050506040513d601f19601f82011682018060405250810190610347919061340c565b816020018181525050826001600160a01b03166373acee986040518163ffffffff1660e01b815260040160206040518083038186803b15801561038957600080fd5b505afa15801561039d573d6000803e3d6000fd5b505050506040513d601f19601f820116820180604052508101906103c1919061340c565b816000018181525050826001600160a01b0316638f840ddd6040518163ffffffff1660e01b815260040160206040518083038186803b15801561040357600080fd5b505afa158015610417573d6000803e3d6000fd5b505050506040513d601f19601f8201168201806040525081019061043b919061340c565b816040018181525050826001600160a01b031663fb0fc2b66040518163ffffffff1660e01b815260040160206040518083038186803b15801561047d57600080fd5b505afa158015610491573d6000803e3d6000fd5b505050506040513d601f19601f820116820180604052508101906104b5919061340c565b816060018181525050826001600160a01b031663ae9d70b06040518163ffffffff1660e01b815260040160206040518083038186803b1580156104f757600080fd5b505afa15801561050b573d6000803e3d6000fd5b505050506040513d601f19601f8201168201806040525081019061052f919061340c565b8160a0018181525050826001600160a01b031663f8f9da286040518163ffffffff1660e01b815260040160206040518083038186803b15801561057157600080fd5b505afa158015610585573d6000803e3d6000fd5b505050506040513d601f19601f820116820180604052508101906105a9919061340c565b8160c0018181525050826001600160a01b031663173b99046040518163ffffffff1660e01b815260040160206040518083038186803b1580156105eb57600080fd5b505afa1580156105ff573d6000803e3d6000fd5b505050506040513d601f19601f82011682018060405250810190610623919061340c565b8160e0018181525050826001600160a01b031663182df0f56040518163ffffffff1660e01b815260040160206040518083038186803b15801561066557600080fd5b505afa158015610679573d6000803e3d6000fd5b505050506040513d601f19601f8201168201806040525081019061069d919061340c565b81610100018181525050826001600160a01b031663f14039de6040518163ffffffff1660e01b815260040160206040518083038186803b1580156106e057600080fd5b505afa1580156106f4573d6000803e3d6000fd5b505050506040513d601f19601f82011682018060405250810190610718919061340c565b81610120018181525050826001600160a01b0316638726bb896040518163ffffffff1660e01b815260040160206040518083038186803b15801561075b57600080fd5b505afa15801561076f573d6000803e3d6000fd5b505050506040513d601f19601f82011682018060405250810190610793919061340c565b81610140018181525050826001600160a01b031663b9f9850a6040518163ffffffff1660e01b815260040160206040518083038186803b1580156107d657600080fd5b505afa1580156107ea573d6000803e3d6000fd5b505050506040513d601f19601f8201168201806040525081019061080e919061340c565b81610160018181525050826001600160a01b031663fd2da3396040518163ffffffff1660e01b815260040160206040518083038186803b15801561085157600080fd5b505afa158015610865573d6000803e3d6000fd5b505050506040513d601f19601f82011682018060405250810190610889919061340c565b6101808201528451819086908690811061089f57fe5b60209081029190910101525050506001016101c8565b5095945050505050565b6060856001600160401b03811180156108d757600080fd5b5060405190808252806020026020018201604052801561091157816020015b6108fe612b23565b8152602001906001900390816108f65790505b5090506000896001600160a01b031663284f43028a6040518263ffffffff1660e01b8152600401610942919061395f565b6101406040518083038186803b15801561095b57600080fd5b505afa15801561096f573d6000803e3d6000fd5b505050506040513d601f19601f820116820180604052508101906109939190613284565b905060005b87811015610d12576109a8612b23565b60008c6001600160a01b0316636c3fbc348c8c868181106109c557fe5b90506020020160208101906109da9190612dd7565b8e8c8c888181106109e757fe5b90506020020160208101906109fc9190612df3565b6040518463ffffffff1660e01b8152600401610a1a93929190613634565b60e06040518083038186803b158015610a3257600080fd5b505afa158015610a46573d6000803e3d6000fd5b505050506040513d601f19601f82011682018060405250810190610a6a9190613343565b9050806020015160001415610a985781858481518110610a8657fe5b60200260200101819052505050610d0a565b60208082015190830152805182526001600160a01b038d16634c42ba0b8c8c86818110610ac157fe5b9050602002016020810190610ad69190612dd7565b8e8c8c88818110610ae357fe5b9050602002016020810190610af89190612df3565b8b8b6040518663ffffffff1660e01b8152600401610b1a95949392919061365b565b60806040518083038186803b158015610b3257600080fd5b505afa158015610b46573d6000803e3d6000fd5b505050506040513d601f19601f82011682018060405250810190610b6a9190613424565b63ffffffff16608086015250506060830152888884818110610b8857fe5b9050602002016020810190610b9d9190612df3565b610c485783602001516001600160a01b03166318c257c88d8d8d87818110610bc157fe5b9050602002016020810190610bd69190612dd7565b6040518363ffffffff1660e01b8152600401610bf392919061396e565b60206040518083038186803b158015610c0b57600080fd5b505afa158015610c1f573d6000803e3d6000fd5b505050506040513d601f19601f82011682018060405250810190610c43919061340c565b610ce7565b83516001600160a01b03166318c257c88d8d8d87818110610c6557fe5b9050602002016020810190610c7a9190612dd7565b6040518363ffffffff1660e01b8152600401610c9792919061396e565b60206040518083038186803b158015610caf57600080fd5b505afa158015610cc3573d6000803e3d6000fd5b505050506040513d601f19601f82011682018060405250810190610ce7919061340c565b604083015284518290869085908110610cfc57fe5b602002602001018190525050505b600101610998565b505098975050505050505050565b610d28612b58565b826001600160a01b031663568914126040518163ffffffff1660e01b815260040160206040518083038186803b158015610d6157600080fd5b505afa158015610d75573d6000803e3d6000fd5b505050506040513d601f19601f82011682018060405250810190610d99919061340c565b816000018181525050826001600160a01b031663aed29d076040518163ffffffff1660e01b815260040160206040518083038186803b158015610ddb57600080fd5b505afa158015610def573d6000803e3d6000fd5b505050506040513d601f19601f82011682018060405250810190610e13919061340c565b816020018181525050826001600160a01b0316638471eb446040518163ffffffff1660e01b815260040160206040518083038186803b158015610e5557600080fd5b505afa158015610e69573d6000803e3d6000fd5b505050506040513d601f19601f82011682018060405250810190610e8d919061340c565b816040018181525050826001600160a01b0316634390d2a86040518163ffffffff1660e01b815260040160206040518083038186803b158015610ecf57600080fd5b505afa158015610ee3573d6000803e3d6000fd5b505050506040513d601f19601f82011682018060405250810190610f07919061340c565b60608201526001600160a01b03821615610f9d576040516370a0823160e01b81526001600160a01b038316906370a0823190610f47908690600401613521565b60206040518083038186803b158015610f5f57600080fd5b505afa158015610f73573d6000803e3d6000fd5b505050506040513d601f19601f82011682018060405250810190610f97919061340c565b60808201525b92915050565b6000806000806000808b6001600160a01b031663c275fe546040518163ffffffff1660e01b815260040160806040518083038186803b158015610fe557600080fd5b505afa158015610ff9573d6000803e3d6000fd5b505050506040513d601f19601f8201168201806040525081019061101d919061313c565b80516040516352cd1b5760e11b81529192506001600160a01b03169063a59a36ae90611053908d908d908d908d906004016135fc565b60a06040518083038186803b15801561106b57600080fd5b505afa15801561107f573d6000803e3d6000fd5b505050506040513d601f19601f820116820180604052508101906110a39190613464565b9091929350909192509091509050809250508b6001600160a01b03166390e9097a8c896040518363ffffffff1660e01b81526004016110e39291906139d7565b600060405180830381600087803b1580156110fd57600080fd5b505af1158015611111573d6000803e3d6000fd5b505082516040516352cd1b5760e11b81526001600160a01b03909116925063a59a36ae915061114a908d908d908d908d906004016135fc565b60a06040518083038186803b15801561116257600080fd5b505afa158015611176573d6000803e3d6000fd5b505050506040513d601f19601f8201168201806040525081019061119a9190613464565b50929f919e509c50909a50919850909650505050505050565b6060816001600160401b03811180156111cb57600080fd5b5060405190808252806020026020018201604052801561120557816020015b6111f2612b87565b8152602001906001900390816111ea5790505b50905060005b8281101561138957600084848381811061122157fe5b90506020020160208101906112369190612dd7565b6001600160a01b03166370a08231876040518263ffffffff1660e01b81526004016112619190613521565b60206040518083038186803b15801561127957600080fd5b505afa15801561128d573d6000803e3d6000fd5b505050506040513d601f19601f820116820180604052508101906112b1919061340c565b90506000866001600160a01b031663ec36be828787868181106112d057fe5b90506020020160208101906112e59190612dd7565b6040518263ffffffff1660e01b81526004016113019190613521565b60206040518083038186803b15801561131957600080fd5b505afa15801561132d573d6000803e3d6000fd5b505050506040513d601f19601f82011682018060405250810190611351919061340c565b905060405180604001604052808381526020018281525084848151811061137457fe5b6020908102919091010152505060010161120b565b509392505050565b6060856001600160401b03811180156113a957600080fd5b506040519080825280602002602001820160405280156113e357816020015b6113d0612ba1565b8152602001906001900390816113c85790505b5090506113ee612bde565b6001600160a01b038a16815261ffff891660408083019190915280516020601f86018190048102820181019092528481529085908590819084018382808284376000920182905250610120860194909452505082516040808501519051631427a18160e11b81526001600160a01b03909216925063284f430291611475919060040161395f565b6101406040518083038186803b15801561148e57600080fd5b505afa1580156114a2573d6000803e3d6000fd5b505050506040513d601f19601f820116820180604052508101906114c69190613284565b9050600082600001516001600160a01b031663c275fe546040518163ffffffff1660e01b815260040160806040518083038186803b15801561150757600080fd5b505afa15801561151b573d6000803e3d6000fd5b505050506040513d601f19601f8201168201806040525081019061153f919061313c565b9050600083600001516001600160a01b031663159003a86040518163ffffffff1660e01b81526004016101406040518083038186803b15801561158157600080fd5b505afa158015611595573d6000803e3d6000fd5b505050506040513d601f19601f820116820180604052508101906115b991906131b9565b8251604080860151606087015161012080860151908a015193516352cd1b5760e11b81529596506001600160a01b039094169463a59a36ae94611600949091600401613535565b60a06040518083038186803b15801561161857600080fd5b505afa15801561162c573d6000803e3d6000fd5b505050506040513d601f19601f820116820180604052508101906116509190613464565b9091929350909192509091509050846101000181815250508c6001600160a01b03166390e9097a8d89896040518463ffffffff1660e01b8152600401611698939291906139b0565b600060405180830381600087803b1580156116b257600080fd5b505af11580156116c6573d6000803e3d6000fd5b5050505081600001516001600160a01b031663a59a36ae846040015185606001518461012001518861012001516040518563ffffffff1660e01b81526004016117129493929190613535565b60a06040518083038186803b15801561172a57600080fd5b505afa15801561173e573d6000803e3d6000fd5b505050506040513d601f19601f820116820180604052508101906117629190613464565b50505060a0860152608085015281516060840151604080860151610120808601519089015192516352cd1b5760e11b81526001600160a01b039095169463a59a36ae946117b59490939291600401613535565b60a06040518083038186803b1580156117cd57600080fd5b505afa1580156117e1573d6000803e3d6000fd5b505050506040513d601f19601f820116820180604052508101906118059190613464565b50505060e086015260c085015260005b8a811015611cf1578b8b8281811061182957fe5b905060200201602081019061183e9190612dd7565b6001600160a01b0316602086015289898281811061185857fe5b905060200201602081019061186d9190612df3565b1515606086015261187c612ba1565b8551602087015160408089015160608a01519151631b0fef0d60e21b81526000946001600160a01b031693636c3fbc34936118bb939192600401613634565b60e06040518083038186803b1580156118d357600080fd5b505afa1580156118e7573d6000803e3d6000fd5b505050506040513d601f19601f8201168201806040525081019061190b9190613343565b905080602001516000141561194057600482528751829089908590811061192e57fe5b60200260200101819052505050611ce9565b6101008701516020808401829052610120808701518a51928b01516040808d015160608e0151948e01519151634c42ba0b60e01b815261ffff909416420396909611956001600160a01b0390951694634c42ba0b946119a5949192909160040161369d565b60806040518083038186803b1580156119bd57600080fd5b505afa1580156119d1573d6000803e3d6000fd5b505050506040513d601f19601f820116820180604052508101906119f59190613424565b63ffffffff1660a087018190526080870191909152606086019190915260408501829052108015611a3357508260a0015163ffffffff168360600151115b8015611a4c57508260a0015163ffffffff168360800151115b15611a6a578260005b90816004811115611a6257fe5b905250611ccd565b8260a0015163ffffffff168360400151108015611a9457508260a0015163ffffffff168360600151115b8015611aad57508260a0015163ffffffff168360800151115b15611b2557611af18b8b8080601f01602080910402602001604051908101604052809392919081815260200183838082843760009201919091525061287292505050565b8015611afa5750805b15611b18578260015b90816004811115611b1057fe5b905250611b20565b826002611a55565b611ccd565b8260a0015163ffffffff168360400151108015611b4f57508260a0015163ffffffff168360600151105b15611ccd578080611b6d57508260a0015163ffffffff168360800151105b15611cc8578c8c85818110611b7e57fe5b9050602002016020810190611b939190612df3565b158015611ba7575087608001518860a00151115b8015611be3575084610100015160ff166064611bdf8a60800151611bd960648d60a0015161288c90919063ffffffff16565b906128ec565b0310155b80611c5857508c8c85818110611bf557fe5b9050602002016020810190611c0a9190612df3565b15156001148015611c2257508760c001518860e00151115b8015611c58575084610100015160ff166064611c548a60c00151611bd960648d60e0015161288c90919063ffffffff16565b0310155b15611cc057611c9c8b8b8080601f01602080910402602001604051908101604052809392919081815260200183838082843760009201919091525061287292505050565b8015611ca55750805b15611cb35760018352611cbb565b826002611b03565b611b20565b826003611a55565b600283525b82898581518110611cda57fe5b60200260200101819052505050505b600101611815565b505050505098975050505050505050565b6000806000896001600160a01b031663284f4302896040518263ffffffff1660e01b8152600401611d33919061395f565b6101406040518083038186803b158015611d4c57600080fd5b505afa158015611d60573d6000803e3d6000fd5b505050506040513d601f19601f82011682018060405250810190611d849190613284565b905060008a6001600160a01b0316636c3fbc34888b896040518463ffffffff1660e01b8152600401611db893929190613634565b60e06040518083038186803b158015611dd057600080fd5b505afa158015611de4573d6000803e3d6000fd5b505050506040513d601f19601f82011682018060405250810190611e089190613343565b9050611e12612c49565b8b6001600160a01b031663ec36be8288611e30578460400151611e36565b84606001515b6040518263ffffffff1660e01b8152600401611e529190613521565b60206040518083038186803b158015611e6a57600080fd5b505afa158015611e7e573d6000803e3d6000fd5b505050506040513d601f19601f82011682018060405250810190611ea2919061340c565b6101a082015286611eb7578260400151611ebd565b82606001515b6001600160a01b03166370a082318d6040518263ffffffff1660e01b8152600401611ee89190613521565b60206040518083038186803b158015611f0057600080fd5b505afa158015611f14573d6000803e3d6000fd5b505050506040513d601f19601f82011682018060405250810190611f38919061340c565b6101c082018190526101a08201516020840151611f5992611bd9919061288c565b602083015286611f6d578260600151611f73565b82604001515b6001600160a01b031661010082015286611f91578260400151611f97565b82606001515b6001600160a01b031661012082015260a08301516020830151611fc59161271091611bd99161ffff1661288c565b80825260208201526040805163309d7f9560e21b815290516000916001600160a01b038f169163c275fe5491600480820192608092909190829003018186803b15801561201157600080fd5b505afa158015612025573d6000803e3d6000fd5b505050506040513d601f19601f82011682018060405250810190612049919061313c565b905060008d6001600160a01b031663159003a86040518163ffffffff1660e01b81526004016101406040518083038186803b15801561208757600080fd5b505afa15801561209b573d6000803e3d6000fd5b505050506040513d601f19601f820116820180604052508101906120bf91906131b9565b90508060c001516001600160801b031682606001516001600160a01b03166370a082318c6040518263ffffffff1660e01b81526004016120ff9190613521565b60206040518083038186803b15801561211757600080fd5b505afa15801561212b573d6000803e3d6000fd5b505050506040513d601f19601f8201168201806040525081019061214f919061340c565b111561218a5761218461217c6064611bd98460a0015161ffff16876000015161288c90919063ffffffff16565b845190612953565b60208401525b896001600160a01b03168560e001516001600160a01b031614156121e0576121da6121cf6064611bd9846080015161ffff16876000015161288c90919063ffffffff16565b602085015190612953565b60208401525b612205612710611bd98360e0015161ffff16876020015161288c90919063ffffffff16565b604084018190526020808501519086015161222a926122249190612953565b90612953565b8360600181815250508d6001600160a01b031663cc070ab68d85610100015160006040518463ffffffff1660e01b81526004016122699392919061398b565b60206040518083038186803b15801561228157600080fd5b505afa158015612295573d6000803e3d6000fd5b505050506040513d601f19601f820116820180604052508101906122b991906133e9565b83610140019062ffffff16908162ffffff16815250508d6001600160a01b031663cc070ab68d85610100015160026040518463ffffffff1660e01b81526004016123059392919061398b565b60206040518083038186803b15801561231d57600080fd5b505afa158015612331573d6000803e3d6000fd5b505050506040513d601f19601f8201168201806040525081019061235591906133e9565b83610160019062ffffff16908162ffffff16815250508d6001600160a01b031663cc070ab68d85610120015160016040518463ffffffff1660e01b81526004016123a19392919061398b565b60206040518083038186803b1580156123b957600080fd5b505afa1580156123cd573d6000803e3d6000fd5b505050506040513d601f19601f820116820180604052508101906123f191906133e9565b62ffffff166101808401526125188961248b5785602001516001600160a01b03166318c257c88e8d6040518363ffffffff1660e01b815260040161243692919061396e565b60206040518083038186803b15801561244e57600080fd5b505afa158015612462573d6000803e3d6000fd5b505050506040513d601f19601f82011682018060405250810190612486919061340c565b61250d565b85600001516001600160a01b03166318c257c88e8d6040518363ffffffff1660e01b81526004016124bd92919061396e565b60206040518083038186803b1580156124d557600080fd5b505afa1580156124e9573d6000803e3d6000fd5b505050506040513d601f19601f8201168201806040525081019061250d919061340c565b8461014001516129b0565b608084015261252688612872565b6125cc578c6001600160a01b031663f7729d4384610120015185610100015161254e8c6129fa565b876060015160006040518663ffffffff1660e01b81526004016125759594939291906135c7565b602060405180830381600087803b15801561258f57600080fd5b505af11580156125a3573d6000803e3d6000fd5b505050506040513d601f19601f820116820180604052508101906125c7919061340c565b61266e565b81600001516001600160a01b0316634a6682bb84610100015185610120015186610160015187610180015188606001518e6040518763ffffffff1660e01b815260040161261e96959493929190613575565b60206040518083038186803b15801561263657600080fd5b505afa15801561264a573d6000803e3d6000fd5b505050506040513d601f19601f8201168201806040525081019061266e919061340c565b60a084018190526080840151111560e08401526040840151151589151514158061269a57508260e00151155b156126d5576126ce6126c36103e8611bd98e61ffff168760a0015161288c90919063ffffffff16565b60a085015190612953565b9650612861565b6126de88612872565b612784578c6001600160a01b03166330d07f218461012001518561010001516127068c6129fa565b876080015160006040518663ffffffff1660e01b815260040161272d9594939291906135c7565b602060405180830381600087803b15801561274757600080fd5b505af115801561275b573d6000803e3d6000fd5b505050506040513d601f19601f8201168201806040525081019061277f919061340c565b612826565b81600001516001600160a01b0316635962f61384610100015185610120015186610160015187610180015188608001518e6040518763ffffffff1660e01b81526004016127d696959493929190613575565b60206040518083038186803b1580156127ee57600080fd5b505afa158015612802573d6000803e3d6000fd5b505050506040513d601f19601f82011682018060405250810190612826919061340c565b8360c001818152505061285e6128536103e8611bd98e61ffff168760c0015161288c90919063ffffffff16565b60c085015190612a32565b95505b505050505097509795505050505050565b6000600261287f83612a8c565b60ff16141590505b919050565b60008261289b57506000610f9d565b828202828482816128a857fe5b04146128e55760405162461bcd60e51b8152600401808060200182810382526021815260200180613a9c6021913960400191505060405180910390fd5b9392505050565b6000808211612942576040805162461bcd60e51b815260206004820152601a60248201527f536166654d6174683a206469766973696f6e206279207a65726f000000000000604482015290519081900360640190fd5b81838161294b57fe5b049392505050565b6000828211156129aa576040805162461bcd60e51b815260206004820152601e60248201527f536166654d6174683a207375627472616374696f6e206f766572666c6f770000604482015290519081900360640190fd5b50900390565b6000806129c5620f424062ffffff8516612953565b905060006129e56001612224846129df89620f424061288c565b90612a32565b90508181816129f057fe5b0495945050505050565b6000600482511015612a275760405162461bcd60e51b8152600401612a1e906138f0565b60405180910390fd5b506021015160e81c90565b6000828201838110156128e5576040805162461bcd60e51b815260206004820152601b60248201527f536166654d6174683a206164646974696f6e206f766572666c6f770000000000604482015290519081900360640190fd5b6000600182511015612ab05760405162461bcd60e51b8152600401612a1e906138bb565b506020015160001a90565b604051806101a00160405280600081526020016000815260200160008152602001600081526020016000815260200160008152602001600081526020016000815260200160008152602001600081526020016000815260200160008152602001600081525090565b6040518060a0016040528060008152602001600081526020016000815260200160008152602001600063ffffffff1681525090565b6040518060a0016040528060008152602001600081526020016000815260200160008152602001600081525090565b604051806040016040528060008152602001600081525090565b6040805160c08101909152806000815260200160008152602001600081526020016000815260200160008152602001600063ffffffff1681525090565b60405180610140016040528060006001600160a01b0316815260200160006001600160a01b03168152602001600061ffff1681526020016000151581526020016000815260200160008152602001600081526020016000815260200160008152602001606081525090565b604051806101e001604052806000815260200160008152602001600081526020016000815260200160008152602001600081526020016000815260200160001515815260200160006001600160a01b0316815260200160006001600160a01b03168152602001600062ffffff168152602001600062ffffff168152602001600062ffffff16815260200160008152602001600081525090565b805161288781613a53565b60008083601f840112612cfe578081fd5b5081356001600160401b03811115612d14578182fd5b6020830191508360208083028501011115612d2e57600080fd5b9250929050565b805161288781613a6b565b600082601f830112612d50578081fd5b81356001600160401b03811115612d6357fe5b612d76601f8201601f1916602001613a30565b818152846020838601011115612d8a578283fd5b816020850160208301379081016020019190915292915050565b80516001600160801b038116811461288757600080fd5b805161288781613a79565b805160ff8116811461288757600080fd5b600060208284031215612de8578081fd5b81356128e581613a53565b600060208284031215612e04578081fd5b81356128e581613a6b565b600080600060408486031215612e23578182fd5b8335612e2e81613a53565b925060208401356001600160401b03811115612e48578283fd5b612e5486828701612ced565b9497909650939450505050565b600080600080600060608688031215612e78578283fd5b8535612e8381613a53565b945060208601356001600160401b0380821115612e9e578485fd5b612eaa89838a01612ced565b90965094506040880135915080821115612ec2578283fd5b50612ecf88828901612ced565b969995985093965092949392505050565b600080600080600080600060e0888a031215612efa578485fd5b8735612f0581613a53565b96506020880135612f1581613a53565b95506040880135612f2581613a79565b94506060880135612f3581613a79565b93506080880135612f4581613a53565b925060a0880135612f5581613a6b565b915060c08801356001600160401b03811115612f6f578182fd5b612f7b8a828b01612d40565b91505092959891949750929550565b60008060008060008060c08789031215612fa2578384fd5b8635612fad81613a53565b95506020870135612fbd81613a79565b94506040870135612fcd81613a53565b93506060870135612fdd81613a53565b92506080870135612fed81613a89565b915060a08701356001600160401b03811115613007578182fd5b61301389828a01612d40565b9150509295509295509295565b60008060008060008060008060a0898b03121561303b578182fd5b883561304681613a53565b9750602089013561305681613a79565b965060408901356001600160401b0380821115613071578384fd5b61307d8c838d01612ced565b909850965060608b0135915080821115613095578384fd5b6130a18c838d01612ced565b909650945060808b01359150808211156130b9578384fd5b818b0191508b601f8301126130cc578384fd5b8135818111156130da578485fd5b8c60208285010111156130eb578485fd5b6020830194508093505050509295985092959890939650565b60008060408385031215613116578182fd5b823561312181613a53565b9150602083013561313181613a53565b809150509250929050565b60006080828403121561314d578081fd5b604051608081018181106001600160401b038211171561316957fe5b604052825161317781613a53565b8152602083015161318781613a53565b6020820152604083015161319a81613a53565b604082015260608301516131ad81613a53565b60608201529392505050565b60006101408083850312156131cc578182fd5b6131d581613a30565b90506131e083612dbb565b81526131ee60208401612dc6565b60208201526131ff60408401612dbb565b604082015261321060608401612dbb565b606082015261322160808401612dbb565b608082015261323260a08401612dbb565b60a082015261324360c08401612da4565b60c082015261325460e08401612dbb565b60e0820152610100613267818501612dc6565b90820152610120613279848201612dbb565b908201529392505050565b6000610140808385031215613297578182fd5b6132a081613a30565b90506132ab83612ce2565b81526132b960208401612ce2565b60208201526132ca60408401612ce2565b60408201526132db60608401612ce2565b60608201526132ec60808401612dbb565b60808201526132fd60a08401612dbb565b60a082015261330e60c08401612dbb565b60c082015261331f60e08401612ce2565b60e08201526101008381015190820152610120928301519281019290925250919050565b600060e08284031215613354578081fd5b60405160e081018181106001600160401b038211171561337057fe5b8060405250825181526020830151602082015261338f60408401612d35565b60408201526133a060608401612da4565b60608201526080830151608082015260a083015160a082015260c083015160c08201528091505092915050565b6000602082840312156133de578081fd5b81356128e581613a79565b6000602082840312156133fa578081fd5b815162ffffff811681146128e5578182fd5b60006020828403121561341d578081fd5b5051919050565b60008060008060808587031215613439578182fd5b845193506020850151925060408501519150606085015161345981613a89565b939692955090935050565b600080600080600060a0868803121561347b578283fd5b85519450602086015193506040860151925061349960608701612dc6565b9150608086015190509295509295909350565b60008284528282602086013780602084860101526020601f19601f85011685010190509392505050565b60008151808452815b818110156134fb576020818501810151868301820152016134df565b8181111561350c5782602083870101525b50601f01601f19169290920160200192915050565b6001600160a01b0391909116815260200190565b6001600160a01b0385811682528416602082015261ffff8316604082015260806060820181905260009061356b908301846134d6565b9695505050505050565b6001600160a01b0387811682528616602082015262ffffff8581166040830152841660608201526080810183905260c060a082018190526000906135bb908301846134d6565b98975050505050505050565b6001600160a01b039586168152938516602085015262ffffff9290921660408401526060830152909116608082015260a00190565b6001600160a01b0385811682528416602082015263ffffffff8316604082015260806060820181905260009061356b908301846134d6565b6001600160a01b0393909316835261ffff9190911660208301521515604082015260600190565b6001600160a01b038616815261ffff85166020820152831515604082015260806060820181905260009061369290830184866134ac565b979650505050505050565b6001600160a01b038516815261ffff84166020820152821515604082015260806060820181905260009061356b908301846134d6565b602080825282518282018190526000919060409081850190868401855b82811015613715578151805185528601518685015292840192908501906001016136f0565b5091979650505050505050565b602080825282518282018190526000919060409081850190868401855b8281101561371557815180516005811061375557fe5b855280870151878601528581015186860152606080820151908601526080808201519086015260a09081015163ffffffff169085015260c0909301929085019060010161373f565b602080825282518282018190526000919060409081850190868401855b828110156137155781518051855286810151878601528581015186860152606080820151908601526080808201519086015260a0808201519086015260c0808201519086015260e08082015190860152610100808201519086015261012080820151908601526101408082015190860152610160808201519086015261018090810151908501526101a090930192908501906001016137ba565b602080825282518282018190526000919060409081850190868401855b8281101561371557815180518552868101518786015285810151868601526060808201519086015260809081015163ffffffff169085015260a09093019290850190600101613871565b6020808252818101527f446578446174613a20746f4465782077726f6e67206461746120666f726d6174604082015260600190565b6020808252818101527f446578446174613a20746f4665652077726f6e67206461746120666f726d6174604082015260600190565b600060a082019050825182526020830151602083015260408301516040830152606083015160608301526080830151608083015292915050565b61ffff91909116815260200190565b61ffff9290921682526001600160a01b0316602082015260400190565b61ffff9390931683526001600160a01b03919091166020830152604082015260600190565b600061ffff85168252604060208301526139ce6040830184866134ac565b95945050505050565b600061ffff84168252604060208301526139f460408301846134d6565b949350505050565b918252602082015260400190565b9485526020850193909352604084019190915260ff166060830152608082015260a00190565b6040518181016001600160401b0381118282101715613a4b57fe5b604052919050565b6001600160a01b0381168114613a6857600080fd5b50565b8015158114613a6857600080fd5b61ffff81168114613a6857600080fd5b63ffffffff81168114613a6857600080fdfe536166654d6174683a206d756c7469706c69636174696f6e206f766572666c6f77a2646970667358221220dda24555e4ffcfa9b2aac4328cc13417ad7c5211cedbd7fcfff71920dc2a2fdb64736f6c63430007060033",
  "linkReferences": {},
  "deployedLinkReferences": {}
}