{
  "_format": "hh-sol-artifact-1",
  "contractName": "Airdrop",
  "sourceName": "contracts/udex/Airdrop.sol",
  "abi": [
    {
      "inputs": [
        {
          "internalType": "contract IERC20",
          "name": "_token",
          "type": "address"
        }
      ],
      "stateMutability": "nonpayable",
      "type": "constructor"
    },
    {
      "anonymous": false,
      "inputs": [
        {
          "indexed": false,
          "internalType": "uint256",
          "name": "tranchId",
          "type": "uint256"
        },
        {
          "indexed": false,
          "internalType": "address",
          "name": "account",
          "type": "address"
        },
        {
          "indexed": false,
          "internalType": "uint256",
          "name": "balance",
          "type": "uint256"
        }
      ],
      "name": "Claimed",
      "type": "event"
    },
    {
      "anonymous": false,
      "inputs": [
        {
          "indexed": false,
          "internalType": "address",
          "name": "oldAdmin",
          "type": "address"
        },
        {
          "indexed": false,
          "internalType": "address",
          "name": "newAdmin",
          "type": "address"
        }
      ],
      "name": "NewAdmin",
      "type": "event"
    },
    {
      "anonymous": false,
      "inputs": [
        {
          "indexed": false,
          "internalType": "address",
          "name": "oldPendingAdmin",
          "type": "address"
        },
        {
          "indexed": false,
          "internalType": "address",
          "name": "newPendingAdmin",
          "type": "address"
        }
      ],
      "name": "NewPendingAdmin",
      "type": "event"
    },
    {
      "anonymous": false,
      "inputs": [
        {
          "indexed": false,
          "internalType": "uint256",
          "name": "tranchId",
          "type": "uint256"
        },
        {
          "indexed": false,
          "internalType": "bytes32",
          "name": "merkleRoot",
          "type": "bytes32"
        },
        {
          "indexed": false,
          "internalType": "uint64",
          "name": "startTime",
          "type": "uint64"
        },
        {
          "indexed": false,
          "internalType": "uint64",
          "name": "endTime",
          "type": "uint64"
        },
        {
          "indexed": false,
          "internalType": "uint256",
          "name": "totalAmount",
          "type": "uint256"
        }
      ],
      "name": "TrancheAdded",
      "type": "event"
    },
    {
      "anonymous": false,
      "inputs": [
        {
          "indexed": false,
          "internalType": "uint256",
          "name": "tranchId",
          "type": "uint256"
        },
        {
          "indexed": false,
          "internalType": "uint256",
          "name": "expireAmount",
          "type": "uint256"
        }
      ],
      "name": "TrancheExpired",
      "type": "event"
    },
    {
      "inputs": [],
      "name": "acceptAdmin",
      "outputs": [],
      "stateMutability": "nonpayable",
      "type": "function"
    },
    {
      "inputs": [],
      "name": "admin",
      "outputs": [
        {
          "internalType": "address payable",
          "name": "",
          "type": "address"
        }
      ],
      "stateMutability": "view",
      "type": "function"
    },
    {
      "inputs": [
        {
          "internalType": "address",
          "name": "account",
          "type": "address"
        },
        {
          "internalType": "uint256",
          "name": "_trancheId",
          "type": "uint256"
        },
        {
          "internalType": "uint256",
          "name": "_balance",
          "type": "uint256"
        },
        {
          "internalType": "bytes32[]",
          "name": "_merkleProof",
          "type": "bytes32[]"
        }
      ],
      "name": "claim",
      "outputs": [],
      "stateMutability": "nonpayable",
      "type": "function"
    },
    {
      "inputs": [
        {
          "internalType": "uint256",
          "name": "",
          "type": "uint256"
        },
        {
          "internalType": "address",
          "name": "",
          "type": "address"
        }
      ],
      "name": "claimed",
      "outputs": [
        {
          "internalType": "bool",
          "name": "",
          "type": "bool"
        }
      ],
      "stateMutability": "view",
      "type": "function"
    },
    {
      "inputs": [
        {
          "internalType": "address",
          "name": "account",
          "type": "address"
        },
        {
          "internalType": "uint256[]",
          "name": "_trancheIds",
          "type": "uint256[]"
        },
        {
          "internalType": "uint256[]",
          "name": "_balances",
          "type": "uint256[]"
        },
        {
          "internalType": "bytes32[][]",
          "name": "_merkleProofs",
          "type": "bytes32[][]"
        }
      ],
      "name": "claims",
      "outputs": [],
      "stateMutability": "nonpayable",
      "type": "function"
    },
    {
      "inputs": [],
      "name": "developer",
      "outputs": [
        {
          "internalType": "address payable",
          "name": "",
          "type": "address"
        }
      ],
      "stateMutability": "view",
      "type": "function"
    },
    {
      "inputs": [
        {
          "internalType": "uint256",
          "name": "_trancheId",
          "type": "uint256"
        }
      ],
      "name": "expireTranche",
      "outputs": [],
      "stateMutability": "nonpayable",
      "type": "function"
    },
    {
      "inputs": [
        {
          "internalType": "bytes32",
          "name": "merkleRoot",
          "type": "bytes32"
        },
        {
          "internalType": "uint64",
          "name": "startTime",
          "type": "uint64"
        },
        {
          "internalType": "uint64",
          "name": "endTime",
          "type": "uint64"
        },
        {
          "internalType": "uint256",
          "name": "totalAmount",
          "type": "uint256"
        }
      ],
      "name": "newTranche",
      "outputs": [],
      "stateMutability": "nonpayable",
      "type": "function"
    },
    {
      "inputs": [],
      "name": "pendingAdmin",
      "outputs": [
        {
          "internalType": "address payable",
          "name": "",
          "type": "address"
        }
      ],
      "stateMutability": "view",
      "type": "function"
    },
    {
      "inputs": [
        {
          "internalType": "address payable",
          "name": "newPendingAdmin",
          "type": "address"
        }
      ],
      "name": "setPendingAdmin",
      "outputs": [],
      "stateMutability": "nonpayable",
      "type": "function"
    },
    {
      "inputs": [],
      "name": "token",
      "outputs": [
        {
          "internalType": "contract IERC20",
          "name": "",
          "type": "address"
        }
      ],
      "stateMutability": "view",
      "type": "function"
    },
    {
      "inputs": [],
      "name": "trancheIdx",
      "outputs": [
        {
          "internalType": "uint256",
          "name": "",
          "type": "uint256"
        }
      ],
      "stateMutability": "view",
      "type": "function"
    },
    {
      "inputs": [
        {
          "internalType": "uint256",
          "name": "",
          "type": "uint256"
        }
      ],
      "name": "tranches",
      "outputs": [
        {
          "internalType": "bytes32",
          "name": "merkleRoot",
          "type": "bytes32"
        },
        {
          "internalType": "uint64",
          "name": "startTime",
          "type": "uint64"
        },
        {
          "internalType": "uint64",
          "name": "endTime",
          "type": "uint64"
        },
        {
          "internalType": "uint256",
          "name": "totalAmount",
          "type": "uint256"
        },
        {
          "internalType": "uint256",
          "name": "claimedAmount",
          "type": "uint256"
        }
      ],
      "stateMutability": "view",
      "type": "function"
    },
    {
      "inputs": [
        {
          "internalType": "address",
          "name": "account",
          "type": "address"
        },
        {
          "internalType": "uint256",
          "name": "_trancheId",
          "type": "uint256"
        },
        {
          "internalType": "uint256",
          "name": "_balance",
          "type": "uint256"
        },
        {
          "internalType": "bytes32[]",
          "name": "_merkleProof",
          "type": "bytes32[]"
        }
      ],
      "name": "verifyClaim",
      "outputs": [
        {
          "internalType": "bool",
          "name": "valid",
          "type": "bool"
        }
      ],
      "stateMutability": "view",
      "type": "function"
    }
  ],
  "bytecode": "0x608060405234801561001057600080fd5b5060405161153138038061153183398101604081905261002f9161006f565b60028054336001600160a01b03199182168117909255600080548216909217909155600380549091166001600160a01b039290921691909117905561009d565b600060208284031215610080578081fd5b81516001600160a01b0381168114610096578182fd5b9392505050565b611485806100ac6000396000f3fe608060405234801561001057600080fd5b50600436106100ea5760003560e01c80638c593fbf1161008c578063d5efd20a11610066578063d5efd20a146101c4578063eb0d07f5146101d7578063f851a440146101ea578063fc0c546a146101f2576100ea565b80638c593fbf14610196578063ca4b208b146101a9578063d5735122146101b1576100ea565b8063172bd6de116100c8578063172bd6de14610137578063267822471461014a57806326c259621461015f5780634dd18bf514610183576100ea565b80630876bc80146100ef5780630e18b6811461010d578063120aa87714610117575b600080fd5b6100f76101fa565b604051610104919061131d565b60405180910390f35b610115610200565b005b61012a610125366004611106565b610300565b604051610104919061116b565b610115610145366004611044565b610320565b610152610370565b6040516101049190611157565b61017261016d3660046110ee565b61037f565b604051610104959493929190611176565b610115610191366004610f80565b6103ba565b6101156101a43660046110ab565b610425565b610152610557565b6101156101bf366004610f9c565b610566565b6101156101d23660046110ee565b610661565b61012a6101e5366004611044565b61079a565b6101526107f1565b610152610800565b60065481565b6001546001600160a01b031633146102495760405162461bcd60e51b81526004018080602001828103825260228152602001806113de6022913960400191505060405180910390fd5b60008054600180546001600160a01b038082166001600160a01b031980861682179687905590921690925560408051938316808552949092166020840152815190927ff9ffabca9c8276e99321725bcb43fb076a6c66a54b7f21c4e8146d8519b417dc92908290030190a1600154604080516001600160a01b038085168252909216602083015280517fca4f2f25d0898edd99413412fb94012f9e54ec8142f9b093e7720646a95b16a99281900390910190a15050565b600560209081526000928352604080842090915290825290205460ff1681565b61035f85858585858080602002602001604051908101604052809392919081815260200183836020028082843760009201919091525061080f92505050565b61036985846109c3565b5050505050565b6001546001600160a01b031681565b600460205260009081526040902080546001820154600283015460039093015491926001600160401b0380831693600160401b909304169185565b6103c2610a01565b600180546001600160a01b038381166001600160a01b0319831681179093556040805191909216808252602082019390935281517fca4f2f25d0898edd99413412fb94012f9e54ec8142f9b093e7720646a95b16a9929181900390910190a15050565b61042d610a01565b42826001600160401b03161161045e5760405162461bcd60e51b8152600401610455906112f2565b60405180910390fd5b600680546040805160a0810182528781526001600160401b038088166020808401918252888316848601908152606085018981526000608087018181528982526004909452969096209451855591516001808601805494518616600160401b026fffffffffffffffff0000000000000000199390961667ffffffffffffffff199095169490941791909116939093179091559251600283015591516003909101559154909161050d9190610a59565b6006556040517f968bad38b8df86ae3cada01f760301ebb2788931075ddfc0402d619fca5ff58a906105489083908890889088908890611345565b60405180910390a15050505050565b6002546001600160a01b031681565b84838114801561057557508082145b6105915760405162461bcd60e51b8152600401610455906112c6565b6000805b8281101561064b5761061c8a8a8a848181106105ad57fe5b905060200201358989858181106105c057fe5b905060200201358888868181106105d357fe5b90506020028101906105e5919061137f565b8080602002602001604051908101604052809392919081815260200183836020028082843760009201919091525061080f92505050565b61064187878381811061062b57fe5b9050602002013583610a5990919063ffffffff16565b9150600101610595565b5061065689826109c3565b505050505050505050565b610669610a01565b600081815260046020908152604091829020825160a0810184528154815260018201546001600160401b0380821694830194909452600160401b9004909216928201839052600281015460608301526003015460808201529042116106e05760405162461bcd60e51b815260040161045590611255565b60006106fd82608001518360600151610aba90919063ffffffff16565b9050801561072257600054600354610722916001600160a01b03918216911683610b17565b6000838152600460205260408082208281556001810180546fffffffffffffffffffffffffffffffff191690556002810183905560030191909155517f060e2b3a5cc13dc722cd8480a81cfc19f590da5d72b6918a7fee89f5e4ae35b59061078d9085908490611371565b60405180910390a1505050565b600084815260046020908152604080832054815185840281810185019093528581526107e7938a9389929189918991829190850190849080828437600092019190915250610b6e92505050565b9695505050505050565b6000546001600160a01b031681565b6003546001600160a01b031681565b60065483106108305760405162461bcd60e51b815260040161045590611276565b600083815260046020526040902060010154426001600160401b039091161061086b5760405162461bcd60e51b8152600401610455906112a3565b60008381526004602052604090206001015442600160401b9091046001600160401b0316116108ac5760405162461bcd60e51b8152600401610455906111d5565b60008381526005602090815260408083206001600160a01b038816845290915290205460ff16156108ef5760405162461bcd60e51b8152600401610455906111f5565b60008381526004602052604090205461090b9085908484610b6e565b6109275760405162461bcd60e51b8152600401610455906111a5565b60008381526005602090815260408083206001600160a01b03881684528252808320805460ff19166001179055858352600490915290206003015461096c9083610a59565b6000848152600460205260409081902060030191909155517f4ec90e965519d92681267467f775ada5bd214aa92c0dc93d90a5e880ce9ed026906109b590859087908690611326565b60405180910390a150505050565b80156109e5576003546109e0906001600160a01b03168383610b17565b6109fd565b60405162461bcd60e51b81526004016104559061121e565b5050565b6000546001600160a01b03163314610a57576040805162461bcd60e51b815260206004820152601460248201527331b0b63632b91036bab9ba1031329030b236b4b760611b604482015290519081900360640190fd5b565b600082820183811015610ab3576040805162461bcd60e51b815260206004820152601b60248201527f536166654d6174683a206164646974696f6e206f766572666c6f770000000000604482015290519081900360640190fd5b9392505050565b600082821115610b11576040805162461bcd60e51b815260206004820152601e60248201527f536166654d6174683a207375627472616374696f6e206f766572666c6f770000604482015290519081900360640190fd5b50900390565b604080516001600160a01b038416602482015260448082018490528251808303909101815260649091019091526020810180516001600160e01b031663a9059cbb60e01b179052610b69908490610ba7565b505050565b6000808584604051602001610b84929190611135565b6040516020818303038152906040528051906020012090506107e7838683610c58565b6000610bfc826040518060400160405280602081526020017f5361666545524332303a206c6f772d6c6576656c2063616c6c206661696c6564815250856001600160a01b0316610d019092919063ffffffff16565b805190915015610b6957808060200190516020811015610c1b57600080fd5b5051610b695760405162461bcd60e51b815260040180806020018281038252602a815260200180611426602a913960400191505060405180910390fd5b600081815b8551811015610cf6576000868281518110610c7457fe5b60200260200101519050808311610cbb5782816040516020018083815260200182815260200192505050604051602081830303815290604052805190602001209250610ced565b808360405160200180838152602001828152602001925050506040516020818303038152906040528051906020012092505b50600101610c5d565b509092149392505050565b6060610d108484600085610d18565b949350505050565b606082471015610d595760405162461bcd60e51b81526004018080602001828103825260268152602001806114006026913960400191505060405180910390fd5b610d6285610e73565b610db3576040805162461bcd60e51b815260206004820152601d60248201527f416464726573733a2063616c6c20746f206e6f6e2d636f6e7472616374000000604482015290519081900360640190fd5b600080866001600160a01b031685876040518082805190602001908083835b60208310610df15780518252601f199092019160209182019101610dd2565b6001836020036101000a03801982511681845116808217855250505050505090500191505060006040518083038185875af1925050503d8060008114610e53576040519150601f19603f3d011682016040523d82523d6000602084013e610e58565b606091505b5091509150610e68828286610e7d565b979650505050505050565b803b15155b919050565b60608315610e8c575081610ab3565b825115610e9c5782518084602001fd5b8160405162461bcd60e51b81526004018080602001828103825283818151815260200191508051906020019080838360005b83811015610ee6578181015183820152602001610ece565b50505050905090810190601f168015610f135780820380516001836020036101000a031916815260200191505b509250505060405180910390fd5b60008083601f840112610f32578182fd5b5081356001600160401b03811115610f48578182fd5b6020830191508360208083028501011115610f6257600080fd5b9250929050565b80356001600160401b0381168114610e7857600080fd5b600060208284031215610f91578081fd5b8135610ab3816113c5565b60008060008060008060006080888a031215610fb6578283fd5b8735610fc1816113c5565b965060208801356001600160401b0380821115610fdc578485fd5b610fe88b838c01610f21565b909850965060408a0135915080821115611000578485fd5b61100c8b838c01610f21565b909650945060608a0135915080821115611024578384fd5b506110318a828b01610f21565b989b979a50959850939692959293505050565b60008060008060006080868803121561105b578081fd5b8535611066816113c5565b9450602086013593506040860135925060608601356001600160401b0381111561108e578182fd5b61109a88828901610f21565b969995985093965092949392505050565b600080600080608085870312156110c0578384fd5b843593506110d060208601610f69565b92506110de60408601610f69565b9396929550929360600135925050565b6000602082840312156110ff578081fd5b5035919050565b60008060408385031215611118578182fd5b82359150602083013561112a816113c5565b809150509250929050565b60609290921b6bffffffffffffffffffffffff19168252601482015260340190565b6001600160a01b0391909116815260200190565b901515815260200190565b9485526001600160401b0393841660208601529190921660408401526060830191909152608082015260a00190565b60208082526016908201527524b731b7b93932b1ba1036b2b935b63290383937b7b360511b604082015260600190565b60208082526006908201526545787069726560d01b604082015260600190565b6020808252600f908201526e105b1c9958591e4818db185a5b5959608a1b604082015260600190565b6020808252601f908201527f4e6f2062616c616e636520776f756c64206265207472616e7366657272656400604082015260600190565b602080825260079082015266139bdd08115b9960ca1b604082015260600190565b602080825260139082015272125b98dbdc9c9958dd081d1c985b98da195259606a1b604082015260600190565b602080825260099082015268139bdd0814dd185c9d60ba1b604082015260600190565b6020808252601290820152714d69736d61746368696e6720696e7075747360701b604082015260600190565b602080825260119082015270496e636f727265637420656e6474696d6560781b604082015260600190565b90815260200190565b9283526001600160a01b03919091166020830152604082015260600190565b94855260208501939093526001600160401b039182166040850152166060830152608082015260a00190565b918252602082015260400190565b6000808335601e19843603018112611395578283fd5b8301803591506001600160401b038211156113ae578283fd5b6020908101925081023603821315610f6257600080fd5b6001600160a01b03811681146113da57600080fd5b5056fe6f6e6c792070656e64696e6741646d696e2063616e206163636570742061646d696e416464726573733a20696e73756666696369656e742062616c616e636520666f722063616c6c5361666545524332303a204552433230206f7065726174696f6e20646964206e6f742073756363656564a2646970667358221220d81682d11d69f4b1d2deecf753656d390e2dca792f450a668a42864d047e4a3264736f6c63430007060033",
  "linkReferences": {},
  "deployedLinkReferences": {}
}