{
  "_format": "hh-sol-artifact-1",
  "contractName": "OpenLevV1Lib",
  "sourceName": "contracts/udex/OpenLevV1Lib.sol",
  "abi": [
    {
      "inputs": [
        {
          "components": [
            {
              "internalType": "uint256",
              "name": "deposited",
              "type": "uint256"
            },
            {
              "internalType": "uint256",
              "name": "held",
              "type": "uint256"
            },
            {
              "internalType": "bool",
              "name": "depositToken",
              "type": "bool"
            },
            {
              "internalType": "uint128",
              "name": "lastBlockNum",
              "type": "uint128"
            },
            {
              "internalType": "uint256",
              "name": "heldRelativeBorrowed",
              "type": "uint256"
            },
            {
              "internalType": "uint256",
              "name": "newHeld",
              "type": "uint256"
            },
            {
              "internalType": "uint256",
              "name": "borrowed",
              "type": "uint256"
            }
          ],
          "internalType": "struct Types.Trade",
          "name": "trade",
          "type": "tuple"
        },
        {
          "internalType": "address",
          "name": "owner",
          "type": "address"
        },
        {
          "internalType": "bool",
          "name": "isSameToken",
          "type": "bool"
        },
        {
          "internalType": "uint256",
          "name": "amount",
          "type": "uint256"
        },
        {
          "components": [
            {
              "internalType": "contract LPoolInterface",
              "name": "buyPool",
              "type": "LPoolInterface"
            },
            {
              "internalType": "contract LPoolInterface",
              "name": "sellPool",
              "type": "LPoolInterface"
            },
            {
              "internalType": "contract IERC20",
              "name": "buyToken",
              "type": "IERC20"
            },
            {
              "internalType": "contract IERC20",
              "name": "sellToken",
              "type": "IERC20"
            },
            {
              "internalType": "uint256",
              "name": "reserveBuyToken",
              "type": "uint256"
            },
            {
              "internalType": "uint256",
              "name": "reserveSellToken",
              "type": "uint256"
            },
            {
              "internalType": "uint256",
              "name": "buyPoolInsurance",
              "type": "uint256"
            },
            {
              "internalType": "uint256",
              "name": "sellPoolInsurance",
              "type": "uint256"
            },
            {
              "internalType": "uint16",
              "name": "marginLimit",
              "type": "uint16"
            },
            {
              "internalType": "uint16",
              "name": "priceDiffientRatio",
              "type": "uint16"
            },
            {
              "internalType": "uint32[]",
              "name": "dexs",
              "type": "uint32[]"
            }
          ],
          "internalType": "struct Types.MarketVars",
          "name": "vars",
          "type": "tuple"
        },
        {
          "internalType": "bytes",
          "name": "dexData",
          "type": "bytes"
        },
        {
          "internalType": "uint16",
          "name": "liquidationRate",
          "type": "uint16"
        },
        {
          "internalType": "uint16",
          "name": "marketId",
          "type": "uint16"
        }
      ],
      "name": "isPositionLiquidable",
      "outputs": [
        {
          "internalType": "bool",
          "name": "",
          "type": "bool"
        }
      ],
      "stateMutability": "view",
      "type": "function"
    },
    {
      "inputs": [
        {
          "internalType": "uint16",
          "name": "marketId",
          "type": "uint16"
        },
        {
          "internalType": "address",
          "name": "owner",
          "type": "address"
        },
        {
          "internalType": "bool",
          "name": "longToken",
          "type": "bool"
        },
        {
          "internalType": "bytes",
          "name": "dexData",
          "type": "bytes"
        }
      ],
      "name": "marginRatio",
      "outputs": [
        {
          "internalType": "uint256",
          "name": "current",
          "type": "uint256"
        },
        {
          "internalType": "uint256",
          "name": "cAvg",
          "type": "uint256"
        },
        {
          "internalType": "uint256",
          "name": "hAvg",
          "type": "uint256"
        },
        {
          "internalType": "uint32",
          "name": "limit",
          "type": "uint32"
        }
      ],
      "stateMutability": "view",
      "type": "function"
    }
  ],
  "bytecode": "0x614bbf610026600b82828239805160001a60731461001957fe5b30600052607381538281f3fe73000000000000000000000000000000000000000030146080604052600436106101205760003560e01c806384858d4f116100ac578063b2061e771161007b578063b2061e77146102e0578063b37b327114610300578063d2de4c0714610320578063ecf216eb14610340578063f8df0a211461035357610120565b806384858d4f1461025357806386e8f8f31461027357806399c4d9ea14610293578063b03a3df3146102b357610120565b8063205cb371116100f3578063205cb3711461019a578063229cee48146101d0578063289e376f146101f05780636b133936146102105780637620b6f21461023357610120565b80630462282014610125578063049ef59b146101475780630790daba1461016757806319ea053f1461017a575b600080fd5b81801561013157600080fd5b50610145610140366004613ee2565b610373565b005b81801561015357600080fd5b50610145610162366004614224565b610446565b610145610175366004613ddd565b6104e8565b81801561018657600080fd5b50610145610195366004613b1c565b6106b6565b8180156101a657600080fd5b506101ba6101b5366004614412565b6107b9565b6040516101c79190614a3b565b60405180910390f35b8180156101dc57600080fd5b506101456101eb366004614176565b6108d7565b8180156101fc57600080fd5b506101ba61020b366004613b1c565b610954565b61022361021e366004614104565b6109ec565b6040516101c79493929190614a44565b81801561023f57600080fd5b5061014561024e3660046141aa565b610c3c565b81801561025f57600080fd5b5061014561026e366004613e9e565b610cef565b81801561027f57600080fd5b5061014561028e36600461433c565b610d35565b81801561029f57600080fd5b506101ba6102ae366004613b6c565b610f05565b8180156102bf57600080fd5b506102d36102ce366004614067565b611063565b6040516101c79190614760565b8180156102ec57600080fd5b506101456102fb366004614224565b61112b565b81801561030c57600080fd5b506102d361031b366004613a2d565b611171565b81801561032c57600080fd5b506101ba61033b366004613a82565b611188565b6102d361034e366004613f33565b6111e6565b81801561035f57600080fd5b5061014561036e366004613d2a565b6113cd565b600060ff8516156103915760038601546001600160a01b03166103a0565b60028601546001600160a01b03165b905060ff85166103c35760058601546103b99084611c15565b60058701556103d8565b60068601546103d29084611c15565b60068701555b6001600160a01b0381166000908152602083905260409020546103fb8185611c15565b6001600160a01b03831660009081526020859052604090205561043c8561042b868461042687611c77565b611cfe565b6001600160a01b0385169190611d2f565b5050505050505050565b6127108461ffff1610801561045f575060008461ffff16115b801561047157506127108361ffff1611155b801561048357506113888261ffff1611155b6104a85760405162461bcd60e51b815260040161049f906149d5565b60405180910390fd5b805461ffff191661ffff9485161763ffff0000191662010000938516939093029290921765ffff0000000019166401000000009190931602919091179055565b6000881515881515146104ff578960600151610505565b89604001515b90506000816001600160a01b031663313ce5676040518163ffffffff1660e01b815260040160206040518083038186803b15801561054257600080fd5b505afa158015610556573d6000803e3d6000fd5b505050506040513d601f19601f8201168201806040525081019061057a91906145c8565b60ff169050600060048211610590576001610598565b60048203600a0a5b60028701549091506000906001600160a01b0385811691161480156105ba5750845b6105c457896105c6565b345b90508181116105e75760405162461bcd60e51b815260040161049f9061486f565b6105fe8d61014001516105f98a611f57565b611fa5565b61061a5760405162461bcd60e51b815260040161049f906148fe565b600286015461010090046001600160801b031661065a57600089116106515760405162461bcd60e51b815260040161049f906148aa565b505050506106ab565b600286015460ff1615158b151514801561068a57506002860154436001600160801b039081166101009092041614155b6106a65760405162461bcd60e51b815260040161049f9061488c565b505050505b505050505050505050565b816001600160a01b0316836001600160a01b0316141561079d57604051632e1a7d4d60e01b81526001600160a01b03831690632e1a7d4d906106fc908490600401614a3b565b600060405180830381600087803b15801561071657600080fd5b505af115801561072a573d6000803e3d6000fd5b505050506000846001600160a01b0316826040516107479061462c565b60006040518083038185875af1925050503d8060008114610784576040519150601f19603f3d011682016040523d82523d6000602084013e610789565b606091505b505090508061079757600080fd5b506107b3565b6107b16001600160a01b0384168583611d2f565b505b50505050565b600085156108c85760156107cc84612018565b60ff1614610870576107df878a87612047565b886001600160a01b031663cf24406b89898f8f8b8b8a6040518863ffffffff1660e01b815260040161081797969594939291906146a5565b602060405180830381600087803b15801561083157600080fd5b505af1158015610845573d6000803e3d6000fd5b505050506040513d601f19601f8201168201806040525081019061086991906144fb565b90506108c8565b60006108828b85308c8c8a600061205b565b905060006108908289611c15565b905061089d8a8c83612047565b60006108b68c8b8d856108b08c8e611c15565b8a6122aa565b90506108c28782611c15565b93505050505b9b9a5050505050505050505050565b60408051606081018252915461ffff80821684526201000080830482166020808701918252640100000000948590048416878701908152988416600090815297905293909520935184549351965161ffff199094169082161763ffff000019169581169094029490941765ffff0000000019169216909202179055565b6000826001600160a01b0316846001600160a01b031614156109cc57826001600160a01b031663d0e30db0346040518263ffffffff1660e01b81526004016000604051808303818588803b1580156109ab57600080fd5b505af11580156109bf573d6000803e3d6000fd5b50505050503490506109e4565b6109e16001600160a01b038516863085612333565b90505b949350505050565b60008060008060006109fc613656565b604051631427a18160e11b8152309063284f430290610a1f908d90600401614a0f565b6101406040518083038186803b158015610a3857600080fd5b505afa158015610a4c573d6000803e3d6000fd5b505050506040513d601f19601f82011682018060405250810190610a709190613c66565b50505061ffff909216608088015250506001600160a01b0390811660608601529081166040850152908116602084015216815287610ab2578060400151610ab8565b80606001515b9150806080015161ffff1692506000306001600160a01b0316636c3fbc348b8d8c6040518463ffffffff1660e01b8152600401610af793929190614739565b60e06040518083038186803b158015610b0f57600080fd5b505afa158015610b23573d6000803e3d6000fd5b505050506040513d601f19601f82011682018060405250810190610b479190614513565b505060405163761b5f4160e11b8152939550610bd29450859330935063ec36be829250610b799150889060040161462f565b60206040518083038186803b158015610b9157600080fd5b505afa158015610ba5573d6000803e3d6000fd5b505050506040513d601f19601f82011682018060405250810190610bc991906144fb565b61042686611c77565b61ffff8c1660a084015290506000610bff848b610bf3578460600151610bf9565b84604001515b8b612565565b9050610c25818c848d610c16578660200151610c19565b86515b60008860a00151612740565b919e909d50909b5094995093975050505050505050565b6127108561ffff16108015610c55575060008461ffff16115b8015610c62575060008251115b610c7e5760405162461bcd60e51b815260040161049f906149d5565b60038101805461ffff868116600160a01b0261ffff60a01b19918916600160b01b0261ffff60b01b1990931692909217161790558151610cc7906007830190602085019061368b565b50600301805461ffff909316600160c01b0261ffff60c01b1990931692909217909155505050565b60028201546003830154600091610d13916001600160a01b039182169116846127a1565b90508015610d30576004830180546001600160a01b031916331790555b505050565b6127108b61ffff16108015610d4d575060648a60ff16105b8015610d5d575060008961ffff16115b8015610d6e575060648761ffff1611155b8015610d7f575060648661ffff1611155b8015610d9057506127108461ffff16105b8015610da0575060008261ffff16115b610dbc5760405162461bcd60e51b815260040161049f906149d5565b8a8160000160006101000a81548161ffff021916908361ffff160217905550898160000160026101000a81548160ff021916908360ff160217905550888160000160036101000a81548161ffff021916908361ffff160217905550878160000160056101000a81548161ffff021916908361ffff160217905550868160000160076101000a81548161ffff021916908361ffff160217905550858160000160096101000a81548161ffff021916908361ffff1602179055508481600001600b6101000a8154816001600160801b0302191690836001600160801b031602179055508381600001601b6101000a81548161ffff021916908361ffff1602179055508281600001601d6101000a81548160ff021916908360ff1602179055508181600001601e6101000a81548161ffff021916908361ffff1602179055505050505050505050505050565b60038301546000908190610f339061271090610f2d908d90600160b01b900461ffff16612927565b90612980565b60048601549092508291506001600160a01b038c811691161415610f82578254610f7f90610f7890606490610f2d908590670100000000000000900461ffff16612927565b8390611c15565b91505b8254600090610fa290606490610f2d90869062010000900460ff16612927565b9050610fc389610fb28584611c15565b6001600160a01b038d169190611d2f565b50610fcf8189896129e7565b60038701549091506001600160a01b038b811691161415611003576006860154610ff99082612a0d565b6006870155611018565b60058601546110129082612a0d565b60058701555b6001600160a01b038a1660009081526020869052604090205461103b9082612a0d565b6001600160a01b038b1660009081526020879052604090205550509998505050505050505050565b600061106d61373a565b611075613769565b600061108a8760400151886060015188612565565b905061109e818b8a8a602001518d8a612740565b604086015260208086019190915290845260048c0154908801516110c79183918d908d8a612a67565b608081015160038d0180549091019055610100880151845191935061ffff1611801590611101575086610100015161ffff16836020015110155b801561111a575086610100015161ffff16836040015110155b93505050505b979650505050505050565b6127108461ffff1610801561114557506127108361ffff16105b801561048357506113888261ffff16106104a85760405162461bcd60e51b815260040161049f906149d5565b600061117e8484846127a1565b90505b9392505050565b6000851561112057600061119b85612018565b905060ff81166015146111c8576111b3888589612047565b6111c1848a8a8a8a8a6122aa565b91506111da565b6111d78386308c8c8c8c61205b565b91505b50979650505050505050565b60006111f061373a565b6111f8613769565b600061120d8860600151896040015189612565565b9050611222818c8b8b6000015160008a612740565b60408601526020850152835287516112429082908b908e9060008a612a67565b91508160c0015160001415611261576127106060840181905260808401525b8260800151836060015110156113675761129c604051806060016040528060298152602001614b616029913984606001518560800151612aec565b60006112be8460600151610f2d6064876080015161292790919063ffffffff16565b90506000306001600160a01b031663159003a86040518163ffffffff1660e01b81526004016101406040518083038186803b1580156112fc57600080fd5b505afa158015611310573d6000803e3d6000fd5b505050506040513d601f19601f820116820180604052508101906113349190614264565b50985050505050505050508060ff1660648303106113645760405162461bcd60e51b815260040161049f9061497e565b50505b81608001518c608001511161138257600093505050506113c1565b60006113908d838d86612ba2565b90506113b4604051806060016040528060318152602001614b0f6031913982612c4a565b61ffff8716111593505050505b98975050505050505050565b61ffff8661ffff16106113f25760405162461bcd60e51b815260040161049f906149b8565b60008a6001600160a01b0316636f307dc36040518163ffffffff1660e01b815260040160206040518083038186803b15801561142d57600080fd5b505afa158015611441573d6000803e3d6000fd5b505050506040513d601f19601f820116820180604052508101906114659190613a11565b905060008a6001600160a01b0316636f307dc36040518163ffffffff1660e01b815260040160206040518083038186803b1580156114a257600080fd5b505afa1580156114b6573d6000803e3d6000fd5b505050506040513d601f19601f820116820180604052508101906114da9190613a11565b905060006114e78a612018565b60ff808216600090815260208890526040902054919250168015611517575060018601546001600160a01b031633145b80156115335750865461ffff63010000009091048116908c1610155b80156115455750620186a08b61ffff16105b8015611555575060ff8116601514155b6115715760405162461bcd60e51b815260040161049f90614961565b600061157c8b612cfc565b905062030d408160008151811061158f57fe5b602002602001015162ffffff161080156115c4575062030d40816001815181106115b557fe5b602002602001015162ffffff16105b80156115eb575062030d40816002815181106115dc57fe5b602002602001015162ffffff16105b8015611612575062030d408160038151811061160357fe5b602002602001015162ffffff16105b8015611639575062030d408160048151811061162a57fe5b602002602001015162ffffff16105b8015611660575062030d408160058151811061165157fe5b602002602001015162ffffff16105b61167c5760405162461bcd60e51b815260040161049f906149f2565b8060008151811061168957fe5b60209081029190910181015161ffff8c16600090815287835260408082206001600160a01b0389168352845280822082805290935291909120805462ffffff191662ffffff9092169190911790558051819060019081106116e657fe5b60209081029190910181015161ffff8c16600090815287835260408082206001600160a01b0388168352845280822082805290935291909120805462ffffff191662ffffff90921691909117905580518190600290811061174357fe5b60209081029190910181015161ffff8c16600090815287835260408082206001600160a01b038916835284528082206001835290935291909120805462ffffff191662ffffff9092169190911790558051819060039081106117a157fe5b60209081029190910181015161ffff8c16600090815287835260408082206001600160a01b038816835284528082206001835290935291909120805462ffffff191662ffffff9092169190911790558051819060049081106117ff57fe5b60209081029190910181015161ffff8c16600090815287835260408082206001600160a01b038916835284528082206002835290935291909120805462ffffff191662ffffff90921691909117905580518190600590811061185d57fe5b60209081029190910181015161ffff8c16600090815287835260408082206001600160a01b038816835284528082206002835290935291909120805462ffffff191662ffffff909216919091179055506118ba838e600019612047565b6118c7828d600019612047565b604080516001808252818301909252600091602080830190803683370190505090506118f28b611f57565b816000815181106118ff57fe5b602002602001019063ffffffff16908163ffffffff16815250506040518061016001604052808f6001600160a01b031681526020018e6001600160a01b03168152602001856001600160a01b03168152602001846001600160a01b031681526020018d61ffff1681526020018960000160009054906101000a900461ffff1661ffff1681526020018960000160059054906101000a900461ffff1661ffff16815260200160006001600160a01b031681526020016000815260200160008152602001828152508960008c61ffff1661ffff16815260200190815260200160002060008201518160000160006101000a8154816001600160a01b0302191690836001600160a01b0316021790555060208201518160010160006101000a8154816001600160a01b0302191690836001600160a01b0316021790555060408201518160020160006101000a8154816001600160a01b0302191690836001600160a01b0316021790555060608201518160030160006101000a8154816001600160a01b0302191690836001600160a01b0316021790555060808201518160030160146101000a81548161ffff021916908361ffff16021790555060a08201518160030160166101000a81548161ffff021916908361ffff16021790555060c08201518160030160186101000a81548161ffff021916908361ffff16021790555060e08201518160040160006101000a8154816001600160a01b0302191690836001600160a01b0316021790555061010082015181600501556101208201518160060155610140820151816007019080519060200190611b5c92919061368b565b50905050611b698b612de2565b15611b7f57611b7984848d6127a1565b50611c05565b60ff821660021415611c05578660000160009054906101000a90046001600160a01b03166001600160a01b031663f18ef35985858e6040518463ffffffff1660e01b8152600401611bd293929190614643565b600060405180830381600087803b158015611bec57600080fd5b505af1158015611c00573d6000803e3d6000fd5b505050505b5050505050505050505050505050565b600082821115611c6c576040805162461bcd60e51b815260206004820152601e60248201527f536166654d6174683a207375627472616374696f6e206f766572666c6f770000604482015290519081900360640190fd5b508082035b92915050565b6040516370a0823160e01b81526000906001600160a01b038316906370a0823190611ca690309060040161462f565b60206040518083038186803b158015611cbe57600080fd5b505afa158015611cd2573d6000803e3d6000fd5b505050506040513d601f19601f82011682018060405250810190611cf691906144fb565b90505b919050565b60008083118015611d0f5750600082115b156111815782611d1f8386612927565b81611d2657fe5b04949350505050565b60008115611181576000846001600160a01b03166370a08231856040518263ffffffff1660e01b815260040180826001600160a01b0316815260200191505060206040518083038186803b158015611d8657600080fd5b505afa158015611d9a573d6000803e3d6000fd5b505050506040513d6020811015611db057600080fd5b5051604080516001600160a01b038781166024830152604480830188905283518084039091018152606490920183526020820180516001600160e01b031663a9059cbb60e01b1781529251825194955090891693919290918291908083835b60208310611e2e5780518252601f199092019160209182019101611e0f565b6001836020036101000a0380198251168184511680821785525050505050509050019150506000604051808303816000865af19150503d8060008114611e90576040519150601f19603f3d011682016040523d82523d6000602084013e611e95565b606091505b5050506000856001600160a01b03166370a08231866040518263ffffffff1660e01b815260040180826001600160a01b0316815260200191505060206040518083038186803b158015611ee757600080fd5b505afa158015611efb573d6000803e3d6000fd5b505050506040513d6020811015611f1157600080fd5b50519050818111611f4e576040805162461bcd60e51b81526020600482015260026024820152612a2360f11b604482015290519081900360640190fd5b03949350505050565b6000600182511015611f7b5760405162461bcd60e51b815260040161049f9061491b565b611f8482612de2565b15611f975750602081015160001a611cf9565b50602081015160e01c611cf9565b6000805b835181101561201157838181518110611fbe57fe5b602002602001015163ffffffff1660001415611fd957612011565b8263ffffffff16848281518110611fec57fe5b602002602001015163ffffffff1614156120095760019150612011565b600101611fa9565b5092915050565b600060018251101561203c5760405162461bcd60e51b815260040161049f90614795565b506020015160001a90565b6107b36001600160a01b0384168383612dfa565b6000806120678861314a565b905060006120748261315b565b90506001600160e01b03198116637224811760e11b146120c857856001600160a01b03166120a28383613176565b6001600160a01b0316146120c85760405162461bcd60e51b815260040161049f9061476b565b6120d38282876131f5565b91506000876001600160a01b03166370a082318a6040518263ffffffff1660e01b8152600401612103919061462f565b60206040518083038186803b15801561211b57600080fd5b505afa15801561212f573d6000803e3d6000fd5b505050506040513d601f19601f8201168201806040525081019061215391906144fb565b90506121696001600160a01b0388168c88612dfa565b506000808c6001600160a01b0316856040516121859190614610565b6000604051808303816000865af19150503d80600081146121c2576040519150601f19603f3d011682016040523d82523d6000602084013e6121c7565b606091505b509150915060008214156121dc573d60208201fd5b6121f16001600160a01b038a168e6000612dfa565b50612278838b6001600160a01b03166370a082318e6040518263ffffffff1660e01b8152600401612222919061462f565b60206040518083038186803b15801561223a57600080fd5b505afa15801561224e573d6000803e3d6000fd5b505050506040513d601f19601f8201168201806040525081019061227291906144fb565b90611c15565b95508686101561229a5760405162461bcd60e51b815260040161049f90614838565b5050505050979650505050505050565b604051631076a27960e21b81526000906001600160a01b038816906341da89e4906122e190899089908990899089906004016146ff565b602060405180830381600087803b1580156122fb57600080fd5b505af115801561230f573d6000803e3d6000fd5b505050506040513d601f19601f8201168201806040525081019061112091906144fb565b600081156109e4576000856001600160a01b03166370a08231856040518263ffffffff1660e01b815260040180826001600160a01b0316815260200191505060206040518083038186803b15801561238a57600080fd5b505afa15801561239e573d6000803e3d6000fd5b505050506040513d60208110156123b457600080fd5b5051604080516001600160a01b0388811660248301528781166044830152606480830188905283518084039091018152608490920183526020820180516001600160e01b03166323b872dd60e01b17815292518251949550908a1693919290918291908083835b6020831061243a5780518252601f19909201916020918201910161241b565b6001836020036101000a0380198251168184511680821785525050505050509050019150506000604051808303816000865af19150503d806000811461249c576040519150601f19603f3d011682016040523d82523d6000602084013e6124a1565b606091505b5050506000866001600160a01b03166370a08231866040518263ffffffff1660e01b815260040180826001600160a01b0316815260200191505060206040518083038186803b1580156124f357600080fd5b505afa158015612507573d6000803e3d6000fd5b505050506040513d602081101561251d57600080fd5b5051905081811161255b576040805162461bcd60e51b81526020600482015260036024820152622a232360e91b604482015290519081900360640190fd5b0395945050505050565b61256d6137b1565b6000306001600160a01b031663c275fe546040518163ffffffff1660e01b815260040160806040518083038186803b1580156125a857600080fd5b505afa1580156125bc573d6000803e3d6000fd5b505050506040513d601f19601f820116820180604052508101906125e09190613c08565b50505090506000306001600160a01b031663159003a86040518163ffffffff1660e01b81526004016101406040518083038186803b15801561262157600080fd5b505afa158015612635573d6000803e3d6000fd5b505050506040513d601f19601f820116820180604052508101906126599190614264565b9950505050505050505050816001600160a01b031663a59a36ae878784886040518563ffffffff1660e01b8152600401612696949392919061466f565b60a06040518083038186803b1580156126ae57600080fd5b505afa1580156126c2573d6000803e3d6000fd5b505050506040513d601f19601f820116820180604052508101906126e6919061457c565b60c0880181905260ff90911660a088015260808701919091526060860191909152604085019190915261271d9061ffff8316612a0d565b42111561272f57606083015160808401525b505061271060208201529392505050565b60008060008461275a5761275584878a613293565b612765565b61276584878a613314565b60e08a0181905261278357505050602086015161ffff168080612795565b61278d8988613345565b919450925090505b96509650969350505050565b600080306001600160a01b031663c275fe546040518163ffffffff1660e01b815260040160806040518083038186803b1580156127dd57600080fd5b505afa1580156127f1573d6000803e3d6000fd5b505050506040513d601f19601f820116820180604052508101906128159190613c08565b50505090506000306001600160a01b031663159003a86040518163ffffffff1660e01b81526004016101406040518083038186803b15801561285657600080fd5b505afa15801561286a573d6000803e3d6000fd5b505050506040513d601f19601f8201168201806040525081019061288e9190614264565b9950505050505050505050816001600160a01b03166315426c97878784886040518563ffffffff1660e01b81526004016128cb949392919061466f565b602060405180830381600087803b1580156128e557600080fd5b505af11580156128f9573d6000803e3d6000fd5b505050506040513d601f19601f8201168201806040525081019061291d9190613bec565b9695505050505050565b60008261293657506000611c71565b8282028284828161294357fe5b04146111815760405162461bcd60e51b8152600401808060200182810382526021815260200180614b406021913960400191505060405180910390fd5b60008082116129d6576040805162461bcd60e51b815260206004820152601a60248201527f536166654d6174683a206469766973696f6e206279207a65726f000000000000604482015290519081900360640190fd5b8183816129df57fe5b049392505050565b600080831180156129f85750600082115b612a02578361117e565b81611d1f8486612927565b600082820183811015611181576040805162461bcd60e51b815260206004820152601b60248201527f536166654d6174683a206164646974696f6e206f766572666c6f770000000000604482015290519081900360640190fd5b612a6f613769565b600083612a8657612a81838688613293565b612a91565b612a91838688613314565b9050808260c00181815250506000612abe612ab48a604001518b60600151613470565b8a60800151613470565b60a08a0151909150612ada9060ff16600a0a610f2d8a84612927565b60808401525090979650505050505050565b610d308383836040516024018080602001848152602001838152602001828103825285818151815260200191508051906020019080838360005b83811015612b3e578181015183820152602001612b26565b50505050905090810190601f168015612b6b5780820380516001836020036101000a031916815260200191505b5060408051601f198184030181529190526020810180516001600160e01b031663ca47c4eb60e01b17905294506134869350505050565b600080612bc083608001518760800151611c1590919063ffffffff16565b905060008415612be657508551612bdd81610f2d84612710612927565b925050506109e4565b6000612c07612bfd88604001518960600151613470565b8860800151613470565b9050612c2e8760a0015160ff16600a0a610f2d838b6000015161292790919063ffffffff16565b9150612c4082610f2d85612710612927565b93505050506109e4565b612cf882826040516024018080602001838152602001828103825284818151815260200191508051906020019080838360005b83811015612c95578181015183820152602001612c7d565b50505050905090810190601f168015612cc25780820380516001836020036101000a031916815260200191505b5060408051601f198184030181529190526020810180516001600160e01b0316632d839cb360e21b179052935061348692505050565b5050565b60606000612d09836134a7565b6003029050600560ff82166001600160401b0381118015612d2957600080fd5b50604051908082528060200260200182016040528015612d53578160200160208202803683370190505b50925060005b8260ff16811015612dda5781855111612d97576000848281518110612d7a57fe5b602002602001019062ffffff16908162ffffff1681525050612dd2565b84820160200151845160e882901c90869084908110612db257fe5b602002602001019062ffffff16908162ffffff1681525050600383019250505b600101612d59565b505050919050565b60006002612def83612018565b60ff16141592915050565b600080846001600160a01b031663dd62ed3e30866040518363ffffffff1660e01b815260040180836001600160a01b03168152602001826001600160a01b031681526020019250505060206040518083038186803b158015612e5b57600080fd5b505afa158015612e6f573d6000803e3d6000fd5b505050506040513d6020811015612e8557600080fd5b505115612faa57604080516001600160a01b038681166024830152600060448084019190915283518084039091018152606490920183526020820180516001600160e01b031663095ea7b360e01b178152925182519189169390918291908083835b60208310612f065780518252601f199092019160209182019101612ee7565b6001836020036101000a0380198251168184511680821785525050505050509050019150506000604051808303816000865af19150503d8060008114612f68576040519150601f19603f3d011682016040523d82523d6000602084013e612f6d565b606091505b50508091505080612faa576040805162461bcd60e51b815260206004820152600260248201526120a360f11b604482015290519081900360640190fd5b604080516001600160a01b038681166024830152604480830187905283518084039091018152606490920183526020820180516001600160e01b031663095ea7b360e01b178152925182519189169390918291908083835b602083106130215780518252601f199092019160209182019101613002565b6001836020036101000a0380198251168184511680821785525050505050509050019150506000604051808303816000865af19150503d8060008114613083576040519150601f19603f3d011682016040523d82523d6000602084013e613088565b606091505b505080915050806130c5576040805162461bcd60e51b815260206004820152600260248201526120a360f11b604482015290519081900360640190fd5b60408051636eb1769f60e11b81523060048201526001600160a01b03868116602483015291519187169163dd62ed3e91604480820192602092909190829003018186803b15801561311557600080fd5b505afa158015613129573d6000803e3d6000fd5b505050506040513d602081101561313f57600080fd5b505195945050505050565b6060611cf6826005808551036134d6565b60008061316b83600060046134d6565b602001519392505050565b6000806001600160e01b031983166312aa3caf60e01b141561319a575060246131d3565b6001600160e01b03198316630502b1c560e01b14156131bb575060046131d3565b60405162461bcd60e51b815260040161049f9061499b565b60006131e1858360206134d6565b90506131ec8161359d565b95945050505050565b606060006001600160e01b031984166312aa3caf60e01b141561321a575060a4613258565b6001600160e01b03198416630502b1c560e01b141561323b57506024613258565b6001600160e01b03198416637224811760e11b14156131bb575060045b6000613277613269876000856134d6565b613272866135c8565b6135d9565b90506000602083019050611120826132728984858c51036134d6565b6040516303184af960e31b81526000906001600160a01b038416906318c257c8906132c49087908690600401614a1e565b60206040518083038186803b1580156132dc57600080fd5b505afa1580156132f0573d6000803e3d6000fd5b505050506040513d601f19601f8201168201806040525081019061117e91906144fb565b60405163a00c441d60e01b81526000906001600160a01b0384169063a00c441d906132c49087908690600401614a1e565b6000806000806133708660a0015160ff16600a0a610f2d88604001518861292790919063ffffffff16565b90508560e001518110156133855760006133ac565b60e086015160208701516133ac9190610f2d9061ffff166133a68584611c15565b90612927565b93506133d38660a0015160ff16600a0a610f2d88606001518861292790919063ffffffff16565b90508560e001518110156133e8576000613409565b60e086015160208701516134099190610f2d9061ffff166133a68584611c15565b92506134308660a0015160ff16600a0a610f2d88608001518861292790919063ffffffff16565b90508560e00151811015613445576000613466565b60e086015160208701516134669190610f2d9061ffff166133a68584611c15565b9150509250925092565b600081831161347f5781611181565b5090919050565b80516a636f6e736f6c652e6c6f67602083016000808483855afa5050505050565b60006005825110156134cb5760405162461bcd60e51b815260040161049f906147f0565b506024015160001a90565b6060835183111580156134ec5750818385510310155b6135085760405162461bcd60e51b815260040161049f906148c7565b828401602001826001600160401b038111801561352457600080fd5b506040519080825280601f01601f19166020018201604052801561354f576020820181803683370190505b509150602082015b60208411156135775781518152601f199093019260209182019101613557565b905181516020949094036101000a60001901801990911693169290921790915292915050565b600081516020146135c05760405162461bcd60e51b815260040161049f906147ca565b506020015190565b601051602080825281019190915290565b6060806040519050835180825260208201818101602087015b8183101561360a5780518352602092830192016135f2565b50855184518101855292509050808201602086015b8183101561363757805183526020928301920161361f565b508651929092011591909101601f01601f191660405250905092915050565b6040805160c081018252600080825260208201819052918101829052606081018290526080810182905260a081019190915290565b8280548282559060005260206000209060070160089004810192821561372a5791602002820160005b838211156136f857835183826101000a81548163ffffffff021916908363ffffffff16021790555092602001926004016020816003010492830192600103026136b4565b80156137285782816101000a81549063ffffffff02191690556004016020816003010492830192600103026136f8565b505b506137369291506137fd565b5090565b6040518060a0016040528060008152602001600081526020016000815260200160008152602001600081525090565b6040518060e00160405280600081526020016000815260200160001515815260200160006001600160801b031681526020016000815260200160008152602001600081525090565b60405180610100016040528060008152602001600061ffff168152602001600081526020016000815260200160008152602001600060ff16815260200160008152602001600081525090565b5b8082111561373657600081556001016137fe565b8035611cf981614ab4565b600082601f83011261382d578081fd5b813560206001600160401b0382111561384257fe5b808202613850828201614a65565b83815282810190868401838801850189101561386a578687fd5b8693505b858410156111da57803563ffffffff81168114613889578788fd5b83526001939093019291840191840161386e565b8035611cf981614acc565b600082601f8301126138b8578081fd5b81356001600160401b038111156138cb57fe5b6138de601f8201601f1916602001614a65565b8181528460208386010111156138f2578283fd5b816020850160208301379081016020019190915292915050565b600061016080838503121561391f578182fd5b61392881614a65565b91505061393482613812565b815261394260208301613812565b602082015261395360408301613812565b604082015261396460608301613812565b60608201526080820135608082015260a082013560a082015260c082013560c082015260e082013560e082015261010061399f8184016139f3565b908201526101206139b18382016139f3565b90820152610140828101356001600160401b038111156139d057600080fd5b6139dc8582860161381d565b82840152505092915050565b8035611cf981614ada565b8035611cf981614aef565b803562ffffff81168114611cf957600080fd5b600060208284031215613a22578081fd5b815161118181614ab4565b600080600060608486031215613a41578182fd5b8335613a4c81614ab4565b92506020840135613a5c81614ab4565b915060408401356001600160401b03811115613a76578182fd5b613466868287016138a8565b600080600080600080600060e0888a031215613a9c578485fd5b8735613aa781614ab4565b96506020880135613ab781614ab4565b9550604088013594506060880135935060808801356001600160401b03811115613adf578384fd5b613aeb8a828b016138a8565b93505060a0880135613afc81614ab4565b915060c0880135613b0c81614ab4565b8091505092959891949750929550565b60008060008060808587031215613b31578182fd5b8435613b3c81614ab4565b93506020850135613b4c81614ab4565b92506040850135613b5c81614ab4565b9396929550929360600135925050565b60008060008060008060008060006101208a8c031215613b8a578283fd5b8935613b9581614ab4565b985060208a0135975060408a0135613bac81614ab4565b965060608a0135613bbc81614ab4565b989b979a50959860808101359760a0820135975060c0820135965060e08201359550610100909101359350915050565b600060208284031215613bfd578081fd5b815161118181614acc565b60008060008060808587031215613c1d578182fd5b8451613c2881614ab4565b6020860151909450613c3981614ab4565b6040860151909350613c4a81614ab4565b6060860151909250613c5b81614ab4565b939692955090935050565b6000806000806000806000806000806101408b8d031215613c85578384fd5b8a51613c9081614ab4565b60208c0151909a50613ca181614ab4565b60408c0151909950613cb281614ab4565b60608c0151909850613cc381614ab4565b60808c0151909750613cd481614aef565b60a08c0151909650613ce581614aef565b60c08c0151909550613cf681614aef565b60e08c0151909450613d0781614ab4565b809350506101008b015191506101208b015190509295989b9194979a5092959850565b6000806000806000806000806000806101408b8d031215613d49578384fd5b8a35613d5481614ab4565b995060208b0135613d6481614ab4565b985060408b0135613d7481614aef565b975060608b01356001600160401b03811115613d8e578485fd5b613d9a8d828e016138a8565b97505060808b0135613dab81614aef565b999c989b50969995989760a0870135975060c08701359660e08101359650610100810135955061012001359350915050565b60008060008060008060008060006101208a8c031215613dfb578283fd5b89356001600160401b0380821115613e11578485fd5b613e1d8d838e0161390c565b9a5060208c01359150613e2f82614acc565b90985060408b013590613e4182614acc565b90975060608b0135965060808b0135955060a08b01359080821115613e64578485fd5b50613e718c828d016138a8565b94505060c08a0135925060e08a01359150613e8f6101008b0161389d565b90509295985092959850929598565b60008060408385031215613eb0578182fd5b8235915060208301356001600160401b03811115613ecc578182fd5b613ed8858286016138a8565b9150509250929050565b600080600080600060a08688031215613ef9578283fd5b853594506020860135613f0b81614aff565b93506040860135613f1b81614ab4565b94979396509394606081013594506080013592915050565b600080600080600080600080888a036101c0811215613f50578283fd5b60e0811215613f5d578283fd5b5060405160e081016001600160401b038282108183111715613f7b57fe5b816040528b35835260208c01356020840152613f9960408d0161389d565b6040840152613faa60608d016139e8565b606084015260808c0135608084015260a08c013560a084015260c08c013560c0840152829a50613fdc60e08d01613812565b9950613feb6101008d0161389d565b98506101208c013597506101408c0135925080831115614009578485fd5b6140158d848e0161390c565b96506101608c013592508083111561402b578485fd5b50506140398b828c016138a8565b9350506140496101808a016139f3565b91506140586101a08a016139f3565b90509295985092959890939650565b600080600080600080600060e0888a031215614081578081fd5b87359650602088013561409381614ab4565b955060408801356140a381614acc565b94506060880135935060808801356001600160401b03808211156140c5578283fd5b6140d18b838c0161390c565b945060a08a01359150808211156140e6578283fd5b506140f38a828b016138a8565b92505060c0880135613b0c81614aef565b60008060008060808587031215614119578182fd5b843561412481614aef565b9350602085013561413481614ab4565b9250604085013561414481614acc565b915060608501356001600160401b0381111561415e578182fd5b61416a878288016138a8565b91505092959194509250565b60008060006060848603121561418a578081fd5b833561419581614aef565b95602085013595506040909401359392505050565b600080600080600060a086880312156141c1578283fd5b85356141cc81614aef565b945060208601356141dc81614aef565b935060408601356141ec81614aef565b925060608601356001600160401b03811115614206578182fd5b6142128882890161381d565b95989497509295608001359392505050565b60008060008060808587031215614239578182fd5b843561424481614aef565b9350602085013561425481614aef565b92506040850135613b5c81614aef565b6000806000806000806000806000806101408b8d031215614283578384fd5b8a5161428e81614aef565b60208c0151909a5061429f81614aff565b60408c01519099506142b081614aef565b60608c01519098506142c181614aef565b60808c01519097506142d281614aef565b60a08c01519096506142e381614aef565b60c08c01519095506142f481614ada565b60e08c015190945061430581614aef565b6101008c015190935061431781614aff565b6101208c015190925061432981614aef565b809150509295989b9194979a5092959850565b60008060008060008060008060008060006101608c8e03121561435d578485fd5b8b3561436881614aef565b9a5060208c013561437881614aff565b995060408c013561438881614aef565b985060608c013561439881614aef565b975060808c01356143a881614aef565b965060a08c01356143b881614aef565b955060c08c01356143c881614ada565b945060e08c01356143d881614aef565b93506101008c01356143e981614aff565b92506143f86101208d016139f3565b91506101408c013590509295989b509295989b9093969950565b60008060008060008060008060008060006101608c8e031215614433578485fd5b61443c8c6139fe565b9a5061444a60208d016139fe565b995061445860408d01613812565b985061446660608d01613812565b975061447460808d01613812565b965061448260a08d01613812565b955060c08c0135945060e08c013593506101008c013592506001600160401b03806101208e013511156144b3578182fd5b6144c48e6101208f01358f016138a8565b9250806101408e013511156144d7578182fd5b506144e98d6101408e01358e016138a8565b90509295989b509295989b9093969950565b60006020828403121561450c578081fd5b5051919050565b600080600080600080600060e0888a03121561452d578081fd5b8751965060208801519550604088015161454681614acc565b606089015190955061455781614ada565b809450506080880151925060a0880151915060c0880151905092959891949750929550565b600080600080600060a08688031215614593578283fd5b85519450602086015193506040860151925060608601516145b381614aff565b80925050608086015190509295509295909350565b6000602082840312156145d9578081fd5b815161118181614aff565b600081518084526145fc816020860160208601614a88565b601f01601f19169290920160200192915050565b60008251614622818460208701614a88565b9190910192915050565b90565b6001600160a01b0391909116815260200190565b6001600160a01b038481168252831660208201526060604082018190526000906131ec908301846145e4565b6001600160a01b0385811682528416602082015261ffff8316604082015260806060820181905260009061291d908301846145e4565b6001600160a01b0388811682528716602082015262ffffff8681166040830152851660608201526080810184905260a0810183905260e060c082018190526000906146f2908301846145e4565b9998505050505050505050565b6001600160a01b03868116825285166020820152604081018490526060810183905260a060808201819052600090611120908301846145e4565b6001600160a01b0393909316835261ffff9190911660208301521515604082015260600190565b901515815260200190565b60208082526010908201526f39b2b636103a37b5b2b71032b93937b960811b604082015260600190565b6020808252818101527f446578446174613a20746f4465782077726f6e67206461746120666f726d6174604082015260600190565b6020808252600c908201526b3632b733ba341032b93937b960a11b604082015260600190565b60208082526028908201527f446578446174613a20746f41727261794c656e6774682077726f6e67206461746040820152671848199bdc9b585d60c21b606082015260800190565b6020808252601f908201527f31696e63683a2062757920616d6f756e74206c657373207468616e206d696e00604082015260600190565b60208082526003908201526244545360e81b604082015260600190565b6020808252600490820152632044545360e01b604082015260600190565b60208082526003908201526204242360ec1b604082015260600190565b6020808252601a908201527f446578446174613a2077726f6e67206461746120666f726d6174000000000000604082015260600190565b602080825260039082015262444e5360e81b604082015260600190565b60208082526026908201527f446578446174613a20746f44657844657461696c2077726f6e67206461746120604082015265199bdc9b585d60d21b606082015260800190565b6020808252600390820152620aa88b60eb1b604082015260600190565b60208082526003908201526213541560ea1b604082015260600190565b6020808252600390820152622aa9a360e91b604082015260600190565b6020808252600390820152620544d560ec1b604082015260600190565b60208082526003908201526250524960e81b604082015260600190565b6020808252600390820152622baa2960e91b604082015260600190565b61ffff91909116815260200190565b61ffff9290921682526001600160a01b0316602082015260400190565b90815260200190565b9384526020840192909252604083015263ffffffff16606082015260800190565b6040518181016001600160401b0381118282101715614a8057fe5b604052919050565b60005b83811015614aa3578181015183820152602001614a8b565b838111156107b35750506000910152565b6001600160a01b0381168114614ac957600080fd5b50565b8015158114614ac957600080fd5b6001600160801b0381168114614ac957600080fd5b61ffff81168114614ac957600080fd5b60ff81168114614ac957600080fdfe2d2d2d2d2d2d2d2d2d2d2d2d2d2d2d2d2d2d2d2d2d2d2d2d2d2d2d2d2d2d2d2d2d2d63757272656e744d617267696e203a536166654d6174683a206d756c7469706c69636174696f6e206f766572666c6f772d2d2d2d2d2d2d2d2d2d2d2d2d2d2d2d2d2d2d2d2d2d2d2d2d2d2d2d2d2d2d2d2d2d7072696365203aa26469706673582212202c6240889c08c46ae123714a8e2e143dc824a23b8eedeb4a4f3b551e28bb13e264736f6c63430007060033",
  "linkReferences": {},
  "deployedLinkReferences": {}
}