{
  "_format": "hh-sol-artifact-1",
  "contractName": "LPool",
  "sourceName": "contracts/udex/liquidity/LPool.sol",
  "abi": [
    {
      "inputs": [],
      "stateMutability": "nonpayable",
      "type": "constructor"
    },
    {
      "anonymous": false,
      "inputs": [
        {
          "indexed": false,
          "internalType": "uint256",
          "name": "cashPrior",
          "type": "uint256"
        },
        {
          "indexed": false,
          "internalType": "uint256",
          "name": "interestAccumulated",
          "type": "uint256"
        },
        {
          "indexed": false,
          "internalType": "uint256",
          "name": "borrowIndex",
          "type": "uint256"
        },
        {
          "indexed": false,
          "internalType": "uint256",
          "name": "totalBorrows",
          "type": "uint256"
        }
      ],
      "name": "AccrueInterest",
      "type": "event"
    },
    {
      "anonymous": false,
      "inputs": [
        {
          "indexed": true,
          "internalType": "address",
          "name": "owner",
          "type": "address"
        },
        {
          "indexed": true,
          "internalType": "address",
          "name": "spender",
          "type": "address"
        },
        {
          "indexed": false,
          "internalType": "uint256",
          "name": "amount",
          "type": "uint256"
        }
      ],
      "name": "Approval",
      "type": "event"
    },
    {
      "anonymous": false,
      "inputs": [
        {
          "indexed": false,
          "internalType": "address",
          "name": "borrower",
          "type": "address"
        },
        {
          "indexed": false,
          "internalType": "address",
          "name": "payee",
          "type": "address"
        },
        {
          "indexed": false,
          "internalType": "uint256",
          "name": "borrowAmount",
          "type": "uint256"
        },
        {
          "indexed": false,
          "internalType": "uint256",
          "name": "accountBorrows",
          "type": "uint256"
        },
        {
          "indexed": false,
          "internalType": "uint256",
          "name": "totalBorrows",
          "type": "uint256"
        }
      ],
      "name": "Borrow",
      "type": "event"
    },
    {
      "anonymous": false,
      "inputs": [
        {
          "indexed": false,
          "internalType": "address",
          "name": "minter",
          "type": "address"
        },
        {
          "indexed": false,
          "internalType": "uint256",
          "name": "mintAmount",
          "type": "uint256"
        },
        {
          "indexed": false,
          "internalType": "uint256",
          "name": "mintTokens",
          "type": "uint256"
        }
      ],
      "name": "Mint",
      "type": "event"
    },
    {
      "anonymous": false,
      "inputs": [
        {
          "indexed": false,
          "internalType": "address",
          "name": "oldAdmin",
          "type": "address"
        },
        {
          "indexed": false,
          "internalType": "address",
          "name": "newAdmin",
          "type": "address"
        }
      ],
      "name": "NewAdmin",
      "type": "event"
    },
    {
      "anonymous": false,
      "inputs": [
        {
          "indexed": false,
          "internalType": "uint256",
          "name": "oldBorrowCapFactorMantissa",
          "type": "uint256"
        },
        {
          "indexed": false,
          "internalType": "uint256",
          "name": "newBorrowCapFactorMantissa",
          "type": "uint256"
        }
      ],
      "name": "NewBorrowCapFactorMantissa",
      "type": "event"
    },
    {
      "anonymous": false,
      "inputs": [
        {
          "indexed": false,
          "internalType": "address",
          "name": "oldController",
          "type": "address"
        },
        {
          "indexed": false,
          "internalType": "address",
          "name": "newController",
          "type": "address"
        }
      ],
      "name": "NewController",
      "type": "event"
    },
    {
      "anonymous": false,
      "inputs": [
        {
          "indexed": false,
          "internalType": "uint256",
          "name": "baseRatePerBlock",
          "type": "uint256"
        },
        {
          "indexed": false,
          "internalType": "uint256",
          "name": "multiplierPerBlock",
          "type": "uint256"
        },
        {
          "indexed": false,
          "internalType": "uint256",
          "name": "jumpMultiplierPerBlock",
          "type": "uint256"
        },
        {
          "indexed": false,
          "internalType": "uint256",
          "name": "kink",
          "type": "uint256"
        }
      ],
      "name": "NewInterestParam",
      "type": "event"
    },
    {
      "anonymous": false,
      "inputs": [
        {
          "indexed": false,
          "internalType": "address",
          "name": "oldPendingAdmin",
          "type": "address"
        },
        {
          "indexed": false,
          "internalType": "address",
          "name": "newPendingAdmin",
          "type": "address"
        }
      ],
      "name": "NewPendingAdmin",
      "type": "event"
    },
    {
      "anonymous": false,
      "inputs": [
        {
          "indexed": false,
          "internalType": "uint256",
          "name": "oldReserveFactorMantissa",
          "type": "uint256"
        },
        {
          "indexed": false,
          "internalType": "uint256",
          "name": "newReserveFactorMantissa",
          "type": "uint256"
        }
      ],
      "name": "NewReserveFactor",
      "type": "event"
    },
    {
      "anonymous": false,
      "inputs": [
        {
          "indexed": false,
          "internalType": "address",
          "name": "redeemer",
          "type": "address"
        },
        {
          "indexed": false,
          "internalType": "uint256",
          "name": "redeemAmount",
          "type": "uint256"
        },
        {
          "indexed": false,
          "internalType": "uint256",
          "name": "redeemTokens",
          "type": "uint256"
        }
      ],
      "name": "Redeem",
      "type": "event"
    },
    {
      "anonymous": false,
      "inputs": [
        {
          "indexed": false,
          "internalType": "address",
          "name": "payer",
          "type": "address"
        },
        {
          "indexed": false,
          "internalType": "address",
          "name": "borrower",
          "type": "address"
        },
        {
          "indexed": false,
          "internalType": "uint256",
          "name": "repayAmount",
          "type": "uint256"
        },
        {
          "indexed": false,
          "internalType": "uint256",
          "name": "badDebtsAmount",
          "type": "uint256"
        },
        {
          "indexed": false,
          "internalType": "uint256",
          "name": "accountBorrows",
          "type": "uint256"
        },
        {
          "indexed": false,
          "internalType": "uint256",
          "name": "totalBorrows",
          "type": "uint256"
        }
      ],
      "name": "RepayBorrow",
      "type": "event"
    },
    {
      "anonymous": false,
      "inputs": [
        {
          "indexed": false,
          "internalType": "address",
          "name": "benefactor",
          "type": "address"
        },
        {
          "indexed": false,
          "internalType": "uint256",
          "name": "addAmount",
          "type": "uint256"
        },
        {
          "indexed": false,
          "internalType": "uint256",
          "name": "newTotalReserves",
          "type": "uint256"
        }
      ],
      "name": "ReservesAdded",
      "type": "event"
    },
    {
      "anonymous": false,
      "inputs": [
        {
          "indexed": false,
          "internalType": "address",
          "name": "to",
          "type": "address"
        },
        {
          "indexed": false,
          "internalType": "uint256",
          "name": "reduceAmount",
          "type": "uint256"
        },
        {
          "indexed": false,
          "internalType": "uint256",
          "name": "newTotalReserves",
          "type": "uint256"
        }
      ],
      "name": "ReservesReduced",
      "type": "event"
    },
    {
      "anonymous": false,
      "inputs": [
        {
          "indexed": true,
          "internalType": "address",
          "name": "from",
          "type": "address"
        },
        {
          "indexed": true,
          "internalType": "address",
          "name": "to",
          "type": "address"
        },
        {
          "indexed": false,
          "internalType": "uint256",
          "name": "amount",
          "type": "uint256"
        }
      ],
      "name": "Transfer",
      "type": "event"
    },
    {
      "inputs": [],
      "name": "acceptAdmin",
      "outputs": [],
      "stateMutability": "nonpayable",
      "type": "function"
    },
    {
      "inputs": [],
      "name": "accrualBlockNumber",
      "outputs": [
        {
          "internalType": "uint256",
          "name": "",
          "type": "uint256"
        }
      ],
      "stateMutability": "view",
      "type": "function"
    },
    {
      "inputs": [],
      "name": "accrualBlockTimestamp",
      "outputs": [
        {
          "internalType": "uint256",
          "name": "",
          "type": "uint256"
        }
      ],
      "stateMutability": "view",
      "type": "function"
    },
    {
      "inputs": [],
      "name": "accrueInterest",
      "outputs": [],
      "stateMutability": "nonpayable",
      "type": "function"
    },
    {
      "inputs": [
        {
          "internalType": "uint256",
          "name": "addAmount",
          "type": "uint256"
        }
      ],
      "name": "addReserves",
      "outputs": [],
      "stateMutability": "payable",
      "type": "function"
    },
    {
      "inputs": [],
      "name": "admin",
      "outputs": [
        {
          "internalType": "address payable",
          "name": "",
          "type": "address"
        }
      ],
      "stateMutability": "view",
      "type": "function"
    },
    {
      "inputs": [
        {
          "internalType": "address",
          "name": "owner",
          "type": "address"
        },
        {
          "internalType": "address",
          "name": "spender",
          "type": "address"
        }
      ],
      "name": "allowance",
      "outputs": [
        {
          "internalType": "uint256",
          "name": "",
          "type": "uint256"
        }
      ],
      "stateMutability": "view",
      "type": "function"
    },
    {
      "inputs": [
        {
          "internalType": "address",
          "name": "spender",
          "type": "address"
        },
        {
          "internalType": "uint256",
          "name": "amount",
          "type": "uint256"
        }
      ],
      "name": "approve",
      "outputs": [
        {
          "internalType": "bool",
          "name": "",
          "type": "bool"
        }
      ],
      "stateMutability": "nonpayable",
      "type": "function"
    },
    {
      "inputs": [],
      "name": "availableForBorrow",
      "outputs": [
        {
          "internalType": "uint256",
          "name": "",
          "type": "uint256"
        }
      ],
      "stateMutability": "view",
      "type": "function"
    },
    {
      "inputs": [
        {
          "internalType": "address",
          "name": "owner",
          "type": "address"
        }
      ],
      "name": "balanceOf",
      "outputs": [
        {
          "internalType": "uint256",
          "name": "",
          "type": "uint256"
        }
      ],
      "stateMutability": "view",
      "type": "function"
    },
    {
      "inputs": [
        {
          "internalType": "address",
          "name": "owner",
          "type": "address"
        }
      ],
      "name": "balanceOfUnderlying",
      "outputs": [
        {
          "internalType": "uint256",
          "name": "",
          "type": "uint256"
        }
      ],
      "stateMutability": "nonpayable",
      "type": "function"
    },
    {
      "inputs": [],
      "name": "baseRatePerBlock",
      "outputs": [
        {
          "internalType": "uint256",
          "name": "",
          "type": "uint256"
        }
      ],
      "stateMutability": "view",
      "type": "function"
    },
    {
      "inputs": [
        {
          "internalType": "uint16",
          "name": "marketId",
          "type": "uint16"
        },
        {
          "internalType": "address",
          "name": "account",
          "type": "address"
        }
      ],
      "name": "borrowBalanceCurrent",
      "outputs": [
        {
          "internalType": "uint256",
          "name": "",
          "type": "uint256"
        }
      ],
      "stateMutability": "view",
      "type": "function"
    },
    {
      "inputs": [
        {
          "internalType": "uint16",
          "name": "marketId",
          "type": "uint16"
        },
        {
          "internalType": "address",
          "name": "account",
          "type": "address"
        }
      ],
      "name": "borrowBalanceStored",
      "outputs": [
        {
          "internalType": "uint256",
          "name": "",
          "type": "uint256"
        }
      ],
      "stateMutability": "view",
      "type": "function"
    },
    {
      "inputs": [
        {
          "internalType": "uint16",
          "name": "marketId",
          "type": "uint16"
        },
        {
          "internalType": "address",
          "name": "borrower",
          "type": "address"
        },
        {
          "internalType": "uint256",
          "name": "borrowAmount",
          "type": "uint256"
        }
      ],
      "name": "borrowBehalf",
      "outputs": [],
      "stateMutability": "nonpayable",
      "type": "function"
    },
    {
      "inputs": [],
      "name": "borrowCapFactorMantissa",
      "outputs": [
        {
          "internalType": "uint256",
          "name": "",
          "type": "uint256"
        }
      ],
      "stateMutability": "view",
      "type": "function"
    },
    {
      "inputs": [],
      "name": "borrowIndex",
      "outputs": [
        {
          "internalType": "uint256",
          "name": "",
          "type": "uint256"
        }
      ],
      "stateMutability": "view",
      "type": "function"
    },
    {
      "inputs": [],
      "name": "borrowRatePerBlock",
      "outputs": [
        {
          "internalType": "uint256",
          "name": "",
          "type": "uint256"
        }
      ],
      "stateMutability": "view",
      "type": "function"
    },
    {
      "inputs": [],
      "name": "controller",
      "outputs": [
        {
          "internalType": "address",
          "name": "",
          "type": "address"
        }
      ],
      "stateMutability": "view",
      "type": "function"
    },
    {
      "inputs": [],
      "name": "decimals",
      "outputs": [
        {
          "internalType": "uint8",
          "name": "",
          "type": "uint8"
        }
      ],
      "stateMutability": "view",
      "type": "function"
    },
    {
      "inputs": [],
      "name": "developer",
      "outputs": [
        {
          "internalType": "address payable",
          "name": "",
          "type": "address"
        }
      ],
      "stateMutability": "view",
      "type": "function"
    },
    {
      "inputs": [],
      "name": "exchangeRateCurrent",
      "outputs": [
        {
          "internalType": "uint256",
          "name": "",
          "type": "uint256"
        }
      ],
      "stateMutability": "nonpayable",
      "type": "function"
    },
    {
      "inputs": [],
      "name": "exchangeRateStored",
      "outputs": [
        {
          "internalType": "uint256",
          "name": "",
          "type": "uint256"
        }
      ],
      "stateMutability": "view",
      "type": "function"
    },
    {
      "inputs": [
        {
          "internalType": "uint16",
          "name": "marketId",
          "type": "uint16"
        },
        {
          "internalType": "address",
          "name": "account",
          "type": "address"
        }
      ],
      "name": "getAccountSnapshot",
      "outputs": [
        {
          "internalType": "uint256",
          "name": "",
          "type": "uint256"
        },
        {
          "internalType": "uint256",
          "name": "",
          "type": "uint256"
        },
        {
          "internalType": "uint256",
          "name": "",
          "type": "uint256"
        }
      ],
      "stateMutability": "view",
      "type": "function"
    },
    {
      "inputs": [],
      "name": "getCash",
      "outputs": [
        {
          "internalType": "uint256",
          "name": "",
          "type": "uint256"
        }
      ],
      "stateMutability": "view",
      "type": "function"
    },
    {
      "inputs": [],
      "name": "implementation",
      "outputs": [
        {
          "internalType": "address",
          "name": "",
          "type": "address"
        }
      ],
      "stateMutability": "view",
      "type": "function"
    },
    {
      "inputs": [
        {
          "internalType": "address",
          "name": "underlying_",
          "type": "address"
        },
        {
          "internalType": "bool",
          "name": "isWethPool_",
          "type": "bool"
        },
        {
          "internalType": "address",
          "name": "controller_",
          "type": "address"
        },
        {
          "internalType": "uint256",
          "name": "baseRatePerBlock_",
          "type": "uint256"
        },
        {
          "internalType": "uint256",
          "name": "multiplierPerBlock_",
          "type": "uint256"
        },
        {
          "internalType": "uint256",
          "name": "jumpMultiplierPerBlock_",
          "type": "uint256"
        },
        {
          "internalType": "uint256",
          "name": "kink_",
          "type": "uint256"
        },
        {
          "internalType": "uint256",
          "name": "initialExchangeRateMantissa_",
          "type": "uint256"
        },
        {
          "internalType": "string",
          "name": "name_",
          "type": "string"
        },
        {
          "internalType": "string",
          "name": "symbol_",
          "type": "string"
        },
        {
          "internalType": "uint8",
          "name": "decimals_",
          "type": "uint8"
        }
      ],
      "name": "initialize",
      "outputs": [],
      "stateMutability": "nonpayable",
      "type": "function"
    },
    {
      "inputs": [],
      "name": "isWethPool",
      "outputs": [
        {
          "internalType": "bool",
          "name": "",
          "type": "bool"
        }
      ],
      "stateMutability": "view",
      "type": "function"
    },
    {
      "inputs": [],
      "name": "jumpMultiplierPerBlock",
      "outputs": [
        {
          "internalType": "uint256",
          "name": "",
          "type": "uint256"
        }
      ],
      "stateMutability": "view",
      "type": "function"
    },
    {
      "inputs": [],
      "name": "kink",
      "outputs": [
        {
          "internalType": "uint256",
          "name": "",
          "type": "uint256"
        }
      ],
      "stateMutability": "view",
      "type": "function"
    },
    {
      "inputs": [
        {
          "internalType": "uint256",
          "name": "mintAmount",
          "type": "uint256"
        }
      ],
      "name": "mint",
      "outputs": [],
      "stateMutability": "nonpayable",
      "type": "function"
    },
    {
      "inputs": [],
      "name": "mintEth",
      "outputs": [],
      "stateMutability": "payable",
      "type": "function"
    },
    {
      "inputs": [
        {
          "internalType": "address",
          "name": "to",
          "type": "address"
        },
        {
          "internalType": "uint256",
          "name": "amount",
          "type": "uint256"
        }
      ],
      "name": "mintTo",
      "outputs": [],
      "stateMutability": "payable",
      "type": "function"
    },
    {
      "inputs": [],
      "name": "multiplierPerBlock",
      "outputs": [
        {
          "internalType": "uint256",
          "name": "",
          "type": "uint256"
        }
      ],
      "stateMutability": "view",
      "type": "function"
    },
    {
      "inputs": [],
      "name": "name",
      "outputs": [
        {
          "internalType": "string",
          "name": "",
          "type": "string"
        }
      ],
      "stateMutability": "view",
      "type": "function"
    },
    {
      "inputs": [],
      "name": "pendingAdmin",
      "outputs": [
        {
          "internalType": "address payable",
          "name": "",
          "type": "address"
        }
      ],
      "stateMutability": "view",
      "type": "function"
    },
    {
      "inputs": [
        {
          "internalType": "uint256",
          "name": "redeemTokens",
          "type": "uint256"
        }
      ],
      "name": "redeem",
      "outputs": [],
      "stateMutability": "nonpayable",
      "type": "function"
    },
    {
      "inputs": [
        {
          "internalType": "uint256",
          "name": "redeemAmount",
          "type": "uint256"
        }
      ],
      "name": "redeemUnderlying",
      "outputs": [],
      "stateMutability": "nonpayable",
      "type": "function"
    },
    {
      "inputs": [
        {
          "internalType": "address payable",
          "name": "to",
          "type": "address"
        },
        {
          "internalType": "uint256",
          "name": "reduceAmount",
          "type": "uint256"
        }
      ],
      "name": "reduceReserves",
      "outputs": [],
      "stateMutability": "nonpayable",
      "type": "function"
    },
    {
      "inputs": [
        {
          "internalType": "uint16",
          "name": "marketId",
          "type": "uint16"
        },
        {
          "internalType": "address",
          "name": "borrower",
          "type": "address"
        },
        {
          "internalType": "uint256",
          "name": "repayAmount",
          "type": "uint256"
        }
      ],
      "name": "repayBorrowBehalf",
      "outputs": [],
      "stateMutability": "nonpayable",
      "type": "function"
    },
    {
      "inputs": [
        {
          "internalType": "uint16",
          "name": "marketId",
          "type": "uint16"
        },
        {
          "internalType": "address",
          "name": "borrower",
          "type": "address"
        },
        {
          "internalType": "uint256",
          "name": "repayAmount",
          "type": "uint256"
        }
      ],
      "name": "repayBorrowEndByOpenLev",
      "outputs": [],
      "stateMutability": "nonpayable",
      "type": "function"
    },
    {
      "inputs": [],
      "name": "reserveFactorMantissa",
      "outputs": [
        {
          "internalType": "uint256",
          "name": "",
          "type": "uint256"
        }
      ],
      "stateMutability": "view",
      "type": "function"
    },
    {
      "inputs": [
        {
          "internalType": "uint256",
          "name": "newBorrowCapFactorMantissa",
          "type": "uint256"
        }
      ],
      "name": "setBorrowCapFactorMantissa",
      "outputs": [],
      "stateMutability": "nonpayable",
      "type": "function"
    },
    {
      "inputs": [
        {
          "internalType": "address",
          "name": "newController",
          "type": "address"
        }
      ],
      "name": "setController",
      "outputs": [],
      "stateMutability": "nonpayable",
      "type": "function"
    },
    {
      "inputs": [
        {
          "internalType": "uint256",
          "name": "baseRatePerBlock_",
          "type": "uint256"
        },
        {
          "internalType": "uint256",
          "name": "multiplierPerBlock_",
          "type": "uint256"
        },
        {
          "internalType": "uint256",
          "name": "jumpMultiplierPerBlock_",
          "type": "uint256"
        },
        {
          "internalType": "uint256",
          "name": "kink_",
          "type": "uint256"
        }
      ],
      "name": "setInterestParams",
      "outputs": [],
      "stateMutability": "nonpayable",
      "type": "function"
    },
    {
      "inputs": [
        {
          "internalType": "address payable",
          "name": "newPendingAdmin",
          "type": "address"
        }
      ],
      "name": "setPendingAdmin",
      "outputs": [],
      "stateMutability": "nonpayable",
      "type": "function"
    },
    {
      "inputs": [
        {
          "internalType": "uint256",
          "name": "newReserveFactorMantissa",
          "type": "uint256"
        }
      ],
      "name": "setReserveFactor",
      "outputs": [],
      "stateMutability": "nonpayable",
      "type": "function"
    },
    {
      "inputs": [],
      "name": "supplyRatePerBlock",
      "outputs": [
        {
          "internalType": "uint256",
          "name": "",
          "type": "uint256"
        }
      ],
      "stateMutability": "view",
      "type": "function"
    },
    {
      "inputs": [],
      "name": "symbol",
      "outputs": [
        {
          "internalType": "string",
          "name": "",
          "type": "string"
        }
      ],
      "stateMutability": "view",
      "type": "function"
    },
    {
      "inputs": [],
      "name": "totalBorrows",
      "outputs": [
        {
          "internalType": "uint256",
          "name": "",
          "type": "uint256"
        }
      ],
      "stateMutability": "view",
      "type": "function"
    },
    {
      "inputs": [],
      "name": "totalBorrowsCurrent",
      "outputs": [
        {
          "internalType": "uint256",
          "name": "",
          "type": "uint256"
        }
      ],
      "stateMutability": "view",
      "type": "function"
    },
    {
      "inputs": [],
      "name": "totalReserves",
      "outputs": [
        {
          "internalType": "uint256",
          "name": "",
          "type": "uint256"
        }
      ],
      "stateMutability": "view",
      "type": "function"
    },
    {
      "inputs": [],
      "name": "totalSupply",
      "outputs": [
        {
          "internalType": "uint256",
          "name": "",
          "type": "uint256"
        }
      ],
      "stateMutability": "view",
      "type": "function"
    },
    {
      "inputs": [
        {
          "internalType": "address",
          "name": "dst",
          "type": "address"
        },
        {
          "internalType": "uint256",
          "name": "amount",
          "type": "uint256"
        }
      ],
      "name": "transfer",
      "outputs": [
        {
          "internalType": "bool",
          "name": "",
          "type": "bool"
        }
      ],
      "stateMutability": "nonpayable",
      "type": "function"
    },
    {
      "inputs": [
        {
          "internalType": "address",
          "name": "src",
          "type": "address"
        },
        {
          "internalType": "address",
          "name": "dst",
          "type": "address"
        },
        {
          "internalType": "uint256",
          "name": "amount",
          "type": "uint256"
        }
      ],
      "name": "transferFrom",
      "outputs": [
        {
          "internalType": "bool",
          "name": "",
          "type": "bool"
        }
      ],
      "stateMutability": "nonpayable",
      "type": "function"
    },
    {
      "inputs": [],
      "name": "underlying",
      "outputs": [
        {
          "internalType": "address",
          "name": "",
          "type": "address"
        }
      ],
      "stateMutability": "view",
      "type": "function"
    }
  ],
  "bytecode": "0x608060405234801561001057600080fd5b50600380546001600160a01b031916331790556001601a55614e8a806100376000396000f3fe60806040526004361061036b5760003560e01c80638726bb89116101c6578063ca4b208b116100f7578063ebd0847f11610095578063f851a4401161006f578063f851a44014610cea578063f8f9da2814610cff578063fb0fc2b614610d14578063fd2da33914610d295761036b565b8063ebd0847f14610c84578063f14039de14610cc0578063f77c479114610cd55761036b565b8063d245445b116100d1578063d245445b14610bd4578063d37bdd3e14610bdc578063db006a7514610c1f578063dd62ed3e14610c495761036b565b8063ca4b208b14610b95578063cc2c929e14610baa578063cfa9920114610bbf5761036b565b8063a6afed9511610164578063ae9d70b01161013e578063ae9d70b0146109d4578063b9f9850a146109e9578063bd6d894d146109fe578063c89a636814610a135761036b565b8063a6afed9514610971578063a9059cbb14610986578063aa5af0fd146109bf5761036b565b806395d89b41116101a057806395d89b411461089a5780639f2b5fe1146108af578063a00c441d1461090a578063a0712d68146109475761036b565b80638726bb891461083d5780638f840ddd1461085257806392eefe9b146108675761036b565b806342af38d8116102a05780636c540baf1161023e57806370a082311161021857806370a08231146107ae57806373acee98146107e15780637821a514146107f6578063852a12e3146108135761036b565b80636c540baf1461074b5780636e45a80f146107605780636f307dc3146107995761036b565b80634dd18bf51161027a5780634dd18bf5146106965780635c60da1b146106c9578063688c1768146106de5780636940caa0146107215761036b565b806342af38d814610640578063449a52f81461065557806347bd3718146106815761036b565b80631c4469831161030d578063313ce567116102e7578063313ce5671461058a5780633af9e669146105b55780633b1d21a2146105e857806341492bc7146105fd5761036b565b80631c446983146104ec57806323b872dd1461051657806326782247146105595761036b565b8063173b990411610349578063173b99041461045e57806318160ddd14610485578063182df0f51461049a57806318c257c8146104af5761036b565b806306fdde0314610370578063095ea7b3146103fa5780630e18b68114610447575b600080fd5b34801561037c57600080fd5b50610385610d3e565b6040805160208082528351818301528351919283929083019185019080838360005b838110156103bf5781810151838201526020016103a7565b50505050905090810190601f1680156103ec5780820380516001836020036101000a031916815260200191505b509250505060405180910390f35b34801561040657600080fd5b506104336004803603604081101561041d57600080fd5b506001600160a01b038135169060200135610dcc565b604080519115158252519081900360200190f35b34801561045357600080fd5b5061045c610e39565b005b34801561046a57600080fd5b50610473610f39565b60408051918252519081900360200190f35b34801561049157600080fd5b50610473610f3f565b3480156104a657600080fd5b50610473610f45565b3480156104bb57600080fd5b50610473600480360360408110156104d257600080fd5b50803561ffff1690602001356001600160a01b0316610faa565b3480156104f857600080fd5b5061045c6004803603602081101561050f57600080fd5b503561107e565b34801561052257600080fd5b506104336004803603606081101561053957600080fd5b506001600160a01b03813581169160208101359091169060400135611125565b34801561056557600080fd5b5061056e61118b565b604080516001600160a01b039092168252519081900360200190f35b34801561059657600080fd5b5061059f61119a565b6040805160ff9092168252519081900360200190f35b3480156105c157600080fd5b50610473600480360360208110156105d857600080fd5b50356001600160a01b03166111a3565b3480156105f457600080fd5b50610473611240565b34801561060957600080fd5b5061045c6004803603606081101561062057600080fd5b5061ffff813516906001600160a01b0360208201351690604001356112bc565b34801561064c57600080fd5b50610473611325565b61045c6004803603604081101561066b57600080fd5b506001600160a01b03813516906020013561132b565b34801561068d57600080fd5b506104736113b9565b3480156106a257600080fd5b5061045c600480360360208110156106b957600080fd5b50356001600160a01b03166113bf565b3480156106d557600080fd5b5061056e61142a565b3480156106ea57600080fd5b5061045c6004803603606081101561070157600080fd5b5061ffff813516906001600160a01b036020820135169060400135611439565b34801561072d57600080fd5b5061045c6004803603602081101561074457600080fd5b50356114a5565b34801561075757600080fd5b50610473611544565b34801561076c57600080fd5b5061045c6004803603604081101561078357600080fd5b506001600160a01b03813516906020013561154a565b3480156107a557600080fd5b5061056e61161b565b3480156107ba57600080fd5b50610473600480360360208110156107d157600080fd5b50356001600160a01b031661162a565b3480156107ed57600080fd5b50610473611645565b61045c6004803603602081101561080c57600080fd5b50356118b3565b34801561081f57600080fd5b5061045c6004803603602081101561083657600080fd5b5035611978565b34801561084957600080fd5b506104736119df565b34801561085e57600080fd5b506104736119e5565b34801561087357600080fd5b5061045c6004803603602081101561088a57600080fd5b50356001600160a01b03166119eb565b3480156108a657600080fd5b50610385611a96565b3480156108bb57600080fd5b506108ec600480360360408110156108d257600080fd5b50803561ffff1690602001356001600160a01b0316611af1565b60408051938452602084019290925282820152519081900360600190f35b34801561091657600080fd5b506104736004803603604081101561092d57600080fd5b50803561ffff1690602001356001600160a01b0316611b89565b34801561095357600080fd5b5061045c6004803603602081101561096a57600080fd5b5035611bb7565b34801561097d57600080fd5b5061045c611c16565b34801561099257600080fd5b50610433600480360360408110156109a957600080fd5b506001600160a01b038135169060200135611fd2565b3480156109cb57600080fd5b50610473612037565b3480156109e057600080fd5b5061047361203d565b3480156109f557600080fd5b5061047361205d565b348015610a0a57600080fd5b50610473612063565b348015610a1f57600080fd5b5061045c6004803603610160811015610a3757600080fd5b6001600160a01b038235811692602081013515159260408201359092169160608201359160808101359160a08201359160c08101359160e082013591908101906101208101610100820135640100000000811115610a9457600080fd5b820183602082011115610aa657600080fd5b80359060200191846001830284011164010000000083111715610ac857600080fd5b91908080601f0160208091040260200160405190810160405280939291908181526020018383808284376000920191909152509295949360208101935035915050640100000000811115610b1b57600080fd5b820183602082011115610b2d57600080fd5b80359060200191846001830284011164010000000083111715610b4f57600080fd5b91908080601f0160208091040260200160405190810160405280939291908181526020018383808284376000920191909152509295505050903560ff1691506120ca9050565b348015610ba157600080fd5b5061056e6123ef565b348015610bb657600080fd5b506104336123fe565b348015610bcb57600080fd5b5061047361240e565b61045c612414565b348015610be857600080fd5b5061045c60048036036060811015610bff57600080fd5b5061ffff813516906001600160a01b0360208201351690604001356124c0565b348015610c2b57600080fd5b5061045c60048036036020811015610c4257600080fd5b5035612521565b348015610c5557600080fd5b5061047360048036036040811015610c6c57600080fd5b506001600160a01b0381358116916020013516612580565b348015610c9057600080fd5b5061045c60048036036080811015610ca757600080fd5b50803590602081013590604081013590606001356125ab565b348015610ccc57600080fd5b506104736127c0565b348015610ce157600080fd5b5061056e6127c6565b348015610cf657600080fd5b5061056e6127d5565b348015610d0b57600080fd5b506104736127e4565b348015610d2057600080fd5b506104736127fc565b348015610d3557600080fd5b506104736128a8565b6004805460408051602060026001851615610100026000190190941693909304601f81018490048402820184019092528181529291830182828015610dc45780601f10610d9957610100808354040283529160200191610dc4565b820191906000526020600020905b815481529060010190602001808311610da757829003601f168201915b505050505081565b3360008181526009602090815260408083206001600160a01b03871680855290835281842086905581518681529151939493909284927f8c5be1e5ebec7d5bd14f71427d1e84f3dd0314c0f7b2291e5b200ac8c7c3b925929081900390910190a360019150505b92915050565b6002546001600160a01b03163314610e825760405162461bcd60e51b8152600401808060200182810382526022815260200180614dbd6022913960400191505060405180910390fd5b60018054600280546001600160a01b038082166001600160a01b031980861682179687905590921690925560408051938316808552949092166020840152815190927ff9ffabca9c8276e99321725bcb43fb076a6c66a54b7f21c4e8146d8519b417dc92908290030190a1600254604080516001600160a01b038085168252909216602083015280517fca4f2f25d0898edd99413412fb94012f9e54ec8142f9b093e7720646a95b16a99281900390910190a15050565b60115481565b60075481565b6000806000610f526128ae565b90925090506000826003811115610f6557fe5b14610fa3576040805162461bcd60e51b815260206004820152600960248201526818d85b18c819985a5b60ba1b604482015290519081900360640190fd5b9150505b90565b6000806000610fb761295d565b90925090506000826003811115610fca57fe5b14611015576040805162461bcd60e51b815260206004820152601660248201527518d85b18c8189bdc9c9bddc81a5b99195e0819985a5b60521b604482015290519081900360640190fd5b600080611023878785612a15565b9092509050600082600381111561103657fe5b14611074576040805162461bcd60e51b815260206004820152600960248201526818d85b18c819985a5b60ba1b604482015290519081900360640190fd5b9695505050505050565b611086612ad6565b670de0b6b3a76400008111156110d6576040805162461bcd60e51b815260206004820152601060248201526f466163746f7220746f6f206c6172676560801b604482015290519081900360640190fd5b6110de611c16565b6011805490829055604080518281526020810184905281517faaa68312e2ea9d50e16af5068410ab56e1a1fd06037b1a35664812c30f821460929181900390910190a15050565b60006002601a54141561116d576040805162461bcd60e51b815260206004820152601f6024820152600080516020614d9d833981519152604482015290519081900360640190fd5b6002601a5561117e33858585612b2c565b6001601a55949350505050565b6002546001600160a01b031681565b60065460ff1681565b60008060405180602001604052806111b9612063565b90526001600160a01b0384166000908152600860205260408120549192509081906111e5908490612e8d565b909250905060008260038111156111f857fe5b14611238576040805162461bcd60e51b815260206004820152600b60248201526a18d85b18c819985a5b195960aa1b604482015290519081900360640190fd5b949350505050565b601354604080516370a0823160e01b815230600482015290516000926001600160a01b0316916370a08231916024808301926020929190829003018186803b15801561128b57600080fd5b505afa15801561129f573d6000803e3d6000fd5b505050506040513d60208110156112b557600080fd5b5051905090565b6002601a541415611302576040805162461bcd60e51b815260206004820152601f6024820152600080516020614d9d833981519152604482015290519081900360640190fd5b6002601a5561130f611c16565b61131b83833384612eda565b50506001601a5550565b600a5481565b6002601a541415611371576040805162461bcd60e51b815260206004820152601f6024820152600080516020614d9d833981519152604482015290519081900360640190fd5b6002601a5561137e611c16565b601354600160a01b900460ff16156113a25761139c82346000613245565b506113b0565b6113ae82826001613245565b505b50506001601a55565b600f5481565b6113c7612ad6565b600280546001600160a01b038381166001600160a01b0319831681179093556040805191909216808252602082019390935281517fca4f2f25d0898edd99413412fb94012f9e54ec8142f9b093e7720646a95b16a9929181900390910190a15050565b6000546001600160a01b031681565b6002601a54141561147f576040805162461bcd60e51b815260206004820152601f6024820152600080516020614d9d833981519152604482015290519081900360640190fd5b6002601a5561148c611c16565b61149a833384846001613701565b50506001601a555050565b6114ad612ad6565b670de0b6b3a76400008111156114fd576040805162461bcd60e51b815260206004820152601060248201526f466163746f7220746f6f206c6172676560801b604482015290519081900360640190fd5b600a805490829055604080518281526020810184905281517f8d783a1777b97cb9cbf193604a8a1bc534234dbaaa16629ff7022f0d63a7322f929181900390910190a15050565b600d5481565b6002601a541415611590576040805162461bcd60e51b815260206004820152601f6024820152600080516020614d9d833981519152604482015290519081900360640190fd5b6002601a5561159d612ad6565b6115a5611c16565b6012546000906115b59083613b38565b601281905590506115c883836001613b95565b604080516001600160a01b03851681526020810184905280820183905290517f3bad0c59cf2f06e7314077049f48a93578cd16f5ef92329f1dab1420a99c177e9181900360600190a150506001601a5550565b6013546001600160a01b031681565b6001600160a01b031660009081526008602052604090205490565b600080611650613c97565b600d549091508082141561166a57600f5492505050610fa7565b6000611674611240565b600f5460125491925090600061168b848484613c9b565b905065048c273950008111156116df576040805162461bcd60e51b81526020600482015260146024820152733137b93937bbb2b9103930ba32903434b3b432b960611b604482015290519081900360640190fd5b6000806116ec8888613d5e565b909250905060008260038111156116ff57fe5b14611749576040805162461bcd60e51b815260206004820152601560248201527463616c6320626c6f636b2064656c7461206572726f60581b604482015290519081900360640190fd5b611751614c42565b60008061176c60405180602001604052808881525085613d81565b9095509250600085600381111561177f57fe5b146117d1576040805162461bcd60e51b815260206004820152601a60248201527f63616c6320696e74657265737420666163746f72206572726f72000000000000604482015290519081900360640190fd5b6117db8389612e8d565b909550915060008560038111156117ee57fe5b1461183a576040805162461bcd60e51b815260206004820152601760248201527631b0b6319034b73a32b932b9ba1030b1b19032b93937b960491b604482015290519081900360640190fd5b6118448289613de9565b9095509050600085600381111561185757fe5b146118a4576040805162461bcd60e51b815260206004820152601860248201527731b0b631903a37ba30b6103137b93937bbb99032b93937b960411b604482015290519081900360640190fd5b9a505050505050505050505090565b6002601a5414156118f9576040805162461bcd60e51b815260206004820152601f6024820152600080516020614d9d833981519152604482015290519081900360640190fd5b6002601a55611906611c16565b60008061191533846001613e0f565b6012549091506119259082613eac565b6012819055604080513381526020810184905280820183905290519193507fa91e67c5ea634cd43a12c5a482724b03de01e85ca68702a53d0c2f45cb7c1dc5919081900360600190a150506001601a5550565b6002601a5414156119be576040805162461bcd60e51b815260206004820152601f6024820152600080516020614d9d833981519152604482015290519081900360640190fd5b6002601a556119cb611c16565b6119d733600083613f06565b506001601a55565b60155481565b60125481565b6119f3612ad6565b6001600160a01b038116611a33576040805162461bcd60e51b8152602060048201526002602482015261060f60f31b604482015290519081900360640190fd5b600b80546001600160a01b038381166001600160a01b0319831681179093556040805191909216808252602082019390935281517ff9b6a28700579d5c8fab50f0ac2dcaa52109b85c369c4f511fcc873330ab6cbb929181900390910190a15050565b6005805460408051602060026001851615610100026000190190941693909304601f81018490048402820184019092528181529291830182828015610dc45780601f10610d9957610100808354040283529160200191610dc4565b6001600160a01b03811660009081526008602052604081205481908190818080611b1b898961443d565b935090506000816003811115611b2d57fe5b14611b4657600080600096509650965050505050611b82565b611b4e6128ae565b925090506000816003811115611b6057fe5b14611b7957600080600096509650965050505050611b82565b50919450925090505b9250925092565b61ffff821660009081526018602090815260408083206001600160a01b038516845290915290205492915050565b6002601a541415611bfd576040805162461bcd60e51b815260206004820152601f6024820152600080516020614d9d833981519152604482015290519081900360640190fd5b6002601a55611c0a611c16565b6113b033826000613245565b6000611c20613c97565b600d5490915080821415611c35575050611fd0565b6000611c3f611240565b600f54600e5460125492935090916000611c5a858584613c9b565b905065048c27395000811115611cae576040805162461bcd60e51b81526020600482015260146024820152733137b93937bbb2b9103930ba32903434b3b432b960611b604482015290519081900360640190fd5b600080611cbb8989613d5e565b90925090506000826003811115611cce57fe5b14611d18576040805162461bcd60e51b815260206004820152601560248201527463616c6320626c6f636b2064656c7461206572726f60581b604482015290519081900360640190fd5b611d20614c42565b600080600080611d3e60405180602001604052808a81525087613d81565b90975094506000876003811115611d5157fe5b14611da3576040805162461bcd60e51b815260206004820152601a60248201527f63616c6320696e74657265737420666163746f72206572726f72000000000000604482015290519081900360640190fd5b611dad858c612e8d565b90975093506000876003811115611dc057fe5b14611e0c576040805162461bcd60e51b815260206004820152601760248201527631b0b6319034b73a32b932b9ba1030b1b19032b93937b960491b604482015290519081900360640190fd5b611e16848c613de9565b90975092506000876003811115611e2957fe5b14611e76576040805162461bcd60e51b815260206004820152601860248201527731b0b631903a37ba30b6103137b93937bbb99032b93937b960411b604482015290519081900360640190fd5b611e916040518060200160405280601154815250858b614458565b90975090506000876003811115611ea457fe5b14611ef6576040805162461bcd60e51b815260206004820152601960248201527f63616c6320746f74616c207265736572766573206572726f7200000000000000604482015290519081900360640190fd5b611f01858b8c614458565b90975091506000876003811115611f1457fe5b14611f66576040805162461bcd60e51b815260206004820152601860248201527f63616c6320626f72726f777320696e646578206572726f720000000000000000604482015290519081900360640190fd5b600d8e9055600e829055600f8390556012819055604080518d8152602081018690528082018490526060810185905290517f4dec04e750ca11537cabcd8a9eab06494de08da3735bc8871cd41250e190bc049181900360800190a150505050505050505050505050505b565b60006002601a54141561201a576040805162461bcd60e51b815260206004820152601f6024820152600080516020614d9d833981519152604482015290519081900360640190fd5b6002601a5561202b33808585612b2c565b6001601a559392505050565b600e5481565b600061205861204a611240565b600f546012546011546144ac565b905090565b60165481565b60006002601a5414156120ab576040805162461bcd60e51b815260206004820152601f6024820152600080516020614d9d833981519152604482015290519081900360640190fd5b6002601a556120b8611c16565b6120c0610f45565b90506001601a5590565b6001600160a01b038b16612125576040805162461bcd60e51b815260206004820152601f60248201527f756e6465726c79696e675f20616464726573732063616e6e6f74206265203000604482015290519081900360640190fd5b6001600160a01b038916612180576040805162461bcd60e51b815260206004820152601f60248201527f636f6e74726f6c6c65725f20616464726573732063616e6e6f74206265203000604482015290519081900360640190fd5b6001546001600160a01b031633146121df576040805162461bcd60e51b815260206004820181905260248201527f4f6e6c7920616c6c6f7720746f2062652063616c6c65642062792061646d696e604482015290519081900360640190fd5b600d541580156121ef5750600e54155b61222e576040805162461bcd60e51b815260206004820152600b60248201526a696e69746564206f6e636560a81b604482015290519081900360640190fd5b600c8490558361226f5760405162461bcd60e51b8152600401808060200182810382526035815260200180614e206035913960400191505060405180910390fd5b600b80546001600160a01b0319166001600160a01b038b161790556013805460ff60a01b1916600160a01b8c15150217905560148890556015879055601686905560178590556122bd613c97565b600d556a084595161401484a000000600e55670b1a2bc2ec500000600a5567016345785d8a000060115582516122fa906004906020860190614c55565b50815161230e906005906020850190614c55565b506006805460ff191660ff831617905560038054600160a01b60ff60a01b19909116179055601380546001600160a01b0319166001600160a01b038d81169190911791829055604080516318160ddd60e01b8152905192909116916318160ddd91600480820192602092909190829003018186803b15801561238f57600080fd5b505afa1580156123a3573d6000803e3d6000fd5b505050506040513d60208110156123b957600080fd5b50506040805160008082529151339291600080516020614e00833981519152919081900360200190a35050505050505050505050565b6003546001600160a01b031681565b601354600160a01b900460ff1681565b60195481565b6002601a54141561245a576040805162461bcd60e51b815260206004820152601f6024820152600080516020614d9d833981519152604482015290519081900360640190fd5b6002601a55601354600160a01b900460ff166124ac576040805162461bcd60e51b815260206004820152600c60248201526b1b9bdd08195d1a081c1bdbdb60a21b604482015290519081900360640190fd5b6124b4611c16565b6119d733346000613245565b6002601a541415612506576040805162461bcd60e51b815260206004820152601f6024820152600080516020614d9d833981519152604482015290519081900360640190fd5b6002601a55612513611c16565b61149a833384846000613701565b6002601a541415612567576040805162461bcd60e51b815260206004820152601f6024820152600080516020614d9d833981519152604482015290519081900360640190fd5b6002601a55612574611c16565b6119d733826000613f06565b6001600160a01b03918216600090815260096020908152604080832093909416825291909152205490565b600b54604080516335c8df1d60e11b815233600482015290516001600160a01b0390921691636b91be3a9160248082019260009290919082900301818387803b1580156125f757600080fd5b505af115801561260b573d6000803e3d6000fd5b5050505060145460001461262157612621611c16565b6509184e72a0008410612671576040805162461bcd60e51b815260206004820152601360248201527242617365207261746520746f6f206c6172676560681b604482015290519081900360640190fd5b60148490556509184e72a00083106126c5576040805162461bcd60e51b81526020600482015260126024820152714d756c207261746520746f6f206c6172676560701b604482015290519081900360640190fd5b60158390556509184e72a000821061271a576040805162461bcd60e51b81526020600482015260136024820152724a756d70207261746520746f6f206c6172676560681b604482015290519081900360640190fd5b6016829055670de0b6b3a764000081111561276e576040805162461bcd60e51b815260206004820152600f60248201526e4b6c696e6520746f6f206c6172676560881b604482015290519081900360640190fd5b601781905560408051858152602081018590528082018490526060810183905290517f1d6ada507d93788b3d2e6f68f2999ef7e05f2196ba5cde6db7d0a785745b3c249181900360800190a150505050565b60145481565b600b546001600160a01b031681565b6001546001600160a01b031681565b60006120586127f1611240565b600f54601254613c9b565b600080612807611240565b905060008061281b83600f54601254614519565b9092509050600082600381111561282e57fe5b1461283f5760009350505050610fa7565b60008061285c604051806020016040528085815250600a54612e8d565b9092509050600082600381111561286f57fe5b1461288257600095505050505050610fa7565b80600f54111561289a57600095505050505050610fa7565b600f54900394505050505090565b60175481565b6007546000908190806128c9575050600c5460009150612959565b60006128d3611240565b905060006128df614c42565b60006128f084600f54601254614519565b93509050600081600381111561290257fe5b14612917579550600094506129599350505050565b6129218386614557565b92509050600081600381111561293357fe5b14612948579550600094506129599350505050565b505160009550935061295992505050565b9091565b600080600061296a613c97565b600d5490915060008183141561298b576000600e5494509450505050612959565b60006129986127f1611240565b90506000806129a78686613d5e565b915091506129b3614c42565b6129cb60405180602001604052808681525083613d81565b909350905060008360038111156129de57fe5b146129f6578260009850985050505050505050612959565b612a0581600e54600e54614458565b9099509750505050505050509091565b61ffff831660009081526018602090815260408083206001600160a01b0386168452909152812080548291829182918291612a5a576000809550955050505050612ace565b8054612a669088614608565b90945092506000846003811115612a7957fe5b14612a8e578360009550955050505050612ace565b612a9c838260010154614647565b90945091506000846003811115612aaf57fe5b14612ac4578360009550955050505050612ace565b5060009450925050505b935093915050565b6001546001600160a01b03163314611fd0576040805162461bcd60e51b815260206004820152601460248201527331b0b63632b91036bab9ba1031329030b236b4b760611b604482015290519081900360640190fd5b60006001600160a01b038316612b89576040805162461bcd60e51b815260206004820152601760248201527f64737420616464726573732063616e6e6f742062652030000000000000000000604482015290519081900360640190fd5b826001600160a01b0316846001600160a01b03161415612bdc576040805162461bcd60e51b81526020600482015260096024820152681cdc98c80f48191cdd60ba1b604482015290519081900360640190fd5b600b546040805160016276d1bb60e11b031981526001600160a01b0387811660048301528681166024830152604482018690529151919092169163ff125c8a91606480830192600092919082900301818387803b158015612c3c57600080fd5b505af1158015612c50573d6000803e3d6000fd5b505050506000846001600160a01b0316866001600160a01b03161415612c795750600019612ca1565b506001600160a01b038085166000908152600960209081526040808320938916835292905220545b600080600080612cb18588613d5e565b90945092506000846003811115612cc457fe5b14612d04576040805162461bcd60e51b815260206004820152600b60248201526a1b9bdd08185b1b1bddd95960aa1b604482015290519081900360640190fd5b6001600160a01b038916600090815260086020526040902054612d279088613d5e565b90945091506000846003811115612d3a57fe5b14612d79576040805162461bcd60e51b815260206004820152600a6024820152690dcdee840cadcdeeaced60b31b604482015290519081900360640190fd5b6001600160a01b038816600090815260086020526040902054612d9c9088613de9565b90945090506000846003811115612daf57fe5b14612dec576040805162461bcd60e51b81526020600482015260086024820152670e8dede40daeac6d60c31b604482015290519081900360640190fd5b6001600160a01b03808a16600090815260086020526040808220859055918a168152208190556000198514612e44576001600160a01b03808a166000908152600960209081526040808320938e168352929052208390555b876001600160a01b0316896001600160a01b0316600080516020614e00833981519152896040518082815260200191505060405180910390a35060019998505050505050505050565b600080600080612e9d8686613d81565b90925090506000826003811115612eb057fe5b14612ec15750915060009050612ed3565b6000612ecc82614672565b9350935050505b9250929050565b612ee2613c97565b600d5414612f28576040805162461bcd60e51b815260206004820152600e60248201526d6e6f742073616d6520626c6f636b60901b604482015290519081900360640190fd5b600b546040805163368f515360e21b81526001600160a01b0386811660048301528581166024830152604482018590529151919092169163da3d454c91606480830192600092919082900301818387803b158015612f8557600080fd5b505af1158015612f99573d6000803e3d6000fd5b5050505080612fa6611240565b1015612fe7576040805162461bcd60e51b815260206004820152600b60248201526a636173683c626f72726f7760a81b604482015290519081900360640190fd5b612fef614ce1565b612ff9858561443d565b602083018190528282600381111561300d57fe5b600381111561301857fe5b905250600090508151600381111561302c57fe5b14613077576040805162461bcd60e51b815260206004820152601660248201527531b0b6319030b1b1903137b93937bbb99032b93937b960511b604482015290519081900360640190fd5b613085816020015183613de9565b604083018190528282600381111561309957fe5b60038111156130a457fe5b90525060009050815160038111156130b857fe5b14613103576040805162461bcd60e51b815260206004820152601660248201527531b0b6319030b1b1903137b93937bbb99032b93937b960511b604482015290519081900360640190fd5b61310f600f5483613de9565b606083018190528282600381111561312357fe5b600381111561312e57fe5b905250600090508151600381111561314257fe5b1461318f576040805162461bcd60e51b815260206004820152601860248201527731b0b631903a37ba30b6103137b93937bbb99032b93937b960411b604482015290519081900360640190fd5b60408181015161ffff87166000908152601860209081528382206001600160a01b03891683529052918220908155600e546001909101556060820151600f556131db9084908490613b95565b60408082015160608084015183516001600160a01b03808a1682528816602082015280850187905291820192909252608081019190915290517f10a0132d3bf8c82a7fb93a86160f3074ca5c3e5706fa2bcdf0e2b5fd495af09b9181900360a00190a15050505050565b600061324f613c97565b600d5414613295576040805162461bcd60e51b815260206004820152600e60248201526d6e6f742073616d6520626c6f636b60901b604482015290519081900360640190fd5b61329d614d0a565b6132a56128ae565b60208301819052828260038111156132b957fe5b60038111156132c457fe5b90525060009050815160038111156132d857fe5b14613324576040805162461bcd60e51b815260206004820152601760248201527631b0b6319032bc31b430b733b2b930ba329032b93937b960491b604482015290519081900360640190fd5b82156133f9576000613334611240565b9050336001600160a01b031663d7efa12987876040518363ffffffff1660e01b815260040180836001600160a01b0316815260200182815260200192505050600060405180830381600087803b15801561338d57600080fd5b505af11580156133a1573d6000803e3d6000fd5b5050505060006133af611240565b90508181116133ee576040805162461bcd60e51b815260206004820152600660248201526506d696e7420360d41b604482015290519081900360640190fd5b0360a082015261340b565b61340585856001613e0f565b60a08201525b61342b8160a0015160405180602001604052808460200151815250614681565b604083018190528282600381111561343f57fe5b600381111561344a57fe5b905250600090508151600381111561345e57fe5b146134a8576040805162461bcd60e51b815260206004820152601560248201527431b0b6319036b4b73a103a37b5b2b71032b93937b960591b604482015290519081900360640190fd5b600b5460408083015181516357739dc560e01b81526001600160a01b038981166004830152602482019290925291519216916357739dc59160448082019260009290919082900301818387803b15801561350157600080fd5b505af1158015613515573d6000803e3d6000fd5b505050506135296007548260400151613de9565b606083018190528282600381111561353d57fe5b600381111561354857fe5b905250600090508151600381111561355c57fe5b146135a7576040805162461bcd60e51b815260206004820152601660248201527518d85b18c81cdd5c1c1b1e481b995dc819985a5b195960521b604482015290519081900360640190fd5b6001600160a01b0385166000908152600860205260409081902054908201516135d09190613de9565b60808301819052828260038111156135e457fe5b60038111156135ef57fe5b905250600090508151600381111561360357fe5b1461364d576040805162461bcd60e51b815260206004820152601560248201527418d85b18c81d1bdad95b9cc81b995dc8185a5b1959605a1b604482015290519081900360640190fd5b60608082015160075560808201516001600160a01b0387166000818152600860209081526040918290209390935560a0850151818601518251938452938301528181019290925290517f4c209b5fc8ad50758f13e2e1088ba56a560dff690a1c6fef26394f4c03821c4f929181900390910190a1604080820151815190815290516001600160a01b038716913091600080516020614e008339815191529181900360200190a360a0015190505b9392505050565b600061370b613c97565b600d5414613751576040805162461bcd60e51b815260206004820152600e60248201526d6e6f742073616d6520626c6f636b60901b604482015290519081900360640190fd5b600b546040805163012c89d360e31b81526001600160a01b0388811660048301528781166024830152604482018790528515156064830152915191909216916309644e9891608480830192600092919082900301818387803b1580156137b657600080fd5b505af11580156137ca573d6000803e3d6000fd5b505050506137d6614d41565b61ffff871660009081526018602090815260408083206001600160a01b0389168452909152908190206001015490820152613811878661443d565b606083018190528282600381111561382557fe5b600381111561383057fe5b905250600090508151600381111561384457fe5b1461388e576040805162461bcd60e51b815260206004820152601560248201527431b0b6319030b1b1903137b93937bb9032b93937b960591b604482015290519081900360640190fd5b6000198414156138a757606081015160208201526138af565b602081018490525b6138bf8682602001516000613e0f565b60c08201528280156138d857508060c001518160600151115b156138ee5760c081015160608201510360e08201525b8060c001518160600151101561398857670e92596fd6290000613934826060015161392e670de0b6b3a76400008560c0015161469190919063ffffffff16565b906146ea565b111561397c576040805162461bcd60e51b81526020600482015260126024820152717265706179206d6f7265207468616e20352560701b604482015290519081900360640190fd5b60006080820152613999565b60c081015160608201510360808201525b82156139a757600060808201525b608081015160608201516139ba91613b38565b600f5410806139ce5750600f548160c00151115b156139df57600060a0820152613a0c565b613a066139fd82608001518360600151613b3890919063ffffffff16565b600f5490613b38565b60a08201525b8060800151601860008961ffff1661ffff1681526020019081526020016000206000876001600160a01b03166001600160a01b0316815260200190815260200160002060000181905550600e54601860008961ffff1661ffff1681526020019081526020016000206000876001600160a01b03166001600160a01b03168152602001908152602001600020600101819055508060a00151600f819055507f6fadbf7329d21f278e724fa0d4511001a158f2a97ee35c5bc4cf8b64417399ef86868360c001518460e0015185608001518660a0015160405180876001600160a01b03168152602001866001600160a01b03168152602001858152602001848152602001838152602001828152602001965050505050505060405180910390a160c001519695505050505050565b600082821115613b8f576040805162461bcd60e51b815260206004820152601e60248201527f536166654d6174683a207375627472616374696f6e206f766572666c6f770000604482015290519081900360640190fd5b50900390565b601354600160a01b900460ff168015613bab5750805b15613c795760135460408051632e1a7d4d60e01b81526004810185905290516001600160a01b0390921691632e1a7d4d9160248082019260009290919082900301818387803b158015613bfd57600080fd5b505af1158015613c11573d6000803e3d6000fd5b5050604051600092506001600160a01b038616915084908381818185875af1925050503d8060008114613c60576040519150601f19603f3d011682016040523d82523d6000602084013e613c65565b606091505b5050905080613c7357600080fd5b50613c92565b601354613c90906001600160a01b03168484614751565b505b505050565b4390565b600080613ca9858585614979565b90506017548111613ce957613ce1601454613cdb670de0b6b3a764000061392e6015548661469190919063ffffffff16565b90613eac565b9150506136fa565b6000613d14601454613cdb670de0b6b3a764000061392e60155460175461469190919063ffffffff16565b90506000613d2d60175484613b3890919063ffffffff16565b9050613d5482613cdb670de0b6b3a764000061392e6016548661469190919063ffffffff16565b93505050506136fa565b600080838311613d75575060009050818303612ed3565b50600390506000612ed3565b6000613d8b614c42565b600080613d9c866000015186614608565b90925090506000826003811115613daf57fe5b14613dce57506040805160208101909152600081529092509050612ed3565b60408051602081019091529081526000969095509350505050565b600080838301848110613e0157600092509050612ed3565b600260009250925050612ed3565b601354600090600160a01b900460ff168015613e285750815b15613e94575060135460408051630d0e30db60e41b8152905134926001600160a01b03169163d0e30db091849160048082019260009290919082900301818588803b158015613e7657600080fd5b505af1158015613e8a573d6000803e3d6000fd5b50505050506136fa565b601354611238906001600160a01b03168530866149b1565b6000828201838110156136fa576040805162461bcd60e51b815260206004820152601b60248201527f536166654d6174683a206164646974696f6e206f766572666c6f770000000000604482015290519081900360640190fd5b613f0e613c97565b600d5414613f54576040805162461bcd60e51b815260206004820152600e60248201526d6e6f742073616d6520626c6f636b60901b604482015290519081900360640190fd5b811580613f5f575080155b613f9e576040805162461bcd60e51b815260206004820152600b60248201526a6f6e65206265207a65726f60a81b604482015290519081900360640190fd5b613fa6614d0a565b613fae6128ae565b6020830181905282826003811115613fc257fe5b6003811115613fcd57fe5b9052506000905081516003811115613fe157fe5b1461402d576040805162461bcd60e51b815260206004820152601760248201527631b0b6319032bc31b430b733b2b930ba329032b93937b960491b604482015290519081900360640190fd5b82156140df576040808201849052805160208082019092529082015181526140559084612e8d565b606083018190528282600381111561406957fe5b600381111561407457fe5b905250600090508151600381111561408857fe5b146140da576040805162461bcd60e51b815260206004820152601860248201527f63616c632072656465656d20616d6f756e74206572726f720000000000000000604482015290519081900360640190fd5b614188565b6140fb8260405180602001604052808460200151815250614681565b604083018190528282600381111561410f57fe5b600381111561411a57fe5b905250600090508151600381111561412e57fe5b14614180576040805162461bcd60e51b815260206004820152601860248201527f63616c632072656465656d20746f6b656e73206572726f720000000000000000604482015290519081900360640190fd5b606081018290525b600b54604080830151815163335dec6b60e21b81526001600160a01b0388811660048301526024820192909252915192169163cd77b1ac9160448082019260009290919082900301818387803b1580156141e157600080fd5b505af11580156141f5573d6000803e3d6000fd5b505050506142096007548260400151613d5e565b608083018190528282600381111561421d57fe5b600381111561422857fe5b905250600090508151600381111561423c57fe5b14614286576040805162461bcd60e51b815260206004820152601560248201527431b0b6319039bab838363c903732bb9032b93937b960591b604482015290519081900360640190fd5b6001600160a01b0384166000908152600860205260409081902054908201516142af9190613d5e565b60a08301819052828260038111156142c357fe5b60038111156142ce57fe5b90525060009050815160038111156142e257fe5b1461432b576040805162461bcd60e51b815260206004820152601460248201527331b0b631903a37b5b2b7103732bb9032b93937b960611b604482015290519081900360640190fd5b8060600151614338611240565b101561437b576040805162461bcd60e51b815260206004820152600d60248201526c63617368203c2072656465656d60981b604482015290519081900360640190fd5b608081015160075560a08101516001600160a01b03851660009081526008602052604090205560608101516143b39085906001613b95565b6040808201518151908152905130916001600160a01b03871691600080516020614e008339815191529181900360200190a360608082015160408084015181516001600160a01b0389168152602081019390935282820152517fe5b754fb1abb7f01b499791d0b820ae3b6af3424ac1c59768edb53f4ec31a929929181900390910190a150505050565b60008061444d8484600e54612a15565b915091509250929050565b6000806000806144688787613d81565b9092509050600082600381111561447b57fe5b1461448c5750915060009050612ace565b61449e61449882614672565b86613de9565b935093505050935093915050565b6000806144c1670de0b6b3a764000084613b38565b905060006144d0878787613c9b565b905060006144ea670de0b6b3a764000061392e8486614691565b905061450d670de0b6b3a764000061392e836145078c8c8c614979565b90614691565b98975050505050505050565b6000806000806145298787613de9565b9092509050600082600381111561453c57fe5b1461454d5750915060009050612ace565b61449e8186613d5e565b6000614561614c42565b60008061457686670de0b6b3a7640000614608565b9092509050600082600381111561458957fe5b146145a857506040805160208101909152600081529092509050612ed3565b6000806145b58388614647565b909250905060008260038111156145c857fe5b146145eb5781604051806020016040528060008152509550955050505050612ed3565b604080516020810190915290815260009890975095505050505050565b6000808361461b57506000905080612ed3565b8383028385828161462857fe5b041461463c57600260009250925050612ed3565b600092509050612ed3565b6000808261465b5750600190506000612ed3565b600083858161466657fe5b04915091509250929050565b51670de0b6b3a7640000900490565b600080600080612e9d8686614be3565b6000826146a057506000610e33565b828202828482816146ad57fe5b04146136fa5760405162461bcd60e51b8152600401808060200182810382526021815260200180614ddf6021913960400191505060405180910390fd5b6000808211614740576040805162461bcd60e51b815260206004820152601a60248201527f536166654d6174683a206469766973696f6e206279207a65726f000000000000604482015290519081900360640190fd5b81838161474957fe5b049392505050565b600081156136fa576000846001600160a01b03166370a08231856040518263ffffffff1660e01b815260040180826001600160a01b0316815260200191505060206040518083038186803b1580156147a857600080fd5b505afa1580156147bc573d6000803e3d6000fd5b505050506040513d60208110156147d257600080fd5b5051604080516001600160a01b038781166024830152604480830188905283518084039091018152606490920183526020820180516001600160e01b031663a9059cbb60e01b1781529251825194955090891693919290918291908083835b602083106148505780518252601f199092019160209182019101614831565b6001836020036101000a0380198251168184511680821785525050505050509050019150506000604051808303816000865af19150503d80600081146148b2576040519150601f19603f3d011682016040523d82523d6000602084013e6148b7565b606091505b5050506000856001600160a01b03166370a08231866040518263ffffffff1660e01b815260040180826001600160a01b0316815260200191505060206040518083038186803b15801561490957600080fd5b505afa15801561491d573d6000803e3d6000fd5b505050506040513d602081101561493357600080fd5b50519050818111614970576040805162461bcd60e51b81526020600482015260026024820152612a2360f11b604482015290519081900360640190fd5b03949350505050565b600082614988575060006136fa565b61123861499f836149998787613eac565b90613b38565b61392e85670de0b6b3a7640000614691565b60008115611238576000856001600160a01b03166370a08231856040518263ffffffff1660e01b815260040180826001600160a01b0316815260200191505060206040518083038186803b158015614a0857600080fd5b505afa158015614a1c573d6000803e3d6000fd5b505050506040513d6020811015614a3257600080fd5b5051604080516001600160a01b0388811660248301528781166044830152606480830188905283518084039091018152608490920183526020820180516001600160e01b03166323b872dd60e01b17815292518251949550908a1693919290918291908083835b60208310614ab85780518252601f199092019160209182019101614a99565b6001836020036101000a0380198251168184511680821785525050505050509050019150506000604051808303816000865af19150503d8060008114614b1a576040519150601f19603f3d011682016040523d82523d6000602084013e614b1f565b606091505b5050506000866001600160a01b03166370a08231866040518263ffffffff1660e01b815260040180826001600160a01b0316815260200191505060206040518083038186803b158015614b7157600080fd5b505afa158015614b85573d6000803e3d6000fd5b505050506040513d6020811015614b9b57600080fd5b50519050818111614bd9576040805162461bcd60e51b81526020600482015260036024820152622a232360e91b604482015290519081900360640190fd5b0395945050505050565b6000614bed614c42565b600080614c02670de0b6b3a764000087614608565b90925090506000826003811115614c1557fe5b14614c3457506040805160208101909152600081529092509050612ed3565b612ecc818660000151614557565b6040518060200160405280600081525090565b828054600181600116156101000203166002900490600052602060002090601f016020900481019282614c8b5760008555614cd1565b82601f10614ca457805160ff1916838001178555614cd1565b82800160010185558215614cd1579182015b82811115614cd1578251825591602001919060010190614cb6565b50614cdd929150614d87565b5090565b604080516080810190915280600081526020016000815260200160008152602001600081525090565b6040805160c08101909152806000815260200160008152602001600081526020016000815260200160008152602001600081525090565b6040805161010081019091528060008152602001600081526020016000815260200160008152602001600081526020016000815260200160008152602001600081525090565b5b80821115614cdd5760008155600101614d8856fe5265656e7472616e637947756172643a207265656e7472616e742063616c6c006f6e6c792070656e64696e6741646d696e2063616e206163636570742061646d696e536166654d6174683a206d756c7469706c69636174696f6e206f766572666c6f77ddf252ad1be2c89b69c2b068fc378daa952ba7f163c4a11628f55a4df523b3ef496e697469616c2045786368616e67652052617465204d616e74697373612073686f756c642062652067726561746572207a65726fa264697066735822122094e7d3bd6e200bd902fe636da48af20d6db432bf6c5afae4f1f29138c73ff0a064736f6c63430007060033",
  "linkReferences": {},
  "deployedLinkReferences": {}
}