{
  "_format": "hh-sol-artifact-1",
  "contractName": "EthDexAggregatorV1",
  "sourceName": "contracts/udex/dex/eth/EthDexAggregatorV1.sol",
  "abi": [
    {
      "anonymous": false,
      "inputs": [
        {
          "indexed": false,
          "internalType": "address",
          "name": "oldAdmin",
          "type": "address"
        },
        {
          "indexed": false,
          "internalType": "address",
          "name": "newAdmin",
          "type": "address"
        }
      ],
      "name": "NewAdmin",
      "type": "event"
    },
    {
      "anonymous": false,
      "inputs": [
        {
          "indexed": false,
          "internalType": "address",
          "name": "oldPendingAdmin",
          "type": "address"
        },
        {
          "indexed": false,
          "internalType": "address",
          "name": "newPendingAdmin",
          "type": "address"
        }
      ],
      "name": "NewPendingAdmin",
      "type": "event"
    },
    {
      "inputs": [],
      "name": "acceptAdmin",
      "outputs": [],
      "stateMutability": "nonpayable",
      "type": "function"
    },
    {
      "inputs": [],
      "name": "admin",
      "outputs": [
        {
          "internalType": "address payable",
          "name": "",
          "type": "address"
        }
      ],
      "stateMutability": "view",
      "type": "function"
    },
    {
      "inputs": [
        {
          "internalType": "address",
          "name": "buyToken",
          "type": "address"
        },
        {
          "internalType": "address",
          "name": "sellToken",
          "type": "address"
        },
        {
          "internalType": "uint24",
          "name": "buyTax",
          "type": "uint24"
        },
        {
          "internalType": "uint24",
          "name": "sellTax",
          "type": "uint24"
        },
        {
          "internalType": "uint256",
          "name": "buyAmount",
          "type": "uint256"
        },
        {
          "internalType": "uint256",
          "name": "maxSellAmount",
          "type": "uint256"
        },
        {
          "internalType": "bytes",
          "name": "data",
          "type": "bytes"
        }
      ],
      "name": "buy",
      "outputs": [
        {
          "internalType": "uint256",
          "name": "sellAmount",
          "type": "uint256"
        }
      ],
      "stateMutability": "nonpayable",
      "type": "function"
    },
    {
      "inputs": [
        {
          "internalType": "address",
          "name": "buyToken",
          "type": "address"
        },
        {
          "internalType": "address",
          "name": "sellToken",
          "type": "address"
        },
        {
          "internalType": "uint24",
          "name": "buyTax",
          "type": "uint24"
        },
        {
          "internalType": "uint24",
          "name": "sellTax",
          "type": "uint24"
        },
        {
          "internalType": "uint256",
          "name": "sellAmount",
          "type": "uint256"
        },
        {
          "internalType": "bytes",
          "name": "data",
          "type": "bytes"
        }
      ],
      "name": "calBuyAmount",
      "outputs": [
        {
          "internalType": "uint256",
          "name": "buyAmount",
          "type": "uint256"
        }
      ],
      "stateMutability": "view",
      "type": "function"
    },
    {
      "inputs": [
        {
          "internalType": "address",
          "name": "buyToken",
          "type": "address"
        },
        {
          "internalType": "address",
          "name": "sellToken",
          "type": "address"
        },
        {
          "internalType": "uint24",
          "name": "buyTax",
          "type": "uint24"
        },
        {
          "internalType": "uint24",
          "name": "sellTax",
          "type": "uint24"
        },
        {
          "internalType": "uint256",
          "name": "buyAmount",
          "type": "uint256"
        },
        {
          "internalType": "bytes",
          "name": "data",
          "type": "bytes"
        }
      ],
      "name": "calSellAmount",
      "outputs": [
        {
          "internalType": "uint256",
          "name": "sellAmount",
          "type": "uint256"
        }
      ],
      "stateMutability": "view",
      "type": "function"
    },
    {
      "inputs": [],
      "name": "developer",
      "outputs": [
        {
          "internalType": "address payable",
          "name": "",
          "type": "address"
        }
      ],
      "stateMutability": "view",
      "type": "function"
    },
    {
      "inputs": [
        {
          "internalType": "uint8",
          "name": "",
          "type": "uint8"
        }
      ],
      "name": "dexInfo",
      "outputs": [
        {
          "internalType": "contract IUniswapV2Factory",
          "name": "factory",
          "type": "address"
        },
        {
          "internalType": "uint16",
          "name": "fees",
          "type": "uint16"
        }
      ],
      "stateMutability": "view",
      "type": "function"
    },
    {
      "inputs": [
        {
          "internalType": "address",
          "name": "desToken",
          "type": "address"
        },
        {
          "internalType": "address",
          "name": "quoteToken",
          "type": "address"
        },
        {
          "internalType": "uint32",
          "name": "secondsAgo",
          "type": "uint32"
        },
        {
          "internalType": "bytes",
          "name": "data",
          "type": "bytes"
        }
      ],
      "name": "getAvgPrice",
      "outputs": [
        {
          "internalType": "uint256",
          "name": "price",
          "type": "uint256"
        },
        {
          "internalType": "uint8",
          "name": "decimals",
          "type": "uint8"
        },
        {
          "internalType": "uint256",
          "name": "timestamp",
          "type": "uint256"
        }
      ],
      "stateMutability": "view",
      "type": "function"
    },
    {
      "inputs": [
        {
          "internalType": "address",
          "name": "token0",
          "type": "address"
        },
        {
          "internalType": "address",
          "name": "token1",
          "type": "address"
        },
        {
          "internalType": "bytes",
          "name": "dexData",
          "type": "bytes"
        }
      ],
      "name": "getPairLiquidity",
      "outputs": [
        {
          "internalType": "uint256",
          "name": "token0Liq",
          "type": "uint256"
        },
        {
          "internalType": "uint256",
          "name": "token1Liq",
          "type": "uint256"
        }
      ],
      "stateMutability": "view",
      "type": "function"
    },
    {
      "inputs": [
        {
          "internalType": "address",
          "name": "desToken",
          "type": "address"
        },
        {
          "internalType": "address",
          "name": "quoteToken",
          "type": "address"
        },
        {
          "internalType": "bytes",
          "name": "data",
          "type": "bytes"
        }
      ],
      "name": "getPrice",
      "outputs": [
        {
          "internalType": "uint256",
          "name": "price",
          "type": "uint256"
        },
        {
          "internalType": "uint8",
          "name": "decimals",
          "type": "uint8"
        }
      ],
      "stateMutability": "view",
      "type": "function"
    },
    {
      "inputs": [
        {
          "internalType": "address",
          "name": "desToken",
          "type": "address"
        },
        {
          "internalType": "address",
          "name": "quoteToken",
          "type": "address"
        },
        {
          "internalType": "uint32",
          "name": "secondsAgo",
          "type": "uint32"
        },
        {
          "internalType": "bytes",
          "name": "data",
          "type": "bytes"
        }
      ],
      "name": "getPriceCAvgPriceHAvgPrice",
      "outputs": [
        {
          "internalType": "uint256",
          "name": "price",
          "type": "uint256"
        },
        {
          "internalType": "uint256",
          "name": "cAvgPrice",
          "type": "uint256"
        },
        {
          "internalType": "uint256",
          "name": "hAvgPrice",
          "type": "uint256"
        },
        {
          "internalType": "uint8",
          "name": "decimals",
          "type": "uint8"
        },
        {
          "internalType": "uint256",
          "name": "timestamp",
          "type": "uint256"
        }
      ],
      "stateMutability": "view",
      "type": "function"
    },
    {
      "inputs": [
        {
          "internalType": "address",
          "name": "token0",
          "type": "address"
        },
        {
          "internalType": "address",
          "name": "token1",
          "type": "address"
        },
        {
          "internalType": "bytes",
          "name": "dexData",
          "type": "bytes"
        }
      ],
      "name": "getToken0Liquidity",
      "outputs": [
        {
          "internalType": "uint256",
          "name": "",
          "type": "uint256"
        }
      ],
      "stateMutability": "view",
      "type": "function"
    },
    {
      "inputs": [],
      "name": "implementation",
      "outputs": [
        {
          "internalType": "address",
          "name": "",
          "type": "address"
        }
      ],
      "stateMutability": "view",
      "type": "function"
    },
    {
      "inputs": [
        {
          "internalType": "contract IUniswapV2Factory",
          "name": "_uniV2Factory",
          "type": "address"
        },
        {
          "internalType": "contract IUniswapV3Factory",
          "name": "_uniV3Factory",
          "type": "address"
        }
      ],
      "name": "initialize",
      "outputs": [],
      "stateMutability": "nonpayable",
      "type": "function"
    },
    {
      "inputs": [],
      "name": "opBorrowing",
      "outputs": [
        {
          "internalType": "address",
          "name": "",
          "type": "address"
        }
      ],
      "stateMutability": "view",
      "type": "function"
    },
    {
      "inputs": [],
      "name": "openLev",
      "outputs": [
        {
          "internalType": "address",
          "name": "",
          "type": "address"
        }
      ],
      "stateMutability": "view",
      "type": "function"
    },
    {
      "inputs": [],
      "name": "pendingAdmin",
      "outputs": [
        {
          "internalType": "address payable",
          "name": "",
          "type": "address"
        }
      ],
      "stateMutability": "view",
      "type": "function"
    },
    {
      "inputs": [
        {
          "internalType": "address",
          "name": "buyToken",
          "type": "address"
        },
        {
          "internalType": "address",
          "name": "sellToken",
          "type": "address"
        },
        {
          "internalType": "uint256",
          "name": "sellAmount",
          "type": "uint256"
        },
        {
          "internalType": "uint256",
          "name": "minBuyAmount",
          "type": "uint256"
        },
        {
          "internalType": "bytes",
          "name": "data",
          "type": "bytes"
        }
      ],
      "name": "sell",
      "outputs": [
        {
          "internalType": "uint256",
          "name": "buyAmount",
          "type": "uint256"
        }
      ],
      "stateMutability": "nonpayable",
      "type": "function"
    },
    {
      "inputs": [
        {
          "internalType": "uint256",
          "name": "sellAmount",
          "type": "uint256"
        },
        {
          "internalType": "uint256",
          "name": "minBuyAmount",
          "type": "uint256"
        },
        {
          "internalType": "bytes",
          "name": "data",
          "type": "bytes"
        }
      ],
      "name": "sellMul",
      "outputs": [
        {
          "internalType": "uint256",
          "name": "buyAmount",
          "type": "uint256"
        }
      ],
      "stateMutability": "nonpayable",
      "type": "function"
    },
    {
      "inputs": [
        {
          "internalType": "uint8[]",
          "name": "dexName",
          "type": "uint8[]"
        },
        {
          "internalType": "contract IUniswapV2Factory[]",
          "name": "factoryAddr",
          "type": "address[]"
        },
        {
          "internalType": "uint16[]",
          "name": "fees",
          "type": "uint16[]"
        }
      ],
      "name": "setDexInfo",
      "outputs": [],
      "stateMutability": "nonpayable",
      "type": "function"
    },
    {
      "inputs": [
        {
          "internalType": "address",
          "name": "_opBorrowing",
          "type": "address"
        }
      ],
      "name": "setOpBorrowing",
      "outputs": [],
      "stateMutability": "nonpayable",
      "type": "function"
    },
    {
      "inputs": [
        {
          "internalType": "address",
          "name": "_openLev",
          "type": "address"
        }
      ],
      "name": "setOpenLev",
      "outputs": [],
      "stateMutability": "nonpayable",
      "type": "function"
    },
    {
      "inputs": [
        {
          "internalType": "address payable",
          "name": "newPendingAdmin",
          "type": "address"
        }
      ],
      "name": "setPendingAdmin",
      "outputs": [],
      "stateMutability": "nonpayable",
      "type": "function"
    },
    {
      "inputs": [],
      "name": "uniV2Factory",
      "outputs": [
        {
          "internalType": "contract IUniswapV2Factory",
          "name": "",
          "type": "address"
        }
      ],
      "stateMutability": "view",
      "type": "function"
    },
    {
      "inputs": [
        {
          "internalType": "contract IUniswapV2Pair",
          "name": "",
          "type": "address"
        }
      ],
      "name": "uniV2PriceOracle",
      "outputs": [
        {
          "internalType": "uint32",
          "name": "blockTimestampLast",
          "type": "uint32"
        },
        {
          "internalType": "uint256",
          "name": "price0",
          "type": "uint256"
        },
        {
          "internalType": "uint256",
          "name": "price1",
          "type": "uint256"
        },
        {
          "internalType": "uint256",
          "name": "price0CumulativeLast",
          "type": "uint256"
        },
        {
          "internalType": "uint256",
          "name": "price1CumulativeLast",
          "type": "uint256"
        }
      ],
      "stateMutability": "view",
      "type": "function"
    },
    {
      "inputs": [],
      "name": "uniV3Factory",
      "outputs": [
        {
          "internalType": "contract IUniswapV3Factory",
          "name": "",
          "type": "address"
        }
      ],
      "stateMutability": "view",
      "type": "function"
    },
    {
      "inputs": [
        {
          "internalType": "int256",
          "name": "amount0Delta",
          "type": "int256"
        },
        {
          "internalType": "int256",
          "name": "amount1Delta",
          "type": "int256"
        },
        {
          "internalType": "bytes",
          "name": "_data",
          "type": "bytes"
        }
      ],
      "name": "uniswapV3SwapCallback",
      "outputs": [],
      "stateMutability": "nonpayable",
      "type": "function"
    },
    {
      "inputs": [
        {
          "internalType": "address",
          "name": "desToken",
          "type": "address"
        },
        {
          "internalType": "address",
          "name": "quoteToken",
          "type": "address"
        },
        {
          "internalType": "uint32",
          "name": "timeWindow",
          "type": "uint32"
        },
        {
          "internalType": "bytes",
          "name": "data",
          "type": "bytes"
        }
      ],
      "name": "updatePriceOracle",
      "outputs": [
        {
          "internalType": "bool",
          "name": "",
          "type": "bool"
        }
      ],
      "stateMutability": "nonpayable",
      "type": "function"
    },
    {
      "inputs": [
        {
          "internalType": "address",
          "name": "desToken",
          "type": "address"
        },
        {
          "internalType": "address",
          "name": "quoteToken",
          "type": "address"
        },
        {
          "internalType": "bytes",
          "name": "data",
          "type": "bytes"
        }
      ],
      "name": "updateV3Observation",
      "outputs": [],
      "stateMutability": "nonpayable",
      "type": "function"
    }
  ],
  "bytecode": "0x608060405234801561001057600080fd5b50600380546001600160a01b031916331790556152a2806100326000396000f3fe608060405234801561001057600080fd5b50600436106101cf5760003560e01c8063576fd3f011610104578063a96de5bd116100a2578063d522a11e11610071578063d522a11e146103e4578063f18ef359146103f7578063f851a4401461040a578063fa461e3314610412576101cf565b8063a96de5bd14610395578063ca4b208b146103b6578063cbf09bf8146103be578063cf24406b146103d1576101cf565b8063705e474b116100de578063705e474b1461033257806388ef16ab1461033a57806396e011971461034d578063a59a36ae14610371576101cf565b8063576fd3f0146103045780635962f613146103175780635c60da1b1461032a576101cf565b806329a726131161017157806341da89e41161014b57806341da89e4146102ab578063485cc955146102cb5780634a6682bb146102de5780634dd18bf5146102f1576101cf565b806329a726131461027a578063355efdd9146102825780633da04b87146102a3576101cf565b806315426c97116101ad57806315426c971461021c578063168899551461023c57806326782247146102515780632902d27b14610259576101cf565b806304e79e29146101d4578063080296e4146101e95780630e18b68114610214575b600080fd5b6101e76101e236600461433a565b610425565b005b6101fc6101f7366004614561565b61047e565b60405161020b9392919061515c565b60405180910390f35b6101e7610593565b61022f61022a366004614561565b610693565b60405161020b9190614bfb565b6102446107db565b60405161020b9190614adc565b6102446107ea565b61026c610267366004614372565b6107f9565b60405161020b929190615117565b61024461097b565b610295610290366004614372565b61098a565b60405161020b92919061514b565b610244610a08565b6102be6102b93660046144ee565b610a17565b60405161020b919061510e565b6101e76102d9366004614772565b610abe565b6102be6102ec3660046143d1565b610b8b565b6101e76102ff36600461433a565b610c13565b6101e761031236600461433a565b610c7e565b6102be6103253660046143d1565b610cce565b610244610d35565b610244610d44565b6102be610348366004614372565b610d53565b61036061035b36600461433a565b610e4f565b60405161020b959493929190615175565b61038461037f366004614561565b610e85565b60405161020b959493929190615125565b6103a86103a33660046149fc565b610f6a565b60405161020b929190614c06565b610244610f92565b6101e76103cc36600461469a565b610fa1565b6102be6103df36600461445a565b6110a6565b6102be6103f23660046149c5565b611140565b6101e7610405366004614372565b6111db565b610244611207565b6101e76104203660046147cd565b611216565b61042d6112f2565b6001600160a01b03811661045c5760405162461bcd60e51b815260040161045390614dca565b60405180910390fd5b600780546001600160a01b0319166001600160a01b0392909216919091179055565b600060188161048c8461134a565b1561053d5760006104c78888600860006104a58a611364565b60ff1681526020810191909152604001600020546001600160a01b0316611393565b6001600160a01b038116600090815260056020908152604091829020825160a081018452815463ffffffff168152600182015492810192909252600281015492820192909252600382015460608201526004909101546080820152909150610530898983611552565b9095509250610589915050565b600261054885611364565b60ff16141561057157610566878787856105618961158a565b6115b9565b509093509050610589565b60405162461bcd60e51b815260040161045390614d5b565b9450945094915050565b6002546001600160a01b031633146105dc5760405162461bcd60e51b815260040180806020018281038252602281526020018061522a6022913960400191505060405180910390fd5b60018054600280546001600160a01b038082166001600160a01b031980861682179687905590921690925560408051938316808552949092166020840152815190927ff9ffabca9c8276e99321725bcb43fb076a6c66a54b7f21c4e8146d8519b417dc92908290030190a1600254604080516001600160a01b038085168252909216602083015280517fca4f2f25d0898edd99413412fb94012f9e54ec8142f9b093e7720646a95b16a99281900390910190a15050565b6007546000906001600160a01b03163314806106b957506009546001600160a01b031633145b6106d55760405162461bcd60e51b815260040161045390614e5c565b6106de8261134a565b156107cf5760006106f78686600860006104a588611364565b6001600160a01b0381166000908152600560209081526040808320815160a081018352815463ffffffff1681526001820154938101939093526002810154918301919091526003810154606083015260040154608082015291925080610760848489601861161f565b9150915080156107c4576001600160a01b0384166000908152600560209081526040918290208451815463ffffffff191663ffffffff9091161781559084015160018201559083015160028201556060830151600382015560808301516004909101555b93506107d392505050565b5060005b949350505050565b6009546001600160a01b031681565b6002546001600160a01b031681565b60008060006108078461134a565b156108255761081e8686600860006104a589611364565b905061084f565b600261083085611364565b60ff16141561084f5761084c86866108478761158a565b611805565b90505b6001600160a01b0381166108755760405162461bcd60e51b815260040161045390614f4d565b6040516370a0823160e01b81526001600160a01b038716906370a08231906108a1908490600401614adc565b60206040518083038186803b1580156108b957600080fd5b505afa1580156108cd573d6000803e3d6000fd5b505050506040513d601f19601f820116820180604052508101906108f191906149ad565b6040516370a0823160e01b81526001600160a01b038716906370a082319061091d908590600401614adc565b60206040518083038186803b15801561093557600080fd5b505afa158015610949573d6000803e3d6000fd5b505050506040513d601f19601f8201168201806040525081019061096d91906149ad565b92509250505b935093915050565b6007546001600160a01b031681565b600060186109978361134a565b156109d8576109d1600860006109ac86611364565b60ff1681526020810191909152604001600020546001600160a01b03168686846118d2565b9150610973565b60026109e384611364565b60ff16141561057157610a008585836109fb8761158a565b611a35565b509150610973565b6006546001600160a01b031681565b600033610a238361134a565b15610a8757610a8060086000610a3886611364565b60ff16815260208082019290925260409081016000208151808301909252546001600160a01b0381168252600160a01b900461ffff1691810191909152888888888680611ad8565b9150610ab4565b6002610a9284611364565b60ff16141561057157610a8087878787610aab8861158a565b60018788611ea8565b5095945050505050565b6001546001600160a01b03163314610ae85760405162461bcd60e51b81526004016104539061509e565b600680546001600160a01b0319166001600160a01b038416179055610b0c816120c0565b50604080518082019091526001600160a01b039182168152601e602080830191825260016000526008905290517fad67d757c34507f157cacfa2e3153e9f260a2244f30428821be7be64587ac55f805492516001600160a01b0319909316919093161761ffff60a01b1916600160a01b61ffff90921691909102179055565b6000610b968261134a565b1561057157610ba583856120e2565b9250610bfc60086000610bb785611364565b60ff16815260208082019290925260409081016000208151808301909252546001600160a01b0381168252600160a01b900461ffff1691810191909152888886612112565b9050610c0881866120e2565b979650505050505050565b610c1b6112f2565b600280546001600160a01b038381166001600160a01b0319831681179093556040805191909216808252602082019390935281517fca4f2f25d0898edd99413412fb94012f9e54ec8142f9b093e7720646a95b16a9929181900390910190a15050565b610c866112f2565b6001600160a01b038116610cac5760405162461bcd60e51b815260040161045390614dca565b600980546001600160a01b0319166001600160a01b0392909216919091179055565b6000610cd98261134a565b1561057157610c0860086000610cee85611364565b60ff16815260208082019290925260409081016000208151808301909252546001600160a01b0381168252600160a01b900461ffff169181019190915288888689896121f0565b6000546001600160a01b031681565b6004546001600160a01b031681565b600080610d5f8361134a565b15610d7d57610d768585600860006104a588611364565b9050610da2565b6002610d8884611364565b60ff161415610da257610d9f85856108478661158a565b90505b6001600160a01b038116610dc85760405162461bcd60e51b815260040161045390614f4d565b6040516370a0823160e01b81526001600160a01b038616906370a0823190610df4908490600401614adc565b60206040518083038186803b158015610e0c57600080fd5b505afa158015610e20573d6000803e3d6000fd5b505050506040513d601f19601f82011682018060405250810190610e4491906149ad565b9150505b9392505050565b6005602052600090815260409020805460018201546002830154600384015460049094015463ffffffff90931693919290919085565b60008080601881610e958661134a565b15610f2b576000610eae8a8a600860006104a58c611364565b6001600160a01b038116600090815260056020908152604091829020825160a081018452815463ffffffff168152600182015492810192909252600281015492820192909252600382015460608201526004909101546080820152909150610f1982828d8d886122fe565b92995090975095509250610f5f915050565b6002610f3687611364565b60ff16141561057157610f5489898985610f4f8b61158a565b612535565b929750909550935090505b945094509450945094565b6008602052600090815260409020546001600160a01b03811690600160a01b900461ffff1682565b6003546001600160a01b031681565b610fa96112f2565b81518351148015610fbb575080518351145b610fd75760405162461bcd60e51b815260040161045390614c94565b60005b83518110156110a0576040518060400160405280848381518110610ffa57fe5b60200260200101516001600160a01b0316815260200183838151811061101c57fe5b602002602001015161ffff168152506008600086848151811061103b57fe5b60209081029190910181015160ff1682528181019290925260400160002082518154939092015161ffff16600160a01b0261ffff60a01b196001600160a01b039093166001600160a01b03199094169390931791909116919091179055600101610fda565b50505050565b60006110b18261134a565b156111155761110e600860006110c685611364565b60ff16815260208082019290925260409081016000208151808301909252546001600160a01b0381168252600160a01b900461ffff1691810191909152898987878b8b61258c565b9050610c08565b600261112083611364565b60ff1614156105715761110e888886866111398761158a565b6001612965565b600061114b8261134a565b156111b4576111ad6008600061116085611364565b60ff16815260208082019290925260409081016000208151808301909252546001600160a01b0381168252600160a01b900461ffff169181019190915285856111a886612b08565b612be8565b9050610e48565b60026111bf83611364565b60ff161415610571576111ad84846111d685612ca6565b612e36565b60026111e682611364565b60ff1614156112025761120283836111fd8461158a565b612ee7565b505050565b6001546001600160a01b031681565b60008413806112255750600083135b61122e57600080fd5b600061123c82840184614847565b9050611255816000015182602001518360400151611805565b6001600160a01b0316336001600160a01b0316146112855760405162461bcd60e51b815260040161045390614ef3565b60008086136112945784611296565b855b60608301519091506001600160a01b03163014156112ca5781516112c4906001600160a01b03163383612f4c565b506112ea565b606082015182516112e8916001600160a01b03909116903384613174565b505b505050505050565b6001546001600160a01b03163314611348576040805162461bcd60e51b815260206004820152601460248201527331b0b63632b91036bab9ba1031329030b236b4b760611b604482015290519081900360640190fd5b565b6000600261135783611364565b60ff16141590505b919050565b60006001825110156113885760405162461bcd60e51b815260040161045390614cb1565b506020015160001a90565b6000806000846001600160a01b0316866001600160a01b0316106113b85784866113bb565b85855b9092509050735c69bee701ef814a2b6a3edd4b1652cb9cc5aa6f6001600160a01b0385161415611442578382826040516020016113f9929190614a18565b60405160208183030381529060405280519060200120604051602001611420929190614a3a565b6040516020818303038152906040528051906020012060001c92505050610e48565b73c0aee478e3658e2610c5f7a4a2e1777ce9e4f2ac6001600160a01b03851614156114c25783828260405160200161147b929190614a18565b604051602081830303815290604052805190602001206040516020016114a2929190614a8b565b6040516020818303038152906040528051906020012060001c9250611549565b60405163e6a4390560e01b81526001600160a01b0385169063e6a43905906114f09089908990600401614af0565b60206040518083038186803b15801561150857600080fd5b505afa15801561151c573d6000803e3d6000fd5b505050506040513d601f19601f820116820180604052508101906115409190614356565b92505050610e48565b50509392505050565b805160009063ffffffff166001600160a01b038085169086161061157a578260400151611580565b82602001515b9150935093915050565b60006004825110156115ae5760405162461bcd60e51b815260040161045390614ebe565b506021015160e81c90565b6000806000808663ffffffff16116115e35760405162461bcd60e51b815260040161045390614f21565b6115ee888886611805565b90506115fd81898989896133a6565b92506116124263ffffffff808916906134f716565b9150955095509592505050565b6116276140ee565b60008061163342613554565b90508486600001510163ffffffff168163ffffffff16101561165c5785600092509250506117fc565b866001600160a01b031663fff6cae96040518163ffffffff1660e01b8152600401600060405180830381600087803b15801561169757600080fd5b505af11580156116ab573d6000803e3d6000fd5b5050505060008660000151820390506000886001600160a01b0316635909c0d56040518163ffffffff1660e01b815260040160206040518083038186803b1580156116f557600080fd5b505afa158015611709573d6000803e3d6000fd5b505050506040513d601f19601f8201168201806040525081019061172d91906149ad565b90506000896001600160a01b0316635a3d54936040518163ffffffff1660e01b815260040160206040518083038186803b15801561176a57600080fd5b505afa15801561177e573d6000803e3d6000fd5b505050506040513d601f19601f820116820180604052508101906117a291906149ad565b895190915063ffffffff16156117df576117c2828a60600151858a613567565b60208a015260808901516117d9908290858a613567565b60408a01525b606089019190915260808801525063ffffffff1685525083905060015b94509492505050565b6004546000906001600160a01b0316731f98431c8ad98523631ae4a59f267346ea31f984141561184f576004546111ad906001600160a01b031661184a8686866135de565b613634565b60048054604051630b4c774160e11b81526001600160a01b0390911691631698ee82916118829188918891889101614b0a565b60206040518083038186803b15801561189a57600080fd5b505afa1580156118ae573d6000803e3d6000fd5b505050506040513d601f19601f820116820180604052508101906111ad9190614356565b6000806118e0858588611393565b9050600080826001600160a01b0316630902f1ac6040518163ffffffff1660e01b815260040160606040518083038186803b15801561191e57600080fd5b505afa158015611932573d6000803e3d6000fd5b505050506040513d601f19601f8201168201806040525081019061195691906148c2565b506001600160701b031691506001600160701b03169150826001600160a01b0316630dfe16816040518163ffffffff1660e01b815260040160206040518083038186803b1580156119a657600080fd5b505afa1580156119ba573d6000803e3d6000fd5b505050506040513d601f19601f820116820180604052508101906119de9190614356565b6001600160a01b0316876001600160a01b031614611a1557611a1081611a0a8460ff8916600a0a613713565b9061376c565b611a29565b611a2982611a0a8360ff8916600a0a613713565b98975050505050505050565b600080611a43868685611805565b90506000816001600160a01b0316633850c7bd6040518163ffffffff1660e01b815260040160e06040518083038186803b158015611a8057600080fd5b505afa158015611a94573d6000803e3d6000fd5b505050506040513d601f19601f82011682018060405250810190611ab89190614908565b5050505050509050611acc878783886137cb565b92505094509492505050565b600080611aea88888b60000151611393565b9050806001600160a01b031663fff6cae96040518163ffffffff1660e01b8152600401600060405180830381600087803b158015611b2757600080fd5b505af1158015611b3b573d6000803e3d6000fd5b50505050611b4b878583896138a0565b9550600080826001600160a01b0316630902f1ac6040518163ffffffff1660e01b815260040160606040518083038186803b158015611b8957600080fd5b505afa158015611b9d573d6000803e3d6000fd5b505050506040513d601f19601f82011682018060405250810190611bc191906148c2565b506001600160701b031691506001600160701b03169150886001600160a01b03168a6001600160a01b031610611c7c57611c77828a6001600160a01b03166370a08231866040518263ffffffff1660e01b8152600401611c219190614adc565b60206040518083038186803b158015611c3957600080fd5b505afa158015611c4d573d6000803e3d6000fd5b505050506040513d601f19601f82011682018060405250810190611c7191906149ad565b906134f7565b611cac565b611cac818a6001600160a01b03166370a08231866040518263ffffffff1660e01b8152600401611c219190614adc565b975060008a6001600160a01b03166370a08231876040518263ffffffff1660e01b8152600401611cdc9190614adc565b60206040518083038186803b158015611cf457600080fd5b505afa158015611d08573d6000803e3d6000fd5b505050506040513d601f19601f82011682018060405250810190611d2c91906149ad565b9050611d388c856138ec565b61ffff1660208d01526001600160a01b03808b16908c161015611dd057611d658983858f602001516138f4565b60405163022c0d9f60e01b81529095506001600160a01b0385169063022c0d9f90611d999088906000908b90600401614c23565b600060405180830381600087803b158015611db357600080fd5b505af1158015611dc7573d6000803e3d6000fd5b50505050611e47565b611de08984848f602001516138f4565b60405163022c0d9f60e01b81529095506001600160a01b0385169063022c0d9f90611e149060009089908b90600401614c23565b600060405180830381600087803b158015611e2e57600080fd5b505af1158015611e42573d6000803e3d6000fd5b505050505b611e77818c6001600160a01b03166370a08231896040518263ffffffff1660e01b8152600401611c219190614adc565b945087851015611e995760405162461bcd60e51b815260040161045390614fd7565b50505050979650505050505050565b60008060405180608001604052808a6001600160a01b031681526020018b6001600160a01b031681526020018762ffffff168152602001856001600160a01b03168152509050611ef6614123565b60208083015183516001600160a01b03918216908216106040840152851690820152611f218961399d565b60608201526040810151611f34906139b3565b6001600160a01b0316608082015281516020830151611f54919089611805565b6001600160a01b031681528515611f8c578051611f70906139e0565b611f8c5760405162461bcd60e51b815260040161045390614f69565b60008082600001516001600160a01b031663128acb08846020015185604001518660600151876080015189604051602001611fc791906150c1565b6040516020818303038152906040526040518663ffffffff1660e01b8152600401611ff6959493929190614b32565b6040805180830381600087803b15801561200f57600080fd5b505af1158015612023573d6000803e3d6000fd5b505050506040513d601f19601f8201168201806040525081019061204791906147aa565b91509150826040015161205a578161205c565b805b6000039450898510156120815760405162461bcd60e51b815260040161045390614fd7565b82604001516120905780612092565b815b8b146120b05760405162461bcd60e51b815260040161045390615075565b5050505098975050505050505050565b600480546001600160a01b0319166001600160a01b0392909216919091179055565b6000620f42406121016120fa8262ffffff86166134f7565b8590613713565b8161210857fe5b0490505b92915050565b60008061212485858860000151611393565b9050600080826001600160a01b0316630902f1ac6040518163ffffffff1660e01b815260040160606040518083038186803b15801561216257600080fd5b505afa158015612176573d6000803e3d6000fd5b505050506040513d601f19601f8201168201806040525081019061219a91906148c2565b506001600160701b0391821693501690506001600160a01b038087169088161080156121e0576121d58683856121d08d896138ec565b6138f4565b9450505050506107d3565b6121d58684846121d08d896138ec565b60008061220287878a60000151611393565b9050600080826001600160a01b0316630902f1ac6040518163ffffffff1660e01b815260040160606040518083038186803b15801561224057600080fd5b505afa158015612254573d6000803e3d6000fd5b505050506040513d601f19601f8201168201806040525081019061227891906148c2565b506001600160701b031691506001600160701b03169150876001600160a01b0316896001600160a01b0316106122cb576122c66122b58888613a6c565b83836122c18e886138ec565b613ab0565b6122e4565b6122e46122d88888613a6c565b82846122c18e886138ec565b93506122f08486613a6c565b9a9950505050505050505050565b6000806000806000866001600160a01b0316886001600160a01b031610905060008060008c6001600160a01b0316630902f1ac6040518163ffffffff1660e01b815260040160606040518083038186803b15801561235b57600080fd5b505afa15801561236f573d6000803e3d6000fd5b505050506040513d601f19601f8201168201806040525081019061239391906148c2565b92506001600160701b031692506001600160701b03169250836123c9576123c482611a0a8560ff8d16600a0a613713565b6123dd565b6123dd83611a0a8460ff8d16600a0a613713565b9750836123ee578b604001516123f4565b8b602001515b8c5190965063ffffffff90811695508116851061241357859650612525565b8b518103846124a15761249c8e6001600160a01b0316635a3d54936040518163ffffffff1660e01b815260040160206040518083038186803b15801561245857600080fd5b505afa15801561246c573d6000803e3d6000fd5b505050506040513d601f19601f8201168201806040525081019061249091906149ad565b8e60800151838d613567565b612521565b6125218e6001600160a01b0316635909c0d56040518163ffffffff1660e01b815260040160206040518083038186803b1580156124dd57600080fd5b505afa1580156124f1573d6000803e3d6000fd5b505050506040513d601f19601f8201168201806040525081019061251591906149ad565b8e60600151838d613567565b9750505b5050505095509550955095915050565b60008060008060006125498a8a8989611a35565b9095509050612565818b8b600263ffffffff8d16048c8c613b47565b909450925061257d4263ffffffff808b16906134f716565b91505095509550955095915050565b60008061259e88888b60000151611393565b9050806001600160a01b031663fff6cae96040518163ffffffff1660e01b8152600401600060405180830381600087803b1580156125db57600080fd5b505af11580156125ef573d6000803e3d6000fd5b50505050600080826001600160a01b0316630902f1ac6040518163ffffffff1660e01b815260040160606040518083038186803b15801561262f57600080fd5b505afa158015612643573d6000803e3d6000fd5b505050506040513d601f19601f8201168201806040525081019061266791906148c2565b506001600160701b031691506001600160701b0316915060008a6001600160a01b03166370a08231336040518263ffffffff1660e01b81526004016126ac9190614adc565b60206040518083038186803b1580156126c457600080fd5b505afa1580156126d8573d6000803e3d6000fd5b505050506040513d601f19601f820116820180604052508101906126fc91906149ad565b90506127088c856138ec565b61ffff1660208d01526001600160a01b03808b16908c1610156127ea5761273e6127328a89613a6c565b83858f60200151613ab0565b945061274a8587613a6c565b94508785111561276c5760405162461bcd60e51b815260040161045390614de6565b6127788a3386886138a0565b506001600160a01b03841663022c0d9f6127928b8a613a6c565b6000336040518463ffffffff1660e01b81526004016127b393929190614c23565b600060405180830381600087803b1580156127cd57600080fd5b505af11580156127e1573d6000803e3d6000fd5b505050506128ab565b6128036127f78a89613a6c565b84848f60200151613ab0565b945061280f8587613a6c565b9450878511156128315760405162461bcd60e51b815260040161045390614de6565b61283d8a3386886138a0565b506001600160a01b03841663022c0d9f60006128598c8b613a6c565b336040518463ffffffff1660e01b815260040161287893929190614c23565b600060405180830381600087803b15801561289257600080fd5b505af11580156128a6573d6000803e3d6000fd5b505050505b6040516370a0823160e01b81526000906001600160a01b038d16906370a08231906128da903390600401614adc565b60206040518083038186803b1580156128f257600080fd5b505afa158015612906573d6000803e3d6000fd5b505050506040513d601f19601f8201168201806040525081019061292a91906149ad565b905061293681836134f7565b8a11156129555760405162461bcd60e51b815260040161045390614d2e565b5050505050979650505050505050565b604080516080810182526001600160a01b038088168083529089166020830181905262ffffff8616938301939093523360608301526000928082109184916129ae919088611805565b905084156129db576129bf816139e0565b6129db5760405162461bcd60e51b815260040161045390614f69565b600080826001600160a01b031663128acb088660600151866129fc8e61399d565b600003612a08896139b3565b8a604051602001612a1991906150c1565b6040516020818303038152906040526040518663ffffffff1660e01b8152600401612a48959493929190614b32565b6040805180830381600087803b158015612a6157600080fd5b505af1158015612a75573d6000803e3d6000fd5b505050506040513d601f19601f82011682018060405250810190612a9991906147aa565b91509150600084612aae578183600003612ab4565b82826000035b90975090508a8114612ad85760405162461bcd60e51b815260040161045390614e93565b89871115612af85760405162461bcd60e51b815260040161045390614de6565b5050505050509695505050505050565b60606000612b1583613d33565b905060008160ff1660140260050190508084511015612b465760405162461bcd60e51b815260040161045390614d84565b600560ff83166001600160401b0381118015612b6157600080fd5b50604051908082528060200260200182016040528015612b8b578160200160208202803683370190505b50935060005b8360ff16811015612bdf57601481028201868101602001518651606082901c90889085908110612bbd57fe5b6001600160a01b03909216602092830291909101909101525050600101612b91565b50505050919050565b600060015b8251811015612c85576000836001830381518110612c0757fe5b602002602001015190506000848381518110612c1f57fe5b602002602001015190506000600186510384149050600084600114612c445730612c46565b335b9050600082612c555730612c57565b335b9050612c698b85878d60008787611ad8565b965082612c74578699505b505060019093019250612bed915050565b50828110156107d35760405162461bcd60e51b815260040161045390614fd7565b60606000612cb383613d33565b83519091506002601760ff8416020190811115612ce25760405162461bcd60e51b815260040161045390614e16565b60018260ff1611612d055760405162461bcd60e51b815260040161045390614c51565b6000600560ff6000198501166001600160401b0381118015612d2657600080fd5b50604051908082528060200260200182016040528015612d6057816020015b612d4d614151565b815260200190600190039081612d455790505b50945060005b6001850360ff16811015612e2c57612d7c614151565b81612d9c5787830160200151606081901c82529350601490920191612dcc565b866001830381518110612dab57fe5b60209081029190910181015101516001600160a01b03168152601792909201915b6020838901810151606081901c91830191909152603081901c6301000000600160d01b0316604882901c90810362ffffff1660408401528851919550908290899085908110612e1757fe5b60209081029190910101525050600101612d66565b5050505050919050565b6000805b8251811015612ec6576000838281518110612e5157fe5b6020908102919091018101519081015181518651929350909160001901841460008515612e7e5730612e80565b335b9050600082612e8f5730612e91565b335b9050612ea985858d60008a6040015160008888611ea8565b975082612eb457879a505b505060019094019350612e3a92505050565b5082811015610e485760405162461bcd60e51b815260040161045390614fd7565b612ef2838383611805565b6001600160a01b03166332148f67600c6040518263ffffffff1660e01b8152600401612f1e91906150ff565b600060405180830381600087803b158015612f3857600080fd5b505af11580156112e8573d6000803e3d6000fd5b60008115610e48576000846001600160a01b03166370a08231856040518263ffffffff1660e01b815260040180826001600160a01b0316815260200191505060206040518083038186803b158015612fa357600080fd5b505afa158015612fb7573d6000803e3d6000fd5b505050506040513d6020811015612fcd57600080fd5b5051604080516001600160a01b038781166024830152604480830188905283518084039091018152606490920183526020820180516001600160e01b031663a9059cbb60e01b1781529251825194955090891693919290918291908083835b6020831061304b5780518252601f19909201916020918201910161302c565b6001836020036101000a0380198251168184511680821785525050505050509050019150506000604051808303816000865af19150503d80600081146130ad576040519150601f19603f3d011682016040523d82523d6000602084013e6130b2565b606091505b5050506000856001600160a01b03166370a08231866040518263ffffffff1660e01b815260040180826001600160a01b0316815260200191505060206040518083038186803b15801561310457600080fd5b505afa158015613118573d6000803e3d6000fd5b505050506040513d602081101561312e57600080fd5b5051905081811161316b576040805162461bcd60e51b81526020600482015260026024820152612a2360f11b604482015290519081900360640190fd5b03949350505050565b600081156107d3576000856001600160a01b03166370a08231856040518263ffffffff1660e01b815260040180826001600160a01b0316815260200191505060206040518083038186803b1580156131cb57600080fd5b505afa1580156131df573d6000803e3d6000fd5b505050506040513d60208110156131f557600080fd5b5051604080516001600160a01b0388811660248301528781166044830152606480830188905283518084039091018152608490920183526020820180516001600160e01b03166323b872dd60e01b17815292518251949550908a1693919290918291908083835b6020831061327b5780518252601f19909201916020918201910161325c565b6001836020036101000a0380198251168184511680821785525050505050509050019150506000604051808303816000865af19150503d80600081146132dd576040519150601f19603f3d011682016040523d82523d6000602084013e6132e2565b606091505b5050506000866001600160a01b03166370a08231866040518263ffffffff1660e01b815260040180826001600160a01b0316815260200191505060206040518083038186803b15801561333457600080fd5b505afa158015613348573d6000803e3d6000fd5b505050506040513d602081101561335e57600080fd5b5051905081811161339c576040805162461bcd60e51b81526020600482015260036024820152622a232360e91b604482015290519081900360640190fd5b0395945050505050565b604080516002808252606082018352600092839291906020830190803683370190505090506000816000815181106133da57fe5b602002602001019063ffffffff16908163ffffffff1681525050838160018151811061340257fe5b63ffffffff9092166020928302919091019091015260405163883bdbfd60e01b81526000906001600160a01b0389169063883bdbfd90613446908590600401614bb1565b60006040518083038186803b15801561345e57600080fd5b505afa158015613472573d6000803e3d6000fd5b505050506040513d6000823e601f3d908101601f1916820160405261349a91908101906145d3565b50905060008563ffffffff16826001815181106134b357fe5b6020026020010151836000815181106134c857fe5b60200260200101510360060b816134db57fe5b05905060006134e982613d62565b90506122f0898983896137cb565b60008282111561354e576040805162461bcd60e51b815260206004820152601e60248201527f536166654d6174683a207375627472616374696f6e206f766572666c6f770000604482015290519081900360640190fd5b50900390565b8063ffffffff8116811461135f57600080fd5b60008061357486866134f7565b9050600160aa1b8110156135b7576135af8463ffffffff1660706135a78660ff16600a0a8561371390919063ffffffff16565b901c9061376c565b9150506107d3565b6135af8463ffffffff16611a0a8560ff16600a0a607085901c61371390919063ffffffff16565b6135e6614151565b826001600160a01b0316846001600160a01b03161115613604579192915b50604080516060810182526001600160a01b03948516815292909316602083015262ffffff169181019190915290565b600081602001516001600160a01b031682600001516001600160a01b03161061365c57600080fd5b50805160208083015160409384015184516001600160a01b0394851681850152939091168385015262ffffff166060808401919091528351808403820181526080840185528051908301206001600160f81b031960a085015294901b6001600160601b03191660a183015260b58201939093527fe34f199b19b2b4f47f68442619d555527d244f78a3297ea89325f843f87b8b5460d5808301919091528251808303909101815260f5909101909152805191012090565b6000826137225750600061210c565b8282028284828161372f57fe5b0414610e485760405162461bcd60e51b815260040180806020018281038252602181526020018061524c6021913960400191505060405180910390fd5b60008082116137c2576040805162461bcd60e51b815260206004820152601a60248201527f536166654d6174683a206469766973696f6e206279207a65726f000000000000604482015290519081900360640190fd5b81838161210857fe5b600060ff8216600a0a81600160601b6001600160a01b038616111561381a5760246138118361380b6a03ffffffffffffffffffff604e8a901c1680613713565b90613713565b901c9050613866565b600061382f6001600160a01b03871680613713565b9050600160aa1b811061385357606061384a82821c85613713565b901c9150613864565b60c061385f8285613713565b901c91505b505b856001600160a01b0316876001600160a01b031610156138895791506107d39050565b61389781611a0a8480613713565b925050506107d3565b60006001600160a01b0384163014156138ce576138c76001600160a01b0386168484612f4c565b90506107d3565b6138e36001600160a01b038616858585613174565b95945050505050565b506020015190565b60008085116139155760405162461bcd60e51b815260040161045390614fa0565b6000841180156139255750600083115b6139415760405162461bcd60e51b815260040161045390615045565b600061395d61395661271061ffff86166134f7565b8790613713565b9050600061396b8286613713565b905060006139858361397f89612710613713565b90614094565b905080828161399057fe5b0498975050505050505050565b6000600160ff1b82106139af57600080fd5b5090565b6000816139d45773fffd8963efd1fc6a506488495d951d5263988d2561210c565b6401000276a492915050565b600080826001600160a01b0316633850c7bd6040518163ffffffff1660e01b815260040160e06040518083038186803b158015613a1c57600080fd5b505afa158015613a30573d6000803e3d6000fd5b505050506040513d601f19601f82011682018060405250810190613a549190614908565b5050600c61ffff909116101595505050505050919050565b600080613a81620f424062ffffff85166134f7565b90506000613a9b6001611c718461397f89620f4240613713565b9050818181613aa657fe5b0495945050505050565b6000808511613ad15760405162461bcd60e51b81526004016104539061500e565b600084118015613ae15750600083115b613afd5760405162461bcd60e51b815260040161045390615045565b6000613b0f61271061380b8789613713565b90506000613b30613b2661271061ffff87166134f7565b61380b878a6134f7565b9050610c086001828481613b4057fe5b0490614094565b604080516003808252608082019092526000918291829160208201606080368337019050509050600081600081518110613b7d57fe5b602002602001019063ffffffff16908163ffffffff16815250508581600181518110613ba557fe5b602002602001019063ffffffff16908163ffffffff16815250508481600281518110613bcd57fe5b63ffffffff9092166020928302919091019091015260405163883bdbfd60e01b81526000906001600160a01b038b169063883bdbfd90613c11908590600401614bb1565b60006040518083038186803b158015613c2957600080fd5b505afa158015613c3d573d6000803e3d6000fd5b505050506040513d6000823e601f3d908101601f19168201604052613c6591908101906145d3565b50905060008763ffffffff1682600181518110613c7e57fe5b602002602001015183600081518110613c9357fe5b60200260200101510360060b81613ca657fe5b0590506000613cb482613d62565b9050613cc28b8b838a6137cb565b9550600089890363ffffffff1684600281518110613cdc57fe5b602002602001015185600181518110613cf157fe5b60200260200101510360060b81613d0457fe5b0590506000613d1282613d62565b9050613d208d8d838c6137cb565b9650505050505050965096945050505050565b6000600582511015613d575760405162461bcd60e51b815260040161045390614ce6565b506024015160001a90565b60008060008360020b12613d79578260020b613d81565b8260020b6000035b9050620d89e8811115613dbf576040805162461bcd60e51b81526020600482015260016024820152601560fa1b604482015290519081900360640190fd5b600060018216613dd357600160801b613de5565b6ffffcb933bd6fad37aa2d162d1a5940015b70ffffffffffffffffffffffffffffffffff1690506002821615613e19576ffff97272373d413259a46990580e213a0260801c5b6004821615613e38576ffff2e50f5f656932ef12357cf3c7fdcc0260801c5b6008821615613e57576fffe5caca7e10e4e61c3624eaa0941cd00260801c5b6010821615613e76576fffcb9843d60f6159c9db58835c9266440260801c5b6020821615613e95576fff973b41fa98c081472e6896dfb254c00260801c5b6040821615613eb4576fff2ea16466c96a3843ec78b326b528610260801c5b6080821615613ed3576ffe5dee046a99a2a811c461f1969c30530260801c5b610100821615613ef3576ffcbe86c7900a88aedcffc83b479aa3a40260801c5b610200821615613f13576ff987a7253ac413176f2b074cf7815e540260801c5b610400821615613f33576ff3392b0822b70005940c7a398e4b70f30260801c5b610800821615613f53576fe7159475a2c29b7443b29c7fa6e889d90260801c5b611000821615613f73576fd097f3bdfd2022b8845ad8f792aa58250260801c5b612000821615613f93576fa9f746462d870fdf8a65dc1f90e061e50260801c5b614000821615613fb3576f70d869a156d2a1b890bb3df62baf32f70260801c5b618000821615613fd3576f31be135f97d08fd981231505542fcfa60260801c5b62010000821615613ff4576f09aa508b5b7a84e1c677de54f3e99bc90260801c5b62020000821615614014576e5d6af8dedb81196699c329225ee6040260801c5b62040000821615614033576d2216e584f5fa1ea926041bedfe980260801c5b62080000821615614050576b048a170391f7dc42444e8fa20260801c5b60008460020b131561406b57806000198161406757fe5b0490505b64010000000081061561407f576001614082565b60005b60ff16602082901c0192505050919050565b600082820183811015610e48576040805162461bcd60e51b815260206004820152601b60248201527f536166654d6174683a206164646974696f6e206f766572666c6f770000000000604482015290519081900360640190fd5b6040518060a00160405280600063ffffffff168152602001600081526020016000815260200160008152602001600081525090565b6040805160a08101825260008082526020820181905291810182905260608101829052608081019190915290565b604080516060810182526000808252602082018190529181019190915290565b600082601f830112614181578081fd5b81356020614196614191836151c3565b6151a0565b82815281810190858301838502870184018810156141b2578586fd5b855b858110156141d95781356141c7816151e0565b845292840192908401906001016141b4565b5090979650505050505050565b600082601f8301126141f6578081fd5b81516020614206614191836151c3565b8281528181019085830183850287018401881015614222578586fd5b855b858110156141d9578151614237816151e0565b84529284019290840190600101614224565b600082601f830112614259578081fd5b81356020614269614191836151c3565b8281528181019085830183850287018401881015614285578586fd5b855b858110156141d957813561429a816151f8565b84529284019290840190600101614287565b600082601f8301126142bc578081fd5b81356001600160401b038111156142cf57fe5b6142e2601f8201601f19166020016151a0565b8181528460208386010111156142f6578283fd5b816020850160208301379081016020019190915292915050565b80516001600160701b038116811461135f57600080fd5b803562ffffff8116811461135f57600080fd5b60006020828403121561434b578081fd5b8135610e48816151e0565b600060208284031215614367578081fd5b8151610e48816151e0565b600080600060608486031215614386578182fd5b8335614391816151e0565b925060208401356143a1816151e0565b915060408401356001600160401b038111156143bb578182fd5b6143c7868287016142ac565b9150509250925092565b60008060008060008060c087890312156143e9578384fd5b86356143f4816151e0565b95506020870135614404816151e0565b945061441260408801614327565b935061442060608801614327565b92506080870135915060a08701356001600160401b03811115614441578182fd5b61444d89828a016142ac565b9150509295509295509295565b600080600080600080600060e0888a031215614474578485fd5b873561447f816151e0565b9650602088013561448f816151e0565b955061449d60408901614327565b94506144ab60608901614327565b93506080880135925060a0880135915060c08801356001600160401b038111156144d3578182fd5b6144df8a828b016142ac565b91505092959891949750929550565b600080600080600060a08688031215614505578283fd5b8535614510816151e0565b94506020860135614520816151e0565b9350604086013592506060860135915060808601356001600160401b03811115614548578182fd5b614554888289016142ac565b9150509295509295909350565b60008060008060808587031215614576578182fd5b8435614581816151e0565b93506020850135614591816151e0565b925060408501356145a181615208565b915060608501356001600160401b038111156145bb578182fd5b6145c7878288016142ac565b91505092959194509250565b600080604083850312156145e5578182fd5b82516001600160401b03808211156145fb578384fd5b818501915085601f83011261460e578384fd5b8151602061461e614191836151c3565b82815281810190858301838502870184018b101561463a578889fd5b8896505b8487101561466a5780518060060b811461465657898afd5b83526001969096019591830191830161463e565b5091880151919650909350505080821115614683578283fd5b50614690858286016141e6565b9150509250929050565b6000806000606084860312156146ae578081fd5b83356001600160401b03808211156146c4578283fd5b818601915086601f8301126146d7578283fd5b813560206146e7614191836151c3565b82815281810190858301838502870184018c1015614703578788fd5b8796505b8487101561472e57803561471a8161521a565b835260019690960195918301918301614707565b5097505087013592505080821115614744578283fd5b61475087838801614171565b93506040860135915080821115614765578283fd5b506143c786828701614249565b60008060408385031215614784578182fd5b823561478f816151e0565b9150602083013561479f816151e0565b809150509250929050565b600080604083850312156147bc578182fd5b505080516020909101519092909150565b600080600080606085870312156147e2578182fd5b843593506020850135925060408501356001600160401b0380821115614806578384fd5b818701915087601f830112614819578384fd5b813581811115614827578485fd5b886020828501011115614838578485fd5b95989497505060200194505050565b600060808284031215614858578081fd5b604051608081018181106001600160401b038211171561487457fe5b6040528235614882816151e0565b81526020830135614892816151e0565b60208201526148a360408401614327565b604082015260608301356148b6816151e0565b60608201529392505050565b6000806000606084860312156148d6578081fd5b6148df84614310565b92506148ed60208501614310565b915060408401516148fd81615208565b809150509250925092565b600080600080600080600060e0888a031215614922578081fd5b875161492d816151e0565b8097505060208801518060020b8114614944578182fd5b6040890151909650614955816151f8565b6060890151909550614966816151f8565b6080890151909450614977816151f8565b60a08901519093506149888161521a565b60c0890151909250801515811461499d578182fd5b8091505092959891949750929550565b6000602082840312156149be578081fd5b5051919050565b6000806000606084860312156149d9578081fd5b833592506020840135915060408401356001600160401b038111156143bb578182fd5b600060208284031215614a0d578081fd5b8135610e488161521a565b6001600160601b0319606093841b811682529190921b16601482015260280190565b6001600160f81b0319815260609290921b6001600160601b031916600183015260158201527f96e8ac4277198ff8b6f785478aa9a39f403cb768dd02cbee326c3e7da348845f603582015260550190565b6001600160f81b0319815260609290921b6001600160601b031916600183015260158201527fe18a34eb0e04b04f7a0ac29a6e80748dca96319b42c54d679cb821dca90c6303603582015260550190565b6001600160a01b0391909116815260200190565b6001600160a01b0392831681529116602082015260400190565b6001600160a01b03938416815291909216602082015262ffffff909116604082015260600190565b600060018060a01b038088168352602087151581850152866040850152818616606085015260a06080850152845191508160a0850152825b82811015614b865785810182015185820160c001528101614b6a565b82811115614b97578360c084870101525b5050601f01601f19169190910160c0019695505050505050565b6020808252825182820181905260009190848201906040850190845b81811015614bef57835163ffffffff1683529284019291840191600101614bcd565b50909695505050505050565b901515815260200190565b6001600160a01b0392909216825261ffff16602082015260400190565b92835260208301919091526001600160a01b0316604082015260806060820181905260009082015260a00190565b60208082526023908201527f446578446174613a20746f556e69563350617468207061746820746f6f2073686040820152621bdc9d60ea1b606082015260800190565b60208082526003908201526222a7a960e91b604082015260600190565b6020808252818101527f446578446174613a20746f4465782077726f6e67206461746120666f726d6174604082015260600190565b60208082526028908201527f446578446174613a20746f41727261794c656e6774682077726f6e67206461746040820152671848199bdc9b585d60c21b606082015260800190565b6020808252601390820152721ddc9bdb99c8185b5bdd5b9d08189bdd59da1d606a1b604082015260600190565b6020808252600f908201526e0aadce6eae0e0dee4e8cac840c8caf608b1b604082015260600190565b60208082526026908201527f446578446174613a20746f556e695632506174682077726f6e67206461746120604082015265199bdc9b585d60d21b606082015260800190565b602080825260029082015261060f60f31b604082015260600190565b6020808252601690820152750e6cad8d840c2dadeeadce840dcdee840cadcdeeaced60531b604082015260600190565b60208082526026908201527f446578446174613a20746f556e695633506174682077726f6e67206461746120604082015265199bdc9b585d60d21b606082015260800190565b6020808252601d908201527f4f6e6c79206f70656e4c65762063616e20757064617465207072696365000000604082015260600190565b602080825260119082015270086c2dcdcdee840c4eaf240cadcdeeaced607b1b604082015260600190565b6020808252818101527f446578446174613a20746f4665652077726f6e67206461746120666f726d6174604082015260600190565b602080825260149082015273158cc818d85b1b08189858dac81a5b9d985b1a5960621b604082015260600190565b60208082526012908201527105365636f6e647341676f206d757374203e360741b604082015260600190565b60208082526002908201526109ef60f31b604082015260600190565b6020808252601c908201527f506f6f6c206f62736572766174696f6e73206e6f7420656e6f75676800000000604082015260600190565b60208082526019908201527f494e53554646494349454e545f494e5055545f414d4f554e5400000000000000604082015260600190565b60208082526018908201527f62757920616d6f756e74206c657373207468616e206d696e0000000000000000604082015260600190565b6020808252601a908201527f494e53554646494349454e545f4f55545055545f414d4f554e54000000000000604082015260600190565b602080825260169082015275494e53554646494349454e545f4c495155494449545960501b604082015260600190565b6020808252600f908201526e10d85b9b9bdd081cd95b1b08185b1b608a1b604082015260600190565b6020808252600990820152682737ba1030b236b4b760b91b604082015260600190565b81516001600160a01b03908116825260208084015182169083015260408084015162ffffff1690830152606092830151169181019190915260800190565b61ffff91909116815260200190565b90815260200190565b918252602082015260400190565b9485526020850193909352604084019190915260ff166060830152608082015260a00190565b91825260ff16602082015260400190565b92835260ff919091166020830152604082015260600190565b63ffffffff959095168552602085019390935260408401919091526060830152608082015260a00190565b6040518181016001600160401b03811182821017156151bb57fe5b604052919050565b60006001600160401b038211156151d657fe5b5060209081020190565b6001600160a01b03811681146151f557600080fd5b50565b61ffff811681146151f557600080fd5b63ffffffff811681146151f557600080fd5b60ff811681146151f557600080fdfe6f6e6c792070656e64696e6741646d696e2063616e206163636570742061646d696e536166654d6174683a206d756c7469706c69636174696f6e206f766572666c6f77a26469706673582212208d6c80bf4ae080a0d6c5b050426897981e80fa5b4f2db394a3cb3124d280bcce64736f6c63430007060033",
  "linkReferences": {},
  "deployedLinkReferences": {}
}