{
  "_format": "hh-sol-artifact-1",
  "contractName": "LTimePool",
  "sourceName": "contracts/udex/liquidity/LTimePool.sol",
  "abi": [
    {
      "inputs": [],
      "stateMutability": "nonpayable",
      "type": "constructor"
    },
    {
      "anonymous": false,
      "inputs": [
        {
          "indexed": false,
          "internalType": "uint256",
          "name": "cashPrior",
          "type": "uint256"
        },
        {
          "indexed": false,
          "internalType": "uint256",
          "name": "interestAccumulated",
          "type": "uint256"
        },
        {
          "indexed": false,
          "internalType": "uint256",
          "name": "borrowIndex",
          "type": "uint256"
        },
        {
          "indexed": false,
          "internalType": "uint256",
          "name": "totalBorrows",
          "type": "uint256"
        }
      ],
      "name": "AccrueInterest",
      "type": "event"
    },
    {
      "anonymous": false,
      "inputs": [
        {
          "indexed": true,
          "internalType": "address",
          "name": "owner",
          "type": "address"
        },
        {
          "indexed": true,
          "internalType": "address",
          "name": "spender",
          "type": "address"
        },
        {
          "indexed": false,
          "internalType": "uint256",
          "name": "amount",
          "type": "uint256"
        }
      ],
      "name": "Approval",
      "type": "event"
    },
    {
      "anonymous": false,
      "inputs": [
        {
          "indexed": false,
          "internalType": "address",
          "name": "borrower",
          "type": "address"
        },
        {
          "indexed": false,
          "internalType": "address",
          "name": "payee",
          "type": "address"
        },
        {
          "indexed": false,
          "internalType": "uint256",
          "name": "borrowAmount",
          "type": "uint256"
        },
        {
          "indexed": false,
          "internalType": "uint256",
          "name": "accountBorrows",
          "type": "uint256"
        },
        {
          "indexed": false,
          "internalType": "uint256",
          "name": "totalBorrows",
          "type": "uint256"
        }
      ],
      "name": "Borrow",
      "type": "event"
    },
    {
      "anonymous": false,
      "inputs": [
        {
          "indexed": false,
          "internalType": "address",
          "name": "minter",
          "type": "address"
        },
        {
          "indexed": false,
          "internalType": "uint256",
          "name": "mintAmount",
          "type": "uint256"
        },
        {
          "indexed": false,
          "internalType": "uint256",
          "name": "mintTokens",
          "type": "uint256"
        }
      ],
      "name": "Mint",
      "type": "event"
    },
    {
      "anonymous": false,
      "inputs": [
        {
          "indexed": false,
          "internalType": "address",
          "name": "oldAdmin",
          "type": "address"
        },
        {
          "indexed": false,
          "internalType": "address",
          "name": "newAdmin",
          "type": "address"
        }
      ],
      "name": "NewAdmin",
      "type": "event"
    },
    {
      "anonymous": false,
      "inputs": [
        {
          "indexed": false,
          "internalType": "uint256",
          "name": "oldBorrowCapFactorMantissa",
          "type": "uint256"
        },
        {
          "indexed": false,
          "internalType": "uint256",
          "name": "newBorrowCapFactorMantissa",
          "type": "uint256"
        }
      ],
      "name": "NewBorrowCapFactorMantissa",
      "type": "event"
    },
    {
      "anonymous": false,
      "inputs": [
        {
          "indexed": false,
          "internalType": "address",
          "name": "oldController",
          "type": "address"
        },
        {
          "indexed": false,
          "internalType": "address",
          "name": "newController",
          "type": "address"
        }
      ],
      "name": "NewController",
      "type": "event"
    },
    {
      "anonymous": false,
      "inputs": [
        {
          "indexed": false,
          "internalType": "uint256",
          "name": "baseRatePerBlock",
          "type": "uint256"
        },
        {
          "indexed": false,
          "internalType": "uint256",
          "name": "multiplierPerBlock",
          "type": "uint256"
        },
        {
          "indexed": false,
          "internalType": "uint256",
          "name": "jumpMultiplierPerBlock",
          "type": "uint256"
        },
        {
          "indexed": false,
          "internalType": "uint256",
          "name": "kink",
          "type": "uint256"
        }
      ],
      "name": "NewInterestParam",
      "type": "event"
    },
    {
      "anonymous": false,
      "inputs": [
        {
          "indexed": false,
          "internalType": "address",
          "name": "oldPendingAdmin",
          "type": "address"
        },
        {
          "indexed": false,
          "internalType": "address",
          "name": "newPendingAdmin",
          "type": "address"
        }
      ],
      "name": "NewPendingAdmin",
      "type": "event"
    },
    {
      "anonymous": false,
      "inputs": [
        {
          "indexed": false,
          "internalType": "uint256",
          "name": "oldReserveFactorMantissa",
          "type": "uint256"
        },
        {
          "indexed": false,
          "internalType": "uint256",
          "name": "newReserveFactorMantissa",
          "type": "uint256"
        }
      ],
      "name": "NewReserveFactor",
      "type": "event"
    },
    {
      "anonymous": false,
      "inputs": [
        {
          "indexed": false,
          "internalType": "address",
          "name": "redeemer",
          "type": "address"
        },
        {
          "indexed": false,
          "internalType": "uint256",
          "name": "redeemAmount",
          "type": "uint256"
        },
        {
          "indexed": false,
          "internalType": "uint256",
          "name": "redeemTokens",
          "type": "uint256"
        }
      ],
      "name": "Redeem",
      "type": "event"
    },
    {
      "anonymous": false,
      "inputs": [
        {
          "indexed": false,
          "internalType": "address",
          "name": "payer",
          "type": "address"
        },
        {
          "indexed": false,
          "internalType": "address",
          "name": "borrower",
          "type": "address"
        },
        {
          "indexed": false,
          "internalType": "uint256",
          "name": "repayAmount",
          "type": "uint256"
        },
        {
          "indexed": false,
          "internalType": "uint256",
          "name": "badDebtsAmount",
          "type": "uint256"
        },
        {
          "indexed": false,
          "internalType": "uint256",
          "name": "accountBorrows",
          "type": "uint256"
        },
        {
          "indexed": false,
          "internalType": "uint256",
          "name": "totalBorrows",
          "type": "uint256"
        }
      ],
      "name": "RepayBorrow",
      "type": "event"
    },
    {
      "anonymous": false,
      "inputs": [
        {
          "indexed": false,
          "internalType": "address",
          "name": "benefactor",
          "type": "address"
        },
        {
          "indexed": false,
          "internalType": "uint256",
          "name": "addAmount",
          "type": "uint256"
        },
        {
          "indexed": false,
          "internalType": "uint256",
          "name": "newTotalReserves",
          "type": "uint256"
        }
      ],
      "name": "ReservesAdded",
      "type": "event"
    },
    {
      "anonymous": false,
      "inputs": [
        {
          "indexed": false,
          "internalType": "address",
          "name": "to",
          "type": "address"
        },
        {
          "indexed": false,
          "internalType": "uint256",
          "name": "reduceAmount",
          "type": "uint256"
        },
        {
          "indexed": false,
          "internalType": "uint256",
          "name": "newTotalReserves",
          "type": "uint256"
        }
      ],
      "name": "ReservesReduced",
      "type": "event"
    },
    {
      "anonymous": false,
      "inputs": [
        {
          "indexed": true,
          "internalType": "address",
          "name": "from",
          "type": "address"
        },
        {
          "indexed": true,
          "internalType": "address",
          "name": "to",
          "type": "address"
        },
        {
          "indexed": false,
          "internalType": "uint256",
          "name": "amount",
          "type": "uint256"
        }
      ],
      "name": "Transfer",
      "type": "event"
    },
    {
      "inputs": [],
      "name": "acceptAdmin",
      "outputs": [],
      "stateMutability": "nonpayable",
      "type": "function"
    },
    {
      "inputs": [],
      "name": "accrualBlockNumber",
      "outputs": [
        {
          "internalType": "uint256",
          "name": "",
          "type": "uint256"
        }
      ],
      "stateMutability": "view",
      "type": "function"
    },
    {
      "inputs": [],
      "name": "accrualBlockTimestamp",
      "outputs": [
        {
          "internalType": "uint256",
          "name": "",
          "type": "uint256"
        }
      ],
      "stateMutability": "view",
      "type": "function"
    },
    {
      "inputs": [],
      "name": "accrueInterest",
      "outputs": [],
      "stateMutability": "nonpayable",
      "type": "function"
    },
    {
      "inputs": [
        {
          "internalType": "uint256",
          "name": "addAmount",
          "type": "uint256"
        }
      ],
      "name": "addReserves",
      "outputs": [],
      "stateMutability": "payable",
      "type": "function"
    },
    {
      "inputs": [],
      "name": "admin",
      "outputs": [
        {
          "internalType": "address payable",
          "name": "",
          "type": "address"
        }
      ],
      "stateMutability": "view",
      "type": "function"
    },
    {
      "inputs": [
        {
          "internalType": "address",
          "name": "owner",
          "type": "address"
        },
        {
          "internalType": "address",
          "name": "spender",
          "type": "address"
        }
      ],
      "name": "allowance",
      "outputs": [
        {
          "internalType": "uint256",
          "name": "",
          "type": "uint256"
        }
      ],
      "stateMutability": "view",
      "type": "function"
    },
    {
      "inputs": [
        {
          "internalType": "address",
          "name": "spender",
          "type": "address"
        },
        {
          "internalType": "uint256",
          "name": "amount",
          "type": "uint256"
        }
      ],
      "name": "approve",
      "outputs": [
        {
          "internalType": "bool",
          "name": "",
          "type": "bool"
        }
      ],
      "stateMutability": "nonpayable",
      "type": "function"
    },
    {
      "inputs": [],
      "name": "availableForBorrow",
      "outputs": [
        {
          "internalType": "uint256",
          "name": "",
          "type": "uint256"
        }
      ],
      "stateMutability": "view",
      "type": "function"
    },
    {
      "inputs": [
        {
          "internalType": "address",
          "name": "owner",
          "type": "address"
        }
      ],
      "name": "balanceOf",
      "outputs": [
        {
          "internalType": "uint256",
          "name": "",
          "type": "uint256"
        }
      ],
      "stateMutability": "view",
      "type": "function"
    },
    {
      "inputs": [
        {
          "internalType": "address",
          "name": "owner",
          "type": "address"
        }
      ],
      "name": "balanceOfUnderlying",
      "outputs": [
        {
          "internalType": "uint256",
          "name": "",
          "type": "uint256"
        }
      ],
      "stateMutability": "nonpayable",
      "type": "function"
    },
    {
      "inputs": [],
      "name": "baseRatePerBlock",
      "outputs": [
        {
          "internalType": "uint256",
          "name": "",
          "type": "uint256"
        }
      ],
      "stateMutability": "view",
      "type": "function"
    },
    {
      "inputs": [
        {
          "internalType": "uint16",
          "name": "marketId",
          "type": "uint16"
        },
        {
          "internalType": "address",
          "name": "account",
          "type": "address"
        }
      ],
      "name": "borrowBalanceCurrent",
      "outputs": [
        {
          "internalType": "uint256",
          "name": "",
          "type": "uint256"
        }
      ],
      "stateMutability": "view",
      "type": "function"
    },
    {
      "inputs": [
        {
          "internalType": "uint16",
          "name": "marketId",
          "type": "uint16"
        },
        {
          "internalType": "address",
          "name": "account",
          "type": "address"
        }
      ],
      "name": "borrowBalanceStored",
      "outputs": [
        {
          "internalType": "uint256",
          "name": "",
          "type": "uint256"
        }
      ],
      "stateMutability": "view",
      "type": "function"
    },
    {
      "inputs": [
        {
          "internalType": "uint16",
          "name": "marketId",
          "type": "uint16"
        },
        {
          "internalType": "address",
          "name": "borrower",
          "type": "address"
        },
        {
          "internalType": "uint256",
          "name": "borrowAmount",
          "type": "uint256"
        }
      ],
      "name": "borrowBehalf",
      "outputs": [],
      "stateMutability": "nonpayable",
      "type": "function"
    },
    {
      "inputs": [],
      "name": "borrowCapFactorMantissa",
      "outputs": [
        {
          "internalType": "uint256",
          "name": "",
          "type": "uint256"
        }
      ],
      "stateMutability": "view",
      "type": "function"
    },
    {
      "inputs": [],
      "name": "borrowIndex",
      "outputs": [
        {
          "internalType": "uint256",
          "name": "",
          "type": "uint256"
        }
      ],
      "stateMutability": "view",
      "type": "function"
    },
    {
      "inputs": [],
      "name": "borrowRatePerBlock",
      "outputs": [
        {
          "internalType": "uint256",
          "name": "",
          "type": "uint256"
        }
      ],
      "stateMutability": "view",
      "type": "function"
    },
    {
      "inputs": [],
      "name": "controller",
      "outputs": [
        {
          "internalType": "address",
          "name": "",
          "type": "address"
        }
      ],
      "stateMutability": "view",
      "type": "function"
    },
    {
      "inputs": [],
      "name": "decimals",
      "outputs": [
        {
          "internalType": "uint8",
          "name": "",
          "type": "uint8"
        }
      ],
      "stateMutability": "view",
      "type": "function"
    },
    {
      "inputs": [],
      "name": "developer",
      "outputs": [
        {
          "internalType": "address payable",
          "name": "",
          "type": "address"
        }
      ],
      "stateMutability": "view",
      "type": "function"
    },
    {
      "inputs": [],
      "name": "exchangeRateCurrent",
      "outputs": [
        {
          "internalType": "uint256",
          "name": "",
          "type": "uint256"
        }
      ],
      "stateMutability": "nonpayable",
      "type": "function"
    },
    {
      "inputs": [],
      "name": "exchangeRateStored",
      "outputs": [
        {
          "internalType": "uint256",
          "name": "",
          "type": "uint256"
        }
      ],
      "stateMutability": "view",
      "type": "function"
    },
    {
      "inputs": [
        {
          "internalType": "uint16",
          "name": "marketId",
          "type": "uint16"
        },
        {
          "internalType": "address",
          "name": "account",
          "type": "address"
        }
      ],
      "name": "getAccountSnapshot",
      "outputs": [
        {
          "internalType": "uint256",
          "name": "",
          "type": "uint256"
        },
        {
          "internalType": "uint256",
          "name": "",
          "type": "uint256"
        },
        {
          "internalType": "uint256",
          "name": "",
          "type": "uint256"
        }
      ],
      "stateMutability": "view",
      "type": "function"
    },
    {
      "inputs": [],
      "name": "getCash",
      "outputs": [
        {
          "internalType": "uint256",
          "name": "",
          "type": "uint256"
        }
      ],
      "stateMutability": "view",
      "type": "function"
    },
    {
      "inputs": [],
      "name": "implementation",
      "outputs": [
        {
          "internalType": "address",
          "name": "",
          "type": "address"
        }
      ],
      "stateMutability": "view",
      "type": "function"
    },
    {
      "inputs": [
        {
          "internalType": "address",
          "name": "underlying_",
          "type": "address"
        },
        {
          "internalType": "bool",
          "name": "isWethPool_",
          "type": "bool"
        },
        {
          "internalType": "address",
          "name": "controller_",
          "type": "address"
        },
        {
          "internalType": "uint256",
          "name": "baseRatePerBlock_",
          "type": "uint256"
        },
        {
          "internalType": "uint256",
          "name": "multiplierPerBlock_",
          "type": "uint256"
        },
        {
          "internalType": "uint256",
          "name": "jumpMultiplierPerBlock_",
          "type": "uint256"
        },
        {
          "internalType": "uint256",
          "name": "kink_",
          "type": "uint256"
        },
        {
          "internalType": "uint256",
          "name": "initialExchangeRateMantissa_",
          "type": "uint256"
        },
        {
          "internalType": "string",
          "name": "name_",
          "type": "string"
        },
        {
          "internalType": "string",
          "name": "symbol_",
          "type": "string"
        },
        {
          "internalType": "uint8",
          "name": "decimals_",
          "type": "uint8"
        }
      ],
      "name": "initialize",
      "outputs": [],
      "stateMutability": "nonpayable",
      "type": "function"
    },
    {
      "inputs": [],
      "name": "isWethPool",
      "outputs": [
        {
          "internalType": "bool",
          "name": "",
          "type": "bool"
        }
      ],
      "stateMutability": "view",
      "type": "function"
    },
    {
      "inputs": [],
      "name": "jumpMultiplierPerBlock",
      "outputs": [
        {
          "internalType": "uint256",
          "name": "",
          "type": "uint256"
        }
      ],
      "stateMutability": "view",
      "type": "function"
    },
    {
      "inputs": [],
      "name": "kink",
      "outputs": [
        {
          "internalType": "uint256",
          "name": "",
          "type": "uint256"
        }
      ],
      "stateMutability": "view",
      "type": "function"
    },
    {
      "inputs": [
        {
          "internalType": "uint256",
          "name": "mintAmount",
          "type": "uint256"
        }
      ],
      "name": "mint",
      "outputs": [],
      "stateMutability": "nonpayable",
      "type": "function"
    },
    {
      "inputs": [],
      "name": "mintEth",
      "outputs": [],
      "stateMutability": "payable",
      "type": "function"
    },
    {
      "inputs": [
        {
          "internalType": "address",
          "name": "to",
          "type": "address"
        },
        {
          "internalType": "uint256",
          "name": "amount",
          "type": "uint256"
        }
      ],
      "name": "mintTo",
      "outputs": [],
      "stateMutability": "payable",
      "type": "function"
    },
    {
      "inputs": [],
      "name": "multiplierPerBlock",
      "outputs": [
        {
          "internalType": "uint256",
          "name": "",
          "type": "uint256"
        }
      ],
      "stateMutability": "view",
      "type": "function"
    },
    {
      "inputs": [],
      "name": "name",
      "outputs": [
        {
          "internalType": "string",
          "name": "",
          "type": "string"
        }
      ],
      "stateMutability": "view",
      "type": "function"
    },
    {
      "inputs": [],
      "name": "pendingAdmin",
      "outputs": [
        {
          "internalType": "address payable",
          "name": "",
          "type": "address"
        }
      ],
      "stateMutability": "view",
      "type": "function"
    },
    {
      "inputs": [
        {
          "internalType": "uint256",
          "name": "redeemTokens",
          "type": "uint256"
        }
      ],
      "name": "redeem",
      "outputs": [],
      "stateMutability": "nonpayable",
      "type": "function"
    },
    {
      "inputs": [
        {
          "internalType": "uint256",
          "name": "redeemAmount",
          "type": "uint256"
        }
      ],
      "name": "redeemUnderlying",
      "outputs": [],
      "stateMutability": "nonpayable",
      "type": "function"
    },
    {
      "inputs": [
        {
          "internalType": "address payable",
          "name": "to",
          "type": "address"
        },
        {
          "internalType": "uint256",
          "name": "reduceAmount",
          "type": "uint256"
        }
      ],
      "name": "reduceReserves",
      "outputs": [],
      "stateMutability": "nonpayable",
      "type": "function"
    },
    {
      "inputs": [
        {
          "internalType": "uint16",
          "name": "marketId",
          "type": "uint16"
        },
        {
          "internalType": "address",
          "name": "borrower",
          "type": "address"
        },
        {
          "internalType": "uint256",
          "name": "repayAmount",
          "type": "uint256"
        }
      ],
      "name": "repayBorrowBehalf",
      "outputs": [],
      "stateMutability": "nonpayable",
      "type": "function"
    },
    {
      "inputs": [
        {
          "internalType": "uint16",
          "name": "marketId",
          "type": "uint16"
        },
        {
          "internalType": "address",
          "name": "borrower",
          "type": "address"
        },
        {
          "internalType": "uint256",
          "name": "repayAmount",
          "type": "uint256"
        }
      ],
      "name": "repayBorrowEndByOpenLev",
      "outputs": [],
      "stateMutability": "nonpayable",
      "type": "function"
    },
    {
      "inputs": [],
      "name": "reserveFactorMantissa",
      "outputs": [
        {
          "internalType": "uint256",
          "name": "",
          "type": "uint256"
        }
      ],
      "stateMutability": "view",
      "type": "function"
    },
    {
      "inputs": [
        {
          "internalType": "uint256",
          "name": "newBorrowCapFactorMantissa",
          "type": "uint256"
        }
      ],
      "name": "setBorrowCapFactorMantissa",
      "outputs": [],
      "stateMutability": "nonpayable",
      "type": "function"
    },
    {
      "inputs": [
        {
          "internalType": "address",
          "name": "newController",
          "type": "address"
        }
      ],
      "name": "setController",
      "outputs": [],
      "stateMutability": "nonpayable",
      "type": "function"
    },
    {
      "inputs": [
        {
          "internalType": "uint256",
          "name": "baseRatePerBlock_",
          "type": "uint256"
        },
        {
          "internalType": "uint256",
          "name": "multiplierPerBlock_",
          "type": "uint256"
        },
        {
          "internalType": "uint256",
          "name": "jumpMultiplierPerBlock_",
          "type": "uint256"
        },
        {
          "internalType": "uint256",
          "name": "kink_",
          "type": "uint256"
        }
      ],
      "name": "setInterestParams",
      "outputs": [],
      "stateMutability": "nonpayable",
      "type": "function"
    },
    {
      "inputs": [
        {
          "internalType": "address payable",
          "name": "newPendingAdmin",
          "type": "address"
        }
      ],
      "name": "setPendingAdmin",
      "outputs": [],
      "stateMutability": "nonpayable",
      "type": "function"
    },
    {
      "inputs": [
        {
          "internalType": "uint256",
          "name": "newReserveFactorMantissa",
          "type": "uint256"
        }
      ],
      "name": "setReserveFactor",
      "outputs": [],
      "stateMutability": "nonpayable",
      "type": "function"
    },
    {
      "inputs": [],
      "name": "supplyRatePerBlock",
      "outputs": [
        {
          "internalType": "uint256",
          "name": "",
          "type": "uint256"
        }
      ],
      "stateMutability": "view",
      "type": "function"
    },
    {
      "inputs": [],
      "name": "symbol",
      "outputs": [
        {
          "internalType": "string",
          "name": "",
          "type": "string"
        }
      ],
      "stateMutability": "view",
      "type": "function"
    },
    {
      "inputs": [],
      "name": "totalBorrows",
      "outputs": [
        {
          "internalType": "uint256",
          "name": "",
          "type": "uint256"
        }
      ],
      "stateMutability": "view",
      "type": "function"
    },
    {
      "inputs": [],
      "name": "totalBorrowsCurrent",
      "outputs": [
        {
          "internalType": "uint256",
          "name": "",
          "type": "uint256"
        }
      ],
      "stateMutability": "view",
      "type": "function"
    },
    {
      "inputs": [],
      "name": "totalReserves",
      "outputs": [
        {
          "internalType": "uint256",
          "name": "",
          "type": "uint256"
        }
      ],
      "stateMutability": "view",
      "type": "function"
    },
    {
      "inputs": [],
      "name": "totalSupply",
      "outputs": [
        {
          "internalType": "uint256",
          "name": "",
          "type": "uint256"
        }
      ],
      "stateMutability": "view",
      "type": "function"
    },
    {
      "inputs": [
        {
          "internalType": "address",
          "name": "dst",
          "type": "address"
        },
        {
          "internalType": "uint256",
          "name": "amount",
          "type": "uint256"
        }
      ],
      "name": "transfer",
      "outputs": [
        {
          "internalType": "bool",
          "name": "",
          "type": "bool"
        }
      ],
      "stateMutability": "nonpayable",
      "type": "function"
    },
    {
      "inputs": [
        {
          "internalType": "address",
          "name": "src",
          "type": "address"
        },
        {
          "internalType": "address",
          "name": "dst",
          "type": "address"
        },
        {
          "internalType": "uint256",
          "name": "amount",
          "type": "uint256"
        }
      ],
      "name": "transferFrom",
      "outputs": [
        {
          "internalType": "bool",
          "name": "",
          "type": "bool"
        }
      ],
      "stateMutability": "nonpayable",
      "type": "function"
    },
    {
      "inputs": [],
      "name": "underlying",
      "outputs": [
        {
          "internalType": "address",
          "name": "",
          "type": "address"
        }
      ],
      "stateMutability": "view",
      "type": "function"
    }
  ],
  "bytecode": "0x608060405234801561001057600080fd5b50600380546001600160a01b031916331790556001601a55614e25806100376000396000f3fe60806040526004361061036b5760003560e01c80638726bb89116101c6578063ca4b208b116100f7578063ebd0847f11610095578063f851a4401161006f578063f851a44014610cea578063f8f9da2814610cff578063fb0fc2b614610d14578063fd2da33914610d295761036b565b8063ebd0847f14610c84578063f14039de14610cc0578063f77c479114610cd55761036b565b8063d245445b116100d1578063d245445b14610bd4578063d37bdd3e14610bdc578063db006a7514610c1f578063dd62ed3e14610c495761036b565b8063ca4b208b14610b95578063cc2c929e14610baa578063cfa9920114610bbf5761036b565b8063a6afed9511610164578063ae9d70b01161013e578063ae9d70b0146109d4578063b9f9850a146109e9578063bd6d894d146109fe578063c89a636814610a135761036b565b8063a6afed9514610971578063a9059cbb14610986578063aa5af0fd146109bf5761036b565b806395d89b41116101a057806395d89b411461089a5780639f2b5fe1146108af578063a00c441d1461090a578063a0712d68146109475761036b565b80638726bb891461083d5780638f840ddd1461085257806392eefe9b146108675761036b565b806342af38d8116102a05780636c540baf1161023e57806370a082311161021857806370a08231146107ae57806373acee98146107e15780637821a514146107f6578063852a12e3146108135761036b565b80636c540baf1461074b5780636e45a80f146107605780636f307dc3146107995761036b565b80634dd18bf51161027a5780634dd18bf5146106965780635c60da1b146106c9578063688c1768146106de5780636940caa0146107215761036b565b806342af38d814610640578063449a52f81461065557806347bd3718146106815761036b565b80631c4469831161030d578063313ce567116102e7578063313ce5671461058a5780633af9e669146105b55780633b1d21a2146105e857806341492bc7146105fd5761036b565b80631c446983146104ec57806323b872dd1461051657806326782247146105595761036b565b8063173b990411610349578063173b99041461045e57806318160ddd14610485578063182df0f51461049a57806318c257c8146104af5761036b565b806306fdde0314610370578063095ea7b3146103fa5780630e18b68114610447575b600080fd5b34801561037c57600080fd5b50610385610d3e565b6040805160208082528351818301528351919283929083019185019080838360005b838110156103bf5781810151838201526020016103a7565b50505050905090810190601f1680156103ec5780820380516001836020036101000a031916815260200191505b509250505060405180910390f35b34801561040657600080fd5b506104336004803603604081101561041d57600080fd5b506001600160a01b038135169060200135610dcc565b604080519115158252519081900360200190f35b34801561045357600080fd5b5061045c610e39565b005b34801561046a57600080fd5b50610473610f39565b60408051918252519081900360200190f35b34801561049157600080fd5b50610473610f3f565b3480156104a657600080fd5b50610473610f45565b3480156104bb57600080fd5b50610473600480360360408110156104d257600080fd5b50803561ffff1690602001356001600160a01b0316610faa565b3480156104f857600080fd5b5061045c6004803603602081101561050f57600080fd5b503561107e565b34801561052257600080fd5b506104336004803603606081101561053957600080fd5b506001600160a01b03813581169160208101359091169060400135611125565b34801561056557600080fd5b5061056e61118b565b604080516001600160a01b039092168252519081900360200190f35b34801561059657600080fd5b5061059f61119a565b6040805160ff9092168252519081900360200190f35b3480156105c157600080fd5b50610473600480360360208110156105d857600080fd5b50356001600160a01b03166111a3565b3480156105f457600080fd5b50610473611240565b34801561060957600080fd5b5061045c6004803603606081101561062057600080fd5b5061ffff813516906001600160a01b0360208201351690604001356112bc565b34801561064c57600080fd5b50610473611325565b61045c6004803603604081101561066b57600080fd5b506001600160a01b03813516906020013561132b565b34801561068d57600080fd5b506104736113b9565b3480156106a257600080fd5b5061045c600480360360208110156106b957600080fd5b50356001600160a01b03166113bf565b3480156106d557600080fd5b5061056e61142a565b3480156106ea57600080fd5b5061045c6004803603606081101561070157600080fd5b5061ffff813516906001600160a01b036020820135169060400135611439565b34801561072d57600080fd5b5061045c6004803603602081101561074457600080fd5b50356114a5565b34801561075757600080fd5b50610473611544565b34801561076c57600080fd5b5061045c6004803603604081101561078357600080fd5b506001600160a01b03813516906020013561154a565b3480156107a557600080fd5b5061056e61161b565b3480156107ba57600080fd5b50610473600480360360208110156107d157600080fd5b50356001600160a01b031661162a565b3480156107ed57600080fd5b50610473611645565b61045c6004803603602081101561080c57600080fd5b50356118b3565b34801561081f57600080fd5b5061045c6004803603602081101561083657600080fd5b5035611978565b34801561084957600080fd5b506104736119df565b34801561085e57600080fd5b506104736119e5565b34801561087357600080fd5b5061045c6004803603602081101561088a57600080fd5b50356001600160a01b03166119eb565b3480156108a657600080fd5b50610385611a96565b3480156108bb57600080fd5b506108ec600480360360408110156108d257600080fd5b50803561ffff1690602001356001600160a01b0316611af1565b60408051938452602084019290925282820152519081900360600190f35b34801561091657600080fd5b506104736004803603604081101561092d57600080fd5b50803561ffff1690602001356001600160a01b0316611b89565b34801561095357600080fd5b5061045c6004803603602081101561096a57600080fd5b5035611bb7565b34801561097d57600080fd5b5061045c611c16565b34801561099257600080fd5b50610433600480360360408110156109a957600080fd5b506001600160a01b038135169060200135611fd2565b3480156109cb57600080fd5b50610473612037565b3480156109e057600080fd5b5061047361203d565b3480156109f557600080fd5b5061047361205d565b348015610a0a57600080fd5b50610473612063565b348015610a1f57600080fd5b5061045c6004803603610160811015610a3757600080fd5b6001600160a01b038235811692602081013515159260408201359092169160608201359160808101359160a08201359160c08101359160e082013591908101906101208101610100820135640100000000811115610a9457600080fd5b820183602082011115610aa657600080fd5b80359060200191846001830284011164010000000083111715610ac857600080fd5b91908080601f0160208091040260200160405190810160405280939291908181526020018383808284376000920191909152509295949360208101935035915050640100000000811115610b1b57600080fd5b820183602082011115610b2d57600080fd5b80359060200191846001830284011164010000000083111715610b4f57600080fd5b91908080601f0160208091040260200160405190810160405280939291908181526020018383808284376000920191909152509295505050903560ff1691506120ca9050565b348015610ba157600080fd5b5061056e6123ef565b348015610bb657600080fd5b506104336123fe565b348015610bcb57600080fd5b5061047361240e565b61045c612414565b348015610be857600080fd5b5061045c60048036036060811015610bff57600080fd5b5061ffff813516906001600160a01b0360208201351690604001356124c0565b348015610c2b57600080fd5b5061045c60048036036020811015610c4257600080fd5b5035612521565b348015610c5557600080fd5b5061047360048036036040811015610c6c57600080fd5b506001600160a01b0381358116916020013516612580565b348015610c9057600080fd5b5061045c60048036036080811015610ca757600080fd5b50803590602081013590604081013590606001356125ab565b348015610ccc57600080fd5b50610473612762565b348015610ce157600080fd5b5061056e612768565b348015610cf657600080fd5b5061056e612777565b348015610d0b57600080fd5b50610473612786565b348015610d2057600080fd5b5061047361279e565b348015610d3557600080fd5b5061047361284a565b6004805460408051602060026001851615610100026000190190941693909304601f81018490048402820184019092528181529291830182828015610dc45780601f10610d9957610100808354040283529160200191610dc4565b820191906000526020600020905b815481529060010190602001808311610da757829003601f168201915b505050505081565b3360008181526009602090815260408083206001600160a01b03871680855290835281842086905581518681529151939493909284927f8c5be1e5ebec7d5bd14f71427d1e84f3dd0314c0f7b2291e5b200ac8c7c3b925929081900390910190a360019150505b92915050565b6002546001600160a01b03163314610e825760405162461bcd60e51b8152600401808060200182810382526022815260200180614d586022913960400191505060405180910390fd5b60018054600280546001600160a01b038082166001600160a01b031980861682179687905590921690925560408051938316808552949092166020840152815190927ff9ffabca9c8276e99321725bcb43fb076a6c66a54b7f21c4e8146d8519b417dc92908290030190a1600254604080516001600160a01b038085168252909216602083015280517fca4f2f25d0898edd99413412fb94012f9e54ec8142f9b093e7720646a95b16a99281900390910190a15050565b60115481565b60075481565b6000806000610f52612850565b90925090506000826003811115610f6557fe5b14610fa3576040805162461bcd60e51b815260206004820152600960248201526818d85b18c819985a5b60ba1b604482015290519081900360640190fd5b9150505b90565b6000806000610fb76128ff565b90925090506000826003811115610fca57fe5b14611015576040805162461bcd60e51b815260206004820152601660248201527518d85b18c8189bdc9c9bddc81a5b99195e0819985a5b60521b604482015290519081900360640190fd5b6000806110238787856129b7565b9092509050600082600381111561103657fe5b14611074576040805162461bcd60e51b815260206004820152600960248201526818d85b18c819985a5b60ba1b604482015290519081900360640190fd5b9695505050505050565b611086612a78565b670de0b6b3a76400008111156110d6576040805162461bcd60e51b815260206004820152601060248201526f466163746f7220746f6f206c6172676560801b604482015290519081900360640190fd5b6110de611c16565b6011805490829055604080518281526020810184905281517faaa68312e2ea9d50e16af5068410ab56e1a1fd06037b1a35664812c30f821460929181900390910190a15050565b60006002601a54141561116d576040805162461bcd60e51b815260206004820152601f6024820152600080516020614d38833981519152604482015290519081900360640190fd5b6002601a5561117e33858585612ace565b6001601a55949350505050565b6002546001600160a01b031681565b60065460ff1681565b60008060405180602001604052806111b9612063565b90526001600160a01b0384166000908152600860205260408120549192509081906111e5908490612e2f565b909250905060008260038111156111f857fe5b14611238576040805162461bcd60e51b815260206004820152600b60248201526a18d85b18c819985a5b195960aa1b604482015290519081900360640190fd5b949350505050565b601354604080516370a0823160e01b815230600482015290516000926001600160a01b0316916370a08231916024808301926020929190829003018186803b15801561128b57600080fd5b505afa15801561129f573d6000803e3d6000fd5b505050506040513d60208110156112b557600080fd5b5051905090565b6002601a541415611302576040805162461bcd60e51b815260206004820152601f6024820152600080516020614d38833981519152604482015290519081900360640190fd5b6002601a5561130f611c16565b61131b83833384612e7c565b50506001601a5550565b600a5481565b6002601a541415611371576040805162461bcd60e51b815260206004820152601f6024820152600080516020614d38833981519152604482015290519081900360640190fd5b6002601a5561137e611c16565b601354600160a01b900460ff16156113a25761139c823460006131eb565b506113b0565b6113ae828260016131eb565b505b50506001601a55565b600f5481565b6113c7612a78565b600280546001600160a01b038381166001600160a01b0319831681179093556040805191909216808252602082019390935281517fca4f2f25d0898edd99413412fb94012f9e54ec8142f9b093e7720646a95b16a9929181900390910190a15050565b6000546001600160a01b031681565b6002601a54141561147f576040805162461bcd60e51b815260206004820152601f6024820152600080516020614d38833981519152604482015290519081900360640190fd5b6002601a5561148c611c16565b61149a8333848460016136ab565b50506001601a555050565b6114ad612a78565b670de0b6b3a76400008111156114fd576040805162461bcd60e51b815260206004820152601060248201526f466163746f7220746f6f206c6172676560801b604482015290519081900360640190fd5b600a805490829055604080518281526020810184905281517f8d783a1777b97cb9cbf193604a8a1bc534234dbaaa16629ff7022f0d63a7322f929181900390910190a15050565b600d5481565b6002601a541415611590576040805162461bcd60e51b815260206004820152601f6024820152600080516020614d38833981519152604482015290519081900360640190fd5b6002601a5561159d612a78565b6115a5611c16565b6012546000906115b59083613acf565b601281905590506115c883836001613b2c565b604080516001600160a01b03851681526020810184905280820183905290517f3bad0c59cf2f06e7314077049f48a93578cd16f5ef92329f1dab1420a99c177e9181900360600190a150506001601a5550565b6013546001600160a01b031681565b6001600160a01b031660009081526008602052604090205490565b600080611650613c2e565b6019549091508082141561166a57600f5492505050610fa7565b6000611674611240565b600f5460125491925090600061168b848484613c32565b905065048c273950008111156116df576040805162461bcd60e51b81526020600482015260146024820152733137b93937bbb2b9103930ba32903434b3b432b960611b604482015290519081900360640190fd5b6000806116ec8888613cf5565b909250905060008260038111156116ff57fe5b14611749576040805162461bcd60e51b815260206004820152601560248201527463616c6320626c6f636b2064656c7461206572726f60581b604482015290519081900360640190fd5b611751614bdd565b60008061176c60405180602001604052808881525085613d18565b9095509250600085600381111561177f57fe5b146117d1576040805162461bcd60e51b815260206004820152601a60248201527f63616c6320696e74657265737420666163746f72206572726f72000000000000604482015290519081900360640190fd5b6117db8389612e2f565b909550915060008560038111156117ee57fe5b1461183a576040805162461bcd60e51b815260206004820152601760248201527631b0b6319034b73a32b932b9ba1030b1b19032b93937b960491b604482015290519081900360640190fd5b6118448289613d80565b9095509050600085600381111561185757fe5b146118a4576040805162461bcd60e51b815260206004820152601860248201527731b0b631903a37ba30b6103137b93937bbb99032b93937b960411b604482015290519081900360640190fd5b9a505050505050505050505090565b6002601a5414156118f9576040805162461bcd60e51b815260206004820152601f6024820152600080516020614d38833981519152604482015290519081900360640190fd5b6002601a55611906611c16565b60008061191533846001613da6565b6012549091506119259082613e43565b6012819055604080513381526020810184905280820183905290519193507fa91e67c5ea634cd43a12c5a482724b03de01e85ca68702a53d0c2f45cb7c1dc5919081900360600190a150506001601a5550565b6002601a5414156119be576040805162461bcd60e51b815260206004820152601f6024820152600080516020614d38833981519152604482015290519081900360640190fd5b6002601a556119cb611c16565b6119d733600083613e9d565b506001601a55565b60155481565b60125481565b6119f3612a78565b6001600160a01b038116611a33576040805162461bcd60e51b8152602060048201526002602482015261060f60f31b604482015290519081900360640190fd5b600b80546001600160a01b038381166001600160a01b0319831681179093556040805191909216808252602082019390935281517ff9b6a28700579d5c8fab50f0ac2dcaa52109b85c369c4f511fcc873330ab6cbb929181900390910190a15050565b6005805460408051602060026001851615610100026000190190941693909304601f81018490048402820184019092528181529291830182828015610dc45780601f10610d9957610100808354040283529160200191610dc4565b6001600160a01b03811660009081526008602052604081205481908190818080611b1b89896143d8565b935090506000816003811115611b2d57fe5b14611b4657600080600096509650965050505050611b82565b611b4e612850565b925090506000816003811115611b6057fe5b14611b7957600080600096509650965050505050611b82565b50919450925090505b9250925092565b61ffff821660009081526018602090815260408083206001600160a01b038516845290915290205492915050565b6002601a541415611bfd576040805162461bcd60e51b815260206004820152601f6024820152600080516020614d38833981519152604482015290519081900360640190fd5b6002601a55611c0a611c16565b6113b0338260006131eb565b6000611c20613c2e565b60195490915080821415611c35575050611fd0565b6000611c3f611240565b600f54600e5460125492935090916000611c5a858584613c32565b905065048c27395000811115611cae576040805162461bcd60e51b81526020600482015260146024820152733137b93937bbb2b9103930ba32903434b3b432b960611b604482015290519081900360640190fd5b600080611cbb8989613cf5565b90925090506000826003811115611cce57fe5b14611d18576040805162461bcd60e51b815260206004820152601560248201527463616c6320626c6f636b2064656c7461206572726f60581b604482015290519081900360640190fd5b611d20614bdd565b600080600080611d3e60405180602001604052808a81525087613d18565b90975094506000876003811115611d5157fe5b14611da3576040805162461bcd60e51b815260206004820152601a60248201527f63616c6320696e74657265737420666163746f72206572726f72000000000000604482015290519081900360640190fd5b611dad858c612e2f565b90975093506000876003811115611dc057fe5b14611e0c576040805162461bcd60e51b815260206004820152601760248201527631b0b6319034b73a32b932b9ba1030b1b19032b93937b960491b604482015290519081900360640190fd5b611e16848c613d80565b90975092506000876003811115611e2957fe5b14611e76576040805162461bcd60e51b815260206004820152601860248201527731b0b631903a37ba30b6103137b93937bbb99032b93937b960411b604482015290519081900360640190fd5b611e916040518060200160405280601154815250858b6143f3565b90975090506000876003811115611ea457fe5b14611ef6576040805162461bcd60e51b815260206004820152601960248201527f63616c6320746f74616c207265736572766573206572726f7200000000000000604482015290519081900360640190fd5b611f01858b8c6143f3565b90975091506000876003811115611f1457fe5b14611f66576040805162461bcd60e51b815260206004820152601860248201527f63616c6320626f72726f777320696e646578206572726f720000000000000000604482015290519081900360640190fd5b60198e9055600e829055600f8390556012819055604080518d8152602081018690528082018490526060810185905290517f4dec04e750ca11537cabcd8a9eab06494de08da3735bc8871cd41250e190bc049181900360800190a150505050505050505050505050505b565b60006002601a54141561201a576040805162461bcd60e51b815260206004820152601f6024820152600080516020614d38833981519152604482015290519081900360640190fd5b6002601a5561202b33808585612ace565b6001601a559392505050565b600e5481565b600061205861204a611240565b600f54601254601154614447565b905090565b60165481565b60006002601a5414156120ab576040805162461bcd60e51b815260206004820152601f6024820152600080516020614d38833981519152604482015290519081900360640190fd5b6002601a556120b8611c16565b6120c0610f45565b90506001601a5590565b6001600160a01b038b16612125576040805162461bcd60e51b815260206004820152601f60248201527f756e6465726c79696e675f20616464726573732063616e6e6f74206265203000604482015290519081900360640190fd5b6001600160a01b038916612180576040805162461bcd60e51b815260206004820152601f60248201527f636f6e74726f6c6c65725f20616464726573732063616e6e6f74206265203000604482015290519081900360640190fd5b6001546001600160a01b031633146121df576040805162461bcd60e51b815260206004820181905260248201527f4f6e6c7920616c6c6f7720746f2062652063616c6c65642062792061646d696e604482015290519081900360640190fd5b6019541580156121ef5750600e54155b61222e576040805162461bcd60e51b815260206004820152600b60248201526a696e69746564206f6e636560a81b604482015290519081900360640190fd5b600c8490558361226f5760405162461bcd60e51b8152600401808060200182810382526035815260200180614dbb6035913960400191505060405180910390fd5b600b80546001600160a01b0319166001600160a01b038b161790556013805460ff60a01b1916600160a01b8c15150217905560148890556015879055601686905560178590556122bd613c2e565b6019556a084595161401484a000000600e55670b1a2bc2ec500000600a5567016345785d8a000060115582516122fa906004906020860190614bf0565b50815161230e906005906020850190614bf0565b506006805460ff191660ff831617905560038054600160a01b60ff60a01b19909116179055601380546001600160a01b0319166001600160a01b038d81169190911791829055604080516318160ddd60e01b8152905192909116916318160ddd91600480820192602092909190829003018186803b15801561238f57600080fd5b505afa1580156123a3573d6000803e3d6000fd5b505050506040513d60208110156123b957600080fd5b50506040805160008082529151339291600080516020614d9b833981519152919081900360200190a35050505050505050505050565b6003546001600160a01b031681565b601354600160a01b900460ff1681565b60195481565b6002601a54141561245a576040805162461bcd60e51b815260206004820152601f6024820152600080516020614d38833981519152604482015290519081900360640190fd5b6002601a55601354600160a01b900460ff166124ac576040805162461bcd60e51b815260206004820152600c60248201526b1b9bdd08195d1a081c1bdbdb60a21b604482015290519081900360640190fd5b6124b4611c16565b6119d7333460006131eb565b6002601a541415612506576040805162461bcd60e51b815260206004820152601f6024820152600080516020614d38833981519152604482015290519081900360640190fd5b6002601a55612513611c16565b61149a8333848460006136ab565b6002601a541415612567576040805162461bcd60e51b815260206004820152601f6024820152600080516020614d38833981519152604482015290519081900360640190fd5b6002601a55612574611c16565b6119d733826000613e9d565b6001600160a01b03918216600090815260096020908152604080832093909416825291909152205490565b6125b3612a78565b601454156125c3576125c3611c16565b6509184e72a0008410612613576040805162461bcd60e51b815260206004820152601360248201527242617365207261746520746f6f206c6172676560681b604482015290519081900360640190fd5b60148490556509184e72a0008310612667576040805162461bcd60e51b81526020600482015260126024820152714d756c207261746520746f6f206c6172676560701b604482015290519081900360640190fd5b60158390556509184e72a00082106126bc576040805162461bcd60e51b81526020600482015260136024820152724a756d70207261746520746f6f206c6172676560681b604482015290519081900360640190fd5b6016829055670de0b6b3a7640000811115612710576040805162461bcd60e51b815260206004820152600f60248201526e4b6c696e6520746f6f206c6172676560881b604482015290519081900360640190fd5b601781905560408051858152602081018590528082018490526060810183905290517f1d6ada507d93788b3d2e6f68f2999ef7e05f2196ba5cde6db7d0a785745b3c249181900360800190a150505050565b60145481565b600b546001600160a01b031681565b6001546001600160a01b031681565b6000612058612793611240565b600f54601254613c32565b6000806127a9611240565b90506000806127bd83600f546012546144b4565b909250905060008260038111156127d057fe5b146127e15760009350505050610fa7565b6000806127fe604051806020016040528085815250600a54612e2f565b9092509050600082600381111561281157fe5b1461282457600095505050505050610fa7565b80600f54111561283c57600095505050505050610fa7565b600f54900394505050505090565b60175481565b60075460009081908061286b575050600c54600091506128fb565b6000612875611240565b90506000612881614bdd565b600061289284600f546012546144b4565b9350905060008160038111156128a457fe5b146128b9579550600094506128fb9350505050565b6128c383866144f2565b9250905060008160038111156128d557fe5b146128ea579550600094506128fb9350505050565b50516000955093506128fb92505050565b9091565b600080600061290c613c2e565b60195490915060008183141561292d576000600e54945094505050506128fb565b600061293a612793611240565b90506000806129498686613cf5565b91509150612955614bdd565b61296d60405180602001604052808681525083613d18565b9093509050600083600381111561298057fe5b146129985782600098509850505050505050506128fb565b6129a781600e54600e546143f3565b9099509750505050505050509091565b61ffff831660009081526018602090815260408083206001600160a01b03861684529091528120805482918291829182916129fc576000809550955050505050612a70565b8054612a0890886145a3565b90945092506000846003811115612a1b57fe5b14612a30578360009550955050505050612a70565b612a3e8382600101546145e2565b90945091506000846003811115612a5157fe5b14612a66578360009550955050505050612a70565b5060009450925050505b935093915050565b6001546001600160a01b03163314611fd0576040805162461bcd60e51b815260206004820152601460248201527331b0b63632b91036bab9ba1031329030b236b4b760611b604482015290519081900360640190fd5b60006001600160a01b038316612b2b576040805162461bcd60e51b815260206004820152601760248201527f64737420616464726573732063616e6e6f742062652030000000000000000000604482015290519081900360640190fd5b826001600160a01b0316846001600160a01b03161415612b7e576040805162461bcd60e51b81526020600482015260096024820152681cdc98c80f48191cdd60ba1b604482015290519081900360640190fd5b600b546040805160016276d1bb60e11b031981526001600160a01b0387811660048301528681166024830152604482018690529151919092169163ff125c8a91606480830192600092919082900301818387803b158015612bde57600080fd5b505af1158015612bf2573d6000803e3d6000fd5b505050506000846001600160a01b0316866001600160a01b03161415612c1b5750600019612c43565b506001600160a01b038085166000908152600960209081526040808320938916835292905220545b600080600080612c538588613cf5565b90945092506000846003811115612c6657fe5b14612ca6576040805162461bcd60e51b815260206004820152600b60248201526a1b9bdd08185b1b1bddd95960aa1b604482015290519081900360640190fd5b6001600160a01b038916600090815260086020526040902054612cc99088613cf5565b90945091506000846003811115612cdc57fe5b14612d1b576040805162461bcd60e51b815260206004820152600a6024820152690dcdee840cadcdeeaced60b31b604482015290519081900360640190fd5b6001600160a01b038816600090815260086020526040902054612d3e9088613d80565b90945090506000846003811115612d5157fe5b14612d8e576040805162461bcd60e51b81526020600482015260086024820152670e8dede40daeac6d60c31b604482015290519081900360640190fd5b6001600160a01b03808a16600090815260086020526040808220859055918a168152208190556000198514612de6576001600160a01b03808a166000908152600960209081526040808320938e168352929052208390555b876001600160a01b0316896001600160a01b0316600080516020614d9b833981519152896040518082815260200191505060405180910390a35060019998505050505050505050565b600080600080612e3f8686613d18565b90925090506000826003811115612e5257fe5b14612e635750915060009050612e75565b6000612e6e8261460d565b9350935050505b9250929050565b612e84613c2e565b60195414612ece576040805162461bcd60e51b815260206004820152601260248201527106e6f742073616d652074696d657374616d760741b604482015290519081900360640190fd5b600b546040805163368f515360e21b81526001600160a01b0386811660048301528581166024830152604482018590529151919092169163da3d454c91606480830192600092919082900301818387803b158015612f2b57600080fd5b505af1158015612f3f573d6000803e3d6000fd5b5050505080612f4c611240565b1015612f8d576040805162461bcd60e51b815260206004820152600b60248201526a636173683c626f72726f7760a81b604482015290519081900360640190fd5b612f95614c7c565b612f9f85856143d8565b6020830181905282826003811115612fb357fe5b6003811115612fbe57fe5b9052506000905081516003811115612fd257fe5b1461301d576040805162461bcd60e51b815260206004820152601660248201527531b0b6319030b1b1903137b93937bbb99032b93937b960511b604482015290519081900360640190fd5b61302b816020015183613d80565b604083018190528282600381111561303f57fe5b600381111561304a57fe5b905250600090508151600381111561305e57fe5b146130a9576040805162461bcd60e51b815260206004820152601660248201527531b0b6319030b1b1903137b93937bbb99032b93937b960511b604482015290519081900360640190fd5b6130b5600f5483613d80565b60608301819052828260038111156130c957fe5b60038111156130d457fe5b90525060009050815160038111156130e857fe5b14613135576040805162461bcd60e51b815260206004820152601860248201527731b0b631903a37ba30b6103137b93937bbb99032b93937b960411b604482015290519081900360640190fd5b60408181015161ffff87166000908152601860209081528382206001600160a01b03891683529052918220908155600e546001909101556060820151600f556131819084908490613b2c565b60408082015160608084015183516001600160a01b03808a1682528816602082015280850187905291820192909252608081019190915290517f10a0132d3bf8c82a7fb93a86160f3074ca5c3e5706fa2bcdf0e2b5fd495af09b9181900360a00190a15050505050565b60006131f5613c2e565b6019541461323f576040805162461bcd60e51b815260206004820152601260248201527106e6f742073616d652074696d657374616d760741b604482015290519081900360640190fd5b613247614ca5565b61324f612850565b602083018190528282600381111561326357fe5b600381111561326e57fe5b905250600090508151600381111561328257fe5b146132ce576040805162461bcd60e51b815260206004820152601760248201527631b0b6319032bc31b430b733b2b930ba329032b93937b960491b604482015290519081900360640190fd5b82156133a35760006132de611240565b9050336001600160a01b031663d7efa12987876040518363ffffffff1660e01b815260040180836001600160a01b0316815260200182815260200192505050600060405180830381600087803b15801561333757600080fd5b505af115801561334b573d6000803e3d6000fd5b505050506000613359611240565b9050818111613398576040805162461bcd60e51b815260206004820152600660248201526506d696e7420360d41b604482015290519081900360640190fd5b0360a08201526133b5565b6133af85856001613da6565b60a08201525b6133d58160a001516040518060200160405280846020015181525061461c565b60408301819052828260038111156133e957fe5b60038111156133f457fe5b905250600090508151600381111561340857fe5b14613452576040805162461bcd60e51b815260206004820152601560248201527431b0b6319036b4b73a103a37b5b2b71032b93937b960591b604482015290519081900360640190fd5b600b5460408083015181516357739dc560e01b81526001600160a01b038981166004830152602482019290925291519216916357739dc59160448082019260009290919082900301818387803b1580156134ab57600080fd5b505af11580156134bf573d6000803e3d6000fd5b505050506134d36007548260400151613d80565b60608301819052828260038111156134e757fe5b60038111156134f257fe5b905250600090508151600381111561350657fe5b14613551576040805162461bcd60e51b815260206004820152601660248201527518d85b18c81cdd5c1c1b1e481b995dc819985a5b195960521b604482015290519081900360640190fd5b6001600160a01b03851660009081526008602052604090819020549082015161357a9190613d80565b608083018190528282600381111561358e57fe5b600381111561359957fe5b90525060009050815160038111156135ad57fe5b146135f7576040805162461bcd60e51b815260206004820152601560248201527418d85b18c81d1bdad95b9cc81b995dc8185a5b1959605a1b604482015290519081900360640190fd5b60608082015160075560808201516001600160a01b0387166000818152600860209081526040918290209390935560a0850151818601518251938452938301528181019290925290517f4c209b5fc8ad50758f13e2e1088ba56a560dff690a1c6fef26394f4c03821c4f929181900390910190a1604080820151815190815290516001600160a01b038716913091600080516020614d9b8339815191529181900360200190a360a0015190505b9392505050565b60006136b5613c2e565b601954146136ff576040805162461bcd60e51b815260206004820152601260248201527106e6f742073616d652074696d657374616d760741b604482015290519081900360640190fd5b600b546040805163012c89d360e31b81526001600160a01b0388811660048301528781166024830152604482018790528515156064830152915191909216916309644e9891608480830192600092919082900301818387803b15801561376457600080fd5b505af1158015613778573d6000803e3d6000fd5b50505050613784614cdc565b61ffff871660009081526018602090815260408083206001600160a01b03891684529091529081902060010154908201526137bf87866143d8565b60608301819052828260038111156137d357fe5b60038111156137de57fe5b90525060009050815160038111156137f257fe5b1461383c576040805162461bcd60e51b815260206004820152601560248201527431b0b6319030b1b1903137b93937bb9032b93937b960591b604482015290519081900360640190fd5b600019841415613855576060810151602082015261385d565b602081018490525b61386d8682602001516000613da6565b60c082015282801561388657508060c001518160600151115b1561389c5760c081015160608201510360e08201525b8060c001518160600151101561393657670e92596fd62900006138e282606001516138dc670de0b6b3a76400008560c0015161462c90919063ffffffff16565b90614685565b111561392a576040805162461bcd60e51b81526020600482015260126024820152717265706179206d6f7265207468616e20352560701b604482015290519081900360640190fd5b60006080820152613959565b82156139485760006080820152613959565b60c081015160608201510360808201525b600f548160c00151111561397357600060a08201526139a3565b8215613994576060810151600f5461398a91613acf565b60a08201526139a3565b60c0810151600f540360a08201525b8060800151601860008961ffff1661ffff1681526020019081526020016000206000876001600160a01b03166001600160a01b0316815260200190815260200160002060000181905550600e54601860008961ffff1661ffff1681526020019081526020016000206000876001600160a01b03166001600160a01b03168152602001908152602001600020600101819055508060a00151600f819055507f6fadbf7329d21f278e724fa0d4511001a158f2a97ee35c5bc4cf8b64417399ef86868360c001518460e0015185608001518660a0015160405180876001600160a01b03168152602001866001600160a01b03168152602001858152602001848152602001838152602001828152602001965050505050505060405180910390a160c001519695505050505050565b600082821115613b26576040805162461bcd60e51b815260206004820152601e60248201527f536166654d6174683a207375627472616374696f6e206f766572666c6f770000604482015290519081900360640190fd5b50900390565b601354600160a01b900460ff168015613b425750805b15613c105760135460408051632e1a7d4d60e01b81526004810185905290516001600160a01b0390921691632e1a7d4d9160248082019260009290919082900301818387803b158015613b9457600080fd5b505af1158015613ba8573d6000803e3d6000fd5b5050604051600092506001600160a01b038616915084908381818185875af1925050503d8060008114613bf7576040519150601f19603f3d011682016040523d82523d6000602084013e613bfc565b606091505b5050905080613c0a57600080fd5b50613c29565b601354613c27906001600160a01b031684846146ec565b505b505050565b4290565b600080613c40858585614914565b90506017548111613c8057613c78601454613c72670de0b6b3a76400006138dc6015548661462c90919063ffffffff16565b90613e43565b9150506136a4565b6000613cab601454613c72670de0b6b3a76400006138dc60155460175461462c90919063ffffffff16565b90506000613cc460175484613acf90919063ffffffff16565b9050613ceb82613c72670de0b6b3a76400006138dc6016548661462c90919063ffffffff16565b93505050506136a4565b600080838311613d0c575060009050818303612e75565b50600390506000612e75565b6000613d22614bdd565b600080613d338660000151866145a3565b90925090506000826003811115613d4657fe5b14613d6557506040805160208101909152600081529092509050612e75565b60408051602081019091529081526000969095509350505050565b600080838301848110613d9857600092509050612e75565b600260009250925050612e75565b601354600090600160a01b900460ff168015613dbf5750815b15613e2b575060135460408051630d0e30db60e41b8152905134926001600160a01b03169163d0e30db091849160048082019260009290919082900301818588803b158015613e0d57600080fd5b505af1158015613e21573d6000803e3d6000fd5b50505050506136a4565b601354611238906001600160a01b031685308661494c565b6000828201838110156136a4576040805162461bcd60e51b815260206004820152601b60248201527f536166654d6174683a206164646974696f6e206f766572666c6f770000000000604482015290519081900360640190fd5b613ea5613c2e565b60195414613eef576040805162461bcd60e51b815260206004820152601260248201527106e6f742073616d652074696d657374616d760741b604482015290519081900360640190fd5b811580613efa575080155b613f39576040805162461bcd60e51b815260206004820152600b60248201526a6f6e65206265207a65726f60a81b604482015290519081900360640190fd5b613f41614ca5565b613f49612850565b6020830181905282826003811115613f5d57fe5b6003811115613f6857fe5b9052506000905081516003811115613f7c57fe5b14613fc8576040805162461bcd60e51b815260206004820152601760248201527631b0b6319032bc31b430b733b2b930ba329032b93937b960491b604482015290519081900360640190fd5b821561407a57604080820184905280516020808201909252908201518152613ff09084612e2f565b606083018190528282600381111561400457fe5b600381111561400f57fe5b905250600090508151600381111561402357fe5b14614075576040805162461bcd60e51b815260206004820152601860248201527f63616c632072656465656d20616d6f756e74206572726f720000000000000000604482015290519081900360640190fd5b614123565b614096826040518060200160405280846020015181525061461c565b60408301819052828260038111156140aa57fe5b60038111156140b557fe5b90525060009050815160038111156140c957fe5b1461411b576040805162461bcd60e51b815260206004820152601860248201527f63616c632072656465656d20746f6b656e73206572726f720000000000000000604482015290519081900360640190fd5b606081018290525b600b54604080830151815163335dec6b60e21b81526001600160a01b0388811660048301526024820192909252915192169163cd77b1ac9160448082019260009290919082900301818387803b15801561417c57600080fd5b505af1158015614190573d6000803e3d6000fd5b505050506141a46007548260400151613cf5565b60808301819052828260038111156141b857fe5b60038111156141c357fe5b90525060009050815160038111156141d757fe5b14614221576040805162461bcd60e51b815260206004820152601560248201527431b0b6319039bab838363c903732bb9032b93937b960591b604482015290519081900360640190fd5b6001600160a01b03841660009081526008602052604090819020549082015161424a9190613cf5565b60a083018190528282600381111561425e57fe5b600381111561426957fe5b905250600090508151600381111561427d57fe5b146142c6576040805162461bcd60e51b815260206004820152601460248201527331b0b631903a37b5b2b7103732bb9032b93937b960611b604482015290519081900360640190fd5b80606001516142d3611240565b1015614316576040805162461bcd60e51b815260206004820152600d60248201526c63617368203c2072656465656d60981b604482015290519081900360640190fd5b608081015160075560a08101516001600160a01b038516600090815260086020526040902055606081015161434e9085906001613b2c565b6040808201518151908152905130916001600160a01b03871691600080516020614d9b8339815191529181900360200190a360608082015160408084015181516001600160a01b0389168152602081019390935282820152517fe5b754fb1abb7f01b499791d0b820ae3b6af3424ac1c59768edb53f4ec31a929929181900390910190a150505050565b6000806143e88484600e546129b7565b915091509250929050565b6000806000806144038787613d18565b9092509050600082600381111561441657fe5b146144275750915060009050612a70565b6144396144338261460d565b86613d80565b935093505050935093915050565b60008061445c670de0b6b3a764000084613acf565b9050600061446b878787613c32565b90506000614485670de0b6b3a76400006138dc848661462c565b90506144a8670de0b6b3a76400006138dc836144a28c8c8c614914565b9061462c565b98975050505050505050565b6000806000806144c48787613d80565b909250905060008260038111156144d757fe5b146144e85750915060009050612a70565b6144398186613cf5565b60006144fc614bdd565b60008061451186670de0b6b3a76400006145a3565b9092509050600082600381111561452457fe5b1461454357506040805160208101909152600081529092509050612e75565b60008061455083886145e2565b9092509050600082600381111561456357fe5b146145865781604051806020016040528060008152509550955050505050612e75565b604080516020810190915290815260009890975095505050505050565b600080836145b657506000905080612e75565b838302838582816145c357fe5b04146145d757600260009250925050612e75565b600092509050612e75565b600080826145f65750600190506000612e75565b600083858161460157fe5b04915091509250929050565b51670de0b6b3a7640000900490565b600080600080612e3f8686614b7e565b60008261463b57506000610e33565b8282028284828161464857fe5b04146136a45760405162461bcd60e51b8152600401808060200182810382526021815260200180614d7a6021913960400191505060405180910390fd5b60008082116146db576040805162461bcd60e51b815260206004820152601a60248201527f536166654d6174683a206469766973696f6e206279207a65726f000000000000604482015290519081900360640190fd5b8183816146e457fe5b049392505050565b600081156136a4576000846001600160a01b03166370a08231856040518263ffffffff1660e01b815260040180826001600160a01b0316815260200191505060206040518083038186803b15801561474357600080fd5b505afa158015614757573d6000803e3d6000fd5b505050506040513d602081101561476d57600080fd5b5051604080516001600160a01b038781166024830152604480830188905283518084039091018152606490920183526020820180516001600160e01b031663a9059cbb60e01b1781529251825194955090891693919290918291908083835b602083106147eb5780518252601f1990920191602091820191016147cc565b6001836020036101000a0380198251168184511680821785525050505050509050019150506000604051808303816000865af19150503d806000811461484d576040519150601f19603f3d011682016040523d82523d6000602084013e614852565b606091505b5050506000856001600160a01b03166370a08231866040518263ffffffff1660e01b815260040180826001600160a01b0316815260200191505060206040518083038186803b1580156148a457600080fd5b505afa1580156148b8573d6000803e3d6000fd5b505050506040513d60208110156148ce57600080fd5b5051905081811161490b576040805162461bcd60e51b81526020600482015260026024820152612a2360f11b604482015290519081900360640190fd5b03949350505050565b600082614923575060006136a4565b61123861493a836149348787613e43565b90613acf565b6138dc85670de0b6b3a764000061462c565b60008115611238576000856001600160a01b03166370a08231856040518263ffffffff1660e01b815260040180826001600160a01b0316815260200191505060206040518083038186803b1580156149a357600080fd5b505afa1580156149b7573d6000803e3d6000fd5b505050506040513d60208110156149cd57600080fd5b5051604080516001600160a01b0388811660248301528781166044830152606480830188905283518084039091018152608490920183526020820180516001600160e01b03166323b872dd60e01b17815292518251949550908a1693919290918291908083835b60208310614a535780518252601f199092019160209182019101614a34565b6001836020036101000a0380198251168184511680821785525050505050509050019150506000604051808303816000865af19150503d8060008114614ab5576040519150601f19603f3d011682016040523d82523d6000602084013e614aba565b606091505b5050506000866001600160a01b03166370a08231866040518263ffffffff1660e01b815260040180826001600160a01b0316815260200191505060206040518083038186803b158015614b0c57600080fd5b505afa158015614b20573d6000803e3d6000fd5b505050506040513d6020811015614b3657600080fd5b50519050818111614b74576040805162461bcd60e51b81526020600482015260036024820152622a232360e91b604482015290519081900360640190fd5b0395945050505050565b6000614b88614bdd565b600080614b9d670de0b6b3a7640000876145a3565b90925090506000826003811115614bb057fe5b14614bcf57506040805160208101909152600081529092509050612e75565b612e6e8186600001516144f2565b6040518060200160405280600081525090565b828054600181600116156101000203166002900490600052602060002090601f016020900481019282614c265760008555614c6c565b82601f10614c3f57805160ff1916838001178555614c6c565b82800160010185558215614c6c579182015b82811115614c6c578251825591602001919060010190614c51565b50614c78929150614d22565b5090565b604080516080810190915280600081526020016000815260200160008152602001600081525090565b6040805160c08101909152806000815260200160008152602001600081526020016000815260200160008152602001600081525090565b6040805161010081019091528060008152602001600081526020016000815260200160008152602001600081526020016000815260200160008152602001600081525090565b5b80821115614c785760008155600101614d2356fe5265656e7472616e637947756172643a207265656e7472616e742063616c6c006f6e6c792070656e64696e6741646d696e2063616e206163636570742061646d696e536166654d6174683a206d756c7469706c69636174696f6e206f766572666c6f77ddf252ad1be2c89b69c2b068fc378daa952ba7f163c4a11628f55a4df523b3ef496e697469616c2045786368616e67652052617465204d616e74697373612073686f756c642062652067726561746572207a65726fa2646970667358221220274ba9ca2dca855ac5f729441ec1ecda9af6f3f0b9690a649f2dabd3a40cfbc664736f6c63430007060033",
  "linkReferences": {},
  "deployedLinkReferences": {}
}