{
  "_format": "hh-sol-artifact-1",
  "contractName": "BatchQueryHelper",
  "sourceName": "contracts/udex/periphery/BatchQueryHelper.sol",
  "abi": [
    {
      "inputs": [],
      "stateMutability": "nonpayable",
      "type": "constructor"
    },
    {
      "inputs": [
        {
          "internalType": "contract DexAggregatorInterface",
          "name": "dexAgg",
          "type": "address"
        },
        {
          "internalType": "address[]",
          "name": "token0s",
          "type": "address[]"
        },
        {
          "internalType": "address[]",
          "name": "token1s",
          "type": "address[]"
        },
        {
          "internalType": "bytes[]",
          "name": "dexDatas",
          "type": "bytes[]"
        }
      ],
      "name": "getPrices",
      "outputs": [
        {
          "components": [
            {
              "internalType": "uint256",
              "name": "price",
              "type": "uint256"
            },
            {
              "internalType": "uint8",
              "name": "decimal",
              "type": "uint8"
            }
          ],
          "internalType": "struct BatchQueryHelper.PriceVars[]",
          "name": "results",
          "type": "tuple[]"
        }
      ],
      "stateMutability": "view",
      "type": "function"
    }
  ],
  "bytecode": "0x608060405234801561001057600080fd5b50610467806100206000396000f3fe608060405234801561001057600080fd5b506004361061002b5760003560e01c806381ff23d114610030575b600080fd5b61004361003e36600461025c565b610059565b6040516100509190610382565b60405180910390f35b60608567ffffffffffffffff8111801561007257600080fd5b506040519080825280602002602001820160405280156100ac57816020015b6100996101d9565b8152602001906001900390816100915790505b50905060005b868110156101cd576100c26101d9565b896001600160a01b031663355efdd98a8a858181106100dd57fe5b90506020020160208101906100f29190610239565b8989868181106100fe57fe5b90506020020160208101906101139190610239565b88888781811061011f57fe5b905060200281019061013191906103d4565b6040518563ffffffff1660e01b81526004016101509493929190610339565b604080518083038186803b15801561016757600080fd5b505afa15801561017b573d6000803e3d6000fd5b505050506040513d601f19601f8201168201806040525081019061019f9190610305565b60ff1660208301528152825181908490849081106101b957fe5b6020908102919091010152506001016100b2565b50979650505050505050565b604080518082019091526000808252602082015290565b60008083601f840112610201578182fd5b50813567ffffffffffffffff811115610218578182fd5b602083019150836020808302850101111561023257600080fd5b9250929050565b60006020828403121561024a578081fd5b813561025581610419565b9392505050565b60008060008060008060006080888a031215610276578283fd5b873561028181610419565b9650602088013567ffffffffffffffff8082111561029d578485fd5b6102a98b838c016101f0565b909850965060408a01359150808211156102c1578485fd5b6102cd8b838c016101f0565b909650945060608a01359150808211156102e5578384fd5b506102f28a828b016101f0565b989b979a50959850939692959293505050565b60008060408385031215610317578182fd5b82519150602083015160ff8116811461032e578182fd5b809150509250929050565b6001600160a01b038581168252841660208201526060604082018190528101829052600082846080840137818301608090810191909152601f909201601f191601019392505050565b602080825282518282018190526000919060409081850190868401855b828110156103c75781518051855286015160ff1686850152928401929085019060010161039f565b5091979650505050505050565b6000808335601e198436030181126103ea578283fd5b83018035915067ffffffffffffffff821115610404578283fd5b60200191503681900382131561023257600080fd5b6001600160a01b038116811461042e57600080fd5b5056fea2646970667358221220ac8acada7bdffb32b5505218d68d41e518e0694e5ca82f0afaba2e3a784d5c6564736f6c63430007060033",
  "linkReferences": {},
  "deployedLinkReferences": {}
}