{
  "_format": "hh-sol-artifact-1",
  "contractName": "KccDexAggregatorV1",
  "sourceName": "contracts/udex/dex/kcc/KccDexAggregatorV1.sol",
  "abi": [
    {
      "anonymous": false,
      "inputs": [
        {
          "indexed": false,
          "internalType": "address",
          "name": "oldAdmin",
          "type": "address"
        },
        {
          "indexed": false,
          "internalType": "address",
          "name": "newAdmin",
          "type": "address"
        }
      ],
      "name": "NewAdmin",
      "type": "event"
    },
    {
      "anonymous": false,
      "inputs": [
        {
          "indexed": false,
          "internalType": "address",
          "name": "oldPendingAdmin",
          "type": "address"
        },
        {
          "indexed": false,
          "internalType": "address",
          "name": "newPendingAdmin",
          "type": "address"
        }
      ],
      "name": "NewPendingAdmin",
      "type": "event"
    },
    {
      "inputs": [],
      "name": "acceptAdmin",
      "outputs": [],
      "stateMutability": "nonpayable",
      "type": "function"
    },
    {
      "inputs": [],
      "name": "admin",
      "outputs": [
        {
          "internalType": "address payable",
          "name": "",
          "type": "address"
        }
      ],
      "stateMutability": "view",
      "type": "function"
    },
    {
      "inputs": [
        {
          "internalType": "address",
          "name": "buyToken",
          "type": "address"
        },
        {
          "internalType": "address",
          "name": "sellToken",
          "type": "address"
        },
        {
          "internalType": "uint24",
          "name": "buyTax",
          "type": "uint24"
        },
        {
          "internalType": "uint24",
          "name": "sellTax",
          "type": "uint24"
        },
        {
          "internalType": "uint256",
          "name": "buyAmount",
          "type": "uint256"
        },
        {
          "internalType": "uint256",
          "name": "maxSellAmount",
          "type": "uint256"
        },
        {
          "internalType": "bytes",
          "name": "data",
          "type": "bytes"
        }
      ],
      "name": "buy",
      "outputs": [
        {
          "internalType": "uint256",
          "name": "sellAmount",
          "type": "uint256"
        }
      ],
      "stateMutability": "nonpayable",
      "type": "function"
    },
    {
      "inputs": [
        {
          "internalType": "address",
          "name": "buyToken",
          "type": "address"
        },
        {
          "internalType": "address",
          "name": "sellToken",
          "type": "address"
        },
        {
          "internalType": "uint24",
          "name": "buyTax",
          "type": "uint24"
        },
        {
          "internalType": "uint24",
          "name": "sellTax",
          "type": "uint24"
        },
        {
          "internalType": "uint256",
          "name": "sellAmount",
          "type": "uint256"
        },
        {
          "internalType": "bytes",
          "name": "data",
          "type": "bytes"
        }
      ],
      "name": "calBuyAmount",
      "outputs": [
        {
          "internalType": "uint256",
          "name": "buyAmount",
          "type": "uint256"
        }
      ],
      "stateMutability": "view",
      "type": "function"
    },
    {
      "inputs": [
        {
          "internalType": "address",
          "name": "buyToken",
          "type": "address"
        },
        {
          "internalType": "address",
          "name": "sellToken",
          "type": "address"
        },
        {
          "internalType": "uint24",
          "name": "buyTax",
          "type": "uint24"
        },
        {
          "internalType": "uint24",
          "name": "sellTax",
          "type": "uint24"
        },
        {
          "internalType": "uint256",
          "name": "buyAmount",
          "type": "uint256"
        },
        {
          "internalType": "bytes",
          "name": "data",
          "type": "bytes"
        }
      ],
      "name": "calSellAmount",
      "outputs": [
        {
          "internalType": "uint256",
          "name": "sellAmount",
          "type": "uint256"
        }
      ],
      "stateMutability": "view",
      "type": "function"
    },
    {
      "inputs": [],
      "name": "developer",
      "outputs": [
        {
          "internalType": "address payable",
          "name": "",
          "type": "address"
        }
      ],
      "stateMutability": "view",
      "type": "function"
    },
    {
      "inputs": [
        {
          "internalType": "uint8",
          "name": "",
          "type": "uint8"
        }
      ],
      "name": "dexInfo",
      "outputs": [
        {
          "internalType": "contract IUniswapV2Factory",
          "name": "factory",
          "type": "address"
        },
        {
          "internalType": "uint16",
          "name": "fees",
          "type": "uint16"
        }
      ],
      "stateMutability": "view",
      "type": "function"
    },
    {
      "inputs": [
        {
          "internalType": "address",
          "name": "desToken",
          "type": "address"
        },
        {
          "internalType": "address",
          "name": "quoteToken",
          "type": "address"
        },
        {
          "internalType": "uint32",
          "name": "secondsAgo",
          "type": "uint32"
        },
        {
          "internalType": "bytes",
          "name": "data",
          "type": "bytes"
        }
      ],
      "name": "getAvgPrice",
      "outputs": [
        {
          "internalType": "uint256",
          "name": "price",
          "type": "uint256"
        },
        {
          "internalType": "uint8",
          "name": "decimals",
          "type": "uint8"
        },
        {
          "internalType": "uint256",
          "name": "timestamp",
          "type": "uint256"
        }
      ],
      "stateMutability": "view",
      "type": "function"
    },
    {
      "inputs": [
        {
          "internalType": "address",
          "name": "token0",
          "type": "address"
        },
        {
          "internalType": "address",
          "name": "token1",
          "type": "address"
        },
        {
          "internalType": "bytes",
          "name": "dexData",
          "type": "bytes"
        }
      ],
      "name": "getPairLiquidity",
      "outputs": [
        {
          "internalType": "uint256",
          "name": "token0Liq",
          "type": "uint256"
        },
        {
          "internalType": "uint256",
          "name": "token1Liq",
          "type": "uint256"
        }
      ],
      "stateMutability": "view",
      "type": "function"
    },
    {
      "inputs": [
        {
          "internalType": "address",
          "name": "desToken",
          "type": "address"
        },
        {
          "internalType": "address",
          "name": "quoteToken",
          "type": "address"
        },
        {
          "internalType": "bytes",
          "name": "data",
          "type": "bytes"
        }
      ],
      "name": "getPrice",
      "outputs": [
        {
          "internalType": "uint256",
          "name": "price",
          "type": "uint256"
        },
        {
          "internalType": "uint8",
          "name": "decimals",
          "type": "uint8"
        }
      ],
      "stateMutability": "view",
      "type": "function"
    },
    {
      "inputs": [
        {
          "internalType": "address",
          "name": "desToken",
          "type": "address"
        },
        {
          "internalType": "address",
          "name": "quoteToken",
          "type": "address"
        },
        {
          "internalType": "uint32",
          "name": "secondsAgo",
          "type": "uint32"
        },
        {
          "internalType": "bytes",
          "name": "dexData",
          "type": "bytes"
        }
      ],
      "name": "getPriceCAvgPriceHAvgPrice",
      "outputs": [
        {
          "internalType": "uint256",
          "name": "price",
          "type": "uint256"
        },
        {
          "internalType": "uint256",
          "name": "cAvgPrice",
          "type": "uint256"
        },
        {
          "internalType": "uint256",
          "name": "hAvgPrice",
          "type": "uint256"
        },
        {
          "internalType": "uint8",
          "name": "decimals",
          "type": "uint8"
        },
        {
          "internalType": "uint256",
          "name": "timestamp",
          "type": "uint256"
        }
      ],
      "stateMutability": "view",
      "type": "function"
    },
    {
      "inputs": [
        {
          "internalType": "address",
          "name": "token0",
          "type": "address"
        },
        {
          "internalType": "address",
          "name": "token1",
          "type": "address"
        },
        {
          "internalType": "bytes",
          "name": "dexData",
          "type": "bytes"
        }
      ],
      "name": "getToken0Liquidity",
      "outputs": [
        {
          "internalType": "uint256",
          "name": "",
          "type": "uint256"
        }
      ],
      "stateMutability": "view",
      "type": "function"
    },
    {
      "inputs": [],
      "name": "implementation",
      "outputs": [
        {
          "internalType": "address",
          "name": "",
          "type": "address"
        }
      ],
      "stateMutability": "view",
      "type": "function"
    },
    {
      "inputs": [
        {
          "internalType": "contract IUniswapV2Factory",
          "name": "_mojitoFactory",
          "type": "address"
        },
        {
          "internalType": "address",
          "name": "_unusedFactory",
          "type": "address"
        }
      ],
      "name": "initialize",
      "outputs": [],
      "stateMutability": "nonpayable",
      "type": "function"
    },
    {
      "inputs": [],
      "name": "mojitoFactory",
      "outputs": [
        {
          "internalType": "contract IUniswapV2Factory",
          "name": "",
          "type": "address"
        }
      ],
      "stateMutability": "view",
      "type": "function"
    },
    {
      "inputs": [],
      "name": "opBorrowing",
      "outputs": [
        {
          "internalType": "address",
          "name": "",
          "type": "address"
        }
      ],
      "stateMutability": "view",
      "type": "function"
    },
    {
      "inputs": [],
      "name": "openLev",
      "outputs": [
        {
          "internalType": "address",
          "name": "",
          "type": "address"
        }
      ],
      "stateMutability": "view",
      "type": "function"
    },
    {
      "inputs": [],
      "name": "pendingAdmin",
      "outputs": [
        {
          "internalType": "address payable",
          "name": "",
          "type": "address"
        }
      ],
      "stateMutability": "view",
      "type": "function"
    },
    {
      "inputs": [
        {
          "internalType": "address",
          "name": "buyToken",
          "type": "address"
        },
        {
          "internalType": "address",
          "name": "sellToken",
          "type": "address"
        },
        {
          "internalType": "uint256",
          "name": "sellAmount",
          "type": "uint256"
        },
        {
          "internalType": "uint256",
          "name": "minBuyAmount",
          "type": "uint256"
        },
        {
          "internalType": "bytes",
          "name": "data",
          "type": "bytes"
        }
      ],
      "name": "sell",
      "outputs": [
        {
          "internalType": "uint256",
          "name": "buyAmount",
          "type": "uint256"
        }
      ],
      "stateMutability": "nonpayable",
      "type": "function"
    },
    {
      "inputs": [
        {
          "internalType": "uint256",
          "name": "sellAmount",
          "type": "uint256"
        },
        {
          "internalType": "uint256",
          "name": "minBuyAmount",
          "type": "uint256"
        },
        {
          "internalType": "bytes",
          "name": "data",
          "type": "bytes"
        }
      ],
      "name": "sellMul",
      "outputs": [
        {
          "internalType": "uint256",
          "name": "buyAmount",
          "type": "uint256"
        }
      ],
      "stateMutability": "nonpayable",
      "type": "function"
    },
    {
      "inputs": [
        {
          "internalType": "uint8[]",
          "name": "dexName",
          "type": "uint8[]"
        },
        {
          "internalType": "contract IUniswapV2Factory[]",
          "name": "factoryAddr",
          "type": "address[]"
        },
        {
          "internalType": "uint16[]",
          "name": "fees",
          "type": "uint16[]"
        }
      ],
      "name": "setDexInfo",
      "outputs": [],
      "stateMutability": "nonpayable",
      "type": "function"
    },
    {
      "inputs": [
        {
          "internalType": "address",
          "name": "_opBorrowing",
          "type": "address"
        }
      ],
      "name": "setOpBorrowing",
      "outputs": [],
      "stateMutability": "nonpayable",
      "type": "function"
    },
    {
      "inputs": [
        {
          "internalType": "address",
          "name": "_openLev",
          "type": "address"
        }
      ],
      "name": "setOpenLev",
      "outputs": [],
      "stateMutability": "nonpayable",
      "type": "function"
    },
    {
      "inputs": [
        {
          "internalType": "address payable",
          "name": "newPendingAdmin",
          "type": "address"
        }
      ],
      "name": "setPendingAdmin",
      "outputs": [],
      "stateMutability": "nonpayable",
      "type": "function"
    },
    {
      "inputs": [
        {
          "internalType": "contract IUniswapV2Pair",
          "name": "",
          "type": "address"
        }
      ],
      "name": "uniV2PriceOracle",
      "outputs": [
        {
          "internalType": "uint32",
          "name": "blockTimestampLast",
          "type": "uint32"
        },
        {
          "internalType": "uint256",
          "name": "price0",
          "type": "uint256"
        },
        {
          "internalType": "uint256",
          "name": "price1",
          "type": "uint256"
        },
        {
          "internalType": "uint256",
          "name": "price0CumulativeLast",
          "type": "uint256"
        },
        {
          "internalType": "uint256",
          "name": "price1CumulativeLast",
          "type": "uint256"
        }
      ],
      "stateMutability": "view",
      "type": "function"
    },
    {
      "inputs": [
        {
          "internalType": "address",
          "name": "desToken",
          "type": "address"
        },
        {
          "internalType": "address",
          "name": "quoteToken",
          "type": "address"
        },
        {
          "internalType": "uint32",
          "name": "timeWindow",
          "type": "uint32"
        },
        {
          "internalType": "bytes",
          "name": "data",
          "type": "bytes"
        }
      ],
      "name": "updatePriceOracle",
      "outputs": [
        {
          "internalType": "bool",
          "name": "",
          "type": "bool"
        }
      ],
      "stateMutability": "nonpayable",
      "type": "function"
    },
    {
      "inputs": [
        {
          "internalType": "address",
          "name": "desToken",
          "type": "address"
        },
        {
          "internalType": "address",
          "name": "quoteToken",
          "type": "address"
        },
        {
          "internalType": "bytes",
          "name": "data",
          "type": "bytes"
        }
      ],
      "name": "updateV3Observation",
      "outputs": [],
      "stateMutability": "pure",
      "type": "function"
    }
  ],
  "bytecode": "0x608060405234801561001057600080fd5b50600380546001600160a01b031916331790556138a9806100326000396000f3fe608060405234801561001057600080fd5b50600436106101a95760003560e01c80634dd18bf5116100f9578063a96de5bd11610097578063cf24406b11610071578063cf24406b146103a3578063d522a11e146103b6578063f18ef359146103c9578063f851a440146103dc576101a9565b8063a96de5bd14610367578063ca4b208b14610388578063cbf09bf814610390576101a9565b80635c60da1b116100d35780635c60da1b1461030457806388ef16ab1461030c57806396e011971461031f578063a59a36ae14610343576101a9565b80634dd18bf5146102cb578063576fd3f0146102de5780635962f613146102f1576101a9565b806328facb2311610166578063355efdd911610140578063355efdd91461026457806341da89e414610285578063485cc955146102a55780634a6682bb146102b8576101a9565b806328facb23146102335780632902d27b1461023b57806329a726131461025c576101a9565b806304e79e29146101ae578063080296e4146101c35780630e18b681146101ee57806315426c97146101f65780631688995514610216578063267822471461022b575b600080fd5b6101c16101bc366004612e97565b6103e4565b005b6101d66101d13660046130c2565b61043d565b6040516101e593929190613780565b60405180910390f35b6101c1610518565b6102096102043660046130c2565b610618565b6040516101e59190613402565b61021e61076b565b6040516101e591906133d4565b61021e61077a565b61021e610789565b61024e610249366004612ecf565b610798565b6040516101e592919061373b565b61021e6108dc565b610277610272366004612ecf565b6108eb565b6040516101e592919061376f565b61029861029336600461304e565b61092d565b6040516101e59190613732565b6101c16102b336600461320c565b610992565b6102986102c6366004612f2f565b610a4b565b6101c16102d9366004612e97565b610aba565b6101c16102ec366004612e97565b610b25565b6102986102ff366004612f2f565b610b75565b61021e610bce565b61029861031a366004612ecf565b610bdd565b61033261032d366004612e97565b610ca2565b6040516101e5959493929190613799565b6103566103513660046130c2565b610cd9565b6040516101e5959493929190613749565b61037a6103753660046132f6565b610d9c565b6040516101e592919061340d565b61021e610dc4565b6101c161039e366004613135565b610dd3565b6102986103b1366004612fb9565b610ed8565b6102986103c43660046132a2565b610f3e565b6101c16103d7366004612ecf565b610f9d565b61021e610fb5565b6103ec610fc4565b6001600160a01b03811661041b5760405162461bcd60e51b815260040161041290613565565b60405180910390fd5b600680546001600160a01b0319166001600160a01b0392909216919091179055565b600080600061044b8461101c565b6104675760405162461bcd60e51b8152600401610412906135e8565b6018915060006104a188886007600061047f8a611036565b60ff1681526020810191909152604001600020546001600160a01b0316611065565b6001600160a01b038116600090815260046020818152604092839020835160a081018552815463ffffffff1681526001820154928101929092526002810154938201939093526003830154606082015291015460808201529091506105078989836111fb565b909a94995097509295505050505050565b6002546001600160a01b031633146105615760405162461bcd60e51b81526004018080602001828103825260228152602001806138316022913960400191505060405180910390fd5b60018054600280546001600160a01b038082166001600160a01b031980861682179687905590921690925560408051938316808552949092166020840152815190927ff9ffabca9c8276e99321725bcb43fb076a6c66a54b7f21c4e8146d8519b417dc92908290030190a1600254604080516001600160a01b038085168252909216602083015280517fca4f2f25d0898edd99413412fb94012f9e54ec8142f9b093e7720646a95b16a99281900390910190a15050565b6006546000906001600160a01b031633148061063e57506008546001600160a01b031633145b61065a5760405162461bcd60e51b8152600401610412906135b1565b6106638261101c565b61067f5760405162461bcd60e51b8152600401610412906135e8565b600061069386866007600061047f88611036565b6001600160a01b0381166000908152600460208181526040808420815160a081018352815463ffffffff16815260018201549381019390935260028101549183019190915260038101546060830152909101546080820152919250806106fc8484896018611232565b91509150801561075d576001600160a01b0384166000908152600460208181526040928390208551815463ffffffff191663ffffffff9091161781559085015160018201559184015160028301556060840151600383015560808401519101555b93505050505b949350505050565b6008546001600160a01b031681565b6002546001600160a01b031681565b6005546001600160a01b031681565b6000806107a48361101c565b6107c05760405162461bcd60e51b8152600401610412906135e8565b60006107d486866007600061047f89611036565b6040516370a0823160e01b81529091506001600160a01b038716906370a08231906108039084906004016133d4565b60206040518083038186803b15801561081b57600080fd5b505afa15801561082f573d6000803e3d6000fd5b505050506040513d601f19601f82011682018060405250810190610853919061328a565b6040516370a0823160e01b81526001600160a01b038716906370a082319061087f9085906004016133d4565b60206040518083038186803b15801561089757600080fd5b505afa1580156108ab573d6000803e3d6000fd5b505050506040513d601f19601f820116820180604052508101906108cf919061328a565b9250925050935093915050565b6006546001600160a01b031681565b600060186109236007836108fe86611036565b60ff1681526020810191909152604001600020546001600160a01b0316868684611418565b9150935093915050565b60003361098760078361093f86611036565b60ff16815260208082019290925260409081016000208151808301909252546001600160a01b0381168252600160a01b900461ffff169181019190915288888888868061156f565b979650505050505050565b6001546001600160a01b031633146109bc5760405162461bcd60e51b81526004016104129061370f565b50600580546001600160a01b03199081166001600160a01b0393841690811790925560408051808201909152918252601e6020808401918252600d6000526007905291517fc6af84bcd7a912c26772dce2b27a335c9acc50e9113bac42fd0b48deecc0f30c805493519390921693169290921761ffff60a01b1916600160a01b61ffff90921691909102179055565b6000610a57838561193f565b9250610aae60076000610a6985611036565b60ff16815260208082019290925260409081016000208151808301909252546001600160a01b0381168252600160a01b900461ffff169181019190915288888661196f565b9050610987818661193f565b610ac2610fc4565b600280546001600160a01b038381166001600160a01b0319831681179093556040805191909216808252602082019390935281517fca4f2f25d0898edd99413412fb94012f9e54ec8142f9b093e7720646a95b16a9929181900390910190a15050565b610b2d610fc4565b6001600160a01b038116610b535760405162461bcd60e51b815260040161041290613565565b600880546001600160a01b0319166001600160a01b0392909216919091179055565b600061098760076000610b8785611036565b60ff16815260208082019290925260409081016000208151808301909252546001600160a01b0381168252600160a01b900461ffff16918101919091528888868989611a57565b6000546001600160a01b031681565b6000610be88261101c565b610c045760405162461bcd60e51b8152600401610412906135e8565b6000610c1885856007600061047f88611036565b6040516370a0823160e01b81529091506001600160a01b038616906370a0823190610c479084906004016133d4565b60206040518083038186803b158015610c5f57600080fd5b505afa158015610c73573d6000803e3d6000fd5b505050506040513d601f19601f82011682018060405250810190610c97919061328a565b9150505b9392505050565b60046020819052600091825260409091208054600182015460028301546003840154939094015463ffffffff909216939092909185565b6000806000806000610cea8661101c565b610d065760405162461bcd60e51b8152600401610412906135e8565b601891506000610d1e8a8a6007600061047f8c611036565b6001600160a01b038116600090815260046020818152604092839020835160a081018552815463ffffffff168152600182015492810192909252600281015493820193909352600383015460608201529101546080820152909150610d8682828d8d88611b65565b929e919d509b5094995097509295505050505050565b6007602052600090815260409020546001600160a01b03811690600160a01b900461ffff1682565b6003546001600160a01b031681565b610ddb610fc4565b81518351148015610ded575080518351145b610e095760405162461bcd60e51b815260040161041290613458565b60005b8351811015610ed2576040518060400160405280848381518110610e2c57fe5b60200260200101516001600160a01b03168152602001838381518110610e4e57fe5b602002602001015161ffff1681525060076000868481518110610e6d57fe5b60209081029190910181015160ff1682528181019290925260400160002082518154939092015161ffff16600160a01b0261ffff60a01b196001600160a01b039093166001600160a01b03199094169390931791909116919091179055600101610e0c565b50505050565b6000610f3260076000610eea85611036565b60ff16815260208082019290925260409081016000208151808301909252546001600160a01b0381168252600160a01b900461ffff1691810191909152898987878b8b611d9c565b98975050505050505050565b600061076360076000610f5085611036565b60ff16815260208082019290925260409081016000208151808301909252546001600160a01b0381168252600160a01b900461ffff16918101919091528585610f9886612175565b612256565b60405162461bcd60e51b815260040161041290613648565b6001546001600160a01b031681565b6001546001600160a01b0316331461101a576040805162461bcd60e51b815260206004820152601460248201527331b0b63632b91036bab9ba1031329030b236b4b760611b604482015290519081900360640190fd5b565b6000600261102983611036565b60ff16141590505b919050565b600060018251101561105a5760405162461bcd60e51b815260040161041290613475565b506020015160001a90565b6000806000846001600160a01b0316866001600160a01b03161061108a57848661108d565b85855b90925090507379855a03426e15ad120df77efa623af87bd54ef36001600160a01b0385161415611114578382826040516020016110cb929190613310565b604051602081830303815290604052805190602001206040516020016110f2929190613332565b6040516020818303038152906040528051906020012060001c92505050610c9b565b73ae46cbbcdfba3be0f02f463ec5486ebb4e2e65ae6001600160a01b03851614156111745783828260405160200161114d929190613310565b604051602081830303815290604052805190602001206040516020016110f2929190613383565b60405163e6a4390560e01b81526001600160a01b0385169063e6a43905906111a290899089906004016133e8565b60206040518083038186803b1580156111ba57600080fd5b505afa1580156111ce573d6000803e3d6000fd5b505050506040513d601f19601f820116820180604052508101906111f29190612eb3565b92505050610c9b565b805160009063ffffffff166001600160a01b0380851690861610611223578260400151610923565b82602001519150935093915050565b61123a612ce4565b60008061124642612314565b90508486600001510163ffffffff168163ffffffff16101561126f57856000925092505061140f565b866001600160a01b031663fff6cae96040518163ffffffff1660e01b8152600401600060405180830381600087803b1580156112aa57600080fd5b505af11580156112be573d6000803e3d6000fd5b5050505060008660000151820390506000886001600160a01b0316635909c0d56040518163ffffffff1660e01b815260040160206040518083038186803b15801561130857600080fd5b505afa15801561131c573d6000803e3d6000fd5b505050506040513d601f19601f82011682018060405250810190611340919061328a565b90506000896001600160a01b0316635a3d54936040518163ffffffff1660e01b815260040160206040518083038186803b15801561137d57600080fd5b505afa158015611391573d6000803e3d6000fd5b505050506040513d601f19601f820116820180604052508101906113b5919061328a565b895190915063ffffffff16156113f2576113d5828a60600151858a612327565b60208a015260808901516113ec908290858a612327565b60408a01525b606089019190915260808801525063ffffffff1685525083905060015b94509492505050565b600080611426858588611065565b9050600080826001600160a01b0316630902f1ac6040518163ffffffff1660e01b815260040160606040518083038186803b15801561146457600080fd5b505afa158015611478573d6000803e3d6000fd5b505050506040513d601f19601f8201168201806040525081019061149c9190613244565b506001600160701b031691506001600160701b03169150826001600160a01b0316630dfe16816040518163ffffffff1660e01b815260040160206040518083038186803b1580156114ec57600080fd5b505afa158015611500573d6000803e3d6000fd5b505050506040513d601f19601f820116820180604052508101906115249190612eb3565b6001600160a01b0316876001600160a01b03161461155b57611556816115508460ff8916600a0a61239e565b906123f7565b61075d565b61075d826115508360ff8916600a0a61239e565b60008061158188888b60000151611065565b9050806001600160a01b031663fff6cae96040518163ffffffff1660e01b8152600401600060405180830381600087803b1580156115be57600080fd5b505af11580156115d2573d6000803e3d6000fd5b505050506115e287858389612456565b9550600080826001600160a01b0316630902f1ac6040518163ffffffff1660e01b815260040160606040518083038186803b15801561162057600080fd5b505afa158015611634573d6000803e3d6000fd5b505050506040513d601f19601f820116820180604052508101906116589190613244565b506001600160701b031691506001600160701b03169150886001600160a01b03168a6001600160a01b0316106117135761170e828a6001600160a01b03166370a08231866040518263ffffffff1660e01b81526004016116b891906133d4565b60206040518083038186803b1580156116d057600080fd5b505afa1580156116e4573d6000803e3d6000fd5b505050506040513d601f19601f82011682018060405250810190611708919061328a565b906124a2565b611743565b611743818a6001600160a01b03166370a08231866040518263ffffffff1660e01b81526004016116b891906133d4565b975060008a6001600160a01b03166370a08231876040518263ffffffff1660e01b815260040161177391906133d4565b60206040518083038186803b15801561178b57600080fd5b505afa15801561179f573d6000803e3d6000fd5b505050506040513d601f19601f820116820180604052508101906117c3919061328a565b90506117cf8c856124ff565b61ffff1660208d01526001600160a01b03808b16908c161015611867576117fc8983858f60200151612666565b60405163022c0d9f60e01b81529095506001600160a01b0385169063022c0d9f906118309088906000908b9060040161342a565b600060405180830381600087803b15801561184a57600080fd5b505af115801561185e573d6000803e3d6000fd5b505050506118de565b6118778984848f60200151612666565b60405163022c0d9f60e01b81529095506001600160a01b0385169063022c0d9f906118ab9060009089908b9060040161342a565b600060405180830381600087803b1580156118c557600080fd5b505af11580156118d9573d6000803e3d6000fd5b505050505b61190e818c6001600160a01b03166370a08231896040518263ffffffff1660e01b81526004016116b891906133d4565b9450878510156119305760405162461bcd60e51b815260040161041290613671565b50505050979650505050505050565b6000620f424061195e6119578262ffffff86166124a2565b859061239e565b8161196557fe5b0490505b92915050565b60008061198185858860000151611065565b9050600080826001600160a01b0316630902f1ac6040518163ffffffff1660e01b815260040160606040518083038186803b1580156119bf57600080fd5b505afa1580156119d3573d6000803e3d6000fd5b505050506040513d601f19601f820116820180604052508101906119f79190613244565b506001600160701b031691506001600160701b03169150856001600160a01b0316876001600160a01b03161015611a4757611a3d858284611a388c886124ff565b612666565b9350505050610763565b611a3d858383611a388c886124ff565b600080611a6987878a60000151611065565b9050600080826001600160a01b0316630902f1ac6040518163ffffffff1660e01b815260040160606040518083038186803b158015611aa757600080fd5b505afa158015611abb573d6000803e3d6000fd5b505050506040513d601f19601f82011682018060405250810190611adf9190613244565b506001600160701b031691506001600160701b03169150876001600160a01b0316896001600160a01b031610611b3257611b2d611b1c888861270f565b8383611b288e886124ff565b612753565b611b4b565b611b4b611b3f888861270f565b8284611b288e886124ff565b9350611b57848661270f565b9a9950505050505050505050565b6000806000806000866001600160a01b0316886001600160a01b031610905060008060008c6001600160a01b0316630902f1ac6040518163ffffffff1660e01b815260040160606040518083038186803b158015611bc257600080fd5b505afa158015611bd6573d6000803e3d6000fd5b505050506040513d601f19601f82011682018060405250810190611bfa9190613244565b92506001600160701b031692506001600160701b0316925083611c3057611c2b826115508560ff8d16600a0a61239e565b611c44565b611c44836115508460ff8d16600a0a61239e565b975083611c55578b60400151611c5b565b8b602001515b8c5190965063ffffffff908116955081168510611c7a57859650611d8c565b8b51810384611d0857611d038e6001600160a01b0316635a3d54936040518163ffffffff1660e01b815260040160206040518083038186803b158015611cbf57600080fd5b505afa158015611cd3573d6000803e3d6000fd5b505050506040513d601f19601f82011682018060405250810190611cf7919061328a565b8e60800151838d612327565b611d88565b611d888e6001600160a01b0316635909c0d56040518163ffffffff1660e01b815260040160206040518083038186803b158015611d4457600080fd5b505afa158015611d58573d6000803e3d6000fd5b505050506040513d601f19601f82011682018060405250810190611d7c919061328a565b8e60600151838d612327565b9750505b5050505095509550955095915050565b600080611dae88888b60000151611065565b9050806001600160a01b031663fff6cae96040518163ffffffff1660e01b8152600401600060405180830381600087803b158015611deb57600080fd5b505af1158015611dff573d6000803e3d6000fd5b50505050600080826001600160a01b0316630902f1ac6040518163ffffffff1660e01b815260040160606040518083038186803b158015611e3f57600080fd5b505afa158015611e53573d6000803e3d6000fd5b505050506040513d601f19601f82011682018060405250810190611e779190613244565b506001600160701b031691506001600160701b0316915060008a6001600160a01b03166370a08231336040518263ffffffff1660e01b8152600401611ebc91906133d4565b60206040518083038186803b158015611ed457600080fd5b505afa158015611ee8573d6000803e3d6000fd5b505050506040513d601f19601f82011682018060405250810190611f0c919061328a565b9050611f188c856124ff565b61ffff1660208d01526001600160a01b03808b16908c161015611ffa57611f4e611f428a8961270f565b83858f60200151612753565b9450611f5a858761270f565b945087851115611f7c5760405162461bcd60e51b815260040161041290613581565b611f888a338688612456565b506001600160a01b03841663022c0d9f611fa28b8a61270f565b6000336040518463ffffffff1660e01b8152600401611fc39392919061342a565b600060405180830381600087803b158015611fdd57600080fd5b505af1158015611ff1573d6000803e3d6000fd5b505050506120bb565b6120136120078a8961270f565b84848f60200151612753565b945061201f858761270f565b9450878511156120415760405162461bcd60e51b815260040161041290613581565b61204d8a338688612456565b506001600160a01b03841663022c0d9f60006120698c8b61270f565b336040518463ffffffff1660e01b81526004016120889392919061342a565b600060405180830381600087803b1580156120a257600080fd5b505af11580156120b6573d6000803e3d6000fd5b505050505b6040516370a0823160e01b81526000906001600160a01b038d16906370a08231906120ea9033906004016133d4565b60206040518083038186803b15801561210257600080fd5b505afa158015612116573d6000803e3d6000fd5b505050506040513d601f19601f8201168201806040525081019061213a919061328a565b905061214681836124a2565b8a11156121655760405162461bcd60e51b8152600401610412906134f2565b5050505050979650505050505050565b60606000612182836127f0565b905060008160ff16601402600501905080845110156121b35760405162461bcd60e51b81526004016104129061351f565b600560ff831667ffffffffffffffff811180156121cf57600080fd5b506040519080825280602002602001820160405280156121f9578160200160208202803683370190505b50935060005b8360ff1681101561224d57601481028201868101602001518651606082901c9088908590811061222b57fe5b6001600160a01b039092166020928302919091019091015250506001016121ff565b50505050919050565b600060015b82518110156122f357600083600183038151811061227557fe5b60200260200101519050600084838151811061228d57fe5b6020026020010151905060006001865103841490506000846001146122b257306122b4565b335b90506000826122c357306122c5565b335b90506122d78b85878d6000878761156f565b9650826122e2578699505b50506001909301925061225b915050565b50828110156107635760405162461bcd60e51b815260040161041290613671565b8063ffffffff8116811461103157600080fd5b60008061233486866124a2565b9050600160aa1b8110156123775761236f8463ffffffff1660706123678660ff16600a0a8561239e90919063ffffffff16565b901c906123f7565b915050610763565b61236f8463ffffffff166115508560ff16600a0a607085901c61239e90919063ffffffff16565b6000826123ad57506000611969565b828202828482816123ba57fe5b0414610c9b5760405162461bcd60e51b81526004018080602001828103825260218152602001806138536021913960400191505060405180910390fd5b600080821161244d576040805162461bcd60e51b815260206004820152601a60248201527f536166654d6174683a206469766973696f6e206279207a65726f000000000000604482015290519081900360640190fd5b81838161196557fe5b60006001600160a01b0384163014156124845761247d6001600160a01b038616848461281f565b9050610763565b6124996001600160a01b038616858585612a47565b95945050505050565b6000828211156124f9576040805162461bcd60e51b815260206004820152601e60248201527f536166654d6174683a207375627472616374696f6e206f766572666c6f770000604482015290519081900360640190fd5b50900390565b81516000906001600160a01b03167379855a03426e15ad120df77efa623af87bd54ef314156125a8576125a1826001600160a01b031663fef462246040518163ffffffff1660e01b815260040160206040518083038186803b15801561256457600080fd5b505afa158015612578573d6000803e3d6000fd5b505050506040513d601f19601f8201168201806040525081019061259c919061328a565b612c79565b9050611969565b82516001600160a01b031673ae46cbbcdfba3be0f02f463ec5486ebb4e2e65ae141561265b576125a161259c836001600160a01b03166354cf2aeb6040518163ffffffff1660e01b815260040160206040518083038186803b15801561260d57600080fd5b505afa158015612621573d6000803e3d6000fd5b505050506040513d601f19601f8201168201806040525081019061264591906132da565b63ffffffff16600a61239e90919063ffffffff16565b506020820151611969565b60008085116126875760405162461bcd60e51b815260040161041290613611565b6000841180156126975750600083115b6126b35760405162461bcd60e51b8152600401610412906136df565b60006126cf6126c861271061ffff86166124a2565b879061239e565b905060006126dd828661239e565b905060006126f7836126f18961271061239e565b90612c8a565b905080828161270257fe5b0498975050505050505050565b600080612724620f424062ffffff85166124a2565b9050600061273e6001611708846126f189620f424061239e565b905081818161274957fe5b0495945050505050565b60008085116127745760405162461bcd60e51b8152600401610412906136a8565b6000841180156127845750600083115b6127a05760405162461bcd60e51b8152600401610412906136df565b60006127b86127106127b2878961239e565b9061239e565b905060006127d96127cf61271061ffff87166124a2565b6127b2878a6124a2565b905061098760018284816127e957fe5b0490612c8a565b60006005825110156128145760405162461bcd60e51b8152600401610412906134aa565b506024015160001a90565b60008115610c9b576000846001600160a01b03166370a08231856040518263ffffffff1660e01b815260040180826001600160a01b0316815260200191505060206040518083038186803b15801561287657600080fd5b505afa15801561288a573d6000803e3d6000fd5b505050506040513d60208110156128a057600080fd5b5051604080516001600160a01b038781166024830152604480830188905283518084039091018152606490920183526020820180516001600160e01b031663a9059cbb60e01b1781529251825194955090891693919290918291908083835b6020831061291e5780518252601f1990920191602091820191016128ff565b6001836020036101000a0380198251168184511680821785525050505050509050019150506000604051808303816000865af19150503d8060008114612980576040519150601f19603f3d011682016040523d82523d6000602084013e612985565b606091505b5050506000856001600160a01b03166370a08231866040518263ffffffff1660e01b815260040180826001600160a01b0316815260200191505060206040518083038186803b1580156129d757600080fd5b505afa1580156129eb573d6000803e3d6000fd5b505050506040513d6020811015612a0157600080fd5b50519050818111612a3e576040805162461bcd60e51b81526020600482015260026024820152612a2360f11b604482015290519081900360640190fd5b03949350505050565b60008115610763576000856001600160a01b03166370a08231856040518263ffffffff1660e01b815260040180826001600160a01b0316815260200191505060206040518083038186803b158015612a9e57600080fd5b505afa158015612ab2573d6000803e3d6000fd5b505050506040513d6020811015612ac857600080fd5b5051604080516001600160a01b0388811660248301528781166044830152606480830188905283518084039091018152608490920183526020820180516001600160e01b03166323b872dd60e01b17815292518251949550908a1693919290918291908083835b60208310612b4e5780518252601f199092019160209182019101612b2f565b6001836020036101000a0380198251168184511680821785525050505050509050019150506000604051808303816000865af19150503d8060008114612bb0576040519150601f19603f3d011682016040523d82523d6000602084013e612bb5565b606091505b5050506000866001600160a01b03166370a08231866040518263ffffffff1660e01b815260040180826001600160a01b0316815260200191505060206040518083038186803b158015612c0757600080fd5b505afa158015612c1b573d6000803e3d6000fd5b505050506040513d6020811015612c3157600080fd5b50519050818111612c6f576040805162461bcd60e51b81526020600482015260036024820152622a232360e91b604482015290519081900360640190fd5b0395945050505050565b8061ffff8116811461103157600080fd5b600082820183811015610c9b576040805162461bcd60e51b815260206004820152601b60248201527f536166654d6174683a206164646974696f6e206f766572666c6f770000000000604482015290519081900360640190fd5b6040518060a00160405280600063ffffffff168152602001600081526020016000815260200160008152602001600081525090565b600082601f830112612d29578081fd5b81356020612d3e612d39836137e8565b6137c4565b8281528181019085830183850287018401881015612d5a578586fd5b855b85811015612d81578135612d6f81613806565b84529284019290840190600101612d5c565b5090979650505050505050565b600082601f830112612d9e578081fd5b81356020612dae612d39836137e8565b8281528181019085830183850287018401881015612dca578586fd5b855b85811015612d8157813561ffff81168114612de5578788fd5b84529284019290840190600101612dcc565b600082601f830112612e07578081fd5b813567ffffffffffffffff811115612e1b57fe5b612e2e601f8201601f19166020016137c4565b818152846020838601011115612e42578283fd5b816020850160208301379081016020019190915292915050565b80516001600160701b038116811461103157600080fd5b803562ffffff8116811461103157600080fd5b803560ff8116811461103157600080fd5b600060208284031215612ea8578081fd5b8135610c9b81613806565b600060208284031215612ec4578081fd5b8151610c9b81613806565b600080600060608486031215612ee3578182fd5b8335612eee81613806565b92506020840135612efe81613806565b9150604084013567ffffffffffffffff811115612f19578182fd5b612f2586828701612df7565b9150509250925092565b60008060008060008060c08789031215612f47578182fd5b8635612f5281613806565b95506020870135612f6281613806565b9450612f7060408801612e73565b9350612f7e60608801612e73565b92506080870135915060a087013567ffffffffffffffff811115612fa0578182fd5b612fac89828a01612df7565b9150509295509295509295565b600080600080600080600060e0888a031215612fd3578485fd5b8735612fde81613806565b96506020880135612fee81613806565b9550612ffc60408901612e73565b945061300a60608901612e73565b93506080880135925060a0880135915060c088013567ffffffffffffffff811115613033578182fd5b61303f8a828b01612df7565b91505092959891949750929550565b600080600080600060a08688031215613065578283fd5b853561307081613806565b9450602086013561308081613806565b93506040860135925060608601359150608086013567ffffffffffffffff8111156130a9578182fd5b6130b588828901612df7565b9150509295509295909350565b600080600080608085870312156130d7578182fd5b84356130e281613806565b935060208501356130f281613806565b925060408501356131028161381e565b9150606085013567ffffffffffffffff81111561311d578182fd5b61312987828801612df7565b91505092959194509250565b600080600060608486031215613149578081fd5b833567ffffffffffffffff80821115613160578283fd5b818601915086601f830112613173578283fd5b81356020613183612d39836137e8565b82815281810190858301838502870184018c101561319f578788fd5b8796505b848710156131c8576131b481612e86565b8352600196909601959183019183016131a3565b50975050870135925050808211156131de578283fd5b6131ea87838801612d19565b935060408601359150808211156131ff578283fd5b50612f2586828701612d8e565b6000806040838503121561321e578182fd5b823561322981613806565b9150602083013561323981613806565b809150509250929050565b600080600060608486031215613258578081fd5b61326184612e5c565b925061326f60208501612e5c565b9150604084015161327f8161381e565b809150509250925092565b60006020828403121561329b578081fd5b5051919050565b6000806000606084860312156132b6578081fd5b8335925060208401359150604084013567ffffffffffffffff811115612f19578182fd5b6000602082840312156132eb578081fd5b8151610c9b8161381e565b600060208284031215613307578081fd5b610c9b82612e86565b6001600160601b0319606093841b811682529190921b16601482015260280190565b6001600160f81b0319815260609290921b6001600160601b031916600183015260158201527f3b58864b0ea7cc084fc3a5dc3ca7ea2fb5cedd9aac7f9fff0c3dd9a15713f1c7603582015260550190565b6001600160f81b0319815260609290921b6001600160601b031916600183015260158201527f5d71f8561d80ed979ca73d5b742278f4719baab5f0dd78b6ca91bec31f0e2dbc603582015260550190565b6001600160a01b0391909116815260200190565b6001600160a01b0392831681529116602082015260400190565b901515815260200190565b6001600160a01b0392909216825261ffff16602082015260400190565b92835260208301919091526001600160a01b0316604082015260806060820181905260009082015260a00190565b60208082526003908201526222a7a960e91b604082015260600190565b6020808252818101527f446578446174613a20746f4465782077726f6e67206461746120666f726d6174604082015260600190565b60208082526028908201527f446578446174613a20746f41727261794c656e6774682077726f6e67206461746040820152671848199bdc9b585d60c21b606082015260800190565b6020808252601390820152721ddc9bdb99c8185b5bdd5b9d08189bdd59da1d606a1b604082015260600190565b60208082526026908201527f446578446174613a20746f556e695632506174682077726f6e67206461746120604082015265199bdc9b585d60d21b606082015260800190565b602080825260029082015261060f60f31b604082015260600190565b6020808252601690820152750e6cad8d840c2dadeeadce840dcdee840cadcdeeaced60531b604082015260600190565b6020808252601d908201527f4f6e6c79206f70656e4c65762063616e20757064617465207072696365000000604082015260600190565b6020808252600f908201526e0eadce6eae0e0dee4e8cac840c8caf608b1b604082015260600190565b60208082526019908201527f494e53554646494349454e545f494e5055545f414d4f554e5400000000000000604082015260600190565b6020808252600f908201526e139bdd081a5b5c1b195b595b9d1959608a1b604082015260600190565b60208082526018908201527f62757920616d6f756e74206c657373207468616e206d696e0000000000000000604082015260600190565b6020808252601a908201527f494e53554646494349454e545f4f55545055545f414d4f554e54000000000000604082015260600190565b602080825260169082015275494e53554646494349454e545f4c495155494449545960501b604082015260600190565b6020808252600990820152682737ba1030b236b4b760b91b604082015260600190565b90815260200190565b918252602082015260400190565b9485526020850193909352604084019190915260ff166060830152608082015260a00190565b91825260ff16602082015260400190565b92835260ff919091166020830152604082015260600190565b63ffffffff959095168552602085019390935260408401919091526060830152608082015260a00190565b60405181810167ffffffffffffffff811182821017156137e057fe5b604052919050565b600067ffffffffffffffff8211156137fc57fe5b5060209081020190565b6001600160a01b038116811461381b57600080fd5b50565b63ffffffff8116811461381b57600080fdfe6f6e6c792070656e64696e6741646d696e2063616e206163636570742061646d696e536166654d6174683a206d756c7469706c69636174696f6e206f766572666c6f77a26469706673582212200435152af10ba7decebb0da4d75459eb724145a2824b7603a9e5c66cc13a477d64736f6c63430007060033",
  "linkReferences": {},
  "deployedLinkReferences": {}
}